:020000022000DC
:1060000000000420756302005D6302005F6302000C
:106010006163020063630200656302000000000028
:1060200000000000000000000000000067630200A4
:1060300069630200000000006B6302006D630200F0
:10604000A99402006F630200759B0200A99C0200E4
:106050006F6302006F630200C998020011AF020073
:106060006F6302006F6302006F6302006F630200E0
:106070006F6302006F6302006F6302006F630200D0
:106080006F630200FD6C02006F6302006F63020029
:10609000256D02006F6302005D1F03006F63020045
:1060A0006F6302006F6302006F6302006F630200A0
:1060B0006F6302006F630200000000000000000038
:1060C0006F6302006F6302006F6302006F63020080
:1060D0006F6302006F6302006F6302006F63020070
:1060E0006F630200EDAE02006F630200000000006B
:1060F000000000006F630200000000006F630200F8
:10610000000000000000000000000000000000008F
:10611000000000000000000000000000000000007F
:10612000000000000000000000000000000000006F
:10613000000000000000000000000000000000005F
:10614000000000000000000000000000000000004F
:10615000000000000000000000000000000000003F
:10616000000000000000000000000000000000002F
:10617000000000000000000000000000000000001F
:10618000000000000000000000000000000000000F
:1061900000000000000000000000000000000000FF
:1061A00000000000000000000000000000000000EF
:1061B00000000000000000000000000000000000DF
:1061C00000000000000000000000000000000000CF
:1061D00000000000000000000000000000000000BF
:1061E00000000000000000000000000000000000AF
:1061F000000000000000000000000000000000009F
:10620000354936480A1A02D0072291438D4634494F
:1062100034480A1A06D00722914381F309880222E2
:1062200082F3148830483149314A00F044F831484B
:106230003149324A00F03FF831483249324A00F0E1
:106240003AF832483249334A00F035F83248334997
:10625000334A00F030F833483349344A00F02BF821
:1062600033483449344A00F026F83448344900228F
:1062700000F02CF833483449002200F027F8334866
:106280003349091A082902DB002202604160314AC1
:1062900090471F481F49884205D00268043003B464
:1062A000904703BCF7E700208646EC46002000211B
:1062B000294A9047FEE7884207D0521A05D0037852
:1062C00001300B700131013AF9D17047884202D098
:1062D00002700130FAE770470000042000E003205C
:1062E0000000042000000420E83103009C2E002060
:1062F00068330020D4630200D463020080230300CB
:10630000E83103009C2E00209C2E00202C2403004A
:106310002C2403002C2403002C2403002C24030031
:106320002C2403002C2403002C240300E831030058
:10633000B43603006833002068330020683300203F
:10634000DC460020DC460020DC460020DC46002045
:10635000DC6600209D63020015C20200FEE7FEE736
:10636000FEE7FEE7FEE7FEE7FEE7FEE7FEE7FEE705
:10637000704700BF1048804710484FF0070188431E
:1063800085460F4880470F48016841F4700101605D
:10639000BFF34F8FBFF36F8FFFF732BF0A480B4930
:1063A0000B4A884207D0521A05D0037801300B708F
:1063B0000131013AF9D170477163020000000420F5
:1063C000A98C020088ED00E018240300882E00202C
:0463D0009C2E0020DF
:1063D4002DE9F04784B0002401E00134E4B2394BE4
:1063E4001B78A3426BD9384B1D6805EBC40A15F81A
:1063F40034000122A0F1200CC0F1200102FA0CF3B8
:1064040022FA01F10B4382403049D1F800C04968B7
:106414000CEA020601EA030756EA070EDDD0DFF8AC
:10642400ACE02CEA020221EA0303CEF80020CEF805
:10643400043003F021FA844615F834300122A3F124
:106444002005C3F1200002FA05F522FA00F045EA1E
:1064540000019A401E48056840682A40029201EAF9
:10646400000203925FFA8CF10022CDE90012A3F13D
:106474002001C3F120024FF00009009800FA01F155
:1064840049EA010920FA02F249EA020900FA03F88A
:10649400DDE902124A4508BF41459ED19AF8011030
:1064A400012914BF00210121614514BF00210121EC
:1064B400DAF80420002A90D0184690478DE704B0FB
:1064C400BDE8F08768330020A03300209833002013
:1064D4009033002070B506460123A0F12004C0F1DA
:1064E400200203FA04F423FA02F2144303FA00F537
:1064F4001B4800F07DFC78B91A4A1368526803EA15
:10650400050002EA0401014307D0164923EA050302
:1065140022EA04040B604C6070BD304603F0ACF911
:10652400A0B1114B19685A682943224319605A6073
:106534000C4A136851682B430C43136054600022C7
:106544000A4B1968064800F035FCE5E7064B196864
:106554005A6821EA050122EA040219605A60E7E751
:106564007033002098330020903300206C330020D7
:10657400042A3CD970B582B006460D46144603F091
:106584003DF828B31B4B1E601B4B1D701B4B1C603E
:10659400002200231A49C1E900231A49C1E9002352
:1065A4006C1EE4B2D5B106EBC40300228DF80620BC
:1065B40003228DF804209B788DF80530124A01A936
:1065C40016F8340003F024F8034668B92546E7E7D3
:1065D40002F0D4FF03460028D4D005E00B4A002182
:1065E4000B4800F0D1FB0346184602B070BD0723E8
:1065F40018467047A0330020683300206C33002015
:106604009033002098330020D9640200D56302003F
:106614008424030010B50C4B1B686BB100240B4B96
:106624001B78A3420DD9084B1B68012113F83400D1
:1066340003F088F80134F2E70549BA2005F0C2FDF9
:10664400ECE7002010BD00BFA03300206833002019
:106654002C24030082B001238DF807309DF8073005
:10666400134B186059609A6044F20103984213D0A6
:1066740044F20203984207D10D4BDA60DA681288BB
:106684009A61DA685268DA6172B69DF80730002BB5
:10669400FBD162B602B07047054B1A611A69926861
:1066A4005A611A6912689A611A695268DA61EBE7E9
:1066B400A433002000B583B002900091019244F20B
:1066C400010071466A4600F003F803B000BD000003
:1066D40008B572B6044B1B6813F0010F00D000BE5E
:1066E400FFF7B8FF08BD00BFF0ED00E00B4651B165
:1066F4005AB1511E0A420AD103608180002383608B
:10670400C360184670470E2070470920704709205F
:1067140070478268C3689B1A82889A4201D2042017
:10672400704710B40368C46822409954C3680133A5
:10673400C36000205DF8044B70478268C3689A42C6
:106744000DD010B40268836884882340D35C0B7036
:1067540083680133836000205DF8044B7047052093
:1067640070470000034BC3F80805034BC02283F8AD
:10677400112370470010014000E100E010B50B4BFD
:106784004FF48032C3F84423C3F80423084A4FF477
:106794000031C2F88011116001241C604FF43C6088
:1067A400044B23439847044B1C7010BD0010014058
:1067B40000E100E090240300D134002070B50E4BBA
:1067C4004FF40032C3F880200C4D4FF48033C5F8E9
:1067D4004833C5F8083301266E60094C34434FF43E
:1067E4003C60A047AE600025064B1D604FF43C6042
:1067F400A047054B1D7070BD00E100E00010014092
:1068040090240300E0340020D134002010B4114B54
:106814001C685CB1026823689A4218D89A1A2260EC
:10682400C4610C4B18605DF8044B70471860FAE7BC
:10683400521A1C46DB6913B119689142F8D313B19B
:106844001968891A19600260C361E061EBE72346A5
:10685400F1E700BFE434002070B5184B1E683446DD
:10686400354624B1844202D02546E469F9E714B3DD
:10687400A5420CD02168E369EB6113B11A680A449C
:106884001A600E4B1868801B18BF012070BDF36995
:106894000A4A1360002BEDD10123094A9360094A87
:1068A40000211160084A13704FF43C60074B43F019
:1068B40001039847DEE70020E8E700BFE434002046
:1068C40000100140E0340020D03400209024030064
:1068D400024B4FF40032C3F80021704700E100E09E
:1068E400024B4FF48012C3F80021704700E100E02E
:1068F40008B543698069984708BD00001B4B1868B8
:10690400002832D070B51A4BD3F80445194B1B68D4
:10691400E41A24F07F44002504E000230374FFF705
:10692400E7FF304648B10368A34206D8E41A1D4481
:10693400C669037C002BF4D0EFE70F4B1A780F4B9A
:106944001B789A4207D00D4B1A780D4B43F822500E
:10695400FFF7C6FF70BD0133DBB2084A1370022B88
:10696400F1D1134600221A70EDE77047E434002099
:1069740000100140E0340020DC340020DD3400202D
:10698400D4340020104B1B78104A1278934217D04D
:106994000133DBB20C4A1370022B0DD00A4B1A7868
:1069A4000B4B53F8223003600A4A11680B4423F05E
:1069B4007F43136001207047134600221A70EDE7ED
:1069C4000023036018467047DC340020DD340020C7
:1069D400D4340020E034002070B400250E4B1B6832
:1069E400BBB11C68844212D8001B254400241C60DF
:1069F400DE69094C2660DC68002CEFD06E1826F0A6
:106A04007F465E609C601468DC611360E6E7241ACC
:106A14001C6070BC704700BFE4340020F8B5054624
:106A2400414B1F68002659E0404A11784B1CDBB2E9
:106A340013709278934228D04A000A44D0003B4B0A
:106A440003449C681B79022B23D0032B30D0012BE9
:106A540044D1237C002B41D1DFF8D0C04A00501828
:106A6400C3006344D86860601869A0605B69E36030
:106A74001144CB009C44DCF81830A3612C4B1B78E8
:106A8400002B30D0002363602DE0284B00221A70C5
:106A9400D2E72046FFF7E0FE034600B93346002262
:106AA40022741E461AE000221A74DA691E4B1A6018
:106AB4001D4B1B68002BF6D110E0521A22F07F42C6
:106AC400A36893421CD99A1A226000236360A360CE
:106AD40001222274E3612046FFF798FE9DB1002D48
:106AE400A2D02C46ED696168124B1A688B1A23F008
:106AF4007F4311488342E0D8A26813442360E4E74B
:106B040000232360E1E7094B1A785B789A42E6D1C7
:106B14002EB9054B1B68BB4203D0012000E00120C5
:106B2400F8BD0020FCE700BFE4340020C43300209B
:106B3400D0340020E0340020FEFF7F00F8B51C4B69
:106B44001B688BB31F681B4BD3F804551A4B1C6886
:106B54002E1B26F07F460336184B1B780BB3B74227
:106B64002CBFE419A41924F07F44124BC3F8404508
:106B7400D3F804355B1B23F07F430333641B24F0F9
:106B84007F44A3420CD90B4BD3F80425C3F840250A
:106B94004FF43C600A4B43F001039847FFF798FE1B
:106BA400F8BDFFF7EBFDDAE7FFF708FEF8E700BFF3
:106BB400E434002000100140E0340020D1340020EF
:106BC4009024030070B582B0002301930D4B1E681E
:106BD4000D4B1D686846FFF7D5FE044660B9019861
:106BE400FFF71CFF00B914B12846FFF7A7FF074BB6
:106BF40000221A7002B070BD01AA31460098FFF756
:106C0400EBFEECE7E0340020E4340020D034002034
:106C1400014B5870704700BFC43300200B4A5378AF
:106C24000133DBB292789A420CD0084A12789A4225
:106C34000AD003700548437803EB4303DA00104499
:106C4400043070470023F0E700207047C43300206D
:106C5400F0B583B007460E4615461C4600238DF852
:106C640006300DF1060000F067FA0DF10700FFF79A
:106C7400D5FFB0B10122027047600C4AD2F8042556
:106C84008260C660056144619DF80700FFF7C0FF9C
:106C940000249DF8060000F083FA24B1204603B0D6
:106CA400F0BD0424F5E7FFF71BFEF7E700100140F1
:106CB40030B583B004460D4600238DF806300DF13F
:106CC400060000F039FA0DF10700FFF7A7FF70B1D5
:106CD400057044609DF80700FFF79AFF00249DF8B3
:106CE400060000F05DFA24B1204603B030BD042450
:106CF400F5E7FFF7F5FDF7E708B5084B0022C3F801
:106D04004021C3F84421C3F84821C3F84C21C3F8F7
:106D14000021C3F80421FFF7F1FD08BD0010014074
:106D240008B5FFF74FFF08BD10B5FFF747FD0F4B40
:106D340000241C705C700B229A700D4B1C600D4B70
:106D44001C700D4B1C700D4B4FF48012C3F8802146
:106D5400C02183F814131A602046FFF703FD084B83
:106D6400D3F80425074B1A60204610BDC433002015
:106D7400E4340020DC340020DD34002000E100E0B5
:106D840000100140E0340020094B9B7843B14AB124
:106D940050B10368187C48B9187459745A61704723
:106DA4000820704707207047072070470820704765
:106DB400C43300200D4B9B7883B188B1042911D9C9
:106DC40043698BB110B5437C012B05D000241346D5
:106DD4002246FFF73DFF10BD0C46F8E70820704738
:106DE400082070470720704708207047C4330020EC
:106DF40008B5094B9B7843B148B143694BB10023B3
:106E040003740221FFF754FF08BD0820FCE70820A3
:106E1400FAE70820F8E700BFC433002000B583B0C8
:106E24000378012B07D05AB2002A55D0022B39D04F
:106E340003B05DF804FB436819783648FFF769FC32
:106E440090B101228DF800200190334B1B686846F5
:106E54009847304A9168D3685B1A92889A4210D254
:106E64002E4B01221A70E3E72A4B9A68DB689A4298
:106E7400EFD000238DF80030274B1B6868469847F5
:106E8400E7E7274B1B78274AD35C2BB1012226491D
:106E9400264803F027FDCBE701222349244803F0C9
:106EA400EBF9C5E702238DF80030C36801931C4B4E
:106EB4001B781C4AD35C4BB101221B491B4803F0CD
:106EC40011FD154B1B6868469847B1E70122164926
:106ED400174803F0D1F9F4E716491748FFF72DFCDA
:106EE40038B103238DF800300B4B1B686846984774
:106EF4009EE70B4B1B780B4AD35C2BB101220D4947
:106F04000A4803F079FC93E701220A49084803F090
:106F14004BF98DE7EC340020E8340020FC340020E9
:106F24009C2E00203037002010350020A02E002099
:106F3400A82E00201435002000350020F0B589B0BB
:106F44002E4C2260002957D00C461F4605468A88DD
:106F540009682B48FFF7CAFB024610B1104609B076
:106F6400F0BDA289A1682748FFF7C0FB02460028AC
:106F7400F4D16C46244E0FCE0FC496E80F0084E87B
:106F84000F006B6906932B7C003318BF01238DF827
:106F940014308DF81C706B7C2BB30E238DF81530D8
:106FA400EB680293AB6803932B6801936B680093BF
:106FB400164A6946164802F0D3F902460028CDD194
:106FC400144B002119702B68B3F1FF3FC6D0104B4E
:106FD4001B78114AD35C43B101221049104803F0D5
:106FE40081FC0246BAE70023D8E701220B490D4889
:106FF40003F042F90246B1E70722AFE7E834002084
:10700400EC3400200035002098240300216E020097
:107014009C2E0020FC340020303700201035002046
:10702400A02E0020A82E002038B5044648B1144BE9
:107034001D7821461348FFF780FB044635B92046E6
:1070440038BD1149C22005F0BDF8F0E70C4B002211
:107054001A700E4B1B780E4AD35C5BB101220D49AA
:107064000D4803F03FFC0028E9D0074ACE21FFF782
:1070740021FBE4E701220749084803F0FDF8F2E7A1
:10708400FC340020EC340020B82403009C2E0020A3
:107094003037002010350020A02E0020A82E00201C
:1070A40010B501461648FFF734FB044608B12046E4
:1070B40010BD144B1B78144AD35CB3B1134803F0CE
:1070C4008DFB0028F3D112490D48FFF736FB002849
:1070D400EDD10C4B1B780C4AD35C53B101220C4903
:1070E4000A4803F089FB0446E1E70A4803F050F834
:1070F400E7E701220649074803F056F80446D6E7B5
:10710400003500209C2E002030370020A02E0020C7
:1071140014350020A82E0020EFF30583C3F30803E1
:107124003BB9EFF3148313F0010F0CBF01200020CF
:10713400704701207047000038B50446FFF7ECFFA4
:1071440001281CD1EFF3108272B6114B9B68DBB996
:107154000F4901238B600F4BD3F880000E4D28405C
:107164000860C3F88050D3F8840048604FF0FF31C2
:10717400C3F884100023237002B962B638BD0749EE
:10718400432005F01FF8DDE701232370F4E700BF77
:107194001835002000E100E0FC06FFBD10250300C7
:1071A40010B50446FFF7B8FF012811D10B4B9B68BB
:1071B4006BB164B9EFF3108172B6084B1868084AD2
:1071C40010605868506000229A6001B962B610BD20
:1071D4000449512004F0F6FFE8E700BF1835002009
:1071E40000E100E01025030038B50546002400E066
:1071F4000134032C07D8044B53F82430002BF7D068
:1072040028469847F4E738BD303500200378013B21
:10721400052B34D8DFE803F00306112029310023BD
:107224000B70704701230B7003898B818388CB819A
:10723400C3688B6000230B74704702230B700389AF
:107244008B818388CB81C3688B60837D062B14BFBD
:10725400002301230B74704703230B70C3888B81B5
:107264000389CB81C3688B60704704230B70C38888
:107274008B810023CB818B60704705230B70704793
:10728400884207D20368B3F1FF3F01D00120704761
:1072940000207047002070474388033300EB8300CD
:1072A400704738B504460D46FFF7F6FF854208D30C
:1072B400A2884FF6FF739A4205D023882BB1002091
:1072C40038BD0220FCE70120FAE70120F8E70000BE
:1072D40060B10A4AD26882420AD8084A12698242D4
:1072E40008D310F0030F07D1012070470020704726
:1072F400002070470020704700207047882E00202F
:1073040060B10168094A91420AD14368084A93422C
:1073140008D00132934207D00320704703207047FE
:10732400032070470020704701207047DEC0ADDEA7
:10733400FE011EF10023B3F5806F06D250F823201E
:10734400B2F1FF3F03D10133F5E70120704700207C
:107354007047000030B40A4C82001518AB001D467B
:1073640023441B8919442C44608910FA81F188B2A2
:10737400B0F5806F2CBF0020012030BC704700BFE7
:10738400643500200023012B18D810B403E0013326
:107394009BB2012B0ED803EB83029400084A2244CB
:1073A40052688A42F3D202F580528A42EFD90380AE
:1073B400002000E00A205DF8044B70470A20704763
:1073C40064350020F8B50D46174600F5805600F1E7
:1073D400080402230B800DE00FB101223A70022B46
:1073E4001CD063882A88134403332B802046FFF77C
:1073F40053FF044631462046FFF742FF88B1314629
:107404002046FFF74EFF03460028E5D1A368054A4E
:1074140012689342E5D9034A1360E2E74FF48063AC
:107424002B80F8BD5C3500208B7D022B04D9CB88E2
:107434000289134403330381CA8843899B1A033B9B
:1074440043817047F8B5033085B240F2FD339D4265
:1074540020D80E46002401E00134A4B2012C17D830
:1074640004EB840293000C4AD35C002BF4D129462C
:107474002046FFF76FFF0028EED034800649A300B2
:10748400181982000A4453891D445581002000E0E4
:107494000720F8BD0920FCE76435002030B4054C12
:1074A4008B005D18AA0022445389181A03385081AE
:1074B40030BC704764350020F8B50F4600EB8000FF
:1074C4008200134B13445C6804F580550868A8B126
:1074D400FFF7E2FE044629462046FFF7D1FE0646A2
:1074E40050B129462046FFF7DCFE01280AD043B2FA
:1074F40033B10228EFD100263046F8BD0834EAE75C
:107504003C60F9E72046FFF7C7FE0446E3E700BF07
:107514006435002070B582B005460C464068FFF71C
:10752400D7FE20B12A89174B1B899A4218D0002311
:1075340023802388012B23D80023019301A92088C9
:10754400FFF7BAFF0646B8B1019B99682A689142D1
:10755400F4D16B600B4B1B892B81304602B070BD9C
:107564002A6869688B689A42E1D12046FFF70AFFCE
:10757400B0FA80F67609F0E7238801332380D8E750
:107584000026EAE748350020F8B51E4E3678002E6E
:1075940033D0002A33D01C4616460F46054633B96D
:1075A400052027E000232360A3880133A380A38858
:1075B400012B20D803EB83039A00134B9B5C002B15
:1075C400F2D12146A088FFF777FF0028EAD023688C
:1075D4001DB199882A889142F3D11FB119883A883C
:1075E4009142EED19B68336023687360074B1B891B
:1075F40033810020F8BD0A20FCE70220FAE70520C9
:10760400F8E700BF403500206435002048350020ED
:107614002DE9F0470024A1464FF0030826462746EB
:107624002DE0434A156002219180814650E008F123
:10763400FF381FFA88F83F49B300981982001046B2
:107644000A44556003230B540136B6B215E0394998
:10765400B3009819820088184FF0000C01F802C09A
:1076640045601046103208300A4401442846FFF7AA
:10767400A9FE47F002070136B6B20134A4B2022CC7
:107684004ED82D4BDD6805EB04352846FFF738FE50
:10769400012820D043B2002BD9D00328EDD12846AD
:1076A400FFF748FE0028C2D0214A1268002AB8D049
:1076B400204BB2009019810003EB010C02205854B6
:1076C400CCF80450ACF808001C4B5E800136B6B20E
:1076D40047F00107D1E7B9F1000F0FD0154BB20005
:1076E4009019810003EB010C0220585410490968D9
:1076F400CCF80410ACF808000136B6B2DFF830A0BC
:10770400514641F8045B00222846FFF75BFEBAF8B5
:107714000430022B02D008231F43AEE70423FBE707
:10772400B8F1010F02D9F8B2BDE8F0870027FAE7F3
:107734002C36002064350020882E00204835002097
:107744000B4A1389013313810023538013730CE014
:1077540003EB83018A0007498A5CB2FA82F2520978
:10776400034919448A7201339BB2012BF0D9704743
:1077740048350020643500200023012B27D8164A01
:107784001A44927A32BB01339BB2F6E701339BB2BF
:10779400012B17D8104A1A44927A002AF6D00E4ABE
:1077A4001A440024947203EB830294000B4A22448B
:1077B400D268002AEAD1094A2244127C002AE5D080
:1077C400038000E0002210465DF8044B704700225D
:1077D4001046704710B4E2E74835002064350020B5
:1077E400044B5B685B880333034A918811FA83F383
:1077F40093807047483500202C36002070B40A4925
:107804000E680A4B5C880A48A3001D19AA000244AA
:1078140055680D6056608D8823449A001044058194
:1078240002238B8070BC70472C3600204835002022
:107834006435002008B5124B1B78072B0AD8DFE803
:1078440003F00409090A1016161AFFF779FF0C4B06
:1078540001221A7008BDFFF7C3FF094B02221A70F8
:10786400F8E7FFF7CBFF064B06221A70F2E7044B4A
:1078740007221A70EEE7024B01221A70EAE700BFF2
:107884004835002040F6F8731868B0F1FF3F07D080
:107894004FF080531A695B69B0F1FF3F03D0704722
:1078A400024B1868F4E703FB02F0F8E71410001029
:1078B40008B5FFF7E7FF034B1861A0F54050D86007
:1078C40008BD00BF882E002008B50146014800F01D
:1078D400E7FD08BD1836002008B5064B05221A70CE
:1078E400054902238B80002301220968034800F024
:1078F40001FF08BD483500202C360020882E0020CA
:1079040008B50D4B5B8803EB830291000B4A0A44D4
:10791400D26872B9084A0421117003EB83039A00F8
:1079240006491144002301224968054800F0E2FE9B
:1079340008BDFFF7D1FFFBE7483500206435002080
:10794400882E002000B583B0002300930823044A46
:1079540004490968044800F091FE03B05DF804FB93
:10796400782503002C360020882E002008B5044B0F
:1079740007221A7000225A60FFF7E4FF08BD00BF17
:107984004835002000B583B0002300930823044A3F
:107994000146044800F072FE03B05DF804FB00BF2A
:1079A40070250300882E0020F8B530B90B79032B1D
:1079B4005BD8DFE803F0071A343F2E4B00225A60ED
:1079C400012005E001230B71FFF7BCFF00284CD117
:1079D400F8BD0A469B001C18A100002454540A4414
:1079E4005068FFF7CFFF01230FE00023012B0AD8D3
:1079F400184603EB83018A001F498A5C022AE8D0F7
:107A040001339BB2F2E700230F20002BDED1194B88
:107A140001221A7000225A6041F61D50D8E7002353
:107A24000B71164902228A8001220968144800F069
:107A340061FECBE700250D71104C2068FFF7A2FF13
:107A4400104B5988D4F800C00B4E8A005718BB005D
:107A540033445F682760C3F804C0A7881F810223EA
:107A6400A38053189A00B554B0E7024B00225A6021
:107A74000E20ADE740350020643500202C36002070
:107A8400882E00204835002008B5064B06221A70BF
:107A94005B8803EB83039A00034B13445868FFF796
:107AA40071FF08BD483500206435002000B583B05F
:107AB40002238375002300930423C218054800F0B1
:107AC400DDFD034618B9184603B05DF804FB0E2328
:107AD400F9E700BF882E002000B583B0036983B1A5
:107AE4000323837500230093042300F10C0208315F
:107AF400064800F0C3FD034628B9184603B05DF8F4
:107B040004FB0123EDE70E23F7E700BF882E0020D6
:107B140000B583B001238375C388002200929B00C3
:107B240002690C31054800F0A9FD034618B918464E
:107B340003B05DF804FB0E23F9E700BF882E002094
:107B440000B583B00378032B10D00623837500237C
:107B54000093042300F108021944064800F08EFD46
:107B6400034628B9184603B05DF804FB0523EDE786
:107B74000E23F7E7882E002010B582B00C460023B0
:107B840000930423094A0146094800F077FD50B9DF
:107B9400014604EB8404A200064B134401221A7428
:107BA400084602B010BD0E21FAE700BF6C250300A1
:107BB400882E00206435002070B50C468B8A03EBB8
:107BC40083018A002A4D154498B929489A00D61889
:107BD400B1000E46014449683044068901EB86062B
:107BE400A37D062B0BD8DFE803F0152D21270C33DA
:107BF4003D0021462846FFF717FC012614E00F2616
:107C04000EE01C4800234360A36903601A49FFF790
:107C140081FC50B331462046FFF748FF06461EB1AB
:107C240021462846FFF700FC304670BD3146204609
:107C3400FFF752FF0646F2E731462046FFF768FF9A
:107C44000646ECE731462046FFF77AFF0646E6E7AC
:107C54000623A375084B1988064B5868FFF78CFF59
:107C64000646DCE741F61D56DAE70A26DCE700BFE4
:107C740064350020243500203836002010B584B047
:107C84000446002301930293C36800930DF10E018F
:107C94006846FFF73FFC10B90A2004B010BD0198F4
:107CA4008388E38003882381BDF80E10FFF764FF07
:107CB400F3E7000030B583B009484268094B1968FE
:107CC4009C88538803339BB20325057000200090E1
:107CD4009B0001EB8401044800F0D0FC03B030BDEC
:107CE400483500202C360020882E002008B5064B8D
:107CF400191D5888FFF7E0FB10B1FFF7DBFF08BD43
:107D0400FFF7FEFDFBE700BF4835002008B5074834
:107D1400FFF732FD10B1FFF7E9FF08BD044B002265
:107D24001A705A805A6041F61D50F6E74A35002011
:107D34004835002030BB08B5144B1B7B6BB1134B8B
:107D440000221A73114B1B78013B062B1CD8DFE869
:107D540003F0070A0D101B131600FFF76BFDF1E784
:107D6400FFF7D4FF08BDFFF7C1FFFBE7FFF7A2FF52
:107D7400F8E7FFF7C5FDF5E7FFF786FEF2E7FFF743
:107D8400F5FDEFE7012070470F20EBE748350020B1
:107D940010B584B00B4B01AA00210630FFF7F4FBA9
:107DA40040B9084B99880298FFF7E6FE044620463E
:107DB40004B010BD04460822002102480AF07BFAF0
:107DC400F5E700BF3C360020B0B908B508460B798A
:107DD400012B0AD05AB21AB1022B0FD00F2008BDC2
:107DE40002230B71FFF74AFFF9E7FFF7D1FF0A28D7
:107DF400F5D141F61D50F2E70120704741F61D50C0
:107E0400EDE7000008B50146014800F055FB08BD48
:107E14001836002008B5084B1B683BB10121064801
:107E240000F0F4FB003018BF012008BD034940F204
:107E34007A2004F0C7F9F1E72836002080250300F2
:107E440010B586B004462BE02D48FFF73DFD2D4BC1
:107E5400186029E02C4940F2825004F0B3F927E07D
:107E64002046FFF7A1FD002848D000230193039387
:107E74000493059341F61D5398423DD00290214C42
:107E840001A92068FFF7C2F901A8FFF7ADF90023A3
:107E940023601B48FFF7B6FFFFF7BCFF70B3002455
:107EA400184B1B68002BCFD0164B1B68002BD1D06E
:107EB400144B19680B78013B052B1BD801A252F80F
:107EC40023F000BF657E0200E17E0200E17E020035
:107ED400E97E0200E97E0200F17E02002046FFF7FF
:107EE4006BFEC0E72046FFF76FFFBCE72046FFF7B5
:107EF40021FFB8E70F20B8E70020BFE706B010BDA8
:107F040058350020603500208025030008B54068FE
:107F1400FFF796FF08BD000008B50121014800F0F5
:107F24006AFB08BD5C35002008B5FFF7C1FC0022E0
:107F34000249034800F096FB08BD00BFD8250300A2
:107F4400882E002008B51C238C220249024800F028
:107F540072FA08BD8C3500201836002010B5014691
:107F6400044800F086FA04461C2200210AF0A3F912
:107F7400204610BD1836002008B50146014800F01F
:107F840084FA08BD1836002008B50121034800F022
:107F940027FB00B108BDFFF753FFFBE7283600209D
:107FA4002DE9F04383B0364C2478002C5ED00029B0
:107FB4005ED00D884FF6FF74A5425BD04C88002C30
:107FC4005AD04D6815F0030558D11F468846064619
:107FD400002A34D01388ADF80630B2F8029068460F
:107FE400FFF7BCFF0446002834D0077000238375D4
:107FF400BDF806308382D8F804300361FFF78CFFA4
:10800400E060B8F800302381B8F80230A380A4F807
:108014000690032F25D0002363816846FFF7ACFF49
:108024003EB100237360E2683260B372154B1B8962
:108034003381FFF7A9FF284603B0BDE8F083B1F808
:1080440008900DF106014846FFF7FCF90028C6D058
:108054000546F0E7BDF806104846FFF71FFA082565
:10806400E9E70423A3753368A361D4E70225E2E7B3
:108074000525E0E70425DEE70425DCE70325DAE748
:10808400403500204835002008B5084B1B68042BF8
:108094000AD0034605480168054A42F82130012107
:1080A40000F0A9FA002008BD0C20FCE734360020BB
:1080B4003035002030B587B0002301930293039339
:1080C40004930593274B1B782BB9274800F0A9FA92
:1080D40040B1002403E001A8FFF786F800242046FD
:1080E40007B030BDFFF720FF04460028F7D1FFF7A3
:1080F40029FFFFF78DFA054602282DD0062811D056
:1081040060B36846FFF72AFF50B301220270013DB5
:108114000A2D12D8DFE805F00F110F111D111D11E2
:10812400171A17000F4B01221A7000225A6001A877
:10813400FFF75AF8D3E7002202716846FFF71CFFE5
:10814400FFF722FFCBE703220271F6E70222027156
:10815400F3E701220271F0E70B24C0E70B24BEE72A
:108164000824BCE7403500204435002008B370B52E
:1081740082B00446F9B10D460DF10601FFF7CAF9C4
:1081840010B90A2002B070BD6668BDF8063003EB72
:10819400830398000830094B18440121043000F08F
:1081A4002AFA2E6063680C336B600123A3720020EB
:1081B400E8E7052070470520E4E700BF64350020A8
:1081C400F8B130B583B004460DF10601FFF7A2F90A
:1081D400C8B1BDF8063003EB830291000D4A0A448E
:1081E400D2689AB1A27A9AB10A499A00D518A8001D
:1081F40005460844C06801382944C8600020A072BC
:1082040002E0052070470A2003B030BD0620FBE7DA
:108214000620F9E76435002008B502230022FFF7A1
:10822400BFFE08BD28B108B503230022FFF7B8FE3E
:1082340008BD052070470000104B1B78BBB14FF6FA
:10824400FF73984215D010B582B0044601A8FFF719
:1082540085FE80B10522027001220271C48001A84A
:10826400FFF78AFEFFF790FE002002B010BD022047
:108274007047042070470820F7E700BF403500200E
:108284000E4B1B78B3B100B583B001A8FFF766FEAF
:1082940090B10622027001A8FFF76EFE084B1B780E
:1082A40013B1074B01221A73FFF76EFE002003B0CF
:1082B4005DF804FB022070470820F8E740350020F1
:1082C4004835002000B583B0ADF80600ADF80410C1
:1082D40001A90DF10600FFF757F903B05DF804FB9F
:1082E40000B583B0ADF8060013460A460DF1060149
:1082F4000020FFF749F903B05DF804FB00B583B033
:10830400ADF8060013460A4600210DF10600FFF7FA
:108314003BF903B05DF804FB20B129B103680B609D
:1083240000207047052070470520704710B483B0C3
:1083340050E8013F9CB2B0F80EC06444B0F80CC0E1
:10834400644528BFA4EB0C04B0F808C0644502BF20
:10835400BFF32F8F002208E0C4EA030440E8014C75
:10836400BCF1000FE4D14FF001028DF80720009317
:10837400009B0B609DF8070003B05DF8044B704749
:1083840050E8012FC2EA024240E80123002BF7D152
:10839400704710B483B050E8023F1FFAA3F4B0F85A
:1083A40006C0644502BFBFF32F8F002211E0B0F86E
:1083B4000EC06444B0F80CC0644528BFA4EB0C04A0
:1083C400C3EA044440E8024CBCF1000FE3D14FF08F
:1083D40001028DF807200093009B0B609DF80700B5
:1083E40003B05DF8044B704750E8022FC2EA224202
:1083F40040E80223002BF7D1704782B050E8022FE7
:10840400C188B2EB324F4FF0000317BF92B241EA7A
:10841400014142EA014104E04268B2EB324F08BF35
:10842400012340E80212002AE8D18DF807309DF8B4
:10843400070002B0704781B110B40C46B2FBF3F1EF
:1084440003FB112189B251B90460416081608281CA
:10845400C38108465DF8044B70470E20704709201D
:10846400F8E708B5FFF7C9FF08B1002008BD1120DF
:10847400FCE738B505460C46FFF758FF18B12868E5
:108484002388184438BD0020FCE708B50A884B88C7
:108494009A4201D0002008BDFFF772FF0120FAE7DD
:1084A40038B505460C46FFF774FF18B12868638891
:1084B400184438BD0020FCE708B50A884B889A4266
:1084C40001D0002008BDFFF78FFF0120FAE708B5AF
:1084D4004B0901F01F01012202FA01F100EB8300B4
:1084E40000F068F808BD10B54B0901F01F04012124
:1084F400A14000EB830000F052F8E04000F00100DE
:1085040010BD08B54A0901F01F01012303FA01F166
:10851400C94300EB820000F058F808BD4B0950F83D
:10852400230001F01F01C84000F0010070472DE94D
:10853400F04106460F46002516E0D8F80010C9435E
:1085440091FAA1F1B1FA81F11F290CD801EB45147C
:10855400A74208D921463046FFF7C5FF0028ECD1D1
:108564002046BDE8F08101357B1E5B090133AB4237
:1085740009D906EB850856F82510C94391FAA1F1EB
:10858400B1FA81F1E0E73C46EAE750E8002F0B46F8
:1085940040E8003C9CF0000FF7D11046704750E8CB
:1085A400002F42EA010340E8003C9CF0000FF6D1A2
:1085B4001046704750E8003F43EA010240E8002CAF
:1085C4009CF0000FF6D11046704750E8003F03EAD4
:1085D400010240E8002C9CF0000FF6D110467047D1
:1085E40050E8002F02EB010340E8003C9CF0000F30
:1085F400F6D11046704750E8003F03EB010240E813
:10860400002C9CF0000FF6D11046704750E8003F54
:10861400A3EB010240E8002C9CF0000FF6D11046B9
:10862400704708B50121FFF7BAFF08BDC3688B4244
:1086340006D8114401390369994203D900207047CF
:10864400002070470120704710F0030F0CBF012079
:108654000020704743681B68013B0B420CBF01209C
:108664000020704730B108B531B101600B68114684
:10867400984708BD0E2070470E20FAE750B32DE945
:10868400F04182B006463AB307683FB343B340684B
:108694004568B3FBF5F005FB103018BB1D461446C6
:1086A40088460846FFF7D0FFF0B12046FFF7CCFF1D
:1086B400E0B12A4641463046FFF7B8FFC0B1FF6833
:1086C400089B00932B46224641463046B84702B0E9
:1086D400BDE8F0810E2070470E20F8E70820F6E789
:1086E4000920F4E70920F2E71020F0E71020EEE774
:1086F4001020ECE7E0B12DE9F04104460768CFB162
:10870400D2B1984616460D46FFF7A4FFB0B1636890
:108714001A6806FB02F229462046FFF787FF78B164
:108724003F694346324629462046B847BDE8F081B2
:108734000E2070470820F9E70920F7E71020F5E735
:108744001020F3E729DF704728DF704703689B6830
:108754003BB300B587B000230093029303930493C3
:10876400019183680593037943B1012B10D0036809
:108774009B686846984707B05DF804FB01238DF8B1
:10878400003003690293C368039343690493EEE7DB
:1087940002238DF80030C3681B03029343690493DA
:1087A400E5E7704710B542698369D21AB2F5805F74
:1087B40028BF4FF4805292080469C168012A38BF67
:1087C400012219441819FFF7BDFF10BD08B5C2688E
:1087D40000691044FFF7B8FF08BD0000114B0022E8
:1087E400DA6003791BB1012B0FD010467047426940
:1087F4008369D11AB1F5805F94BF5B1803F5805388
:1088040083619A4209D000207047036901330361F0
:108814004269934203D00020704701207047012031
:10882400704700BFE0360020064AD3680133D360A6
:10883400082B01D80020704713460022DA6001207B
:10884400704700BFE036002008467047002070479C
:10885400024B187A003018BF01207047E036002020
:10886400034B01225A74187AB0FA80F04009704719
:10887400E036002008B502490248FFF71DFE08BD96
:10888400F4360020D036002008B505490548FFF726
:1088940007FE054B1860003018BF012008BD00BF5B
:1088A400F4360020D0360020F836002008B51A4BE4
:1088B4001B7AA3B1184B02221A72184B1868037959
:1088C400ABB1012B1CD00321144B1868FFF73EFFFA
:1088D400114B00221A725A60FFF7CCFF08BDFFF754
:1088E400D3FF0028E6D10C4B00225A60F6E7FFF7CD
:1088F40059FF40B11128E6D1074B01221A72EDE766
:10890400FFF764FFF5E7044B1B7C002BE6D1002145
:10891400022000F005F8E1E7E0360020F8360020F8
:10892400831E012B2DD8174B1B7A53B310B5044665
:10893400022B03D1022807D0032818D0114B5B7CEB
:10894400E3B9FFF7B3FF10BD0F4B1868FFF746FFFD
:108954000028F3D00B4B00221A720B4B1868022C20
:108964000AD00D21FFF7F2FEFFF784FFE6E7064B7E
:108974001868FFF759FFEBE71146F3E709F0BEFA71
:10898400E1E77047E0360020F8360020012802D0E5
:10899400032800D0704708B5054B00225A740128FB
:1089A40014BF002001201874FFF780FF08BD00BF2A
:1089B400E036002008B50548FFF733FE10B9044B34
:1089C4005B7C03B108BDFFF771FFFBE7E4360020D1
:1089D400E03600202DE9F04182B080460D4616466F
:1089E4001F4601A90E48FFF744FDB0B104461C22FE
:1089F400002109F060FC01232371C4F80080A76002
:108A04002D0BE560666101A90548FFF73EFDFFF700
:108A1400D1FF002002B0BDE8F0810420FAE700BFD6
:108A2400D03600202DE9F04383B0814688461746AE
:108A34001E4601A90F48FFF71CFDC0B104461C22C5
:108A4400002109F038FC00252571C4F800900A9B28
:108A5400A360C4F81080E760666101A90548FFF7C8
:108A640014FDFFF7A7FF284603B0BDE8F0830420F8
:108A7400FAE700BFD036002008B510461A4609F0C0
:108A8400F1FB002008BD000008B5142200210448B1
:108A940009F011FC0348FFF7E4FC002008BD00BF07
:108AA400E0360020D036002008B5094B4360094861
:108AB400FFF7B7FD08B1002008BD09F033FA054BF4
:108AC40018741C238C2204490448FFF7B4FCF2E711
:108AD400CC250300E036002044360020D0360020A8
:108AE40041DF704710B50024054B1C70054B1C601A
:108AF400BFF35F8F0449054800F044F8204610BDD9
:108B04000437002008370020F8250300FC36002035
:108B140010B582B000238DF807300DF10700FEF781
:108B24000BFBF1EE104A24F09F03E1EE103ABFF381
:108B34005F8F124B4022C3F884219DF80700FEF793
:108B44002FFB14F0070F07D109F0ECF948B920BF47
:108B540040BF20BF02B010BD09497D2003F032FBA5
:108B6400F2E7FFF7BDFF0028F4D00228F2D0044951
:108B74004FF4B07003F026FBECE700BF00E100E027
:108B84000426030038B50C46054638B15CB12C60A8
:108B940023686B60626893420AD038BD064950204E
:108BA40003F010FBF2E70449512003F00BFBEEE75E
:108BB40000236B60F1E700BF6026030010B5044694
:108BC40058B1236873B1636833B1226891680B4468
:108BD4006360526893420AD010BD0649632003F0D3
:108BE400F1FAEEE70349642003F0ECFAEBE7002323
:108BF4006360F1E76026030001207047012070479D
:108C0400064B1B68082B01D000207047044B1B68DF
:108C14000BB1002070470120704700BF30010010E5
:108C240034010010064B1B68082B01D0002070474C
:108C3400044B1B680BB1002070470120704700BF34
:108C44003001001034010010064B1B68082B01D0C2
:108C540000207047044B1B680BB1002070470120B3
:108C6400704700BF3001001034010010064B1B6830
:108C7400082B01D000207047044B1B680BB1002067
:108C840070470120704700BF30010010340100100C
:108C940001207047014B024A1A607047B02E002031
:108CA4000090D00308B5FFF7A7FF40B14FF0804311
:108CB4000022C3F80C21C3F81021C3F83825FFF7AC
:108CC4009DFF002846D04FF08052D2F80414604B28
:108CD400C3F82015D2F80814C3F82415D2F80C14DC
:108CE400C3F82815D2F81014C3F82C15D2F81414AC
:108CF400C3F83015D2F81814C3F83415D2F81C147C
:108D0400C3F84015D2F82014C3F84415D2F824143B
:108D1400C3F84815D2F82814C3F84C15D2F82C140B
:108D2400C3F85015D2F83014C3F85415D2F83414DB
:108D3400C3F86015D2F83814C3F86415D2F83C149B
:108D4400C3F86815D2F84014C3F86C15D2F844245B
:108D5400C3F87025FFF754FF10B13E4B3E4A1A602A
:108D6400FFF760FF18B13D4BFB22C3F81825FFF74E
:108D74006BFF48B13A490B6823F00F03394A126874
:108D840002F00F0213430B60FFF770FF18B1364B6C
:108D94004FF400721A60FFF77BFF60B14FF080431D
:108DA400D3F8003413F0010F05D04FF080436FF077
:108DB4000102C3F800242D4AD2F8883043F470032A
:108DC400C2F88830BFF34F8FBFF36F8F4FF010237B
:108DD400D3F80032002B08DB4FF01023D3F8043211
:108DE400002B02DBFFF756FF08BD214B0122C3F81D
:108DF40004251F4BD3F80034002BFAD04FF0102376
:108E04001222C3F800221A4BD3F80034002BFAD0F4
:108E14004FF010231222C3F80422154BD3F8003468
:108E2400002BFAD0124B0022C3F80425104BD3F8C0
:108E34000034002BFAD0BFF34F8F0C49CA6802F4F8
:108E4400E0620C4B1343CB60BFF34F8F00BFFDE7D1
:108E540000C000408C5600404881030000F00040F0
:108E6400E40E0040580200104096024000ED00E07D
:108E740000E001400400FA0570B500240DE00E493D
:108E84004FF4F37003F09EF90EE04FF0A04305F5A4
:108E9400E0750C2243F825200134032C0AD8074B33
:108EA4001E5D35462F2EEAD81F2EEED906F01F057B
:108EB400034BECE770BD00BFD02603004827030036
:108EC4000003005010B50446032809D80E4B1C5D5E
:108ED4002F2C0AD81F2C0ED904F01F040B4B0CE0C6
:108EE4000B493A2003F06EF9F0E70A494FF4F370A6
:108EF40003F068F9EEE74FF0A043D3F80405E0402F
:108F040000F0010010BD00BF4C2703000003005017
:108F140000270300D026030010B50446032809D80F
:108F24000E4B1C5D2F2C0AD81F2C0ED904F01F04E5
:108F34000B4A0CE00B49412003F044F9F0E70A49DD
:108F44004FF4F37003F03EF9EEE74FF0A042012333
:108F540003FA04F4C2F8084510BD00BF4C2703000F
:108F64000003005000270300D026030010B5044678
:108F7400032809D80E4B1C5D2F2C0AD81F2C0ED9A0
:108F840004F01F040B4A0CE00B49472003F01AF9C4
:108F9400F0E70A494FF4F37003F014F9EEE74FF0E9
:108FA400A042012303FA04F4C2F80C4510BD00BF2B
:108FB4004C2703000003005000270300D0260300C1
:108FC40010B5002403E02046FFF7D0FF0134032C42
:108FD400F9D910BD70B500240DE00F494FF4F370BA
:108FE40003F0F0F80EE04FF0A04305F5E07503221E
:108FF40043F825200134032C0AD8084B1E5D35465E
:109004002F2EEAD81F2EEED906F01F05044BECE7ED
:10901400FFF7D6FF70BD00BFD02603004C27030026
:109024000003005010B5002403E02046FFF774FF4E
:109034000134032CF9D910BD10B50446032809D80E
:10904400114B1C5D2F2C0AD81F2C0ED904F01F04C1
:109054000E490CE00E495F2003F0B4F8F0E70D4927
:109064004FF4F37003F0AEF8EEE74FF0A041D1F8FF
:1090740004350122A24022EA0300C1F80805134086
:10908400C1F80C3510BD00BF4C270300000300508D
:1090940000270300D026030010B50446032809D88E
:1090A400104B1C5D2F2C0AD81F2C0ED904F01F0462
:1090B4000D4B0CE00D49AC2003F084F8F0E70C49AB
:1090C4004FF4F37003F07EF8EEE74FF0A043D3F8CB
:1090D400103523FA04F414F0010F0CBF0120002012
:1090E40010BD00BF48270300000300500027030001
:1090F400D02603000023032B05D8054AD25C824204
:1091040003D00133F7E74FF0FF331846704700BF31
:109114004827030010B5044610F0010F03D114F0E2
:10912400020F03D110BDFFF755FFF8E7FFF7A4FEC8
:10913400F8E703680BB11A6802601846704700002C
:1091440008B508F0EFFE28B900F092F9044B0022AC
:109154009A7008BD0349792003F034F8F4E700BF9E
:109164000C3700205027030000B1704708B5064BA8
:1091740001225A700548FFF7DCFF18B1436800204C
:109184009847F7E708BD00BF0C37002014370020CC
:1091940010B5044610B1012C0CD010BD0B4B0122AC
:1091A4005A700B48FFF7C5FF0028F4D0436800202D
:1091B4009847F6E7054B01229A700648FFF7B9FF76
:1091C4000028EAD0436801209847F6E70C370020CE
:1091D400143700201C37002010B50D4B1B7813B139
:1091E4008524204610BD0A4B00229A605A601A61F9
:1091F400DA60084800F002F9044608F093FE18B15A
:10920400034B01221A70ECE700F010F9F8E700BFF5
:109214000C3700209591020000B583B0144B1B78E5
:10922400B3B1134BDB68CBB100238DF807300DF1DC
:109234000700FDF781FF0E4BDA68013ADA60DB685C
:1092440093B19DF80700FDF7ABFF03B05DF804FB95
:1092540008494FF4857002F0B5FFE2E7054940F292
:109264000B1002F0AFFFDFE7FFF76AFFE9E700BF8B
:109274000C3700205027030000B583B001280BD021
:1092840043B223B103281FD003B05DF804FB154B90
:109294000122C3F88020F7E700238DF807300DF191
:1092A4000700FDF749FF104B1B7853B10E4BDA68EA
:1092B4000132DA6001229A709DF80700FDF770FF11
:1092C400E2E7FFF789FFF1E7074B1B7823B100F0D2
:1092D400ADF8FFF7A1FFD7E7044940F2452002F0BB
:1092E40071FFF4E700E100E00C3700205027030091
:1092F40000B585B003788DF8003043680193836826
:109304008DF80830C3680393054B53F82130054AA0
:1093140052F821106846984705B05DF804FB00BF79
:10932400283700202037002000B585B003788DF859
:1093340000304368019383688DF80830C368039351
:10934400054B53F82130054A52F8211068469847D6
:1093540005B05DF804FB00BF28370020203700204B
:109364002DE9F04188B006460C46904607781D4B1F
:1093740043F827200A691C4B43F82720012F1DD0EE
:10938400637FDFF86CC00CF807306D460FCC0FC557
:1093940094E80F0085E80F00049733781CF8033035
:1093A400A3B1301DB8F1000F01D0DFF84880424668
:1093B400694601F0C5F908B0BDE8F0814B7F002B88
:1093C400DED10A49762002F0FDFED9E706F10C0051
:1093D400B8F1000F01D0DFF820804246694600F062
:1093E4008BFEE8E72837002020370020A42703005D
:1093F40030370020F59202002D93020010B5044688
:1094040048B1084B1B795BB9064B1C6001221A71E9
:109414000020587110BD0449A02002F0D3FEF0E7EB
:109424008520F7E734370020F827030008B50D4BF3
:109434001B7953B10C4B1B6813F0010F0AD04FF08A
:1094440080430122C3F8182508BD0849B92002F059
:10945400B9FEEFE7044BC02283F8002301221A600F
:10946400EDE700BF3437002000E100E0F8270300F7
:1094740008B5094B1B7953B1084B01221A604FF010
:109484008043D3F8183413F4803FF8D108BD04495D
:10949400F32002F097FEEFE7343700200C00004081
:1094A400F827030000B583B0154B1B6893B1144B28
:1094B40000221A601B680093009B4FF08043012236
:1094C400C3F808230F4B5B7923B90E4B5A711B6801
:1094D400002098470C4B1B6873B10B4B00221A6099
:1094E4001B680193019B4FF080430222C3F80823B9
:1094F400044B1B680120984703B05DF804FB00BFD0
:1095040000010040343700200401004070B41546C7
:1095140062B1002365B10824A34218D20E4A52F85E
:109524002320B2F1FF3F05D00133F5E70823F1E72B
:109534000C24F1E75AB2084C261886F8302044F877
:10954400231035B9083B234483F8600001E04FF051
:10955400FF32104670BC70473C370020064B4FF07A
:10956400FF3243F82020072804D908381844FF2381
:1095740080F86030704700BF3C37002010B582B0DF
:109584001A4B93F86A407CBB234606E0174A1A44F8
:10959400FF2182F830100133DBB22F2BF6D904E01F
:1095A4002046FFF7DBFF0134E4B20B2CF8D90F4C53
:1095B4000622002104F1640008F07DFE0C4BC02259
:1095C40083F8062340221A600A4B002018601B68A7
:1095D4000193019B084B4FF00042C3F8042301237D
:1095E40084F86A3002B010BD0820FBE73C37002045
:1095F40000E100E07C61004000600040034B93F810
:109604006A00003018BF0120704700BF3C370020BB
:10961400F8B504460D4616462F2807D8434B234475
:1096240093F93030002B07DB0820F8BD404940F2A5
:10963400072002F0C7FDF1E7AA78C2F340023146E1
:109644002046FFF763FF0646B0F1FF3F6BD0AB78CF
:1096540013F0040F19D113F0010F34D16F782F2CAC
:109664004BD81F2C4FD904F01F03324ABF0003F517
:10967400E07342F82370E30804F007012E48012246
:1096840002FA01F1C25C0A43C254AB7813F0020F30
:109694003DD02B78294906F5A27651F8262022F4EC
:1096A4004F3222F4407241F8262051F82620240239
:1096B40004F47C541B0403F440331C43144341F866
:1096C40026400020B1E72F2C05D81F2C09D904F01F
:1096D4001F03184908E01A494FF4F37002F072FDB1
:1096E400F3E723464FF0A04103F5E07351F823203C
:1096F40022F0020241F82320BDE711494FF4F37030
:1097040002F060FDADE723464FF0A042AEE7083E0D
:109714002A78064B1E4496F8603043EA821386F892
:109724006030002081E704207FE700BF3C37002041
:109734005428030000030050A037002000600040BC
:10974400D026030070B582B004460D462F282FD8CA
:10975400444B234493F93030002B2FDB414B2344FB
:1097640093F93030072B53DDA3F108023D4B13442A
:1097740093F96050C5F38115032D25D0012D3CD0FC
:1097840003252F2C3BD81F2C3FD904F01F04364B44
:1097940004F5E07453F8242022F4403243F82420E2
:1097A40053F8242042EA054543F8245002B070BD22
:1097B4002E4940F2372002F005FDC9E72B494FF44A
:1097C4000E7002F0FFFCC9E72F2C05D81F2C09D915
:1097D40004F01F02244B08E025494FF4F37002F013
:1097E400F1FCF3E722464FF0A043D3F81035D34001
:1097F40013F0010FC5D10225C3E70225C1E71C49B7
:109804004FF4F37002F0DEFCBDE74FF0A043BFE776
:10981400DAB2072ACAD803F1400292B2920092B295
:10982400144803F5A27650F8261041F0010140F8DF
:10983400261002F1804202F5C04200211160126834
:109844000192019A002DB1D0064A144494F93010C3
:1098540052F82120002AA9D0012202FA03F3C0F809
:109864000433A3E73C3700200003005054280300CE
:10987400D02603000060004010B504462F2807D806
:109884002F2C0BD81F2C0FD904F01F040A4B0DE00A
:109894000A494FF4227002F095FCF1E708494FF4AD
:1098A400F37002F08FFCEDE74FF0A043D3F81005FE
:1098B400E04000F0010010BD0003005054280300F4
:1098C400D02603002DE9F0478CB000250A950B95AE
:1098D40001204FF48073294603E0400004339BB217
:1098E4000131072912D803F1804202F5C0421468FD
:1098F400012CF2D1924CD4F804432042EDD0002440
:10990400146012680092009A0543E6E78D4B1B68C9
:10991400012B07D015F0FF0F38D1002D39DB0CB027
:10992400BDE8F087874A0023136012680192019A08
:1099340045F00045844908AA03C982E803000AAA3D
:1099440009E00CA901EB830151F8101CD1F81015A2
:1099540042F8041B0133012BF3D9DBE77600013411
:10996400072CDAD83542F9D0754B04F5A27253F8B6
:109974002200C0F3052053F82210C1F30141734BB8
:1099840053F82430002BE9D09847E7E70126002458
:10999400E6E700230293039307E00CAA02EB830299
:1099A4004FF0FF3142F8201C0133012BF5D9002779
:1099B4003C4624E0032D21D144E002AA12F80930E8
:1099C400334302F809303FE061494FF4F37002F089
:1099D400F9FB3CE043464FF0A04203F5E07352F834
:1099E4002330C3F301430CAA914419F8082C164000
:1099F40001D0022B32D00EB9032B2FD00134032C0B
:109A04005ED8524B234493F96030DAB222F0C00896
:109A1400B3F1FF3FF2D04FEAD80902F00703012661
:109A24009E400CAB4B4413F8203C1E42E6D09509F3
:109A3400464B03EB080292F9302053F822A0BAF106
:109A4400000FB7D0032DB8D0B8F12F0FBCD8B8F1A0
:109A54001F0FBFD908F01F033E4ABEE7032D06D0EF
:109A6400BAF1000FCAD029464046D047C6E7022BB8
:109A74001AD00226B8F12F0F18D8B8F11F0F1BD92E
:109A840008F01F03334A03F5E07352F8231021F45E
:109A9400403142F8231052F8231041EA064642F8B6
:109AA40023600137FFB2DBE72E46E3E728494FF492
:109AB400F37002F087FBE0E743464FF0A042E2E791
:109AC4001FB9002F3FF42BAF71E71F4A08AB92E890
:109AD400030083E80300002306AA09E00CA901EBB4
:109AE400830151F8101CD1F8101542F8041B0133FE
:109AF400012BF3D90023012B0AD80CAA02EB830211
:109B040052F8181C52F8082C914207D10133F2E79D
:109B14000123002B7FF403AF00230DE00023F8E7BB
:109B24000CAA02EB830252F8181C42F8081C52F8E3
:109B3400281C42F8201C0133012BF1D9C1E700BFD6
:109B4400006000407C6100404C2803003C3700204A
:109B5400D026030000030050034B984201D1034870
:109B640070470020704700BF00200040A837002045
:109B740008B5064B1B681BB1044B1B68984708BD0E
:109B84000349512002F01EFBF6E700BFA83700206E
:109B9400A828030070B582B00E460446B8B120462A
:109BA400FFF7DAFF0446B8B100238DF807300DF152
:109BB4000700FDF7C1FA257915B926600123237141
:109BC4009DF80700FDF7ECFA4DB9002005E00549C2
:109BD400772002F0F7FAE2E7002002B070BD11200E
:109BE400FBE700BFA828030070B50446C57FFF2D1E
:109BF4000DD0837FEBB12E462F2D11D81F2D15D9F3
:109C040005F01F06164A0123B340C2F80C350023A1
:109C140063772372204650F8083B6168984770BD0B
:109C240010494FF4F37002F0CDFAE7E74FF0A04289
:109C3400E9E72E462F2D09D81F2D0DD905F01F0653
:109C4400074A0123B340C2F80835E0E705494FF459
:109C5400F37002F0B7FAEFE74FF0A042F1E700BF6C
:109C640000030050D0260300D0F81831B3B110B56A
:109C740082B00C460023C0F81831D0F81831019393
:109C8400019B0B6823B12046FFF7AEFF02B010BD65
:109C940003494FF4277002F095FAF4E7704700BFC8
:109CA400FC28030008B502490248FFF7DDFF08BDA0
:109CB400B03700200030004082B00023C0F81C31CF
:109CC400D0F81C310193019B8A680B6AD25C0B6A41
:109CD40001330B62C0F81C2502B0704738B5054645
:109CE4000C46226A63699A420DD2D5F81C312BB90D
:109CF40094F82830002BF8D0002038BD214628469F
:109D0400FFF7DAFFEDE70120F7E782B003680022EE
:109D1400C3F82421D3F824310193019B0368C3F8C9
:109D24000821D3F808310093009B036801221A60CC
:109D340002B0704782B08B6983B10023C0F8083148
:109D4400D0F808310193019BCA684B6AD0F8180512
:109D5400D0544B6A01334B6202B07047C0F80831EB
:109D6400D0F808310093009BD0F81835F4E700B51B
:109D740085B001238DF80030029101924368016897
:109D84006846984705B05DF804FB00B585B000232C
:109D94008DF8003002918268019243614368016842
:109DA4006846984705B05DF804FB30B587B00446B3
:109DB4000D46D0F8043313F4007F26D0D0F82431B4
:109DC4001BB30023C0F82431D0F824310093009B46
:109DD4004FF40173C0F8083391F829300BB901230B
:109DE400436002238DF80830D4F88034C4F88034FA
:109DF4000593AB690493EB6803930023AB61EB61B8
:109E04006B68296802A8984707E0D4F8043313F074
:109E1400040F02D0D4F8083143BBD4F81C318BB101
:109E24002A6A6B699A4203D295F82830002B44D0F1
:109E34000023C4F81C31D4F81C310193019B6969D7
:109E440000293FD1D4F8443173B10023C4F844311C
:109E5400D4F844310293029B95F829300BB10123C5
:109E64002360AB69002B31D107B030BD29462046B1
:109E7400FFF760FFAA696B6A9A42CED1EB6983B996
:109E840095F829300BB9012363604FF40173C4F8CA
:109E940008330023AB61696AEA682846FFF767FF65
:109EA400BBE7EA68696AAB612B69EB600023EB618D
:109EB4006B622846FFF75BFFAFE729462046FFF7B2
:109EC400FBFEBFE72846FFF760FFBBE70023AB615B
:109ED400696AEA682846FFF74AFFC5E708B50249F8
:109EE4000248FFF762FF08BDD4370020002000407D
:109EF40070B582B006460D4603680022C3F81C21E3
:109F0400D3F81C310193019B0368C3F84421D3F8AF
:109F140044310093009B0368184AC3F8042304687F
:109F240044F307348B1EDBB2012B03D94B1FDBB286
:109F3400022B17D8002C1ADB6901C9B204F1604462
:109F440004F5614484F8001333681B0B5AB203F020
:109F54001F035209012101FA03F3094941F8223090
:109F640002B070BD07496B2002F02CF9E2E704F05F
:109F74000F046901C9B2044B1955E5E780000200DA
:109F840000E100E05029030014ED00E070B506463E
:109F94000C460D68B5F1FF3F24D16568B5F1FF3F6C
:109FA4000BD02F2D4AD81F2D4ED905F01F05504B2D
:109FB40005F5E075002243F825203368A269C3F84B
:109FC40024253268637D217D0B43C2F86C353368E8
:109FD40022686168C3F81415C3F80C25237D012B8E
:109FE40035D070BD2F2D17D81F2D1BD905F01F0597
:109FF4003F4A012303FA05F5C2F8085525682F2DB9
:10A0040013D81F2D17D905F01F05394B05F5E07539
:10A01400032243F82520C0E736494FF4F37002F0D9
:10A02400D1F8E1E74FF0A042E3E732494FF4F3708F
:10A0340002F0C8F8E5E74FF0A043E7E72D494FF4F5
:10A04400F37002F0BFF8AEE74FF0A043B0E7A568A5
:10A05400B5F1FF3F0BD02F2D15D81F2D19D905F0C1
:10A064001F05234B05F5E075002243F82520E5681C
:10A07400B5F1FF3F10D13368E168A268C3F8081551
:10A08400C3F81025ADE71B494FF4F37002F09AF8BA
:10A09400E3E74FF0A043E5E72F2D17D81F2D1BD979
:10A0A40005F01F05124A012303FA05F5C2F8085505
:10A0B400E5682F2D13D81F2D17D905F01F050C4B5C
:10A0C40005F5E075032243F82520D4E709494FF448
:10A0D400F37002F077F8E1E74FF0A042E3E70549B7
:10A0E4004FF4F37002F06EF8E5E74FF0A043E7E7B2
:10A0F40000030050D02603002DE9F04105469046A8
:10A104000F46002935D02C791E4A2C2303FB042347
:10A1140093F82A3093BB1C492868FFF73BFD064699
:10A1240070BB39462846FFF731FF164A2C2303FB40
:10A1340004F3D118C1F804803969D150B8F1000F83
:10A1440003D0397F2846FFF7D3FE2B680422C3F8D7
:10A1540000250C4B2C2202FB04340023A361E36191
:10A1640084F829306361012384F82A303046BDE83D
:10A17400F0810649AA2002F025F8C4E70826F5E78D
:10A184001126F3E7D4370020E19E02008029030062
:10A194000379044A2C2101FB03235869003018BFBA
:10A1A40001207047D43700202DE9F04383B00446E2
:10A1B4008846914607792E4B2C2606FB073696F8DF
:10A1C4002A30012B2AD1B8F1000F2DD0B9F1000F9C
:10A1D40030D02046FFF7DCFF002847D1244B2C2544
:10A1E40005FB0735C5F81490C5F8088000232B62D9
:10A1F40085F828302268C2F81C31D2F81C3101934A
:10A20400019B236801229A6031462068FFF754FDC0
:10A214006B68ABB1002003B0BDE8F083154940F290
:10A22400151001F0CFFFCEE712494FF48B7001F007
:10A23400C9FFCBE70F4940F2171001F0C3FFC8E78D
:10A2440031462068FFF74AFD70B12368D3F81C211A
:10A25400002AFAD00122DA600020054B2C2202FBEE
:10A26400073700237B61D6E70F20F6E71120D2E7FA
:10A27400D4370020802903002DE9F04182B006463E
:10A284000F4615460479534B4FF02C0808FB04384D
:10A2940098F82A30012B1FD127B34DB34D4A2C23F4
:10A2A40003FB04235A6822B133684FF40171C3F8E5
:10A2B400081348492C2303FB04139B6933B32C2351
:10A2C40003FB0413DB69CBB9424A2C2303FB0423AD
:10A2D4001F61DD61012222E03F4940F2691001F073
:10A2E40071FFD9E73C494FF4B57001F06BFFD4E737
:10A2F400394940F26B1001F065FFCFE722B13368B2
:10A304004FF40172C3F8042311251CE0314A2C23B5
:10A3140003FB04239D61DF6000225A62DA612D4948
:10A324002C2303FB041393F8293003B97AB1294A87
:10A334002C2303FB04235B686BB133684FF4017275
:10A34400C3F804230025284602B0BDE8F081304656
:10A35400FFF7DBFCEBE733680022C3F84421D3F8B2
:10A3640044310193019B0CE0CFB9C5B94146FFF7D5
:10A37400E1FC184A2C2303FB04239A695B6A9A4282
:10A384000DD93068D0F82471D0F80831D0F8445190
:10A39400002BE9D1002DE7D1002FF2D0E4E70D4ADC
:10A3A4002C2303FB042300229A617FB985B9094B4E
:10A3B4002C2202FB043494F829301BB133680122A7
:10A3C4001A60C0E7336801225A60BCE70325BAE784
:10A3D4000F25B8E7D43700208029030000B585B0E5
:10A3E40001238DF8003002910192436801686846A8
:10A3F400984705B05DF804FB00B585B000238DF8DF
:10A4040000300291826801924361436801686846A2
:10A41400984705B05DF804FB30B589B004460D4695
:10A42400D0F82431002B35D00023C0F82431D0F8E3
:10A4340024210192019A02228DF81020D0F8802460
:10A44400C0F880240792D0F83C250692CA68059289
:10A454008B61CB614B68096804A89847D4F84431F0
:10A464004BB10023C4F84431D4F844310393039B23
:10A47400AB69002B38D1D4F820314BB10023C4F898
:10A484002031D4F820310493049B6B69002B35D11F
:10A4940009B030BDD0F81031002BDFD00023C0F854
:10A4A4001031D0F810310293029BD0F83C15AB69FF
:10A4B4008B42D3D1EB6983B1EA68D0F8003223F040
:10A4C4002003C0F80032EB69AB612B69EB60002319
:10A4D400EB612846FFF782FFC0E70023AB61EA681F
:10A4E4002846FFF77BFFB9E70023AB61EB61D4F8A3
:10A4F4003C15EA682846FFF771FFBCE7D4F84C1511
:10A504002846FFF779FFC3E708B502490248FFF779
:10A5140083FF08BD003800200020004070B584B0DF
:10A5240005460E4602680023C2F81031D2F8102105
:10A534000392039A0268C2F82031D2F820210292D1
:10A54400029A0268C2F82431D2F824210192019AB5
:10A554000268C2F84431D2F844310093009B036886
:10A56400184AC3F80423046844F307348B1EDBB28F
:10A57400012B03D94B1FDBB2022B17D8002C1ADB9B
:10A584007101C9B204F1604404F5614484F8001314
:10A594002B681B0B5AB203F01F035209012101FA65
:10A5A40003F3094941F8223004B070BD07496B2018
:10A5B40001F008FEE2E704F00F047101C9B2044B94
:10A5C4001955E5E71003020000E100E050290300FB
:10A5D40014ED00E070B506460C460D68B5F1FF3F7A
:10A5E40024D16568B5F1FF3F0BD02F2D4AD81F2D1C
:10A5F4004ED905F01F05504B05F5E075002243F8D0
:10A6040025203368A269C3F824253268637D217D3F
:10A614000B43C2F86C35336821686268C3F80C15C3
:10A62400C3F81425237D012B35D070BD2F2D17D8E9
:10A634001F2D1BD905F01F053F4A012303FA05F519
:10A64400C2F8085525682F2D13D81F2D17D905F0EA
:10A654001F05394B05F5E075032243F82520C0E7B3
:10A6640036494FF4F37001F0ADFDE1E74FF0A0423D
:10A67400E3E732494FF4F37001F0A4FDE5E74FF04E
:10A68400A043E7E72D494FF4F37001F09BFDAEE7DB
:10A694004FF0A043B0E7A568B5F1FF3F0BD02F2DD5
:10A6A40015D81F2D19D905F01F05234B05F5E075A5
:10A6B400002243F82520E568B5F1FF3F10D1336847
:10A6C400E168A268C3F80815C3F81025ADE71B4973
:10A6D4004FF4F37001F076FDE3E74FF0A043E5E7B4
:10A6E4002F2D17D81F2D1BD905F01F05124A012342
:10A6F40003FA05F5C2F80855E5682F2D13D81F2D68
:10A7040017D905F01F050C4B05F5E075032243F836
:10A714002520D4E709494FF4F37001F053FDE1E734
:10A724004FF0A042E3E705494FF4F37001F04AFD0E
:10A73400E5E74FF0A043E7E700030050D02603000D
:10A744002DE9F041054617460E46002935D02C79EF
:10A7540004EBC4039A001E4B134493F820308BBBC4
:10A764001C492868FFF716FA804670BB3146284614
:10A77400FFF730FF1649E30023449A008B185F600B
:10A7840033698B501FB1317F2846FFF7C7FE2B6812
:10A794000822C3F800250E49E200101983000B4477
:10A7A40000209861D86158611444A300194401231E
:10A7B40081F820304046BDE8F0810749CD2001F002
:10A7C40001FDC4E74FF00808F4E74FF01108F1E782
:10A7D400003800200DA50200D4290300037903EBFF
:10A7E400C3039A00034B13445869003018BF012077
:10A7F400704700BF00380020F0B583B004460E4611
:10A804001746057905EBC5039A00344B134493F8B6
:10A814002030012B13D1C6B1EFB1237913B9B7F5A9
:10A82400803F04D32E4940F2271001F0CBFC06F000
:10A834006043B3F1005F14D0102003B0F0BD284989
:10A844004FF4927001F0BEFCE5E7254940F2251073
:10A8540001F0B8FCE0E722494FF4937001F0B2FC38
:10A86400DBE72046FFF7BAFF002834D1EA002A4488
:10A8740093001A4A13445F619E6022680021C2F863
:10A884002011D2F820210192019A2268C2F85811AD
:10A89400D2F858210092009A22685969C2F8446596
:10A8A400C2F848152268012191605B680BB1002051
:10A8B400C3E72368D3F82021D3F858010AB9002844
:10A8C400F7D000B10F2005EBC505AA00034B1344D4
:10A8D40000225A61B1E71120AFE700BF0038002021
:10A8E400D4290300F0B583B004460E461746057913
:10A8F40005EBC5039A00534B134493F82030012B06
:10A9040033D1002E37D0002F3BD0237913B9B7F5BC
:10A91400803F04D34C4940F2711001F053FC06F01F
:10A924006043B3F1005F40F08B8005EBC5039A00F0
:10A93400444B1344596821B123684FF40472C3F89B
:10A94400082305EBC5039A003E4B13449B6933B3BC
:10A954003C4B1344DB69D3B93A4AEB0058198100E4
:10A9640011440E61CF61012322E037494FF4B770DF
:10A9740001F028FCC5E7344940F26F1001F022FCD5
:10A98400C1E731494FF4B87001F01CFCBDE721B1B7
:10A9940023684FF40472C3F8042311202EE02949DC
:10A9A400EB00581982000A449761D6600023D361F2
:10A9B40022680021C2F81011D2F810210192019AE4
:10A9C4002268C2F84411D2F844210092009A226805
:10A9D400C2F83465C2F8387593B9236801221A6045
:10A9E400257905EBC5039A00164B13445B687BB1CC
:10A9F40023684FF40472C3F80423002003B0F0BDAD
:10AA04002268D2F8003243F02003C2F80032E7E7AC
:10AA14002368D3F81011D3F84421D3F8240111B9D1
:10AA24000AB90028F4D005EBC505A900054B0B4471
:10AA34000021996100B10320002ADFD00F20DDE757
:10AA44001020DBE700380020D4290300104B5B7989
:10AA5400E3B9104B00221A600D4B1B682BB1012384
:10AA64000B4A53710C4AC2F8043300F1804000F5DC
:10AA7400243001230360064B1B680BB10020704790
:10AA8400044B1B68002BFBD000207047112070473B
:10AA94002438002000910240009002400378FF2BEC
:10AAA40040D04378FF2B3FD08378FF2B3ED0C37830
:10AAB400FF2B3DD00378FF2B22D01E4AC2F8243549
:10AAC4004378FF2B1FD01B4AC2F828358378FF2B0D
:10AAD4001CD0184AC2F83035C378FF2B19D0154A58
:10AAE400C2F834350379FF2B16D0124AC2F8383530
:10AAF4004379FF2B13D00F4AC2F83C35012070472D
:10AB04004FF0FF33D9E74FF0FF33DCE74FF0FF336B
:10AB1400DFE74FF0FF33E2E74FF0FF33E5E74FF0B5
:10AB2400FF33E8E70020704700207047002070479B
:10AB34000020704700900240F8B50E4617460446C0
:10AB4400002867D03D4B1B79002B71D1201DFFF7E6
:10AB5400A5FF054600286DD02268394BC3F840256F
:10AB6400A37AE27A43EAC203227B43EA8213627B3A
:10AB7400002A54D080221343314AC2F84435D2F813
:10AB8400003623F07F4323F0FF03A27B1343E27BD1
:10AB9400002A46D04FF080721343227C43EA42637A
:10ABA400627C43EA0273264AC2F80036234B002132
:10ABB40059711E609F600123C2F8083386B1A47CDA
:10ABC400A31EDBB2012B03D9631FDBB2022B2AD8ED
:10ABD4006401E4B21B4B83F829434FF400725A60BA
:10ABE4000123164A1371164AC2F80035164900208B
:10ABF400086013606424144B1B6843B94FF420703D
:10AC0400124B43F001039847013CF4D100259DB158
:10AC14000020F8BD0E49812001F0D4FA92E7002209
:10AC2400A9E70022B8E70B496B2001F0CBFACFE784
:10AC34000820EEE70720ECE70D20EAE7243800209F
:10AC44000090024000E100E000910240302A03003D
:10AC5400382A030050290300F8B505460C46164669
:10AC6400504B1B79A3B14F4B5B7903F0FF07002BCB
:10AC740040F093804C4B00221A6054B36B78023B33
:10AC8400072B26D8DFE803F0504E4C184A480C092D
:10AC94004649B82001F096FAE5E7E3791B0600E09F
:10ACA4000023A27943EA0243627943EA0223227928
:10ACB40013433F4AC2F83C36E3781B06A27843EAC2
:10ACC4000243627843EA022322781343384AC2F8E3
:10ACD4003836374A0123C2F808332B78697843EAB7
:10ACE4000123A97843EA0133E97843EA4133297916
:10ACF40043EA8133697943EAC133C2F834366424C0
:10AD0400294B1B6893B94FF420702A4B43F001037D
:10AD14009847013CF4D10AE00023C5E70023C6E7C5
:10AD24000023CBE70023CCE70023CDE70127BFB105
:10AD34001D4B00221A60A3F580730122C3F804237B
:10AD44006EB36B781A4AD2F83C16D2F83826023B16
:10AD5400072B20D8DFE803F01E1B181615120F0D61
:10AD64002B790BB10D2017E01049D62001F02AFAF7
:10AD7400F8E70B0EF371C1F30743B371C1F3072373
:10AD840073713171130EF370C2F30743B370C2F3DE
:10AD94000723737032700020F8BD1120FCE70020F7
:10ADA400FAE700BF2438002000910240382A03004B
:10ADB40000900240302A0300F8B504460E461746B8
:10ADC400194B1B796BB194B104F06045B5F1005F88
:10ADD40013D114F0030F16D1B5F1005F19D0102070
:10ADE400F8BD124940F2191001F0ECF9EBE70F49F4
:10ADF4004FF48D7001F0E6F9E6E70C4940F21B10C0
:10AE040001F0E0F9E5E709494FF48E7001F0DAF951
:10AE1400E2E7074BC3F81075C3F81445C3F8186587
:10AE24000820FFF713FEDBE724380020382A03004C
:10AE340000900240F8B504460E461746194B1B799C
:10AE44006BB194B104F06045B5F1005F13D114F017
:10AE5400030F16D1B5F1005F19D01020F8BD1249C7
:10AE64004FF4967001F0AEF9EBE70F4940F22D1064
:10AE740001F0A8F9E6E70C494FF4977001F0A2F944
:10AE8400E5E7094940F22F1001F09CF9E2E7074B8E
:10AE9400C3F80475C3F80845C3F80C650420FFF72C
:10AEA400D5FDDBE724380020382A03000090024057
:10AEB40038B504460D46094B1B7943B1084BC3F81A
:10AEC4001C55C3F820450C20FFF7C0FD38BD0549CB
:10AED40040F23D1001F076F9F0E700BF243800207D
:10AEE40000900240382A030008B5064B1B683BB1AA
:10AEF400054B00205871034A10601A6899689047FE
:10AF040008BD00BF009102402438002010B588B06D
:10AF1400614B1B68002B2AD05F4B00221A601B6810
:10AF24000093009B5D4B93F82E2012B193F82F30C1
:10AF3400EBB100238DF81430584B596806911989E8
:10AF4400ADF81C10D96800295AD0544B188B58837B
:10AF5400596018810021D96012B9514B01221A603D
:10AF64004E4C236805A89847002384F82F304B4B98
:10AF740093F82E3033B34B4B1B681BB3494B002261
:10AF84001A601B680193019B444A538B92F82D105D
:10AF94008AB2934237D99B1A9BB240484383426892
:10AFA4000089C31A02EB43033D4AC2F82C36C2F8A7
:10AFB4003016394B00221A601B680293029B3A4BED
:10AFC40001221A60394B1B686BB1384B00221A609E
:10AFD4001B680393039B314B1A7402228DF81420CF
:10AFE4001B6805A89847324B1B683BB3304A0023C3
:10AFF400136012680592059A284A137408B010BDAC
:10B0040000221A74ACE7934208D09342D1D1234B67
:10B01400012283F82F2000225A83CAE71F48C06800
:10B024000028F2D01D4B012283F82F2000225A83DE
:10B034001B4BC3F82C06C3F83016BAE7174B5C69F0
:10B04400002CDBD0B4FA84F34FF00042DA4024EA57
:10B05400020446339B0003F1804202F5E04211688A
:10B064000029EDD00021116012680492049A012293
:10B074008DF81420A3F58C73C3F3C7028DF8182040
:10B0840013F0040F0CBF01230B468DF81930034B4A
:10B094001B6805A89847D3E70471004030380020A6
:10B0A40000700040007100400470004010710040C6
:10B0B4001471004030B585B00D460446002852D0C6
:10B0C400002D55D0304B93F82C30002B5AD12E4AFA
:10B0D400156023782D49C1F8F0356378C1F8F4354B
:10B0E400E37882F82E30012382F82C300023137485
:10B0F40082F82D30536182F82F306FF00042C1F88E
:10B104000823234A136012680392039A214A1360A6
:10B1140012680292029A204A136013680193019BF9
:10B12400A478A31EDBB2012B03D9631FDBB2022B6D
:10B1340023D86401E4B2194B83F8074380221A60D0
:10B14400124B0222C3F804230F4B93F82E301BB189
:10B154000E4B0122C3F804230C4B0122C3F8002533
:10B16400002005B030BD0E49D62001F02BF8A7E72A
:10B174000B49D72001F026F8A4E70A496B2001F017
:10B1840021F8D6E70820ECE73038002000700040B2
:10B1940004710040007100401471004000E100E0BF
:10B1A4008C2A03005029030038B505460C46414B50
:10B1B40093F82C30002B5CD0072D60D83E4BD3F88D
:10B1C400F43513F0FF0F04D03A4B93F82D30002BD5
:10B1D4005BD1E379013BDBB2082B5CD8237A092BE2
:10B1E4005FD8344B1B7C002B61D105F10C03314A31
:10B1F40002EB43031B7923B992F82D30013382F813
:10B204002D30E27905F10C012A4B03EB41031A714D
:10B21400227A5A71237803F003036278120102F050
:10B2240030021343A278120202F4E0621343E2787C
:10B23400120302F4805213432279120402F4E0222E
:10B2440013436279120502F480121343A2791206A1
:10B2540002F080721343184A02EB0511C1F8183545
:10B26400E379207A51352D0151194860535100205A
:10B2740038BD124940F2231000F0A4FF9CE70F49A7
:10B284004FF4927000F09EFF98E70C4940F22710AB
:10B2940000F098FF9DE7094940F2291000F092FF61
:10B2A4009CE706494FF4957000F08CFF99E7112054
:10B2B400DEE700BF30380020007000408C2A030015
:10B2C4003D4B1B7C002B74D130B583B03A4A01242A
:10B2D40014743A4B0325C3F80853C3F82C16C3F867
:10B2E400304692F82D30A3420CD9002208E0D3B2A4
:10B2F400324951331B01CD1800246C60CC5001320B
:10B30400072AF4D900F10C022B4B03EB42031A7900
:10B314005C792A4B5130000119184C601A500122F3
:10B324001A6004331A6042F21073254A12681AB97B
:10B33400013BFAD1002300E001238BB1214B002211
:10B344001A601B680193019B1D4B1A601B680093D4
:10B35400009B194B93F82D30012B18D9002214E0CF
:10B36400194940F29B1000F02DFFE7E702F10C01B0
:10B37400114B03EB410318795D79D3B20F49513373
:10B384001B01CC186560C8500132072AEED90A4B5C
:10B3940093F82E3043B1094B0322C3F80423002051
:10B3A400054B187403B030BD044B0222C3F80423C8
:10B3B400F5E71120704700BF3038002000700040CE
:10B3C40004710040007100408C2A030030B583B042
:10B3D40005460C463C4B93F82C30002B31D03A4BAD
:10B3E40093F82D2094FBF2F302FB1343002B2ED190
:10B3F400364B1222C3F80823334B1B7CDBB2022BDF
:10B404002BD0314B1B7CDBB2012B2BD02F4B0222D8
:10B41400C3F804232C4B01221A745D601C810022A2
:10B42400DA6093F82E30002B40D0274B5C8393F8DE
:10B434002D20264BC3F82C56C3F83026002003B029
:10B4440030BD234940F2BF1000F0BCFEC7E72049DD
:10B454004FF4E07000F0B6FECAE71C4BC3F80423B7
:10B464001120ECE7184BDB682BB1184B0222C3F810
:10B4740004231120E3E7144BDD601C8393F82E3082
:10B4840073B9144B1B68002BFBD0124B00221A60BB
:10B494001B680093009B0D4BC3F82C56C3F8304631
:10B4A4000A4B0222C3F804230020C8E7074BC3F861
:10B4B4002C56C3F83046074A0020106012680192E7
:10B4C400019A01221A60BAE7303800200070004067
:10B4D4008C2A03000071004008B50220FDF7ACFD82
:10B4E40008BD000010B5084B1B7853B1002400E0E0
:10B4F4000134032C07D8022CFAD02046FDF736FD80
:10B50400F6E7FDF75DFD10BD6138002038B504464F
:10B51400BF4B1B78E3B9172C00F28481DFE814F0E9
:10B524001E002800280054008000A300CE00DB0089
:10B53400E200EF00FC00090116011C011C011C01C2
:10B544001C011C014D0153015C0165017101710174
:10B55400AF4B00221A70FFF7C5FFDCE7FFF7C2FF0D
:10B56400AC48FBF745FC0546AB4B1C70284638BD80
:10B574000020FDF7A7FCE8B10020FDF7F7FC022C42
:10B5840015D04FF47A63A44A14700024590CD803DC
:10B594004FF47A72002310F5FA70614106F0C0FD91
:10B5A400224601469B48FBF705FC0546DEE74FF4BF
:10B5B400E163E8E70020FDF7AFFC022C02D04FF472
:10B5C400C873E0E7C823DEE70020FDF77BFCE8B1A1
:10B5D4000020FDF7CBFC032C15D04FF47A638E4A80
:10B5E40014700024590CD8034FF47A72002310F518
:10B5F400FA70614106F094FD224601468548FBF746
:10B60400D9FB0546B2E74FF44873E8E70020FDF79D
:10B6140083FC032C02D04FF4C873E0E7C823DEE7B1
:10B624000020FDF74FFCC0B10020FDF79FFC4FF454
:10B634007A63794A14700024590CD8034FF47A724F
:10B64400002310F5FA70614106F06AFD22460146B6
:10B654007048FBF7AFFB054688E70020FDF75CFC6C
:10B664004FF4C873E5E70020FDF72CFCE0B100209F
:10B67400FDF77CFC052C15D04FF47A63664A1470F0
:10B684000024590CD8034FF47A72002310F5FA7091
:10B69400614106F045FD224601465E48FBF78AFB00
:10B6A400054663E7C823E9E70020FDF735FC052CD0
:10B6B40002D04FF4C873E1E7C823DFE70020FDF7A9
:10B6C400BBFC554B1C70002240F6CD415148FBF7A2
:10B6D40071FB05464AE70020FDF71EFC4E4B1C702B
:10B6E400002543E701204A4B1870FDF7A5FC002212
:10B6F40040F6CD414748FBF75DFB054636E70120A0
:10B70400434B1870FDF798FC00224FF480414148E8
:10B71400FBF750FB054629E701203D4B1870FDF768
:10B724008BFC002240F6CD413A48FBF743FB05462B
:10B734001CE70120364B1870FDF77EFC00224FF405
:10B7440080413448FBF736FB05460FE7FDF76AFCFA
:10B75400314B1C70002509E73048FBF749FB0546CF
:10B76400D4F1110422D008BB012C06D80220FDF725
:10B77400D3FB2B4B01221A70F8E6A4B2C82303FBB7
:10B7840004F4E317D90341EA5441E0034FF47A7215
:10B79400002310F5FA7041F1000106F0C1FC00220B
:10B7A40001461E48FBF706FB0546DFE70220FDF7CE
:10B7B400DDFB1B4B00221A70D8E6FFF793FE164BF5
:10B7C4001C700025D2E6FFF78DFE0020FDF7A4FBD8
:10B7D400114B1C700025C9E6FFF784FE0120FDF71C
:10B7E4009BFB0D4B1C700025C0E6FFF77BFE002081
:10B7F400FDF792FB0120FDF78FFB074B1C70002522
:10B80400B4E6FDF70FFC044B1C700025AEE600BF48
:10B81400D4380020A4380020DC380020643800200C
:10B82400613800200025A1E608B5054B1B6813F01C
:10B83400010F00D108BD034B1878FFF767FEF9E745
:10B84400D0380020DC38002070B506460D46FDF7E0
:10B8540051FC032806D80446012D04D06BB223B34F
:10B86400022D2FD070BD1A4A00EB4003D118D55CCD
:10B874004B787BB904EB4402154B13449A78154B6F
:10B884001A55002DEED0144B1B68002BEAD0284625
:10B894009847E7E7114A4FF400411148FBF78AFA49
:10B8A4000028E7D10D4B1E70E4E70D48FBF7A0FA22
:10B8B400084B1A5D04EB4404054B1C44A578AA42CA
:10B8C400D0D1DEE700EB4004014B1C446578D8E797
:10B8D400C4380020E0380020D83800206038002028
:10B8E4008438002008B502210078FFF7ADFF08BDB9
:10B8F400032801D90020704708B5FDF7CDFB08BD2A
:10B9040008B50246044B186810F0010000D108BDC8
:10B914001046FFF7FBFDFAE7D0380020032825D8AE
:10B92400012A07D001290DD04BB2C3B102290FD08F
:10B9340007207047012901D00022F3E700F10E022D
:10B94400D2B2EFE700EB4000094B1A5400207047D5
:10B9540000EB4000064B184442700020704700EB97
:10B964004000034B18448270002070470720704742
:10B97400C438002070B50646214B1860214B19606D
:10B9840010F0020404D116F0010F25D1204670BD39
:10B9940000252C46032D08D83CB90122114628461F
:10B9A400FFF7BCFF04460135F4E74CB184B1002C29
:10B9B400E9D1154A00211548FBF7E6F90446E2E708
:10B9C40040F2666204211248FAF7D2FD0446EDE71C
:10B9D400FAF720FE0446EAE70120FDF79BFB44B199
:10B9E400002CD3D10B4A01210B48FBF7CDF90446B7
:10B9F400CCE70A4A00210A48FBF7C6F90446EFE7F8
:10BA0400D0380020D8380020E9B80200042B030005
:10BA1400E02A0300DDB40200002B03002DB802006D
:10BA2400082B030008B5012200210846FFF776FF22
:10BA340010B10346072812D1072202210120FFF783
:10BA44006DFF034608B1072809D104220221002012
:10BA5400FFF764FF034610B1072800D100231846FE
:10BA640008BD08B5012202210020FFF757FF10B1DD
:10BA74000346072812D1072202210120FFF74EFFB7
:10BA8400034608B1072809D10A2200210846FFF716
:10BA940045FF034610B1072800D10023184608BD0E
:10BAA40008B50388102B02D0112B12D008BD114BFE
:10BAB4001B6823B10F4A136801331360F6E7FFF7DD
:10BAC400B1FF0028F6D00C4B1B68002BF2D098472E
