:020000022000DC
:1060000000000420756302005D6302005F6302000C
:106010006163020063630200656302000000000028
:1060200000000000000000000000000067630200A4
:1060300069630200000000006B6302006D630200F0
:106040006DAD02006F6302003DB4020095B5020021
:106050006F6302006F63020091B10200EDCE020097
:106060006F6302006F6302006F6302006F630200E0
:106070006F6302006F6302006F6302006F630200D0
:106080006F630200FD6C02006F6302006F63020029
:10609000256D02006F630200315C03006F63020034
:1060A0006F6302006F6302006F6302006F630200A0
:1060B0006F6302006F630200000000000000000038
:1060C0006F6302006F6302006F6302006F63020080
:1060D0006F6302006F6302006F6302006F63020070
:1060E0006F630200C9CE02006F630200000000006F
:1060F000000000006F630200000000006F630200F8
:10610000000000000000000000000000000000008F
:10611000000000000000000000000000000000007F
:10612000000000000000000000000000000000006F
:10613000000000000000000000000000000000005F
:10614000000000000000000000000000000000004F
:10615000000000000000000000000000000000003F
:10616000000000000000000000000000000000002F
:10617000000000000000000000000000000000001F
:10618000000000000000000000000000000000000F
:1061900000000000000000000000000000000000FF
:1061A00000000000000000000000000000000000EF
:1061B00000000000000000000000000000000000DF
:1061C00000000000000000000000000000000000CF
:1061D00000000000000000000000000000000000BF
:1061E00000000000000000000000000000000000AF
:1061F000000000000000000000000000000000009F
:10620000354936480A1A02D0072291438D4634494F
:1062100034480A1A06D00722914381F309880222E2
:1062200082F3148830483149314A00F044F831484B
:106230003149324A00F03FF831483249324A00F0E1
:106240003AF832483249334A00F035F83248334997
:10625000334A00F030F833483349344A00F02BF821
:1062600033483449344A00F026F83448344900228F
:1062700000F02CF833483449002200F027F8334866
:106280003349091A082902DB002202604160314AC1
:1062900090471F481F49884205D00268043003B464
:1062A000904703BCF7E700208646EC46002000211B
:1062B000294A9047FEE7884207D0521A05D0037852
:1062C00001300B700131013AF9D17047884202D098
:1062D00002700130FAE770470000042000E003205C
:1062E0000000042000000420A87703000C2D0020EB
:1062F000F8310020D4630200D4630200186903005F
:10630000A87703000C2D00200C2D0020C469030089
:10631000C4690300C4690300C4690300C4690300BD
:10632000C4690300C4690300C4690300A8770300BB
:10633000947C0300F8310020F8310020F83100206F
:10634000504F0020504F0020504F0020504F002051
:10635000506F00209D63020019E20200FEE7FEE795
:10636000FEE7FEE7FEE7FEE7FEE7FEE7FEE7FEE705
:10637000704700BF1048804710484FF0070188431E
:1063800085460F4880470F48016841F4700101605D
:10639000BFF34F8FBFF36F8FFFF732BF0A480B4930
:1063A0000B4A884207D0521A05D0037801300B708F
:1063B0000131013AF9D170477163020000000420F5
:1063C000C1A4020088ED00E0B0690300F82C0020B1
:0463D0000C2D002070
:1063D4002DE9F04784B0002401E00134E4B2394BE4
:1063E4001B78A3426BD9384B1D6805EBC40A15F81A
:1063F40034000122A0F1200CC0F1200102FA0CF3B8
:1064040022FA01F10B4382403049D1F800C04968B7
:106414000CEA020601EA030756EA070EDDD0DFF8AC
:10642400ACE02CEA020221EA0303CEF80020CEF805
:10643400043004F085FE844615F834300122A3F1BB
:106444002005C3F1200002FA05F522FA00F045EA1E
:1064540000019A401E48056840682A40029201EAF9
:10646400000203925FFA8CF10022CDE90012A3F13D
:106474002001C3F120024FF00009009800FA01F155
:1064840049EA010920FA02F249EA020900FA03F88A
:10649400DDE902124A4508BF41459ED19AF8011030
:1064A400012914BF00210121614514BF00210121EC
:1064B400DAF80420002A90D0184690478DE704B0FB
:1064C400BDE8F087F8310020303200202832002067
:1064D4002032002070B506460123A0F12004C0F14B
:1064E400200203FA04F423FA02F2144303FA00F537
:1064F4001B4800F07DFC78B91A4A1368526803EA15
:10650400050002EA0401014307D0164923EA050302
:1065140022EA04040B604C6070BD304604F010FEA7
:10652400A0B1114B19685A682943224319605A6073
:106534000C4A136851682B430C43136054600022C7
:106544000A4B1968064800F035FCE5E7064B196864
:106554005A6821EA050122EA040219605A60E7E751
:10656400003200202832002020320020FC3100209C
:10657400042A3CD970B582B006460D46144604F090
:106584009FFC28B31B4B1E601B4B1D701B4B1C60D8
:10659400002200231A49C1E900231A49C1E9002352
:1065A4006C1EE4B2D5B106EBC40300228DF80620BC
:1065B40003228DF804209B788DF80530124A01A936
:1065C40016F8340004F086FC034668B92546E7E76C
:1065D40004F036FC03460028D4D005E00B4A002121
:1065E4000B4800F0D1FB0346184602B070BD0723E8
:1065F4001846704730320020F8310020FC3100206A
:106604002032002028320020D9640200D563020021
:10661400046A030010B50C4B1B686BB100240B4BD0
:106624001B78A3420DD9084B1B68012113F83400D1
:1066340004F0EAFC0134F2E70549BA2007F0C4FD8E
:10664400ECE7002010BD00BF30320020F8310020FC
:10665400C469030082B001238DF807309DF8073028
:10666400134B186059609A6044F20103984213D0A6
:1066740044F20203984207D10D4BDA60DA681288BB
:106684009A61DA685268DA6172B69DF80730002BB5
:10669400FBD162B602B07047054B1A611A69926861
:1066A4005A611A6912689A611A695268DA61EBE7E9
:1066B4003432002000B583B002900091019244F27C
:1066C400010071466A4600F003F803B000BD000003
:1066D40008B572B6044B1B6813F0010F00D000BE5E
:1066E400FFF7B8FF08BD00BFF0ED00E00B4651B165
:1066F4005AB1511E0A420AD103608180002383608B
:10670400C360184670470E2070470920704709205F
:1067140070478268C3689B1A82889A4201D2042017
:10672400704710B40368C46822409954C3680133A5
:10673400C36000205DF8044B70478268C3689A42C6
:106744000DD010B40268836884882340D35C0B7036
:1067540083680133836000205DF8044B7047052093
:1067640070470000034BC3F80805034BC02283F8AD
:10677400112370470010014000E100E010B50B4BFD
:106784004FF48032C3F84423C3F80423084A4FF477
:106794000031C2F88011116001241C604FF43C6088
:1067A400044B23439847044B1C7010BD0010014058
:1067B40000E100E0106A03006133002070B50E4B65
:1067C4004FF40032C3F880200C4D4FF48033C5F8E9
:1067D4004833C5F8083301266E60094C34434FF43E
:1067E4003C60A047AE600025064B1D604FF43C6042
:1067F400A047054B1D7070BD00E100E00010014092
:10680400106A0300703300206133002010B4114B70
:106814001C685CB1026823689A4218D89A1A2260EC
:10682400C4610C4B18605DF8044B70471860FAE7BC
:10683400521A1C46DB6913B119689142F8D313B19B
:106844001968891A19600260C361E061EBE72346A5
:10685400F1E700BF7433002070B5184B1E6834464E
:10686400354624B1844202D02546E469F9E714B3DD
:10687400A5420CD02168E369EB6113B11A680A449C
:106884001A600E4B1868801B18BF012070BDF36995
:106894000A4A1360002BEDD10123094A9360094A87
:1068A40000211160084A13704FF43C60074B43F019
:1068B40001039847DEE70020E8E700BF74330020B7
:1068C400001001407033002060330020106A030080
:1068D400024B4FF40032C3F80021704700E100E09E
:1068E400024B4FF48012C3F80021704700E100E02E
:1068F40008B543698069984708BD00001B4B1868B8
:10690400002832D070B51A4BD3F80445194B1B68D4
:10691400E41A24F07F44002504E000230374FFF705
:10692400E7FF304648B10368A34206D8E41A1D4481
:10693400C669037C002BF4D0EFE70F4B1A780F4B9A
:106944001B789A4207D00D4B1A780D4B43F822500E
:10695400FFF7C6FF70BD0133DBB2084A1370022B88
:10696400F1D1134600221A70EDE77047743300200A
:1069740000100140703300206C3300206D33002080
:1069840064330020104B1B78104A1278934217D0BE
:106994000133DBB20C4A1370022B0DD00A4B1A7868
:1069A4000B4B53F8223003600A4A11680B4423F05E
:1069B4007F43136001207047134600221A70EDE7ED
:1069C40000230360184670476C3300206D330020A9
:1069D400643300207033002070B400250E4B1B6814
:1069E400BBB11C68844212D8001B254400241C60DF
:1069F400DE69094C2660DC68002CEFD06E1826F0A6
:106A04007F465E609C601468DC611360E6E7241ACC
:106A14001C6070BC704700BF74330020F8B5054695
:106A2400414B1F68002659E0404A11784B1CDBB2E9
:106A340013709278934228D04A000A44D0003B4B0A
:106A440003449C681B79022B23D0032B30D0012BE9
:106A540044D1237C002B41D1DFF8D0C04A00501828
:106A6400C3006344D86860601869A0605B69E36030
:106A74001144CB009C44DCF81830A3612C4B1B78E8
:106A8400002B30D0002363602DE0284B00221A70C5
:106A9400D2E72046FFF7E0FE034600B93346002262
:106AA40022741E461AE000221A74DA691E4B1A6018
:106AB4001D4B1B68002BF6D110E0521A22F07F42C6
:106AC400A36893421CD99A1A226000236360A360CE
:106AD40001222274E3612046FFF798FE9DB1002D48
:106AE400A2D02C46ED696168124B1A688B1A23F008
:106AF4007F4311488342E0D8A26813442360E4E74B
:106B040000232360E1E7094B1A785B789A42E6D1C7
:106B14002EB9054B1B68BB4203D0012000E00120C5
:106B2400F8BD0020FCE700BF74330020543200207D
:106B34006033002070330020FEFF7F00F8B51C4B4B
:106B44001B688BB31F681B4BD3F804551A4B1C6886
:106B54002E1B26F07F460336184B1B780BB3B74227
:106B64002CBFE419A41924F07F44124BC3F8404508
:106B7400D3F804355B1B23F07F430333641B24F0F9
:106B84007F44A3420CD90B4BD3F80425C3F840250A
:106B94004FF43C600A4B43F001039847FFF798FE1B
:106BA400F8BDFFF7EBFDDAE7FFF708FEF8E700BFF3
:106BB4007433002000100140703300206133002042
:106BC400106A030070B582B0002301930D4B1E6858
:106BD4000D4B1D686846FFF7D5FE044660B9019861
:106BE400FFF71CFF00B914B12846FFF7A7FF074BB6
:106BF40000221A7002B070BD01AA31460098FFF756
:106C0400EBFEECE770330020743300206033002087
:106C1400014B5870704700BF543200200B4A537820
:106C24000133DBB292789A420CD0084A12789A4225
:106C34000AD003700548437803EB4303DA00104499
:106C4400043070470023F0E70020704754320020DE
:106C5400F0B583B007460E4615461C4600238DF852
:106C640006300DF1060000F067FA0DF10700FFF79A
:106C7400D5FFB0B10122027047600C4AD2F8042556
:106C84008260C660056144619DF80700FFF7C0FF9C
:106C940000249DF8060000F083FA24B1204603B0D6
:106CA400F0BD0424F5E7FFF71BFEF7E700100140F1
:106CB40030B583B004460D4600238DF806300DF13F
:106CC400060000F039FA0DF10700FFF7A7FF70B1D5
:106CD400057044609DF80700FFF79AFF00249DF8B3
:106CE400060000F05DFA24B1204603B030BD042450
:106CF400F5E7FFF7F5FDF7E708B5084B0022C3F801
:106D04004021C3F84421C3F84821C3F84C21C3F8F7
:106D14000021C3F80421FFF7F1FD08BD0010014074
:106D240008B5FFF74FFF08BD10B5FFF747FD0F4B40
:106D340000241C705C700B229A700D4B1C600D4B70
:106D44001C700D4B1C700D4B4FF48012C3F8802146
:106D5400C02183F814131A602046FFF703FD084B83
:106D6400D3F80425074B1A60204610BD5432002086
:106D7400743300206C3300206D33002000E100E008
:106D84000010014070330020094B9B7843B14AB195
:106D940050B10368187C48B9187459745A61704723
:106DA4000820704707207047072070470820704765
:106DB400543200200D4B9B7883B188B1042911D93A
:106DC40043698BB110B5437C012B05D000241346D5
:106DD4002246FFF73DFF10BD0C46F8E70820704738
:106DE400082070470720704708207047543200205D
:106DF40008B5094B9B7843B148B143694BB10023B3
:106E040003740221FFF754FF08BD0820FCE70820A3
:106E1400FAE70820F8E700BF5432002000B583B039
:106E24000378012B07D05AB2002A55D0022B39D04F
:106E340003B05DF804FB436819783648FFF769FC32
:106E440090B101228DF800200190334B1B686846F5
:106E54009847304A9168D3685B1A92889A4210D254
:106E64002E4B01221A70E3E72A4B9A68DB689A4298
:106E7400EFD000238DF80030274B1B6868469847F5
:106E8400E7E7274B1B78274AD35C2BB1012226491D
:106E9400264805F013FDCBE701222349244805F0D9
:106EA400D3F9C5E702238DF80030C36801931C4B66
:106EB4001B781C4AD35C4BB101221B491B4805F0CB
:106EC400FDFC154B1B6868469847B1E7012216493B
:106ED400174805F0B9F9F4E716491748FFF72DFCF0
:106EE40038B103238DF800300B4B1B686846984774
:106EF4009EE70B4B1B780B4AD35C2BB101220D4947
:106F04000A4805F063FC93E701220A49084805F0A2
:106F140033F98DE77C330020783300208C33002054
:106F24000C2D002044360020A0330020102D00201A
:106F3400182D0020A433002090330020F0B589B030
:106F44002E4C2260002957D00C461F4605468A88DD
:106F540009682B48FFF7CAFB024610B1104609B076
:106F6400F0BDA289A1682748FFF7C0FB02460028AC
:106F7400F4D16C46244E0FCE0FC496E80F0084E87B
:106F84000F006B6906932B7C003318BF01238DF827
:106F940014308DF81C706B7C2BB30E238DF81530D8
:106FA400EB680293AB6803932B6801936B680093BF
:106FB400164A6946164803F035FE02460028CDD12C
:106FC400144B002119702B68B3F1FF3FC6D0104B4E
:106FD4001B78114AD35C43B101221049104805F0D3
:106FE4006DFC0246BAE70023D8E701220B490D489D
:106FF40005F02AF90246B1E70722AFE7783300200B
:107004007C33002090330020186A0300216E0200B4
:107014000C2D00208C33002044360020A0330020A7
:10702400102D0020182D002038B5044648B1144B0B
:107034001D7821461348FFF780FB044635B92046E6
:1070440038BD1149C22007F0BFF8F0E70C4B00220D
:107054001A700E4B1B780E4AD35C5BB101220D49AA
:107064000D4805F02BFC0028E9D0074ACE21FFF794
:1070740021FBE4E701220749084805F0E5F8F2E7B7
:107084008C3300207C330020386A03000C2D002050
:1070940044360020A0330020102D0020182D00209D
:1070A40010B501461648FFF734FB044608B12046E4
:1070B40010BD144B1B78144AD35CB3B1134805F0CC
:1070C40077FB0028F3D112490D48FFF736FB00285F
:1070D400EDD10C4B1B780C4AD35C53B101220C4903
:1070E4000A4805F073FB0446E1E70A4805F038F85E
:1070F400E7E701220649074805F03EF80446D6E7CB
:10710400903300200C2D002044360020102D002048
:10711400A4330020182D0020EFF30583C3F30803E4
:107124003BB9EFF3148313F0010F0CBF01200020CF
:10713400704701207047000038B50446FFF7ECFFA4
:1071440001281CD1EFF3108272B6114B9B68DBB996
:107154000F4901238B600F4BD3F880000E4D28405C
:107164000860C3F88050D3F8840048604FF0FF31C2
:10717400C3F884100023237002B962B638BD0749EE
:10718400432007F021F8DDE701232370F4E700BF73
:10719400A833002000E100E0FC06FFBD7C6A030088
:1071A40010B50446FFF7B8FF012811D10B4B9B68BB
:1071B4006BB164B9EFF3108172B6084B1868084AD2
:1071C40010605868506000229A6001B962B610BD20
:1071D4000449512006F0F8FFE8E700BFA833002077
:1071E40000E100E07C6A030038B50546002400E0B5
:1071F4000134032C07D8044B53F82430002BF7D068
:1072040028469847F4E738BDC03300200378013B93
:10721400052B34D8DFE803F00306112029310023BD
:107224000B70704701230B7003898B818388CB819A
:10723400C3688B6000230B74704702230B700389AF
:107244008B818388CB81C3688B60837D062B14BFBD
:10725400002301230B74704703230B70C3888B81B5
:107264000389CB81C3688B60704704230B70C38888
:107274008B810023CB818B60704705230B70704793
:10728400884207D20368B3F1FF3F01D00120704761
:1072940000207047002070474388033300EB8300CD
:1072A400704738B504460D46FFF7F6FF854208D30C
:1072B400A2884FF6FF739A4205D023882BB1002091
:1072C40038BD0220FCE70120FAE70120F8E70000BE
:1072D40060B10A4AD26882420AD8084A12698242D4
:1072E40008D310F0030F07D1012070470020704726
:1072F400002070470020704700207047F82C0020C1
:1073040060B10168094A91420AD14368084A93422C
:1073140008D00132934207D00320704703207047FE
:10732400032070470020704701207047DEC0ADDEA7
:10733400FE011EF10023B3F5806F06D250F823201E
:10734400B2F1FF3F03D10133F5E70120704700207C
:107354007047000030B40A4C82001518AB001D467B
:1073640023441B8919442C44608910FA81F188B2A2
:10737400B0F5806F2CBF0020012030BC704700BFE7
:10738400F43300200023012B18D810B403E0013398
:107394009BB2012B0ED803EB83029400084A2244CB
:1073A40052688A42F3D202F580528A42EFD90380AE
:1073B400002000E00A205DF8044B70470A20704763
:1073C400F4330020F8B50D46174600F5805600F159
:1073D400080402230B800DE00FB101223A70022B46
:1073E4001CD063882A88134403332B802046FFF77C
:1073F40053FF044631462046FFF742FF88B1314629
:107404002046FFF74EFF03460028E5D1A368054A4E
:1074140012689342E5D9034A1360E2E74FF48063AC
:107424002B80F8BDEC3300208B7D022B04D9CB8854
:107434000289134403330381CA8843899B1A033B9B
:1074440043817047F8B5033085B240F2FD339D4265
:1074540020D80E46002401E00134A4B2012C17D830
:1074640004EB840293000C4AD35C002BF4D129462C
:107474002046FFF76FFF0028EED034800649A300B2
:10748400181982000A4453891D445581002000E0E4
:107494000720F8BD0920FCE7F433002030B4054C84
:1074A4008B005D18AA0022445389181A03385081AE
:1074B40030BC7047F4330020F8B50F4600EB800071
:1074C4008200134B13445C6804F580550868A8B126
:1074D400FFF7E2FE044629462046FFF7D1FE0646A2
:1074E40050B129462046FFF7DCFE01280AD043B2FA
:1074F40033B10228EFD100263046F8BD0834EAE75C
:107504003C60F9E72046FFF7C7FE0446E3E700BF07
:10751400F433002070B582B005460C464068FFF78E
:10752400D7FE20B12A89174B1B899A4218D0002311
:1075340023802388012B23D80023019301A92088C9
:10754400FFF7BAFF0646B8B1019B99682A689142D1
:10755400F4D16B600B4B1B892B81304602B070BD9C
:107564002A6869688B689A42E1D12046FFF70AFFCE
:10757400B0FA80F67609F0E7238801332380D8E750
:107584000026EAE7D8330020F8B51E4E3678002EE0
:1075940033D0002A33D01C4616460F46054633B96D
:1075A400052027E000232360A3880133A380A38858
:1075B400012B20D803EB83039A00134B9B5C002B15
:1075C400F2D12146A088FFF777FF0028EAD023688C
:1075D4001DB199882A889142F3D11FB119883A883C
:1075E4009142EED19B68336023687360074B1B891B
:1075F40033810020F8BD0A20FCE70220FAE70520C9
:10760400F8E700BFD0330020F4330020D833002043
:107614002DE9F0470024A1464FF0030826462746EB
:107624002DE0434A156002219180814650E008F123
:10763400FF381FFA88F83F49B300981982001046B2
:107644000A44556003230B540136B6B215E0394998
:10765400B3009819820088184FF0000C01F802C09A
:1076640045601046103208300A4401442846FFF7AA
:10767400A9FE47F002070136B6B20134A4B2022CC7
:107684004ED82D4BDD6805EB04352846FFF738FE50
:10769400012820D043B2002BD9D00328EDD12846AD
:1076A400FFF748FE0028C2D0214A1268002AB8D049
:1076B400204BB2009019810003EB010C02205854B6
:1076C400CCF80450ACF808001C4B5E800136B6B20E
:1076D40047F00107D1E7B9F1000F0FD0154BB20005
:1076E4009019810003EB010C0220585410490968D9
:1076F400CCF80410ACF808000136B6B2DFF830A0BC
:10770400514641F8045B00222846FFF75BFEBAF8B5
:107714000430022B02D008231F43AEE70423FBE707
:10772400B8F1010F02D9F8B2BDE8F0870027FAE7F3
:10773400BC340020F4330020F82C0020D83300207F
:107744000B4A1389013313810023538013730CE014
:1077540003EB83018A0007498A5CB2FA82F2520978
:10776400034919448A7201339BB2012BF0D9704743
:10777400D8330020F43300200023012B27D8164AE5
:107784001A44927A32BB01339BB2F6E701339BB2BF
:10779400012B17D8104A1A44927A002AF6D00E4ABE
:1077A4001A440024947203EB830294000B4A22448B
:1077B400D268002AEAD1094A2244127C002AE5D080
:1077C400038000E0002210465DF8044B704700225D
:1077D4001046704710B4E2E7D8330020F433002099
:1077E400044B5B685B880333034A918811FA83F383
:1077F40093807047D8330020BC34002070B40A4909
:107804000E680A4B5C880A48A3001D19AA000244AA
:1078140055680D6056608D8823449A001044058194
:1078240002238B8070BC7047BC340020D833002006
:10783400F433002008B5124B1B78072B0AD8DFE875
:1078440003F00409090A1016161AFFF779FF0C4B06
:1078540001221A7008BDFFF7C3FF094B02221A70F8
:10786400F8E7FFF7CBFF064B06221A70F2E7044B4A
:1078740007221A70EEE7024B01221A70EAE700BFF2
:10788400D833002040F6F8731868B0F1FF3F07D0F2
:107894004FF080531A695B69B0F1FF3F03D0704722
:1078A400024B1868F4E703FB02F0F8E71410001029
:1078B40008B5FFF7E7FF034B1861A0F54050D86007
:1078C40008BD00BFF82C002008B50146014800F0AF
:1078D400E5FD08BDA834002008B5064B05221A7042
:1078E400054902238B80002301220968034800F024
:1078F400FFFE08BDD8330020BC340020F82C002043
:1079040008B50D4B5B8803EB830291000B4A0A44D4
:10791400D26872B9084A0421117003EB83039A00F8
:1079240006491144002301224968054800F0E0FE9D
:1079340008BDFFF7D1FFFBE7D8330020F433002064
:10794400F82C002000B583B0002300930823044AD8
:1079540004490968044800F08FFE03B05DF804FB95
:10796400D06A0300BC340020F82C002008B5044B76
:1079740007221A7000225A60FFF7E4FF08BD00BF17
:10798400D833002000B583B0002300930823044AB1
:107994000146044800F070FE03B05DF804FB00BF2C
:1079A400C86A0300F82C0020F8B530B90B79032B12
:1079B4005BD8DFE803F0071A343F2E4B00225A60ED
:1079C400012005E001230B71FFF7BCFF00284CD117
:1079D400F8BD0A469B001C18A100002454540A4414
:1079E4005068FFF7CFFF01230FE00023012B0AD8D3
:1079F400184603EB83018A001F498A5C022AE8D0F7
:107A040001339BB2F2E700230F20002BDED1194B88
:107A140001221A7000225A6041F61D50D8E7002353
:107A24000B71164902228A8001220968144800F069
:107A34005FFECBE700250D71104C2068FFF7A2FF15
:107A4400104B5988D4F800C00B4E8A005718BB005D
:107A540033445F682760C3F804C0A7881F810223EA
:107A6400A38053189A00B554B0E7024B00225A6021
:107A74000E20ADE7D0330020F4330020BC340020C6
:107A8400F82C0020D833002008B5064B06221A70C3
:107A94005B8803EB83039A00034B13445868FFF796
:107AA40071FF08BDD8330020F433002000B583B043
:107AB40002238375002300930423C218054800F0B1
:107AC400DBFD034618B9184603B05DF804FB0E232A
:107AD400F9E700BFF82C002000B583B0036983B137
:107AE4000323837500230093042300F10C0208315F
:107AF400064800F0C1FD034628B9184603B05DF8F6
:107B040004FB0123EDE70E23F7E700BFF82C002068
:107B140000B583B001238375C388002200929B00C3
:107B240002690C31054800F0A7FD034618B9184650
:107B340003B05DF804FB0E23F9E700BFF82C002026
:107B440000B583B00378032B10D00623837500237C
:107B54000093042300F108021944064800F08CFD48
:107B6400034628B9184603B05DF804FB0523EDE786
:107B74000E23F7E7F82C002010B582B00C46002342
:107B840000930423094A0146094800F075FD50B9E1
:107B9400014604EB8404A200064B134401221A7428
:107BA400084602B010BD0E21FAE700BFC46A030004
:107BB400F82C0020F433002070B50C468B8A03EBBC
:107BC40083018A002A4D154498B929489A00D61889
:107BD400B1000E46014449683044068901EB86062B
:107BE400A37D062B0BD8DFE803F0152D21270C33DA
:107BF4003D0021462846FFF717FC012614E00F2616
:107C04000EE01C4800234360A36903601A49FFF790
:107C140081FC50B331462046FFF748FF06461EB1AB
:107C240021462846FFF700FC304670BD3146204609
:107C3400FFF752FF0646F2E731462046FFF768FF9A
:107C44000646ECE731462046FFF77AFF0646E6E7AC
:107C54000623A375084B1988064B5868FFF78CFF59
:107C64000646DCE741F61D56DAE70A26DCE700BFE4
:107C7400F4330020B4330020C834002010B584B09D
:107C84000446002301930293C36800930DF10E018F
:107C94006846FFF73FFC10B90A2004B010BD0198F4
:107CA4008388E38003882381BDF80E10FFF764FF07
:107CB400F3E7000030B583B009484268094B1968FE
:107CC4009C88538803339BB20325057000200090E1
:107CD4009B0001EB8401044800F0CEFC03B030BDEE
:107CE400D8330020BC340020F82C002008B5064B03
:107CF400191D5888FFF7E0FB10B1FFF7DBFF08BD43
:107D0400FFF7FEFDFBE700BFD833002008B50748A6
:107D1400FFF732FD10B1FFF7E9FF08BD044B002265
:107D24001A705A805A6041F61D50F6E7DA33002083
:107D3400D833002030BB08B5144B1B7B6BB1134BFD
:107D440000221A73114B1B78013B062B1CD8DFE869
:107D540003F0070A0D101B131600FFF76BFDF1E784
:107D6400FFF7D4FF08BDFFF7C1FFFBE7FFF7A2FF52
:107D7400F8E7FFF7C5FDF5E7FFF786FEF2E7FFF743
:107D8400F5FDEFE7012070470F20EBE7D833002023
:107D940010B584B00B4B01AA00210630FFF7F4FBA9
:107DA40040B9084B99880298FFF7E6FE044620463E
:107DB40004B010BD04460822002102480EF07EF9EA
:107DC400F5E700BFCC340020B0B908B508460B79FC
:107DD400012B0AD05AB21AB1022B0FD00F2008BDC2
:107DE40002230B71FFF74AFFF9E7FFF7D1FF0A28D7
:107DF400F5D141F61D50F2E70120704741F61D50C0
:107E0400EDE7000008B50146014800F053FB08BD4A
:107E1400A834002008B5084B1B683BB10121064873
:107E240000F0F2FB003018BF012008BD034940F206
:107E34007A2006F0C9F9F1E7B8340020D86A0300C3
:107E440010B586B004462BE02D48FFF73DFD2D4BC1
:107E5400186029E02C4940F2825006F0B5F927E079
:107E64002046FFF7A1FD002848D000230193039387
:107E74000493059341F61D5398423DD00290214C42
:107E840001A92068FFF7C2F901A8FFF7ADF90023A3
:107E940023601B48FFF7B6FFFFF7BCFF70B3002455
:107EA400184B1B68002BCFD0164B1B68002BD1D06E
:107EB400144B19680B78013B052B1BD801A252F80F
:107EC40023F000BF657E0200E17E0200E17E020035
:107ED400E97E0200E97E0200F17E02002046FFF7FF
:107EE4006BFEC0E72046FFF76FFFBCE72046FFF7B5
:107EF40021FFB8E70F20B8E70020BFE706B010BDA8
:107F0400E8330020F0330020D86A030008B5406845
:107F1400FFF796FF08BD000008B50121014800F0F5
:107F240068FB08BDEC33002008B5FFF7C1FC002254
:107F34000249034800F094FB08BD00BF1C6B03001A
:107F4400F82C002008B51C238C220249024800F0BA
:107F540070FA08BD1C340020A834002010B5014676
:107F6400044800F084FA04461C2200210EF0A6F80E
:107F7400204610BDA834002008B50146014800F091
:107F840082FA08BDA834002008B50121034800F096
:107F940025FB00B108BDFFF753FFFBE7B834002011
:107FA4002DE9F04182B0354C2478002C5CD00029B6
:107FB4005CD00D884FF6FF74A54259D04C88002C34
:107FC40058D04C6814F0030F56D11F460C46064691
:107FD400002A32D01388ADF80630B2F80280684621
:107FE400FFF7BCFF0546002832D0077000238375D5
:107FF400BDF80630838263680361FFF78DFFE86094
:1080040023882B816388AB80A5F80680032F26D0B4
:1080140000236B816846FFF7AFFF3EB10023736016
:10802400EA683260B372164B1B893381FFF7ACFFE9
:108034000022104602B0BDE8F081B1F808800DF1CD
:1080440006014046FFF7FEF902460028C7D0F0E7D4
:10805400BDF806104046FFF721FA0822E9E7042399
:10806400AB753368AB61D3E70222E2E70522E0E7B0
:108074000422DEE70422DCE70322DAE7D03300201F
:10808400D833002008B5084B1B68042B0AD00346DC
:1080940005480168054A42F82130012100F0A9FA97
:1080A400002008BD0C20FCE7C4340020C0330020AD
:1080B40030B587B00023019302930393049305938F
:1080C400274B1B782BB9274800F0A9FA40B10024AC
:1080D40003E001A8FFF788F80024204607B030BD6C
:1080E400FFF722FF04460028F7D1FFF72BFFFFF725
:1080F4008FFA054602282DD0062811D060B36846B1
:10810400FFF72CFF50B301220270013D0A2D12D853
:10811400DFE805F00F110F111D111D11171A1700BB
:108124000F4B01221A7000225A6001A8FFF75CF875
:10813400D3E7002202716846FFF71EFFFFF724FF12
:10814400CBE703220271F6E702220271F3E7012270
:108154000271F0E70B24C0E70B24BEE70824BCE758
:10816400D0330020D433002008B370B582B0044665
:10817400F9B10D460DF10601FFF7CCF910B90A204B
:1081840002B070BD6668BDF8063003EB8303980047
:108194000830094B18440121043000F02AFA2E60FB
:1081A40063680C336B600123A3720020E8E70520A9
:1081B40070470520E4E700BFF4330020F8B130B580
:1081C40083B004460DF10601FFF7A4F9C8B1BDF868
:1081D400063003EB830291000D4A0A44D2689AB137
:1081E400A27A9AB10A499A00D518A800054608440B
:1081F400C06801382944C8600020A07202E005204C
:1082040070470A2003B030BD0620FBE70620F9E7DB
:10821400F433002008B502230022FFF7C1FE08BD95
:1082240028B108B503230022FFF7BAFE08BD0520D4
:1082340070470000104B1B78BBB14FF6FF73984298
:1082440015D010B582B0044601A8FFF787FE80B1AF
:108254000522027001220271C48001A8FFF78CFE7E
:10826400FFF792FE002002B010BD022070470420E8
:1082740070470820F7E700BFD03300200E4B1B786F
:10828400B3B100B583B001A8FFF768FE90B1062230
:10829400027001A8FFF770FE084B1B7813B1074B5F
:1082A40001221A73FFF770FE002003B05DF804FB8F
:1082B400022070470820F8E7D0330020D83300208C
:1082C40000B583B0ADF80600ADF8041001A90DF1B6
:1082D4000600FFF759F903B05DF804FB00B583B05D
:1082E400ADF8060013460A460DF106010020FFF71B
:1082F4004BF903B05DF804FB00B583B0ADF806009C
:1083040013460A4600210DF10600FFF73DF903B0BC
:108314005DF804FB20B129B103680B6000207047AD
:10832400052070470520704710B483B050E8013F22
:108334009CB2B0F80EC06444B0F80CC0644528BFC9
:10834400A4EB0C04B0F808C0644502BFBFF32F8F40
:10835400002208E0C4EA030440E8014CBCF1000F29
:10836400E4D14FF001028DF807200093009B0B60CD
:108374009DF8070003B05DF8044B704750E8012FE7
:10838400C2EA024240E80123002BF7D1704710B43F
:1083940083B050E8023F1FFAA3F4B0F806C0644566
:1083A40002BFBFF32F8F002211E0B0F80EC0644467
:1083B400B0F80CC0644528BFA4EB0C04C3EA044421
:1083C40040E8024CBCF1000FE3D14FF001028DF8FC
:1083D40007200093009B0B609DF8070003B05DF835
:1083E400044B704750E8022FC2EA224240E80223BD
:1083F400002BF7D1704782B050E8022FC188B2EB4E
:10840400324F4FF0000317BF92B241EA014142EAF2
:10841400014104E04268B2EB324F08BF012340E857
:108424000212002AE8D18DF807309DF8070002B047
:10843400704781B110B40C46B2FBF3F103FB112178
:1084440089B251B90460416081608281C381084668
:108454005DF8044B70470E2070470920F8E708B513
:10846400FFF7C9FF08B1002008BD1120FCE738B5AB
:1084740005460C46FFF758FF18B1286823881844AE
:1084840038BD0020FCE708B50A884B889A4201D021
:10849400002008BDFFF772FF0120FAE738B5054652
:1084A4000C46FFF774FF18B128686388184438BD78
:1084B4000020FCE708B50A884B889A4201D00020C6
:1084C40008BDFFF78FFF0120FAE708B54B0901F05B
:1084D4001F01012202FA01F100EB830000F068F8A9
:1084E40008BD10B54B0901F01F040121A14000EBA8
:1084F400830000F052F8E04000F0010010BD08B520
:108504004A0901F01F01012303FA01F1C94300EBF9
:10851400820000F058F808BD4B0950F8230001F020
:108524001F01C84000F0010070472DE9F0410646E4
:108534000F46002516E0D8F80010C94391FAA1F1BE
:10854400B1FA81F11F290CD801EB4514A74208D9CF
:1085540021463046FFF7C5FF0028ECD12046BDE890
:10856400F08101357B1E5B090133AB4209D906EB6F
:10857400850856F82510C94391FAA1F1B1FA81F1A1
:10858400E0E73C46EAE750E8002F0B4640E8003CB1
:108594009CF0000FF7D11046704750E8002F42EAD4
:1085A400010340E8003C9CF0000FF6D110467047F0
:1085B40050E8003F43EA010240E8002C9CF0000F21
:1085C400F6D11046704750E8003F03EA010240E844
:1085D400002C9CF0000FF6D11046704750E8002F95
:1085E40002EB010340E8003C9CF0000FF6D110467A
:1085F400704750E8003F03EB010240E8002C9CF078
:10860400000FF6D11046704750E8003FA3EB01027B
:1086140040E8002C9CF0000FF6D11046704708B5D6
:108624000121FFF7BAFF08BDC3688B4206D8114485
:1086340001390369994203D900207047002070472B
:108644000120704710F0030F0CBF01200020704779
:1086540043681B68013B0B420CBF0120002070479C
:1086640030B108B531B101600B681146984708BDB7
:108674000E2070470E20FAE750B32DE9F04182B086
:1086840006463AB307683FB343B340684568B3FB53
:10869400F5F005FB103018BB1D4614468846084605
:1086A400FFF7D0FFF0B12046FFF7CCFFE0B12A4638
:1086B40041463046FFF7B8FFC0B1FF68089B0093FE
:1086C4002B46224641463046B84702B0BDE8F08109
:1086D4000E2070470E20F8E70820F6E70920F4E79B
:1086E4000920F2E71020F0E71020EEE71020ECE775
:1086F400E0B12DE9F04104460768CFB1D2B1984604
:1087040016460D46FFF7A4FFB0B163681A6806FB6E
:1087140002F229462046FFF787FF78B13F694346B6
:10872400324629462046B847BDE8F0810E207047FE
:108734000820F9E70920F7E71020F5E71020F3E710
:1087440029DF704728DF704703689B683BB300B597
:1087540087B00023009302930393049301918368E9
:108764000593037943B1012B10D003689B686846D5
:10877400984707B05DF804FB01238DF800300369C6
:108784000293C368039343690493EEE702238DF8CD
:108794000030C3681B03029343690493E5E7704701
:1087A40010B542698369D21AB2F5805F28BF4FF4CD
:1087B400805292080469C168012A38BF0122194411
:1087C4001819FFF7BDFF10BD08B5C2680069104451
:1087D400FFF7B8FF08BD0000114B0022DA600379EF
:1087E4001BB1012B0FD01046704742698369D11A1F
:1087F400B1F5805F94BF5B1803F5805383619A429F
:1088040009D0002070470369013303614269934230
:1088140003D000207047012070470120704700BF3B
:1088240070350020064AD3680133D360082B01D881
:108834000020704713460022DA600120704700BF11
:10884400703500200846704700207047024B187AA4
:10885400003018BF0120704770350020034B0122FF
:108864005A74187AB0FA80F04009704770350020C5
:1088740008B502490248FFF71DFE08BD84350020F3
:108884006035002008B505490548FFF707FE054B8C
:108894001860003018BF012008BD00BF84350020D7
:1088A400603500208835002008B51A4B1B7AA3B127
:1088B400184B02221A72184B18680379ABB1012BBA
:1088C4001CD00321144B1868FFF73EFF114B002204
:1088D4001A725A60FFF7CCFF08BDFFF7D3FF0028D8
:1088E400E6D10C4B00225A60F6E7FFF759FF40B17E
:1088F4001128E6D1074B01221A72EDE7FFF764FF56
:10890400F5E7044B1B7C002BE6D10021022000F08C
:1089140005F8E1E77035002088350020831E012B1F
:108924002DD8174B1B7A53B310B50446022B03D131
:10893400022807D0032818D0114B5B7CE3B9FFF75A
:10894400B3FF10BD0F4B1868FFF746FF0028F3D0A4
:108954000B4B00221A720B4B1868022C0AD00D2103
:10896400FFF7F2FEFFF784FFE6E7064B1868FFF710
:1089740059FFEBE71146F3E70DF02AF9E1E77047F9
:108984007035002088350020012802D0032800D04B
:10899400704708B5054B00225A74012814BF002003
:1089A40001201874FFF780FF08BD00BF7035002058
:1089B40008B50548FFF733FE10B9044B5B7C03B1DF
:1089C40008BDFFF771FFFBE7743500207035002008
:1089D4002DE9F04182B080460D4616461F4601A996
:1089E4000E48FFF744FDB0B104461C2200210DF0EF
:1089F40065FB01232371C4F80080A7602D0BE5609B
:108A0400666101A90548FFF73EFDFFF7D1FF00208D
:108A140002B0BDE8F0810420FAE700BF6035002011
:108A24002DE9F04383B08146884617461E4601A9C6
:108A34000F48FFF71CFDC0B104461C2200210DF0B5
:108A44003DFB00252571C4F800900A9BA360C4F87F
:108A54001080E760666101A90548FFF714FDFFF780
:108A6400A7FF284603B0BDE8F0830420FAE700BF5F
:108A74006035002008B510461A460DF0F6FA0020BD
:108A840008BD000008B51422002104480DF016FBAF
:108A94000348FFF7E4FC002008BD00BF7035002048
:108AA4006035002008B5094B43600948FFF7B7FD5E
:108AB40008B1002008BD0DF09FF8054B18741C2365
:108AC4008C2204490448FFF7B4FCF2E7106B03005E
:108AD40070350020D43400206035002041DF704719
:108AE40010B50024054B1C70054B1C60BFF35F8F51
:108AF4000449054800F044F8204610BD9435002090
:108B0400983500203C6B03008C35002010B582B0F2
:108B140000238DF807300DF10700FEF70DFBF1EE91
:108B2400104A24F09F03E1EE103ABFF35F8F124B1B
:108B34004022C3F884219DF80700FEF731FB14F0AE
:108B4400070F07D10DF058F848B920BF40BF20BF28
:108B540002B010BD09497D2005F036FBF2E7FFF7AE
:108B6400BDFF0028F4D00228F2D004494FF4B070BD
:108B740005F02AFBECE700BF00E100E0486B0300CE
:108B840038B50C46054638B15CB12C6023686B607F
:108B9400626893420AD038BD0649502005F014FBA0
:108BA400F2E70449512005F00FFBEEE700236B6068
:108BB400F1E700BF8C6B030010B5044658B123687D
:108BC40073B1636833B1226891680B44636052687F
:108BD40093420AD010BD0649632005F0F5FAEEE78A
:108BE4000349642005F0F0FAEBE700236360F1E742
:108BF4008C6B030019B1012905D0062070473AB1E6
:108C04000020107070472AB10430106000207047B3
:108C1400002070470720704710B5044608B1A069CA
:108C240010BD03494FF4BB7005F0CEFAF7E700BF5F
:108C3400E86B030008B501F0DDFB0028FBD108BD9B
:108C440070B584B00C46054648B174B1AE69224B88
:108C54001B68AB420FD01124204604B070BD1F49DD
:108C640040F2211005F0B0FAEFE71C494FF491707F
:108C740005F0AAFAEAE701F0BDFB58BB06F10C03C4
:108C840094E8070083E80700A2882168A06801F03F
:108C940097F8044608B9B368A3B1B368002BDBD0D6
:108CA400002CD9D002238DF8043001238DF805302F
:108CB40006F10C030293B3690393B36801A9284630
:108CC4009847C9E7FFF7B6FF054B1B78002BE4D0A4
:108CD4000D24E2E71124BFE79C350020E86B030074
:108CE400A035002070B584B00C46054648B16CB17F
:108CF400AE69214B1B68AB420DD01124204604B051
:108D040070BD1E49EF2005F05FFAF0E71B49F02023
:108D140005F05AFAECE701F06DFB58BB06F10C03C1
:108D240094E8070083E80700A2882168A06800F09F
:108D3400FDFF044608B9B368A3B1B368002BDDD0C6
:108D4400002CDBD002238DF8043001238DF805308C
:108D540006F10C030293B3690393B36801A928468F
:108D64009847CBE7FFF766FF054B1B78002BE4D051
:108D74000D24E2E71124C1E79C350020E86B0300D1
:108D8400A035002070B584B0044640B1A669164BE6
:108D94001B68A34208D01125284604B070BD1349AE
:108DA400C32005F011FAF1E701F024FBD0B901F07A
:108DB40023F9054610B90C4B00221A60B368002B46
:108DC400EAD001238DF804302B1C18BF01238DF841
:108DD400053000230293B3690393B36801A92046C5
:108DE4009847D9E71125D7E79C350020E86B0300A5
:108DF400F0B585B00F461546044658B1A6692369F7
:108E0400B3F5007F34D11B4B1B6843B111252846B1
:108E140005B0F0BD18498B2005F0D6F9EEE7B56131
:108E2400B760144B1C60154904F1140001F026F8D6
:108E3400054600B9A7B1002DE9D00E4B00221A60F7
:108E4400002FE4D013468DF8042001228DF805206C
:108E54000293B3690393B36801A920469847D6E700
:108E6400FFF7E8FE064B1B78002BD0D00D25E4E776
:108E74000625CCE79C350020E86B0300898E0200B0
:108E8400A035002070B584B042782E4B1A702E4B5A
:108E94001E68B4690378012B29D0054659B241B143
:108EA400022B39D0294A81210320FDF703FC04B0A9
:108EB40070BD01F0B1FA036823604FF4007363607E
:108EC400214B1B689B699B68002BF0D000228DF816
:108ED40004206B789B1A18BF01238DF80530029289
:108EE400A3690393A36801A930469847DFE7A36801
:108EF400002BDCD002238DF80430003218BF01228D
:108F04008DF8052004F10C030293A3690393A3686D
:108F140001A930469847CAE7A368002BC7D00323AA
:108F24008DF80430003218BF01228DF8052004F1B9
:108F34000C030293A3690393A36801A930469847DD
:108F4400B5E700BFA03500209C350020E86B030086
:108F540003789B09012B1FD05AB21AB1022B01D0FE
:108F640000207047027AC3799B0003EB9213827945
:108F7400920202F440621344427902F00F02817AB1
:108F8400407A400000F0060000EBD1100133104499
:108F9400073803FA00F07047437A027A03EB02239E
:108FA400C079000400F47C1018440130800270473A
:108FB4004E4B93F82330002B40F09580F0B585B0EC
:108FC4004A4B012483F8234047B2002F31DB0023AE
:108FD4001D4600F07F06454C04EB030C8CF828601A
:108FE4005E1C4FEA116C264486F828C09E1CC1F30F
:108FF400074C264486F828C0DE1CC1F3072C2644FF
:1090040086F828C00433234483F82810402824D049
:10901400482824D0FF210535344B2B4483F82810ED
:10902400022A1ED0032A32D0304B012283F8242096
:109034001BE0022483F82340772483F8284000248B
:1090440083F8294083F82A4083F82B4083F82C4086
:10905400FF2483F82D400623BAE79521DBE7872117
:10906400D9E7224B052283F82420002F14DB1F4B61
:1090740093F824400E34E4B21C4B93F858502F2D2F
:109084000CD81F2D10D905F01F05194A0EE0174BF7
:10909400052283F82420E8E70124EBE715494FF47F
:1090A400F37005F091F8ECE74FF0A042012303FAC6
:1090B40005F5C2F80C550D4B03F128020092062267
:1090C4000192383302930394002269460A4802F05D
:1090D40031FD10B9002005B0F0BD084AF021FDF7BC
:1090E400E9FA0020F7E71120704700BFA4350020FB
:1090F40000030050606C0300546C0300906C030088
:109104002DE9F04184B016461F469C4BDB8B40F2A0
:10911400D912934200F0BB8005460C46B3F5ED7FAF
:109124000AD2DBB140F2C712934240F068810123B6
:10913400002B4CD101200EE0B3F5F07F00F00E813E
:10914400B3F5F67F40F05B818C4A002382F823302C
:109154003B70D383022004B0BDE8F08136B1874B65
:109164009B8A4BB1854B9A8ADA82F8E084494FF4A2
:10917400C87005F029F8F2E7814940F2911005F032
:1091840023F8EFE7022038707C4B0022DA83E2E711
:10919400002C3AD02B78FE2B30D10135013CE4B2BF
:1091A400764B042283F82320A2B2B24228BF32466F
:1091B400002311469A4205D97049C968E85CC8542D
:1091C4000133F6E76D4B1A83DA681144D9606B4BAF
:1091D40093F82330032B5AD1684A138C01339BB282
:1091E400138444F620629342CCD8002CD0D02B7840
:1091F400FF2BCDD10135013CE4B2F6E705233B70EA
:109204005E4B0022DA830220A5E75C4B93F858807A
:10921400B8F12F0F1FD8B8F11F0F22D908F01F087B
:109224005849012202FA08F3C1F80C35534B03F1F3
:1092340028010091019238330293102303930022F2
:109244006946514802F076FC70B94C4B40F2C712A3
:10925400DA8300236CE74D494FF4F37004F0B4FF54
:10926400D9E74FF0A041DCE7454AF021FDF722FAA7
:10927400EBE746494FF4F37004F0A6FF17E04FF014
:10928400A04219E03E4AF021FDF714FA25E03B4BD9
:109294001B8BB3422DD2F31A9CB2F02C00D9F024CC
:1092A400364BDF68E6B293F858502F2DE1D81F2DC6
:1092B400E5D905F01F05334A012303FA05F5C2F881
:1092C4000C55334A00920193029703960022694693
:1092D4002D4802F02FFC0028D4D1284BDA68224410
:1092E400DA601A8B14441C8340F2D912DA83012009
:1092F40031E7224BDA8A013ADA8293F858402F2C6C
:109304001ED81F2C22D904F01F041E4B012202FA7E
:1093140004F4C3F80C45194B03F1280100910192A0
:10932400383302930223039300226946164802F05D
:1093340001FC70B9114B4FF4F072DA8301200AE793
:1093440012494FF4F37004F03FFFDAE74FF0A04303
:10935400DCE70B4AF021FDF7ADF9EBE70024074BFE
:10936400DB8ABBB1054B00221A84FF2183F8281045
:109374001A83032283F8232029E700BFA4350020A1
:10938400906C030000030050546C0300606C0300F5
:10939400CC3500201C4BFF2283F8282093F858403A
:1093A4002F2C1ED81F2C22D904F01F04174B012286
:1093B40002FA04F4C3F80C45134B03F1280100919D
:1093C4000192383302930223039300226946104822
:1093D40002F0B0FB70B90C4B4FF4F672DA83012043
:1093E400B9E60C494FF4F37004F0EEFEDAE74FF0FF
:1093F400A043DCE7084AF021FDF75CF9EBE7024BF8
:109404000022DA830320A6E6A435002000030050DE
:10941400546C0300606C0300906C030070B582B060
:1094240014460678427883781B0443EA0263C278C0
:1094340043EA022302791A43BC4B9B8BB3F50E7F9C
:1094440000F0F7801DD940F26125AB4200F078812D
:1094540053D840F24D218B4200F0268140F2532133
:109464008B4240F0A98136F0030340F0578112F09B
:10947400804F00F0E580AD4A937A43F0080393727D
:10948400DEE040F21322934274D0B3F5057F12D28A
:10949400002B57D0B3F5047F40F08E8101220021C8
:1094A4004020FFF785FD00285ED1A04B40F2132237
:1094B4009A83012057E140F21922934277D040F277
:1094C4002622934240F0788116F0040F00F0D380F6
:1094D400964B9A7A012161F302029A72934A138C91
:1094E40001339BB21384B3F5FA6F40F290800220EB
:1094F4002070134600229A8335E140F26B22934296
:1095040000F0408140F27122934240F055810DF108
:1095140007031022FFF7F4FD012840F252819DF861
:109524000730002B40F04281804D05F14800FFF7E1
:109534000FFD68604FF400732B8100232370AB830D
:10954400022010E1012200214020FFF731FD28B95B
:10955400764B4FF404729A83012004E1744A40F27A
:109564000F21FDF7A7F8F3E7714A40F21221FDF746
:10957400A1F89AE736F0030306D0042323706B4B5B
:1095840000229A830220EEE003224FF4D571482092
:10959400FFF70EFD28B9654B40F219229A8301208A
:1095A400E1E0634A4FF40671FDF784F8F3E716F03F
:1095B400040F08D15D4B9A7A032161F302029A7277
:1095C40036F0030313D1594B00221A849B7A03F01B
:1095D4000703032B12D000210222E920FFF7E8FC45
:1095E40078B9524B40F226229A830120BBE004232F
:1095F40023704E4B00229A830220B4E04FF0804146
:10960400EAE74B4A40F22521FDF754F8E9E7022244
:1096140000214120FFF7CCFC28B9444B4FF40E72D3
:109624009A8301209FE0424A40F23721FDF742F835
:10963400F3E736F0030317D116F0010F7FF44EAFB2
:109644003A4B9B7A03F00703032B7CD001224FF49F
:1096540000715020FFF7ACFC00286BD1334B40F273
:1096640061229A8301207EE0042323702F4B002281
:109674009A83022077E036F0030318D00423237082
:109684002A4B00229A8302206DE0022020701346A8
:1096940000229A8367E04FF080411AE0244A4FF495
:1096A4001371FDF707F81AE036F003031DD116F025
:1096B400010F21D01D4A138C01339BB21384B3F5DF
:1096C400FA6FE2D8194B9B7A03F00703032BE2D01D
:1096D40000210222E920FFF76BFC0028DED1134BA6
:1096E40040F24D229A8301203DE0042323700F4B66
:1096F40000229A83022036E0022200217A20FFF71A
:1097040057FC28B9094B40F253229A8301202AE0DE
:10971400074A40F25221FCF7CDFFF3E704232370FC
:10972400024B00229A8302201DE000BFA4350020D2
:10973400906C0300244A4FF41871FCF7BBFF8DE7CB
:1097440036F0030311D1214B03F14802DA60012200
:109754009A8200214920FFF72BFC68B91B4B40F289
:109764006B229A83012002B070BD04232370174B2F
:1097740000229A830220F6E7134A40F26A21FCF79A
:1097840099FFEBE736F0030309D101300139C9B27F
:109794000E4B0022DA8340F271229A83B7E6042347
:1097A40023700A4B00229A830220DCE72370074BC4
:1097B40000229A830220D6E7044B00229A830320D6
:1097C400D1E70020CFE700BF906C0300A435002050
:1097D40010B582B014462A4B9B8B40F29A229342D6
:1097E40016D040F2A222934221D023B1244B00226E
:1097F4009A83032020E0037833F003031ED1013061
:109804000139C9B21E4B0022DA8340F29A229A83AC
:109814000DF107034FF40072FFF772FC01282CD9F5
:109824009DF807308BB9164B9B8A012B13D8002364
:109834002370134A9383022002B010BD04232370C3
:109844000F4B00229A830220F6E723700C4B002270
:109854009A830220F0E7012200214C20FFF7A8FBA5
:1098640028B9074B40F2A2229A830120E4E7054A73
:1098740040F2A121FCF71EFFF3E70020DCE700BF64
:10988400A4350020906C0300F0B585B0B54B9B8BDC
:10989400B3F5397F00F0FF8016D940F20A34A342B1
:1098A40000F0CB8120D9B3F5487F00F0DC81B3F51B
:1098B4004C7F14D10023994240F2DB81C45C002C1C
:1098C40040F024820133F6E740F2C3218B4223D0D7
:1098D40040F2D3218B4200F0DE80002B5BD0A14B01
:1098E40000229A830320CEE1B3F53B7FF7D19D4B51
:1098F40093F83A3003F01F03052B00F04B810B2B38
:1099040000F041810D2B00F03E8104231370954B30
:1099140000229A830220B6E1037833F0030362D174
:10992400904B998AD9828F4BDB8A002B62D18D4B65
:109934009B8A012B40F2A2818A4BFF2283F82820C4
:10994400FD2283F8292093F858402F2C00F27D81C2
:109954001F2C40F2808104F01F04834A012303FA80
:1099640004F4C2F80C457F4B03F128020092022252
:1099740001923833029303230393002269467B4800
:1099840002F0D8F8002840F06981764B4FF4487211
:109994009A83012077E1037833F0030316D1714BE6
:1099A4009B7A03F00703012BBAD06E4B9B8A012BE1
:1099B400B6D901226B4B19695920FFF7F9FA60B93E
:1099C400684B40F2C3229A8301205CE104231370A4
:1099D400644B00229A83022055E1654A40F2C22179
:1099E400FCF768FEECE7042313705E4B00229A83B5
:1099F400022048E15B4B00221A83042283F82320CF
:109A0400FF2283F828209B8A012B26D9FC22554B60
:109A140083F8292093F858402F2C20D81F2C24D9C0
:109A240004F01F04504A012303FA04F4C2F80C455D
:109A34004C4B03F128020092022201923833029324
:109A4400039200226946494802F074F880B9454BF4
:109A540040F2D3229A83012015E1FE22D7E745493B
:109A64004FF4F37004F0B0FBD8E74FF0A042DAE70C
:109A74003F4AF021FCF71EFEE9E73E494FF4F3703C
:109A840004F0A2FB1AE04FF0A0421CE0384AF02197
:109A9400FCF710FE28E0334B1B8BB3F5007F2CD270
:109AA400C3F50074A4B2F02C00D9F0242D4AD66872
:109AB4001E44E7B292F858502F2DDED81F2DE2D95C
:109AC40005F01F05284A012303FA05F5C2F80C55D1
:109AD40000960197284A029203930022694623487C
:109AE40002F028F80028D1D11E4B1A8B14441C8391
:109AF4004FF439729A830120C5E01A4BDA6802F5F3
:109B04000072DA60032283F8232093F858402F2C44
:109B14001ED81F2C22D904F01F04134B012202FA71
:109B240004F4C3F80C450F4B03F128010091019292
:109B34003833029303230393002269460B4801F050
:109B4400F9FFD8B9074B4FF43B729A8301209AE08E
:109B540008494FF4F37004F037FBDAE74FF0A04301
:109B6400DCE700BFA435002000030050546C030060
:109B7400906C0300606C0300DC350020664AF02121
:109B8400FCF798FDDEE705231370644B00229A83EB
:109B9400022078E0614B0021198444E05F490B8C7A
:109BA40001339BB20B8444F620618B4205D9022019
:109BB40010705A4B00229A8365E0584B93F8584032
:109BC4002F2C05D81F2C09D904F01F04544B07E08F
:109BD40054494FF4F37004F0F7FAF3E74FF0A0435D
:109BE400012202FA04F4C3F80C454C4B03F128019A
:109BF40000910192383302931023039300226946A3
:109C0400494801F097FF28B9444B40F20A329A833D
:109C1400012038E0404AF021FCF74CFDF4E73F4BCB
:109C2400002183F823103D4B93F82330032BB5D048
:109C34003A49CB8A013BCB8275E600239942F2D99B
:109C4400C45C002CEBD10133F8E736494FF4F370D0
:109C540004F0BAFA7CE64FF0A0427FE62E4AF021E7
:109C6400FCF728FD91E62D4B00211984032183F88C
:109C740023102A4B93F82330032B06D000231370B0
:109C8400264A9383022005B0F0BD24490B8C01338E
:109C94009BB20B8444F620618B4205D902201070DC
:109CA4001E4B00229A83EEE71C4B93F858402F2C4E
:109CB4001ED81F2C22D904F01F04194B012202FACA
:109CC40004F4C3F80C45154B03F1280100910192EB
:109CD400383302931023039300226946124801F09B
:109CE40029FF70B90D4B4FF44C729A830120CAE7D7
:109CF4000C494FF4F37004F067FADAE74FF0A0432D
:109D0400DCE7054AF021FCF7D5FCEBE7034B002127
:109D140083F82310ADE700BF906C0300A435002046
:109D240000030050606C0300546C030070B50D46D2
:109D34001446064640B3204B93F82230002B35D00E
:109D44001D4B93F82230DBB2032B31D1002C31D0E0
:109D5400194B042283F822209B7A13F0080F19D19F
:109D64006D02154B1D61144BDE609C82DC82002267
:109D74009A83012C11D9522001220F4B1969FFF744
:109D840017F960B9002014E00C4940F2E23004F005
:109D94001BFAD0E7084B1D61E5E75120ECE7074AC1
:109DA40040F20241FCF786FC002002E0082000E0BB
:109DB400112070BD0720FCE7A4350020906C03003F
:109DC40070B50E461446054650B32A4B93F822301C
:109DD400002B49D0274B93F82230DBB2032B45D11B
:109DE400002C45D0234B052283F822209A7A12F0C6
:109DF400080F1BD176021E611E4BDD609C82DC8243
:109E040000219983012C14D002F00702012A1ED0EC
:109E140001222146D720FFF7CBF8F0B9002026E035
:109E2400154940F20A4004F0CFF9CEE7114B1E6108
:109E3400E2E7012219695820FFF7BAF808B90020AF
:109E440015E00D4A40F22D41FCF734FCF7E7094BCD
:109E540019695920FFF7ACF8DFE7074A40F23C41A3
:109E6400FCF728FC002002E0082000E0112070BD6F
:109E74000720FCE7A4350020906C0300574B93F8AF
:109E84002230002B40F09E80002900F09D80C37892
:109E9400FF2B00F09B804278FF2A00F09980F0B5F8
:109EA40089B00578FF2D00F095808778FF2F00F0AA
:109EB40093800E46044613B10AB105B127B9484947
:109EC40040F2524004F080F9E578444B83F858504E
:109ED4002F462F2D05D81F2D09D905F01F07414BFB
:109EE40007E041494FF4F37004F06EF9F3E74FF0E3
:109EF400A04307F5E077032243F82720374B93F874
:109F040058502F2D05D81F2D09D905F01F05354AA6
:109F140007E035494FF4F37004F056F9F3E74FF0D6
:109F2400A042012303FA05F5C2F80855A3788DF879
:109F3400103023788DF8113063788DF81230FF23B8
:109F44008DF8133006228DF814208DF815304FF05B
:109F54008063069300238DF81C308DF81D30234A4E
:109F640004A9234800F008FDF8B91C4B1E60012029
:109F740083F822009A7A02F0F8026FF3C3029A720D
:109F8400002283F823201946FF2401F8284F00916A
:109F94000190383302930A2303936946154801F06C
:109FA400C9FD40B9002009B0F0BD0D4A40F2654139
:109FB400FCF780FBD9E70A4A40F27141FCF77AFBCF
:109FC4000020F0E7082070470720704707207047FB
:109FD400072070470720E6E70720E4E7A4350020C0
:109FE400906C030000030050606C030071A0020039
:109FF400506C0300546C030038B5184B93F82230AE
:10A004004BB3164B93F82230DBB2032B01D0112053
:10A0140038BD134801F016FD104B93F858502C46E8
:10A024002F2D0FD81F2D13D905F01F040D4B04F548
:10A03400E074002043F82400084B83F8230083F8DD
:10A044002200E5E708494FF4F37004F0BDF8E9E7AE
:10A054004FF0A043EBE70820DAE700BFA435002067
:10A06400546C030000030050606C0300F0B587B02B
:10A074000646C568047CB24BDB8ABBB1B04B93F88F
:10A084002330013BDBB2012B29D906238DF817308D
:10A09400AB4B93F82230013B042B00F29B81DFE8A9
:10A0A40013F0DA00E000990123016401A44B93F852
:10A0B40058702F2F0AD81F2F0ED907F01F07A14A57
:10A0C400012303FA07F7C2F80875D7E79E494FF44E
:10A0D400F37004F079F8EEE74FF0A042F0E7062CB5
:10A0E4000ED9A31FDBB2A81D726811784C290DD0BC
:10A0F40093B10278FF2A0FD1013BDBB20130F7E7BD
:10A10400924940F2573004F05FF8EAE7002BEFD0B1
:10A11400E31FDBB2E81DEBE7CBB94C2914D00020D8
:10A12400874A92F82220D2B2012A12D001238DF854
:10A134000530834B93F82230013B042B43D8DFE8EE
:10A1440003F0141442243E000133DBB2013800282A
:10A15400E6D07B4A92F82320022A44D0784A002190
:10A1640082F823101C4605468FE700238DF804303F
:10A17400734B032283F82220FFF73EFF40B1734A5A
:10A1840040F28331FCF796FA02E001238DF80430A3
:10A194006B4B93F858402F2C1CD81F2C20D904F05B
:10A1A4001F04684A012303FA04F4C2F80845644B07
:10A1B400032283F822201B6801A8984759E0022350
:10A1C4008DF80430E4E7614A4FF463710320FCF72F
:10A1D40071FADDE75C494FF4F37003F0F5FFDCE757
:10A1E4004FF0A042DEE7564A012182F8231002789C
:10A1F40032F00102B2D1524B93F824400E34E4B24F
:10A2040093F858502F2D1DD81F2D21D905F01F0567
:10A214004C4A012303FA05F5C2F80C55484B03F1E7
:10A224002E020192062202923833039304940022F0
:10A2340001A9474801F07EFCD8B1444AF021FCF75B
:10A2440039FA16E040494FF4F37003F0BDFFDBE741
:10A254004FF0A042DDE73A4B022283F8222000228D
:10A264009A830DF1170221462846FFF7D7F80128F3
:10A2740001D807B0F0BD00238DF814309DF81730D5
:10A284008DF815302E4B032283F8222093F8584082
:10A294002F2C16D81F2C1AD904F01F04294A012385
:10A2A40003FA04F4C2F808459DF8173093B9294B12
:10A2B4004FF08042C3F82425214B1B6805A898471A
:10A2C400D7E721494FF4F37003F07EFFE2E74FF044
:10A2D400A042E4E7FFF790FE0028E8D01B4A40F2D2
:10A2E400B731FCF7E7F9E2E70DF1170221462846FA
:10A2F400FFF76EFA0128BCD901238DF814309DF8BC
:10A3040017308DF815300E4B032283F822200022DB
:10A314009A82DA8283F8232093F858402F2C1BD892
:10A324001F2C1FD904F01F04064A012303FA04F466
:10A33400C2F80845024B1B6805A8984799E700BF77
:10A34400A435002000030050606C0300906C0300EF
:10A35400546C03000030004022494FF4F37003F0C2
:10A3640033FFDDE74FF0A042DFE70DF1170221468E
:10A374002846FFF789FA01287FF67BAF02238DF880
:10A3840014309DF817308DF81530174B032283F8DD
:10A394002220002283F823209A82DA8293F85840FC
:10A3A4002F2C0ED81F2C12D904F01F040F4A01239E
:10A3B40003FA04F4C2F808450B4B1B6805A8984738
:10A3C40057E708494FF4F37003F0FEFEEAE74FF055
:10A3D400A042ECE7064A4FF476710320FCF76AF9D1
:10A3E40047E700BF606C0300A43500200003005061
:10A3F400906C0300074B93F82230DBB2032B05D09B
:10A40400044B93F822301BB900207047002070479A
:10A4140001207047A4350020044B93F82230DBB2AE
:10A42400022B01D90248704700207047A435002050
:10A43400A83500200120704701207047064B1B6897
:10A44400082B01D000207047044B1B680BB100207F
:10A4540070470120704700BF300100103401001024
:10A46400064B1B68082B01D000207047044B1B6867
:10A474000BB1002070470120704700BF300100106D
:10A4840034010010064B1B68082B01D000207047D4
:10A49400044B1B680BB1002070470120704700BFBC
:10A4A400300100103401001001207047014B024AB2
:10A4B4001A607047202D00200090D00308B5FFF7E4
:10A4C400B9FF40B14FF080430022C3F80C21C3F818
:10A4D4001021C3F83825FFF7AFFF002846D04FF00E
:10A4E4008052D2F804145D4BC3F82015D2F8081436
:10A4F400C3F82415D2F80C14C3F82815D2F8101494
:10A50400C3F82C15D2F81414C3F83015D2F8181463
:10A51400C3F83415D2F81C14C3F84015D2F820142B
:10A52400C3F84415D2F82414C3F84815D2F82814F3
:10A53400C3F84C15D2F82C14C3F85015D2F83014C3
:10A54400C3F85415D2F83414C3F86015D2F838148B
:10A55400C3F86415D2F83C14C3F86815D2F8401453
:10A56400C3F86C15D2F84424C3F87025FFF766FFCE
:10A5740010B13B4B3B4A1A60FFF772FF48B13A49AE
:10A584000B6823F00F03394A126802F00F021343D9
:10A594000B60FFF777FF18B1354B4FF400721A6068
:10A5A400FFF782FF60B14FF08043D3F8003413F01B
:10A5B400010F05D04FF080436FF00102C3F800246F
:10A5C4002C4AD2F8883043F47003C2F88830BFF3C1
:10A5D4004F8FBFF36F8F4FF01023D3F80032002B4F
:10A5E40008DB4FF01023D3F80432002B02DBFFF713
:10A5F4005DFF08BD204B0122C3F804251E4BD3F890
:10A604000034002BFAD04FF010231222C3F800229A
:10A61400194BD3F80034002BFAD04FF01023122238
:10A62400C3F80422144BD3F80034002BFAD0124B95
:10A634000022C3F80425104BD3F80034002BFAD0C1
:10A64400BFF34F8F0B49CA6802F4E0620B4B13430C
:10A65400CB60BFF34F8F00BFFDE700BF00C00040D9
:10A664008C56004048810300E40E0040580200105C
:10A674004096024000ED00E000E001400400FA05CD
:10A6840070B500240DE00E494FF4F37003F09CFD07
:10A694000EE04FF0A04305F5E0750C2243F82520A9
:10A6A4000134032C0AD8074B1E5D35462F2EEAD8F9
:10A6B4001F2EEED906F01F05034BECE770BD00BF5B
:10A6C400606C0300046D03000003005010B50446E1
:10A6D400032809D80E4B1C5D2F2C0AD81F2C0ED929
:10A6E40004F01F040B4B0CE00B493A2003F06CFD03
:10A6F400F0E70A494FF4F37003F066FDEEE74FF01C
:10A70400A043D3F80405E04000F0010010BD00BFF1
:10A71400086D030000030050D06C0300606C03005C
:10A7240010B50446032809D80E4B1C5D2F2C0AD8FB
:10A734001F2C0ED904F01F040B4A0CE00B494120D6
:10A7440003F042FDF0E70A494FF4F37003F03CFDD7
:10A75400EEE74FF0A042012303FA04F4C2F80845DF
:10A7640010BD00BF086D030000030050D06C03004F
:10A77400606C030010B50446032809D80E4B1C5D19
:10A784002F2C0AD81F2C0ED904F01F040B4A0CE0FE
:10A794000B49472003F018FDF0E70A494FF4F37022
:10A7A40003F012FDEEE74FF0A042012303FA04F494
:10A7B400C2F80C4510BD00BF086D03000003005033
:10A7C400D06C0300606C030010B5002403E0204645
:10A7D400FFF7D0FF0134032CF9D910BD70B5002464
:10A7E4000DE00F494FF4F37003F0EEFC0EE04FF070
:10A7F400A04305F5E075032243F825200134032C1A
:10A804000AD8084B1E5D35462F2EEAD81F2EEED9E6
:10A8140006F01F05044BECE7FFF7D6FF70BD00BF41
:10A82400606C0300086D03000003005010B50024A1
:10A8340003E02046FFF774FF0134032CF9D910BD5F
:10A8440010B50446032809D8114B1C5D2F2C0AD8D7
:10A854001F2C0ED904F01F040E490CE00E495F2092
:10A8640003F0B2FCF0E70D494FF4F37003F0ACFCD5
:10A87400EEE74FF0A041D1F804350122A24022EACC
:10A884000300C1F808051340C1F80C3510BD00BF22
:10A89400086D030000030050D06C0300606C0300DB
:10A8A40010B50446032809D8104B1C5D2F2C0AD878
:10A8B4001F2C0ED904F01F040D4B0CE00D49AC20E5
:10A8C40003F082FCF0E70C494FF4F37003F07CFCD6
:10A8D400EEE74FF0A043D3F8103523FA04F414F054
:10A8E400010F0CBF0120002010BD00BF046D030048
:10A8F40000030050D06C0300606C03000023032BA2
:10A9040005D8054AD25C824203D00133F7E74FF001
:10A91400FF331846704700BF046D030010B50446AA
:10A9240010F0010F03D114F0020F03D110BDFFF793
:10A9340055FFF8E7FFF7A4FEF8E7000000B587B07D
:10A9440003788DF804304368029383688DF80C30E3
:10A95400C368049303698DF81430054B53F8213010
:10A96400044A52F8211001A8984707B05DF804FB87
:10A974001036002000360020F0B585B00C4617468E
:10A98400054615F8046B184A42F82670174A42F82F
:10A994002630174B0FCB0DF1100C0CE90F00237868
:10A9A4008DF8003063788DF80130A3788DF802308B
:10A9B400E3788DF8033023798DF8053063798DF8C9
:10A9C4000630A3680293237B8DF80C30637B8DF8EB
:10A9D4000D303FB1074A33466946284600F06EFE03
:10A9E40005B0F0BD0022F6E7103600200036002046
:10A9F4000C6D030041A9020003680BB11A680260E0
:10AA04001846704708B50BF0F7F828B900F092F92A
:10AA1400044B00229A7008BD0349792003F0D4FB4B
:10AA2400F4E700BF203600201C6D030000B170471E
:10AA340008B5064B01225A700548FFF7DDFF18B12F
:10AA4400436800209847F7E708BD00BF2036002080
:10AA54002836002010B5044610B1012C0CD010BDCE
:10AA64000B4B01225A700B48FFF7C6FF0028F4D0A5
:10AA7400436800209847F6E7054B01229A70064880
:10AA8400FFF7BAFF0028EAD0436801209847F6E7A9
:10AA940020360020283600203036002010B50D4B1B
:10AAA4001B7813B18524204610BD0A4B00229A60FE
:10AAB4005A601A61DA60084800F002F904460BF0A3
:10AAC4009BF818B1034B01221A70ECE700F010F95F
:10AAD400F8E700BF2036002059AA020000B583B071
:10AAE400144B1B78B3B1134BDB68CBB100238DF847
:10AAF40007300DF10700FCF71FFB0E4BDA68013A33
:10AB0400DA60DB6893B19DF80700FCF749FB03B0FA
:10AB14005DF804FB08494FF4857003F055FBE2E748
:10AB2400054940F20B1003F04FFBDFE7FFF76AFF24
:10AB3400E9E700BF203600201C6D030000B583B098
:10AB440001280BD043B223B103281FD003B05DF812
:10AB540004FB154B0122C3F88020F7E700238DF88E
:10AB640007300DF10700FCF7E7FA104B1B7853B1DF
:10AB74000E4BDA680132DA6001229A709DF8070000
:10AB8400FCF70EFBE2E7FFF789FFF1E7074B1B78C1
:10AB940023B100F0ADF8FFF7A1FFD7E7044940F275
:10ABA400452003F011FBF4E700E100E0203600202B
:10ABB4001C6D030000B585B003788DF80030436840
:10ABC400019383688DF80830C3680393054B53F8E9
:10ABD4002130054A52F821106846984705B05DF8BF
:10ABE40004FB00BF3C3600203436002000B585B09D
:10ABF40003788DF800304368019383688DF808303A
:10AC0400C3680393054B53F82130054A52F82110C9
:10AC14006846984705B05DF804FB00BF3C36002049
:10AC2400343600202DE9F04188B006460C469046A3
:10AC340007781D4B43F827200A691C4B43F827204B
:10AC4400012F1BD0637FDFF874C00CF807306D460A
:10AC54000FCC0FC594E80F0085E80F0004973378F4
:10AC64001CF80330A3B1301DB8F1000F0ED0104A08
:10AC7400694601F04FFD08B0BDE8F0814B7F002B21
:10AC8400E0D10C49762003F09FFADBE70022EFE7DE
:10AC940006F10C00B8F1000F04D0074A694601F030
:10ACA40013FAE8E70022F9E73C36002034360020A6
:10ACB400B9AB02005C6D0300F1AB02004436002026
:10ACC40010B5044648B1084B1B795BB9064B1C60B0
:10ACD40001221A710020587110BD0449A02003F00C
:10ACE40073FAF0E78520F7E7483600209C6D0300EF
:10ACF40008B50D4B1B7953B10C4B1B6813F0010FB6
:10AD04000AD04FF080430122C3F8182508BD084932
:10AD1400B92003F059FAEFE7044BC02283F800236B
:10AD240001221A60EDE700BF4836002000E100E090
:10AD34009C6D030008B5094B1B7953B1084B0122E4
:10AD44001A604FF08043D3F8183413F4803FF8D1DD
:10AD540008BD0449F32003F037FAEFE74836002032
:10AD64000C0000409C6D030000B583B0154B1B68BC
:10AD740093B1144B00221A601B680093009B4FF0A0
:10AD840080430122C3F808230F4B5B7923B90E4B90
:10AD94005A711B68002098470C4B1B6873B10B4B0E
:10ADA40000221A601B680193019B4FF0804302222A
:10ADB400C3F80823044B1B680120984703B05DF8CF
:10ADC40004FB00BF0001004048360020040100409D
:10ADD40070B4154662B1002365B10824A34218D2A9
:10ADE4000E4A52F82320B2F1FF3F05D00133F5E7B4
:10ADF4000823F1E70C24F1E75AB2084C261886F828
:10AE0400302044F8231035B9083B234483F860000C
:10AE140001E04FF0FF32104670BC704750360020FE
:10AE2400064B4FF0FF3243F82020072804D9083896
:10AE34001844FF2380F86030704700BF503600206C
:10AE44001B4B93F86A308BBB10B582B006E0184AEE
:10AE54001A44FF2182F830100133DBB22F2BF6D9CC
:10AE6400002404E02046FFF7DBFF0134E4B20B2C9E
:10AE7400F8D90F4C0622002104F164000BF01EF9EE
:10AE84000C4BC02283F8062340221A600A4B002090
:10AE940018601B680193019B084B4FF00042C3F8F4
:10AEA4000423012384F86A3002B010BD08207047DF
:10AEB4005036002000E100E07C610040006000406A
:10AEC400034B93F86A00003018BF0120704700BF9D
:10AED40050360020F8B504460D4616462F2807D8EC
:10AEE400434B234493F93030002B07DB0820F8BD93
:10AEF400404940F2072003F067F9F1E7AA78C2F36A
:10AF0400400231462046FFF763FF0646B0F1FF3F9B
:10AF14006BD0AB7813F0040F19D113F0010F34D1B7
:10AF24006F782F2C4BD81F2C4FD904F01F03324AB3
:10AF3400BF0003F5E07342F82370E30804F007014F
:10AF44002E48012202FA01F1C25C0A43C254AB78D2
:10AF540013F0020F3DD02B78294906F5A27651F85B
:10AF6400262022F44F3222F4407241F8262051F870
:10AF74002620240204F47C541B0403F440331C43B1
:10AF8400144341F826400020B1E72F2C05D81F2C8C
:10AF940009D904F01F03184908E01A494FF4F37063
:10AFA40003F012F9F3E723464FF0A04103F5E073F1
:10AFB40051F8232022F0020241F82320BDE7114971
:10AFC4004FF4F37003F000F9ADE723464FF0A042CD
:10AFD400AEE7083E2A78064B1E4496F8603043EAF2
:10AFE400821386F86030002081E704207FE700BFE9
:10AFF40050360020E46D030000030050B4360020F6
:10B0040000600040606C030070B582B004460D46D9
:10B014002F282FD8454B234493F93030002B2FDBB6
:10B02400424B234493F93030072B55DDA3F108023A
:10B034003E4B134493F96030C3F38113032B25D0A3
:10B04400012B3CD003252F2C3DD81F2C41D904F0D3
:10B054001F04374B04F5E07453F8242022F44032E3
:10B0640043F8242053F8242042EA054243F82420DC
:10B0740002B070BD2F4940F2372003F0A5F8C9E7AC
:10B084002C494FF40E7003F09FF8C9E72F2C05D814
:10B094001F2C09D904F01F02254B08E026494FF460
:10B0A400F37003F091F8F3E722464FF0A043D3F88E
:10B0B4001035D34013F0010F03D00325C3E7022555
:10B0C400C1E70225BFE71C494FF4F37003F07CF895
:10B0D400BBE74FF0A043BDE7DAB2072AC8D803F1B3
:10B0E400400292B2920092B2144803F5A27650F84C
:10B0F400261041F0010140F8261002F1804202F5C9
:10B10400C0420021116012680192019A002DAFD053
:10B11400064A144494F9301052F82120002AA7D08A
:10B12400012202FA03F3C0F80433A1E750360020E9
:10B1340000030050E46D0300606C030000600040F5
:10B1440010B504462F2807D82F2C0BD81F2C0FD945
:10B1540004F01F040A4B0DE00A494FF4227003F077
:10B1640033F8F1E708494FF4F37003F02DF8EDE7F5
:10B174004FF0A043D3F81005E04000F0010010BDEB
:10B1840000030050E46D0300606C03002DE9F047F8
:10B194008CB000250A950B9501204FF48073294645
:10B1A40003E0400004339BB20131072912D803F1B4
:10B1B400804202F5C0421468012CF2D1924CD4F8BA
:10B1C40004432042EDD00024146012680092009AD7
:10B1D4000543E6E78D4B1B68012B07D015F0FF0FE5
:10B1E40038D1002D39DB0CB0BDE8F087874A002345
:10B1F400136012680192019A45F00045844908AA37
:10B2040003C982E803000AAA09E00CA901EB83013F
:10B2140051F8101CD1F8101542F8041B0133012B0E
:10B22400F3D9DBE776000134072CDAD83542F9D0BC
:10B23400754B04F5A27253F82200C0F3052053F8AD
:10B244002210C1F30141734B53F82430002BE9D091
:10B254009847E7E701260024E6E7002302930393D7
:10B2640007E00CAA02EB83024FF0FF3142F8201CE6
:10B274000133012BF5D900273C4624E0032D21D1CD
:10B2840044E002AA12F80930334302F809303FE0DF
:10B2940061494FF4F37002F097FF3CE043464FF0EE
:10B2A400A04203F5E07352F82330C3F301430CAA20
:10B2B400914419F8082C164001D0022B32D00EB953
:10B2C400032B2FD00134032C5ED8524B234493F923
:10B2D4006030DAB222F0C008B3F1FF3FF2D04FEA97
:10B2E400D80902F0070301269E400CAB4B4413F827
:10B2F400203C1E42E6D09509464B03EB080292F926
:10B30400302053F822A0BAF1000FB7D0032DB8D0E3
:10B31400B8F12F0FBCD8B8F11F0FBFD908F01F0325
:10B324003E4ABEE7032D06D0BAF1000FCAD0294623
:10B334004046D047C6E7022B1AD00226B8F12F0F99
:10B3440018D8B8F11F0F1BD908F01F03334A03F5AF
:10B35400E07352F8231021F4403142F8231052F8DC
:10B36400231041EA064642F823600137FFB2DBE7C7
:10B374000326E3E728494FF4F37002F025FFE0E7E2
:10B3840043464FF0A042E2E71FB9002F3FF42BAF32
:10B3940071E71F4A08AB92E8030083E80300002327
:10B3A40006AA09E00CA901EB830151F8101CD1F89D
:10B3B400101542F8041B0133012BF3D90023012B90
:10B3C4000AD80CAA02EB830252F8181C52F8082C73
:10B3D400914207D10133F2E70123002B7FF403AF3D
:10B3E40000230DE00023F8E70CAA02EB830252F8D5
:10B3F400181C42F8081C52F8281C42F8201C01337F
:10B40400012BF1D9C1E700BF006000407C6100401E
:10B41400DC6D030050360020606C03000003005014
:10B42400034B984201D1034870470020704700BF86
:10B4340000200040BC36002008B5064B1B681BB139
:10B44400044B1B68984708BD0349512002F0BCFE19
:10B45400F6E700BFBC360020246E030070B582B04E
:10B464000E460446B8B12046FFF7DAFF0446B8B1E9
:10B4740000238DF807300DF10700FBF75DFE2579F9
:10B4840015B92660012323719DF80700FBF788FE98
:10B494004DB9002005E00549772002F095FEE2E76A
:10B4A400002002B070BD1120FBE700BF246E030032
:10B4B40010B5044638B12046FFF7B2FF10B10022A0
:10B4C4000260027110BD02499B2002F07DFEF2E78A
:10B4D400246E030070B50446C57FFF2D0DD0837F15
:10B4E400EBB12E462F2D11D81F2D15D905F01F06AF
:10B4F400164A0123B340C2F80C3500236377237244
:10B50400204650F8083B6168984770BD10494FF4D5
:10B51400F37002F059FEE7E74FF0A042E9E72E4648
:10B524002F2D09D81F2D0DD905F01F06074A012319
:10B53400B340C2F80835E0E705494FF4F37002F070
:10B5440043FEEFE74FF0A042F1E700BF00030050D5
:10B55400606C0300D0F81831B3B110B582B00C465A
:10B564000023C0F81831D0F818310193019B0B68FF
:10B5740023B12046FFF7AEFF02B010BD03494FF4DC
:10B58400277002F021FEF4E7704700BF646E0300E9
:10B5940008B502490248FFF7DDFF08BDC4360020A4
:10B5A4000030004030B583B0146824B104F0604525
:10B5B400B5F1005F33D1956825B105F06045B5F16B
:10B5C400005F2CD15568C0F84445C0F848559468CC
:10B5D400D268C0F83445C0F838250022C0F81821D4
:10B5E400D0F818210192019A13F0010F1CD0012206
:10B5F400C0F8502513F0020F1AD00122C0F84025DC
:10B6040013F0080F01D1012202610A68A2B113F0FC
:10B61400040F48D04023C0F80833002002E0002380
:10B624004B77102003B030BD0022C0F85025E1E76D
:10B634000022C0F84025E3E7D0F81831002BFBD0F6
:10B64400CC7FFF2C34D08B7FB3B125462F2C0AD866
:10B654001F2C0ED904F01F05164A0123AB40C2F873
:10B664000C350020DEE714494FF4F37002F0ACFD12
:10B67400EEE74FF0A042F0E725462F2C0AD81F2C06
:10B684000ED904F01F050B4A0123AB40C2F808355C
:10B694000020C7E708494FF4F37002F095FDEEE788
:10B6A4004FF0A042F0E74023C0F804330020B9E78C
:10B6B4000020B7E700030050606C03002DE9F04F51
:10B6C40083B00746924699460C4651B33D7905EB43
:10B6D400C5039A00CA4B13441B7F002B40F0A8817A
:10B6E4003E68C8493046FFF7B9FE0190002840F093
:10B6F400A281C349EB002B449A008B1841F802A0A5
:10B70400C3F80490237B012B10D994F80090B9F16D
:10B714002F0F25D8B9F11F0F28D909F01F09BA4AEC
:10B7240026E0BA49AD2002F04FFDCFE794F800902F
:10B73400B9F12F0F0BD8B9F11F0F0ED909F01F095A
:10B74400B14A012303FA09F3C2F80C3515E0B049F4
:10B754004FF4F37002F038FDEDE74FF0A042F0E74C
:10B76400AB494FF4F37002F02FFDD3E74FF0A04242
:10B77400012303FA09F3C2F8083594F800A0D1466E
:10B78400BAF12F0F06D8BAF11F0F09D90AF01F0911
:10B794009D4B07E09E494FF4F37002F015FDF2E76C
:10B7A4004FF0A04309F5E079012243F8292094F8E9
:10B7B4000190B9F1FF0F40F0B2804FF0FF3B94F8D5
:10B7C4000290B9F1FF0F00F0E380CA46B9F12F0FE0
:10B7D40000F2D580B9F11F0F40F2D78009F01F099C
:10B7E400894B09F5E079082243F82920A078EA007A
:10B7F4002A449100824B0B4483F8200094F8039070
:10B8040083F81F90B9F1FF0F2ED02379002B00F09D
:10B81400CB80C846B9F12F0F00F2BD80B9F11F0FDC
:10B8240040F2BF8009F01F08774A012303FA08F3A6
:10B83400C2F80C3594F80390C846B9F12F0F00F202
:10B84400CC80B9F11F0F40F2CE8009F01F086E4A78
:10B8540008F5E073032142F82310217905EBC503B1
:10B864009A00674B134499772378C6F80835C6F8CD
:10B874000CB5C6F810A5A368C6F82435227B637BF3
:10B88400003318BF0123022A00F0B380032A00F01A
:10B89400B380012A00F0AA80C6F85435A379C6F80B
:10B8A400C03505EBC5029300554AD35813B1402265
:10B8B400C6F804230722C6F800251BB33E6846F3E6
:10B8C40007366479A31EDBB2012B04D9631FDBB2F4
:10B8D400022B00F2A180002EC0F2A3806401E4B226
:10B8E40006F1604606F5614686F800433B681B0B8B
:10B8F4005AB203F01F035209012101FA03F3454927
:10B9040041F822303E4AEB005819810011440020CE
:10B91400487701230B77019803B0BDE8F08FCB463D
:10B92400B9F12F0F18D8B9F11F0F1BD909F01F0156
:10B93400354A01238B40C2F80C35B9F12F0F15D8C5
:10B94400B9F11F0F18D909F01F092F4B09F5E07938
:10B95400032243F8292032E72D494FF4F37002F013
:10B9640033FCE0E749464FF0A042E2E728494FF4B0
:10B97400F37002F029FCE3E74FF0A043E6E7244923
:10B984004FF4F37002F020FC24E74FF0A04328E7C3
:10B994004FF0FF3A2AE71E494FF4F37002F014FC0B
:10B9A4003CE74FF0A04240E7C846B9F12F0F0BD84F
:10B9B400B9F11F0F0ED909F01F08134A012303FA26
:10B9C40008F3C2F8083535E711494FF4F37002F073
:10B9D400FBFBEDE74FF0A042F0E70D494FF4F370A5
:10B9E40002F0F2FB2DE74FF0A04231E743F00203EF
:10B9F40052E743F004034FE743F006034CE700BF6C
:10BA0400C436002095B5020000030050646E0300A4
:10BA1400606C030000E100E008496B2002F0D4FBF5
:10BA240059E706F00F066401E4B2054B9C555DE747
:10BA3400082301936FE7112301936CE7A06E0300C1
:10BA440014ED00E02DE9F0410646047904EBC4034B
:10BA54009A00324B13441B7F002B4FD004EBC402DB
:10BA640093002E4AD15861B133681B0B5AB203F0CC
:10BA74001F035209012000FA03F32032284840F83A
:10BA840022303568B1B1274BC5F8083304EBC40341
:10BA94009A00224B13445B7F63B101236B61D5F899
:10BAA4000431002BFBD004EBC4039A001B4B13445A
:10BAB40000225A7704EBC4039A00184B134493F8FA
:10BAC4002070FF2F0CD0B8462F2F1DD81F2F21D93F
