:020000022000DC
:1060000000000420756302005D6302005F6302000C
:106010006163020063630200656302000000000028
:1060200000000000000000000000000067630200A4
:1060300069630200000000006B6302006D630200F0
:106040000DAE02006F630200D9B402006F6302005C
:106050006F6302006F6302002DB20200A1C702004D
:106060006F6302006F6302006F6302006F630200E0
:106070006F6302006F6302006F6302006F630200D0
:106080006F630200657E02006F6302006F630200AF
:106090008D7E02006F630200153C03006F630200F7
:1060A0006F6302006F6302006F6302006F630200A0
:1060B0006F6302006F630200000000000000000038
:1060C0006F6302006F6302006F6302006F63020080
:1060D0006F6302006F6302006F6302006F63020070
:1060E0006F6302007DC702006F63020000000000C2
:1060F000000000006F630200000000006F630200F8
:10610000000000000000000000000000000000008F
:10611000000000000000000000000000000000007F
:10612000000000000000000000000000000000006F
:10613000000000000000000000000000000000005F
:10614000000000000000000000000000000000004F
:10615000000000000000000000000000000000003F
:10616000000000000000000000000000000000002F
:10617000000000000000000000000000000000001F
:10618000000000000000000000000000000000000F
:1061900000000000000000000000000000000000FF
:1061A00000000000000000000000000000000000EF
:1061B00000000000000000000000000000000000DF
:1061C00000000000000000000000000000000000CF
:1061D00000000000000000000000000000000000BF
:1061E00000000000000000000000000000000000AF
:1061F000000000000000000000000000000000009F
:10620000354936480A1A02D0072291438D4634494F
:1062100034480A1A06D00722914381F309880222E2
:1062200082F3148830483149314A00F044F831484B
:106230003149324A00F03FF831483249324A00F0E1
:106240003AF832483249334A00F035F83248334997
:10625000334A00F030F833483349344A00F02BF821
:1062600033483449344A00F026F83448344900228F
:1062700000F02CF833483449002200F027F8334866
:106280003349091A082902DB002202604160314AC1
:1062900090471F481F49884205D00268043003B464
:1062A000904703BCF7E700208646EC46002000211B
:1062B000294A9047FEE7884207D0521A05D0037852
:1062C00001300B700131013AF9D17047884202D098
:1062D00002700130FAE770470000042000E003205C
:1062E00000000420000004208076030034220020F7
:1062F000C0220020D4630200D463020010420300D5
:1063000080760300342200203422002090430300D2
:106310009043030090430300904303009043030025
:1063200090430300904303009043030080760300F2
:106330000C770300C0220020C0220020C0220020D1
:106340002C3500202C3500202C3500202C35002049
:106350002C5500209D630200F5DA0200FEE7FEE7FF
:10636000FEE7FEE7FEE7FEE7FEE7FEE7FEE7FEE705
:10637000704700BF1048804710484FF0070188431E
:1063800085460F4880470F48016841F4700101605D
:10639000BFF34F8FBFF36F8FFFF732BF0A480B4930
:1063A0000B4A884207D0521A05D0037801300B708F
:1063B0000131013AF9D170477163020000000420F5
:1063C000EDA5020088ED00E07C43030020220020C0
:0463D0003422002053
:1063D400F0B595B00F4615461C46084603F0A4FFD9
:1063E4000E950F94002410948DF8444012941A9B37
:1063F40013932346082208A9384603F0BFFF0A9BDB
:106404000B93BDF82430ADF83030BDF82630ADF82C
:1064140032308DF835409DF8203003F00303012B12
:1064240006D0022B21D0384603F084FF15B0F0BD0E
:10643400089DC5F395259DF82030C3F3C2038DF85C
:106444003430BDF82040C4F383140823A2000DEBBC
:106454000301384603F092FF0EAB00930BAB2246C8
:1064640002A9284600F072FFDDE7BDF82250AD090D
:106474009DF82030C3F3C2038DF8343008262C462F
:10648400082D28BF08243346224602A9384603F0C3
:1064940075FF26442D1B0EAB0BAA214602A800F063
:1064A400B9FF002DEBD1BEE7014B01221A707047F2
:1064B400042300207047000070B588B006466C467F
:1064C4000D4D0FCD0FC495E80F0084E80F0006238F
:1064D40000934EB1094A6946094804F0F3FB28B910
:1064E400084B1E7008B070BD0022F4E7064A432131
:1064F40001F058F9F4E700BF90430300AD640200D3
:1065040034220020C0220020BC43030008B5084BFD
:106514001B78084AD35C33B1074805F035FE0020E8
:10652400FFF7CAFF08BD054805F00AFBF7E700BFFF
:1065340034220020302C0020382200204022002069
:1065440000B583B0044B00934023044AFFF740FF97
:1065540003B05DF804FB00BF65650200C42200209F
:1065640008B5D2B20E4B002018700E4B1B780E48A3
:10657400C35C5BB10D4805F03BFE58B90C4B1B786E
:106584001BB1074B1B78002BF8D008BD094805F058
:1065940003FBF2E7084A532101F004F9EEE700BFD8
:1065A4000423002034220020302C00203822002034
:1065B400C022002040220020BC43030008B5012073
:1065C400FFF77AFF08BD000008B5FFF7F7FF0421C5
:1065D400064800F027FE002803DB054B01225A7110
:1065E40008BD0449482007F079FAF6E76C43030034
:1065F400482200201C440300037813F0040F18D031
:1066040003F00303012B03D0022B0AD001207047AF
:106614000388C3F383130A68134402330B60012015
:10662400704742880B6803EB921302330B6001201E
:106634007047002070470000002002E001238BB95E
:10664400013009280CDC084BD3F81034002BF5D0AA
:10665400DB681A79824201D01B68F7E70023EEE772
:106664004FF0FF30704700BFD823002030B585B00D
:106674002C4C04F5836002F01AFF04F2144002F07B
:1066840016FF60680390A5682840023004EB800080
:10669400043003A9FFF7B0FF88B303982840831C94
:1066A400204800EB83000430F3E7039B591C03915B
:1066B4002B4002331B4901EB83035B684DF8223006
:1066C4000132012AF1D99DF8003003F00303012BB4
:1066D40017D0022B1FD1BDF80640BDF802309B092C
:1066E4000333039A02EB930303930F4802F0E4FE8F
:1066F40010B10C4B039A5A60204605B030BD0022FD
:10670400DFE7BDF80640BDF80030C3F38312039BF6
:1067140013440393E9E705494FF4BF7007F0DEF92A
:106724000024E2E7D8230020EC270020944403004F
:1067340010B50B4BFF229A6000221A605A60C3F80E
:106744001824C3F8142483F82024064803F0A0FD79
:10675400044608B1204610BD034803F077FEF9E76C
:10676400D823002098420300F04403000248034B5E
:10677400C01AC008704700BF6C430300AC4203005A
:1067840099B110B50446FFF7F1FF002383420AD202
:10679400074A32F823102268914201D00133F5E709
:1067A4002360002000E0052010BD0020704700BFDA
:1067B4003422002000B583B0019001A8FFF7E0FF68
:1067C40030B9019A034B53F8320003B05DF804FB6F
:1067D4000020FAE7AC420300094B03EBC000013987
:1067E400032909D8DFE801F0020A040602207047F1
:1067F4000079704740797047002070470420704743
:10680400AC420300034B58681B68984214BF002035
:1068140001207047D82300202DE9F04186B0FFF70E
:10682400F1FF002840F02581054693480023C0F875
:106834001834BFF34F8F43680593846823400233B1
:1068440000EB8300043005E0234002338A4800EB68
:106854008303181D05A9FFF7CFFE00282FD0864B10
:10686400D3F818346BBB844B1A68059B9A42EBD857
:10687400814B5A60F9E0059B591C05912340023372
:106884007D4901EB8303596802AB43F822100132BE
:10689400012AF0D99DF8083003F00303022B12D02B
:1068A400012B7BD0744BD3F81044002C00F0CE8025
:1068B40023689B6820469847E3681C68F5E7002234
:1068C400E6E70022E4E7BDF80A309F093E46502F70
:1068D40028BF502666F38F13ADF80A3006F108017D
:1068E400664803F0F0FC054600283DD003F01CFD8B
:1068F400002308220DEB0201284603F029FD059A26
:1069040024EA020301339B009E423AD933B1224068
:106914000232594901EB8202111D00E058494BB182
:10692400DCB24BB1DFF858814BB1F6B2DBB2F31AEB
:10693400DEB205E0F4B2F4E74FF00008F4E7002615
:1069440008232246284603F003FD04F10803B8F1A6
:10695400000F04D032464146284603F0F9FC0337C1
:10696400059B03EB97070597002D9BD0424BD3F86B
:106974001044D3F81834002B47D0284603F0DAFC2F
:106984006EE002EA040302333B4901EB830108236E
:1069940032460431284603F0DBFCE0E7BDF808206A
:1069A400C2F38313062B28BF062363F38912ADF8C1
:1069B400082002339900314803F085FC054600287D
:1069C400D2D003F0B1FC002308220DEB02012846CB
:1069D40003F0BEFC00260827BDF80830C3F3831378
:1069E400B342C1D9059B5A1C059223400233224964
:1069F40001EB83013B4604221144284603F0A8FC22
:106A040004370136E8E7E3681C684CB1E3685B7956
:106A1400002BF8D023681B68294620469847F2E7E4
:106A2400284603F087FC00238DF807300DF107009A
:106A340001F0B8FA104BD3F8183413B90E4B059A79
:106A44005A609DF8070001F0E1FA09E00D4B0E4889
:106A5400C01AC00800040D4940F0020000F018F804
:106A6400FFF7D0FE80F00100C5B2284606B0BDE8AD
:106A7400F0810025F9E700BFD823002098420300E5
:106A8400E4230020AC420300DC420300FC44030086
:106A94002DE9F04383B005460E46DFF80881D8F8A7
:106AA400084000238DF807300DF1070001F07AFA51
:106AB400D8F80070D8F80820D8F80430DB1B134449
:106AC4000133012B17D8DFF8DC8008F21C490121BF
:106AD400484602F0D1FCFFF7C9FD0146484602F0E2
:106AE400CBFCD8F80820D8F80430D8F800105B1A8A
:106AF40013440133E5E70022012363F3010242F06A
:106B040004026FF38912DFF89C80D8F80010D8F8DB
:106B140008300B40023308EB83035A600231C8F893
:106B240000109DF8070001F071FA4FEA15490021A1
:106B340008F21C4002F05FFC80F31008FFF716FE19
:106B4400814529D27B1C234049EA08401549023378
:106B540001EB8303586004EA0703023301EB830368
:106B64001A7965F3C5021A719A886FF389129A80AB
:106B74005A6866F39F225A60012060F301026FF3A2
:106B840082021A7191F820341BB1FFF745FE0028E8
:106B9400FBD103B0BDE8F083034940F2A31006F033
:106BA4009DFFCFE7D8230020944403002DE9F04350
:106BB40083B005460E460192DFF82481D8F80840D8
:106BC40000238DF803300DF1030001F0EBF9D8F840
:106BD4000070D8F80820D8F80430DB1B13440133C4
:106BE400022B17D8DFF8F88008F21C490121484627
:106BF40002F042FCFFF73AFD0146484602F03CFC35
:106C0400D8F80820D8F80430D8F800105B1A1344D8
:106C14000133E5E70022012363F3010242F0040299
:106C240063F389122E4908688B680340023301EB31
:106C340083035A60033008609DF8030001F0E6F90D
:106C4400BA1C00237BB904EA020102A800EB83000A
:106C540050F804CC881C224901EB8001C1F804C01F
:106C640001330132EEE74FEA154800211D4802F0D6
:106C7400C2FB80F31009FFF779FD804529D27B1C04
:106C8400234048EA09401649023301EB8303586064
:106C940004EA0703023301EB83031A7965F3C5029F
:106CA4001A719A88012060F389129A805A6866F3EF
:106CB4009F225A6060F301026FF382021A7191F805
:106CC40020341BB1FFF7A8FD0028FBD103B0BDE8B9
:106CD400F083054940F2A31006F000FFCFE700BFA0
:106CE400D8230020F4270020944403002DE9F04326
:106CF40085B005460E4602920393DFF82C81D8F83E
:106D0400084000238DF807300DF1070001F04AF91F
:106D1400D8F80070D8F80820D8F80430DB1B1344E6
:106D24000133032B17D8DFF8008108F21C49012135
:106D3400484602F0A1FBFFF799FC0146484602F0E1
:106D44009BFBD8F80820D8F80430D8F800105B1A58
:106D540013440133E5E70022012363F3010242F007
:106D64000402022363F389122F4908688B680340E5
:106D7400023301EB83035A60043008609DF8070076
:106D840001F044F9BA1C0023012B0FD804EA0201D4
:106D940004A800EB830050F808CC881C224901EBBE
:106DA4008001C1F804C001330132EDE74FEA154810
:106DB40000211E4802F01FFB80F31009FFF7D6FCE8
:106DC40080452AD27B1C234048EA094016490233F5
:106DD40001EB8303586004EA0703023301EB8303E6
:106DE4001A7965F3C5021A719A88022060F3891230
:106DF4009A805A6866F39F225A60012060F3010268
:106E04006FF382021A7191F820341BB1FFF704FD6D
:106E14000028FBD105B0BDE8F083054940F2A3107A
:106E240006F05CFECEE700BFD8230020F427002044
:106E3400944403002DE9F04385B005460E460192C3
:106E440002930C9B0393DFF82C81D8F808400023AD
:106E54008DF803300DF1030001F0A4F8D8F80070A8
:106E6400D8F80820D8F80430DB1B13440133042B72
:106E740017D8DFF8008108F21C490121484602F0C6
:106E8400FBFAFFF7F3FB0146484602F0F5FAD8F89F
:106E94000820D8F80430D8F800105B1A13440133E2
:106EA400E5E70022012363F3010242F00402032315
:106EB40063F389122F4908688B680340023301EB9E
:106EC40083035A60053008609DF8030001F09EF8C2
:106ED400BA1C0023022B0FD804EA020104A800EB19
:106EE400830050F80CCC881C224901EB8001C1F8C6
:106EF40004C001330132EDE74FEA154800211E4872
:106F040002F079FA80F31009FFF730FC80452AD2A9
:106F14007B1C234048EA09401649023301EB8303F2
:106F2400586004EA0703023301EB83031A7965F31B
:106F3400C5021A719A88032060F389129A805A68EC
:106F440066F39F225A60012060F301026FF382020C
:106F54001A7191F820341BB1FFF75EFC0028FBD1B5
:106F640005B0BDE8F083054940F2A31006F0B6FD74
:106F7400CEE700BFD8230020F42700209444030068
:106F84002DE9F04387B005460E46029203930E9B0B
:106F940004930F9B0593DFF82C81D8F80840002355
:106FA4008DF807300DF1070000F0FCFFD8F80070F1
:106FB400D8F80820D8F80430DB1B13440133052B20
:106FC40017D8DFF8008108F21C490121484602F075
:106FD40053FAFFF74BFB0146484602F04DFAD8F846
:106FE4000820D8F80430D8F800105B1A1344013391
:106FF400E5E70022012363F3010242F004020423C3
:1070040063F389122F4908688B680340023301EB4C
:1070140083035A60063008609DF8070000F0F6FF0D
:10702400BA1C0023032B0FD804EA020106A800EBC4
:10703400830050F810CC881C224901EB8001C1F870
:1070440004C001330132EDE74FEA154800211E4820
:1070540002F0D1F980F31009FFF788FB80452AD2AA
:107064007B1C234048EA09401649023301EB8303A1
:10707400586004EA0703023301EB83031A7965F3CA
:10708400C5021A719A88042060F389129A805A689A
:1070940066F39F225A60012060F301026FF38202BB
:1070A4001A7191F820341BB1FFF7B6FB0028FBD10D
:1070B40007B0BDE8F083054940F2A31006F00EFDC9
:1070C400CEE700BFD8230020F42700209444030017
:1070D4002DE9F04387B005460E46019202930E9BBC
:1070E40003930F9B0493109B0593DFF82C81D8F82E
:1070F400084000238DF803300DF1030000F052FF27
:10710400D8F80070D8F80820D8F80430DB1B1344F2
:107114000133062B17D8DFF8008108F21C4901213E
:10712400484602F0A9F9FFF7A1FA0146484602F0E1
:10713400A3F9D8F80820D8F80430D8F800105B1A5E
:1071440013440133E5E70022012363F3010242F013
:107154000402052363F389122F4908688B680340EE
:10716400023301EB83035A60073008609DF8030083
:1071740000F04CFFBA1C0023042B0FD804EA0201D0
:1071840006A800EB830050F814CC881C224901EBBC
:107194008001C1F804C001330132EDE74FEA15481C
:1071A40000211E4802F027F980F31009FFF7DEFAE8
:1071B40080452AD27B1C234048EA09401649023301
:1071C40001EB8303586004EA0703023301EB8303F2
:1071D4001A7965F3C5021A719A88052060F3891239
:1071E4009A805A6866F39F225A60012060F3010274
:1071F4006FF382021A7191F820341BB1FFF70CFB74
:107204000028FBD107B0BDE8F083054940F2A31084
:1072140006F064FCCEE700BFD8230020F42700204A
:107224009444030010B50446FFF706FAB0F1FF3F9B
:107234000ED0E36818710A4BD3F810344BB1DA68F6
:10724400E36812681A60064BD3F81034DB681C60DC
:1072540010BD034BC3F81044E36800221A60F7E73B
:10726400D823002010B5094BD3F81044012283F829
:1072740020244CB1E36801225A7123685B682046DC
:107284009847E3681C68F4E710BD00BFD8230020CA
:1072940070B582B004460D46C388A3B9217A052986
:1072A4000FD0637ABBB9227A104B53F822600021C5
:1072B400A088FFF77FFA034632460D49284602F0BC
:1072C400D7F902B070BD0B4A00920B4A0B4928460D
:1072D40002F0CEF9E2E7A088FFF77EFA084B53F8F4
:1072E40020200849284602F0C3F9DCE7844503005E
:1072F40078450300704503005045030058450300DA
:10730400144503004469030010B50C46037A052BA9
:107314000FD0437A3BB90A49204602F0A9F9204626
:1073240002F092F910BD074A0749204602F0A0F97D
:10733400F1E7002AF3D00249204602F099F9EEE77A
:107344004C45030070450300446903002DE9F043F4
:1073540085B081460D4617461E460C9C94F80C8059
:107364000023237321463046FFF792FF062F09D8E6
:10737400DFE807F00412181F28334000494620466E
:1073840002F076F9002221463046FFF7BDFF84F86B
:107394000C8005B0BDE8F0832A684946204602F017
:1073A40067F9EFE76B682A684946204602F060F9FE
:1073B400E8E7AB6800936B682A684946204602F008
:1073C40057F9DFE7EB680193AB6800936B682A68B1
:1073D4004946204602F04CF9D4E72B690293EB6846
:1073E4000193AB6800936B682A684946204602F013
:1073F4003FF9C7E76B6903932B690293EB68019329
:10740400AB6800936B682A684946204602F030F95D
:10741400B8E70000082900D970472DE9F0471D4658
:1074240090460E46074693F80C9000241C731946A8
:107434001046FFF72DFF04E01C49284602F018F916
:107444000134072C07D8B442F6D23A5D18492846CD
:1074540002F00EF9F4E71749284602F009F900246E
:1074640009E082460CF006FE78B1524612492846DD
:1074740002F0FEF80134072C0FD8B44208D2385D6C
:107484007E28EED94FF02E0AEFE74FF02E0AECE7F4
:107494000A49284602F0ECF8ECE701222946404666
:1074A400FFF732FF85F80C90BDE8F08740450300F4
:1074B4003845030044450300484503008045030064
:1074C4002DE9F04784B0002401E00134E4B2394BE3
:1074D4001B78A3426BD9384B1D6805EBC40A15F819
:1074E40034000122A0F1200CC0F1200102FA0CF3B7
:1074F40022FA01F10B4382403049D1F800C04968B7
:107504000CEA020601EA030756EA070EDDD0DFF8AB
:10751400ACE02CEA020221EA0303CEF80020CEF804
:10752400043003F05BFE844615F834300122A3F1E5
:107534002005C3F1200002FA05F522FA00F045EA1D
:1075440000019A401E48056840682A40029201EAF8
:10755400000203925FFA8CF10022CDE90012A3F13C
:107564002001C3F120024FF00009009800FA01F154
:1075740049EA010920FA02F249EA020900FA03F889
:10758400DDE902124A4508BF41459ED19AF801102F
:10759400012914BF00210121614514BF00210121EB
:1075A400DAF80420002A90D0184690478DE704B0FA
:1075B400BDE8F08794280020D0280020C8280020A7
:1075C400C028002070B506460123A0F12004C0F1B4
:1075D400200203FA04F423FA02F2144303FA00F536
:1075E4001B4800F0B9FC78B91A4A1368526803EAD8
:1075F400050002EA0401014307D0164923EA050302
:1076040022EA04040B604C6070BD304603F0E6FDD2
:10761400A0B1114B19685A682943224319605A6072
:107624000C4A136851682B430C43136054600022C6
:107634000A4B1968064800F071FCE5E7064B196827
:107644005A6821EA050122EA040219605A60E7E750
:107654009C280020C8280020C0280020982800204A
:10766400042A3CD970B582B006460D46144603F090
:1076740077FC28B31B4B1E601B4B1D701B4B1C60FF
:10768400002200231A49C1E900231A49C1E9002351
:107694006C1EE4B2D5B106EBC40300228DF80620BB
:1076A40003228DF804209B788DF80530124A01A935
:1076B40016F8340003F05EFC034668B92546E7E794
:1076C40003F00EFC03460028D4D005E00B4A002149
:1076D4000B4800F00DFC0346184602B070BD0723AA
:1076E40018467047D02800209428002098280020AD
:1076F400C0280020C8280020C9750200C5740200F3
:107704004846030010B50C4B1B686BB100240B4BAF
:107714001B78A3420DD9084B1B68012113F83400D0
:1077240003F0C2FC0134F2E70549BA2006F0D6F9A9
:10773400ECE7002010BD00BFD028002094280020D2
:10774400F045030082B001238DF807309DF807301F
:10775400134B186059609A6044F20103984213D0A5
:1077640044F20203984207D10D4BDA60DA681288BA
:107774009A61DA685268DA6172B69DF80730002BB4
:10778400FBD162B602B07047054B1A611A69926860
:107794005A611A6912689A611A695268DA61EBE7E8
:1077A400D428002000B583B002900091019244F2E5
:1077B400010071466A4600F003F803B000BD000002
:1077C4002DE9F04184B004460E46154672B6FFF723
:1077D40049FDFFF721F80028FBD141F201039C4247
:1077E4002FD014D944F201039C4235D044F2020351
:1077F4009C424DD12C482D4BC01AC00800042B8844
:107804006A682B4940F00100FFF770FA0BE0012C85
:107814003ED12548254BC01AC0080004254940F034
:107824000100FFF735F9244B1B6813F0010F00D05A
:1078340000BE2A4631462046FFF784FF04B0BDE867
:10784400F0811948194BC01AC00800041B4940F0C4
:107854000100FFF71DF9E6E7134F144BFF1AFF0869
:107864003F0447F00107D5F80880404602F05AFE6D
:107874006B682A68029601920093034642461049B7
:107884003846FFF725FC0F493846FFF701F9CAE7E8
:107894000548064BC01AC008000432460A4940F0A5
:1078A4000100FFF783F9BEE7DC420300AC420300AA
:1078B400904603004C460300F0ED00E06C460300E4
:1078C400AC460300D4460300E8460300034BC3F868
:1078D4000805034BC02283F81123704700100140B0
:1078E40000E100E010B50B4B4FF48032C3F84423A1
:1078F400C3F80423084A4FF40031C2F88011116020
:1079040001241C604FF43C60044B23439847044B10
:107914001C7010BD0010014000E100E000470300AE
:10792400012A002070B50E4B4FF40032C3F88020BA
:107934000C4D4FF48033C5F84833C5F8083301269D
:107944006E60094C34434FF43C60A047AE600025A0
:10795400064B1D604FF43C60A047054B1D7070BD85
:1079640000E100E00010014000470300102A00205D
:10797400012A002010B4114B1C685CB10268236812
:107984009A4218D89A1A2260C4610C4B18605DF8A8
:10799400044B70471860FAE7521A1C46DB6913B1AE
:1079A40019689142F8D313B11968891A19600260F1
:1079B400C361E061EBE72346F1E700BF142A00202E
:1079C40070B5184B1E683446354624B1844202D043
:1079D4002546E469F9E714B3A5420CD02168E369AC
:1079E400EB6113B11A680A441A600E4B1868801BC5
:1079F40018BF012070BDF3690A4A1360002BEDD152
:107A04000123094A9360094A00211160084A13704E
:107A14004FF43C60074B43F001039847DEE7002036
:107A2400E8E700BF142A002000100140102A0020BB
:107A3400002A002000470300024B4FF40032C3F831
:107A44000021704700E100E0024B4FF48012C3F8BC
:107A54000021704700E100E008B543698069984758
:107A640008BD00001B4B1868002832D070B51A4BB3
:107A7400D3F80445194B1B68E41A24F07F4400250D
:107A840004E000230374FFF7E7FF304648B10368BE
:107A9400A34206D8E41A1D44C669037C002BF4D023
:107AA400EFE70F4B1A780F4B1B789A4207D00D4B18
:107AB4001A780D4B43F82250FFF7C6FF70BD01330F
:107AC400DBB2084A1370022BF1D1134600221A705C
:107AD400EDE77047142A002000100140102A00200E
:107AE4000C2A00200D2A0020042A0020104B1B78A9
:107AF400104A1278934217D00133DBB20C4A137048
:107B0400022B0DD00A4B1A780B4B53F8223003602A
:107B14000A4A11680B4423F07F4313600120704725
:107B2400134600221A70EDE70023036018467047DD
:107B34000C2A00200D2A0020042A0020102A0020EC
:107B440070B400250E4B1B68BBB11C68844212D86C
:107B5400001B254400241C60DE69094C2660DC6897
:107B6400002CEFD06E1826F07F465E609C6014688F
:107B7400DC611360E6E7241A1C6070BC704700BF28
:107B8400142A0020F8B50546414B1F68002659E029
:107B9400404A11784B1CDBB213709278934228D080
:107BA4004A000A44D0003B4B03449C681B79022BD7
:107BB40023D0032B30D0012B44D1237C002B41D183
:107BC400DFF8D0C04A005018C3006344D86860602E
:107BD4001869A0605B69E3601144CB009C44DCF845
:107BE4001830A3612C4B1B78002B30D0002363602A
:107BF4002DE0284B00221A70D2E72046FFF7E0FE62
:107C0400034600B93346002222741E461AE00022BD
:107C14001A74DA691E4B1A601D4B1B68002BF6D1CF
:107C240010E0521A22F07F42A36893421CD99A1A98
:107C3400226000236360A36001222274E361204672
:107C4400FFF798FE9DB1002DA2D02C46ED69616826
:107C5400124B1A688B1A23F07F4311488342E0D8F1
:107C6400A26813442360E4E700232360E1E7094B9F
:107C74001A785B789A42E6D12EB9054B1B68BB4251
:107C840003D0012000E00120F8BD0020FCE700BF84
:107C9400142A0020F4280020002A0020102A0020A2
:107CA400FEFF7F00F8B51C4B1B688BB31F681B4B92
:107CB400D3F804551A4B1C682E1B26F07F46033656
:107CC400184B1B780BB3B7422CBFE419A41924F04A
:107CD4007F44124BC3F84045D3F804355B1B23F0B3
:107CE4007F430333641B24F07F44A3420CD90B4B22
:107CF400D3F80425C3F840254FF43C600A4B43F005
:107D040001039847FFF798FEF8BDFFF7EBFDDAE7AC
:107D1400FFF708FEF8E700BF142A00200010014016
:107D2400102A0020012A00200047030070B582B009
:107D3400002301930D4B1E680D4B1D686846FFF729
:107D4400D5FE044660B90198FFF71CFF00B914B1D1
:107D54002846FFF7A7FF074B00221A7002B070BD38
:107D640001AA31460098FFF7EBFEECE7102A002049
:107D7400142A0020002A0020014B5870704700BFCD
:107D8400F42800200B4A53780133DBB292789A42EC
:107D94000CD0084A12789A420AD0037005484378F6
:107DA40003EB4303DA001044043070470023F0E788
:107DB40000207047F4280020F0B583B007460E4633
:107DC40015461C4600238DF806300DF1060000F020
:107DD400E9F80DF10700FFF7D5FFB0B101220270F9
:107DE40047600C4AD2F804258260C660056144618C
:107DF4009DF80700FFF7C0FF00249DF8060000F07F
:107E040005F924B1204603B0F0BD0424F5E7FFF7DB
:107E14001BFEF7E70010014030B583B004460D4661
:107E240000238DF806300DF1060000F0BBF80DF1CB
:107E34000700FFF7A7FF70B1057044609DF80700C5
:107E4400FFF79AFF00249DF8060000F0DFF824B144
:107E5400204603B030BD0424F5E7FFF7F5FDF7E74E
:107E640008B5084B0022C3F84021C3F84421C3F8E5
:107E74004821C3F84C21C3F80021C3F80421FFF7BB
:107E8400F1FD08BD0010014008B5FFF74FFF08BD24
:107E940010B5FFF747FD0F4B00241C705C700B22DC
:107EA4009A700D4B1C600D4B1C700D4B1C700D4BD0
:107EB4004FF48012C3F88021C02183F814131A6090
:107EC4002046FFF703FD084BD3F80425074B1A603F
:107ED400204610BDF4280020142A00200C2A00207B
:107EE4000D2A002000E100E000100140102A0020CB
:107EF400094B9B7843B14AB150B10368187C48B927
:107F0400187459745A6170470820704707207047E5
:107F14000720704708207047F42800200D4B9B78F9
:107F240083B188B1042911D943698BB110B5437C5D
:107F3400012B05D0002413462246FFF73DFF10BD58
:107F44000C46F8E708207047082070470720704760
:107F540008207047F428002008B5094B9B7843B1EA
:107F640048B143694BB1002303740221FFF754FF66
:107F740008BD0820FCE70820FAE70820F8E700BF5E
:107F8400F4280020EFF30583C3F308033BB9EFF3B0
:107F9400148313F0010F0CBF01200020704701204F
:107FA4007047000038B50446FFF7ECFF01281CD1E8
:107FB400EFF3108272B6114B9B68DBB90F490123B2
:107FC4008B600F4BD3F880000E4D28400860C3F837
:107FD4008050D3F8840048604FF0FF31C3F8841018
:107FE4000023237002B962B638BD0749432005F067
:107FF40075FDDDE701232370F4E700BF182A002094
:1080040000E100E0FC06FFBD0847030010B504468C
:10801400FFF7B8FF012811D10B4B9B686BB164B912
:10802400EFF3108172B6084B1868084A106058685C
:10803400506000229A6001B962B610BD0449512013
:1080440005F04CFDE8E700BF182A002000E100E03D
:108054000847030038B50546002400E00134032C2A
:1080640007D8044B53F82430002BF7D02846984700
:10807400F4E738BD302A00200378013B052B34D8BF
:10808400DFE803F003061120293100230B70704749
:1080940001230B7003898B818388CB81C3688B6038
:1080A40000230B74704702230B7003898B81838830
:1080B400CB81C3688B60837D062B14BF002301230F
:1080C4000B74704703230B70C3888B810389CB81A6
:1080D400C3688B60704704230B70C3888B810023B3
:1080E400CB818B60704705230B707047884207D2A1
:1080F4000368B3F1FF3F01D00120704700207047AF
:10810400002070474388033300EB8300704738B581
:1081140004460D46FFF7F6FF854208D3A2884FF6C2
:10812400FF739A4205D023882BB1002038BD02206A
:10813400FCE70120FAE70120F8E7000060B10A4AF1
:10814400D26882420AD8084A1269824208D310F0DF
:10815400030F07D1012070470020704700207047AB
:1081640000207047002070472022002060B1016881
:10817400094A91420AD14368084A934208D001321D
:10818400934207D0032070470320704703207047B1
:108194000020704701207047DEC0ADDEFE011EF1F5
:1081A4000023B3F5806F06D250F82320B2F1FF3FCD
:1081B40003D10133F5E70120704700207047000028
:1081C40030B40A4C82001518AB001D4623441B89A9
:1081D40019442C44608910FA81F188B2B0F5806F9B
:1081E4002CBF0020012030BC704700BF642A00204F
:1081F4000023012B18D810B403E001339BB2012BE8
:108204000ED803EB83029400084A224452688A423F
:10821400F3D202F580528A42EFD90380002000E0B5
:108224000A205DF8044B70470A207047642A002036
:10823400F8B50D46174600F5805600F108040223F0
:108244000B800DE00FB101223A70022B1CD0638821
:108254002A88134403332B802046FFF753FF044638
:1082640031462046FFF742FF88B131462046FFF7EA
:108274004EFF03460028E5D1A368054A12689342DD
:10828400E5D9034A1360E2E74FF480632B80F8BD1D
:108294005C2A00208B7D022B04D9CB8802891344ED
:1082A40003330381CA8843899B1A033B4381704784
:1082B400F8B5033085B240F2FD339D4220D80E4616
:1082C400002401E00134A4B2012C17D804EB840289
:1082D40093000C4AD35C002BF4D129462046FFF7C7
:1082E4006FFF0028EED034800649A30018198200DD
:1082F4000A4453891D445581002000E00720F8BD3D
:108304000920FCE7642A002030B4054C8B005D187A
:10831400AA0022445389181A0338508130BC70478C
:10832400642A0020F8B50F4600EB80008200134B4E
:1083340013445C6804F580550868A8B1FFF7E2FEB1
:10834400044629462046FFF7D1FE064650B1294689
:108354002046FFF7DCFE01280AD043B233B10228DD
:10836400EFD100263046F8BD0834EAE73C60F9E76F
:108374002046FFF7C7FE0446E3E700BF642A002057
:1083840070B582B005460C464068FFF7D7FE20B1B1
:108394002A89174B1B899A4218D0002323802388EB
:1083A400012B23D80023019301A92088FFF7BAFFEA
:1083B4000646B8B1019B99682A689142F4D16B6072
:1083C4000B4B1B892B81304602B070BD2A6869684B
:1083D4008B689A42E1D12046FFF70AFFB0FA80F693
:1083E4007609F0E7238801332380D8E70026EAE7FB
:1083F400482A0020F8B51E4E3678002E33D0002AC5
:1084040033D01C4616460F46054633B9052027E0EF
:1084140000232360A3880133A380A388012B20D8E1
:1084240003EB83039A00134B9B5C002BF2D1214690
:10843400A088FFF777FF0028EAD023681DB1998848
:108444002A889142F3D11FB119883A889142EED11A
:108454009B68336023687360074B1B89338100205A
:10846400F8BD0A20FCE70220FAE70520F8E700BF80
:10847400402A0020642A0020482A00202DE9F047E1
:108484000024A1464FF00308264627462DE0434A20
:10849400156002219180814650E008F1FF381FFAEF
:1084A40088F83F49B3009819820010460A44556081
:1084B40003230B540136B6B215E03949B3009819B9
:1084C400820088184FF0000C01F802C04560104685
:1084D400103208300A4401442846FFF7A9FE47F049
:1084E40002070136B6B20134A4B2022C4ED82D4B89
:1084F400DD6805EB04352846FFF738FE012820D057
:1085040043B2002BD9D00328EDD12846FFF748FE0B
:108514000028C2D0214A1268002AB8D0204BB200E9
:108524009019810003EB010C02205854CCF804503C
:10853400ACF808001C4B5E800136B6B247F0010768
:10854400D1E7B9F1000F0FD0154BB200901981009B
:1085540003EB010C0220585410490968CCF80410AC
:10856400ACF808000136B6B2DFF830A0514641F845
:10857400045B00222846FFF75BFEBAF80430022BA6
:1085840002D008231F43AEE70423FBE7B8F1010F31
:1085940002D9F8B2BDE8F0870027FAE72C2B0020B7
:1085A400642A002020220020482A00200B4A138934
:1085B400013313810023538013730CE003EB830115
:1085C4008A0007498A5CB2FA82F2520903491944C3
:1085D4008A7201339BB2012BF0D97047482A0020DC
:1085E400642A00200023012B27D8164A1A44927AC1
:1085F40032BB01339BB2F6E701339BB2012B17D890
:10860400104A1A44927A002AF6D00E4A1A440024D8
:10861400947203EB830294000B4A2244D268002A2A
:10862400EAD1094A2244127C002AE5D0038000E002
:10863400002210465DF8044B704700221046704734
:1086440010B4E2E7482A0020642A0020044B5B6847
:108654005B880333034A918811FA83F3938070474C
:10866400482A00202C2B002070B40A490E680A4BBB
:108674005C880A48A3001D19AA00024455680D60CD
:1086840056608D8823449A001044058102238B8010
:1086940070BC70472C2B0020482A0020642A00203C
:1086A40008B5124B1B78072B0AD8DFE803F004093E
:1086B400090A1016161AFFF779FF0C4B01221A70DB
:1086C40008BDFFF7C3FF094B02221A70F8E7FFF752
:1086D400CBFF064B06221A70F2E7044B07221A70EE
:1086E400EEE7024B01221A70EAE700BF482A002095
:1086F40040F6F8731868B0F1FF3F07D04FF080538D
:108704001A695B69B0F1FF3F03D07047024B1868E8
:10871400F4E703FB02F0F8E71410001008B5FFF7C4
:10872400E7FF034B1861A0F54050D86008BD00BFB7
:108734002022002008B50146014800F0E7FD08BDED
:10874400182B002008B5064B05221A700549022390
:108754008B80002301220968034801F0EBFA08BD6D
:10876400482A00202C2B00202022002008B50D4B85
:108774005B8803EB830291000B4A0A44D26872B906
:10878400084A0421117003EB83039A00064911443B
:10879400002301224968054801F0CCFA08BDFFF71F
:1087A400D1FFFBE7482A0020642A00202022002071
:1087B40000B583B0002300930823044A04490968E0
:1087C400044801F0E9F903B05DF804FB70470300C5
:1087D4002C2B00202022002008B5044B07221A70FD
:1087E40000225A60FFF7E4FF08BD00BF482A0020BA
:1087F40000B583B0002300930823044A01460448CB
:1088040001F0CAF903B05DF804FB00BF6847030038
:1088140020220020F8B530B90B79032B5BD8DFE8B0
:1088240003F0071A343F2E4B00225A60012005E062
:1088340001230B71FFF7BCFF00284CD1F8BD0A4699
:108844009B001C18A100002454540A445068FFF7EC
:10885400CFFF01230FE00023012B0AD8184603EBB6
:1088640083018A001F498A5C022AE8D001339BB243
:10887400F2E700230F20002BDED1194B01221A70DE
:1088840000225A6041F61D50D8E700230B711649A7
:1088940002228A8001220968144801F04BFACBE7CE
:1088A40000250D71104C2068FFF7A2FF104B59886A
:1088B400D4F800C00B4E8A005718BB0033445F68DD
:1088C4002760C3F804C0A7881F810223A38053181C
:1088D4009A00B554B0E7024B00225A600E20ADE76F
:1088E400402A0020642A00202C2B00202022002073
:1088F400482A002008B5064B06221A705B8803EB51
:1089040083039A00034B13445868FFF771FF08BDB3
:10891400482A0020642A002000B583B0022383750E
:10892400002300930423C218054801F035F90346D7
:1089340018B9184603B05DF804FB0E23F9E700BF2D
:108944002022002000B583B0036983B1032383751B
:1089540000230093042300F10C020831064801F0BF
:108964001BF9034628B9184603B05DF804FB01233C
:10897400EDE70E23F7E700BF2022002000B583B007
:1089840001238375C388002200929B0002690C3185
:10899400054801F001F9034618B9184603B05DF81B
:1089A40004FB0E23F9E700BF2022002000B583B0AA
:1089B4000378032B10D0062383750023009304232C
:1089C40000F108021944064801F0E6F8034628B904
:1089D400184603B05DF804FB0523EDE70E23F7E723
:1089E4002022002010B582B00C46002300930423FB
:1089F400094A0146094801F0CFF850B9014604EB91
:108A04008404A200064B134401221A74084602B0DF
:108A140010BD0E21FAE700BF6447030020220020A6
:108A2400642A002070B50C468B8A03EB83018A000C
:108A34002A4D154498B929489A00D618B1000E4613
:108A4400014449683044068901EB8606A37D062B60
:108A54000BD8DFE803F0152D21270C333D00214608
:108A64002846FFF717FC012614E00F260EE01C48E9
:108A740000234360A36903601A49FFF781FC50B3E4
:108A840031462046FFF748FF06461EB121462846D8
:108A9400FFF700FC304670BD31462046FFF752FF19
:108AA4000646F2E731462046FFF768FF0646ECE744
:108AB40031462046FFF77AFF0646E6E70623A3750C
:108AC400084B1988064B5868FFF78CFF0646DCE70D
:108AD40041F61D56DAE70A26DCE700BF642A0020C7
:108AE400242A0020382B002010B584B0044600232B
:108AF40001930293C36800930DF10E016846FFF7DA
:108B04003FFC10B90A2004B010BD01988388E380AB
:108B140003882381BDF80E10FFF764FFF3E700001C
:108B240030B583B009484268094B19689C8853885A
:108B340003339BB203250570002000909B0001EBDA
:108B44008401044801F028F803B030BD482A00200D
:108B54002C2B00202022002008B5064B191D588814
:108B6400FFF7E0FB10B1FFF7DBFF08BDFFF7FEFDE9
:108B7400FBE700BF482A002008B50748FFF732FD8D
:108B840010B1FFF7E9FF08BD044B00221A705A80A8
:108B94005A6041F61D50F6E74A2A0020482A002070
:108BA40030BB08B5144B1B7B6BB1134B00221A73FB
:108BB400114B1B78013B062B1CD8DFE803F0070A96
:108BC4000D101B131600FFF76BFDF1E7FFF7D4FF41
:108BD40008BDFFF7C1FFFBE7FFF7A2FFF8E7FFF7C8
:108BE400C5FDF5E7FFF786FEF2E7FFF7F5FDEFE7D2
:108BF400012070470F20EBE7482A002010B584B00D
:108C04000B4B01AA00210630FFF7F4FB40B9084BD7
:108C140099880298FFF7E6FE0446204604B010BD8A
:108C240004460822002102480BF08DFAF5E700BF44
:108C34003C2B0020B0B908B508460B79012B0AD0AB
:108C44005AB21AB1022B0FD00F2008BD02230B71A8
:108C5400FFF74AFFF9E7FFF7D1FF0A28F5D141F6FC
:108C64001D50F2E70120704741F61D50EDE700006A
:108C740008B50146014800F055FB08BD182B00203B
:108C840008B5084B1B683BB10121064800F0FFFB07
:108C9400003018BF012008BD034940F27A2004F0D7
:108CA4001DFFF1E7282B00207847030010B586B09C
:108CB40004462BE02D48FFF73DFD2D4B186029E0BD
:108CC4002C4940F2825004F009FF27E02046FFF7C8
:108CD400A1FD002848D00023019303930493059336
:108CE40041F61D5398423DD00290214C01A92068C1
:108CF400FFF7C2F901A8FFF7ADF9002323601B4871
:108D0400FFF7B6FFFFF7BCFF70B30024184B1B68D6
:108D1400002BCFD0164B1B68002BD1D0144B1968F5
:108D24000B78013B052B1BD801A252F823F000BF9E
:108D3400D18C02004D8D02004D8D0200558D020034
:108D4400558D02005D8D02002046FFF76BFEC0E7E3
:108D54002046FFF76FFFBCE72046FFF721FFB8E787
:108D64000F20B8E70020BFE706B010BD582A002046
:108D7400602A00207847030008B54068FFF796FF93
:108D840008BD000008B50121014800F075FB08BDCD
:108D94005C2A002008B5FFF7C1FC00220249034801
:108DA40000F0C4FE08BD00BFC84A03002022002012
:108DB40008B51C238C220249024800F072FA08BD4F
:108DC4008C2A0020182B002010B50146044800F01E
:108DD40086FA04461C2200210BF0B5F9204610BD8A
:108DE400182B002008B50146014800F084FA08BD9C
:108DF400182B002008B50121034800F032FB00B114
:108E040008BDFFF753FFFBE7282B00202DE9F043B3
:108E140083B0364C2478002C5ED000295ED00D88B7
:108E24004FF6FF74A5425BD04C88002C5AD04D6895
:108E340015F0030558D11F4688460646002A34D04B
:108E44001388ADF80630B2F802906846FFF7BCFF0D
:108E54000446002834D0077000238375BDF806301B
:108E64008382D8F804300361FFF78CFFE060B8F820
:108E740000302381B8F80230A380A4F80690032FB1
:108E840025D0002363816846FFF7ACFF3EB1002381
:108E94007360E2683260B372154B1B893381FFF74C
:108EA400A9FF284603B0BDE8F083B1F808900DF19E
:108EB40006014846FFF7FCF90028C6D00546F0E74E
:108EC400BDF806104846FFF71FFA0825E9E7042312
:108ED400A3753368A361D4E70225E2E70525E0E73B
:108EE4000425DEE70425DCE70325DAE7402A002031
:108EF400482A002008B5084B1B68042B0AD00346F7
:108F040005480168054A42F82130012100F0B4FA0D
:108F1400002008BD0C20FCE7342B0020302A002060
:108F240030B587B000230193029303930493059310
:108F3400274B1B782BB9274800F0B4FA40B1002422
:108F440003E001A8FFF786F80024204607B030BDEF
:108F5400FFF720FF04460028F7D1FFF729FFFFF7AA
:108F64008DFA054602282DD0062811D060B3684634
:108F7400FFF72AFF50B301220270013D0A2D12D8D7
:108F8400DFE805F00F110F111D111D11171A17003D
:108F94000F4B01221A7000225A6001A8FFF75AF8F9
:108FA400D3E7002202716846FFF71CFFFFF722FF98
:108FB400CBE703220271F6E702220271F3E70122F2
:108FC4000271F0E70B24C0E70B24BEE70824BCE7DA
:108FD400402A0020442A002008B370B582B0044619
:108FE400F9B10D460DF10601FFF7CAF910B90A20CF
:108FF40002B070BD6668BDF8063003EB83039800C9
:109004000830094B18440121043000F035FA2E6071
:1090140063680C336B600123A3720020E8E705202A
:1090240070470520E4E700BF642A0020F8B130B59A
:1090340083B004460DF10601FFF7A2F9C8B1BDF8EB
:10904400063003EB830291000D4A0A44D2689AB1B8
:10905400A27A9AB10A499A00D518A800054608448C
:10906400C06801382944C8600020A07202E00520CD
:1090740070470A2003B030BD0620FBE70620F9E75D
:10908400642A002008B502230022FFF7BFFE08BDB2
:1090940028B108B503230022FFF7B8FE08BD052058
:1090A40070470000104B1B78BBB14FF6FF7398421A
:1090B40015D010B582B0044601A8FFF785FE80B133
:1090C4000522027001220271C48001A8FFF78AFE02
:1090D400FFF790FE002002B010BD0220704704206C
:1090E40070470820F7E700BF402A00200E4B1B788A
:1090F400B3B100B583B001A8FFF766FE90B10622B4
:10910400027001A8FFF76EFE084B1B7813B1074BE2
:1091140001221A73FFF76EFE002003B05DF804FB12
:10912400022070470820F8E7402A0020482A00203F
:1091340000B583B0ADF80600ADF8041001A90DF137
:109144000600FFF757F903B05DF804FB00B583B0E0
:10915400ADF8060013460A460DF106010020FFF79C
:1091640049F903B05DF804FB00B583B0ADF806001F
:1091740013460A4600210DF10600FFF73BF903B040
:109184005DF804FB20B129B103680B60002070472F
:10919400052070470520704710B483B050E8013FA4
:1091A4009CB2B0F80EC06444B0F80CC0644528BF4B
:1091B400A4EB0C04B0F808C0644502BFBFF32F8FC2
:1091C400002208E0C4EA030440E8014CBCF1000FAB
:1091D400E4D14FF001028DF807200093009B0B604F
:1091E4009DF8070003B05DF8044B704750E8012F69
:1091F400C2EA024240E80123002BF7D1704710B4C1
:1092040083B050E8023F1FFAA3F4B0F806C06445E7
:1092140002BFBFF32F8F002211E0B0F80EC06444E8
:10922400B0F80CC0644528BFA4EB0C04C3EA0444A2
:1092340040E8024CBCF1000FE3D14FF001028DF87D
:1092440007200093009B0B609DF8070003B05DF8B6
:10925400044B704750E8022FC2EA224240E802233E
:10926400002BF7D1704782B050E8022FC188B2EBCF
:10927400324F4FF0000317BF92B241EA014142EA74
:10928400014104E04268B2EB324F08BF012340E8D9
:109294000212002AE8D18DF807309DF8070002B0C9
:1092A400704781B110B40C46B2FBF3F103FB1121FA
:1092B40089B251B90460416081608281C3810846EA
:1092C4005DF8044B70470E2070470920F8E708B595
:1092D400FFF7C9FF08B1002008BD1120FCE738B52D
:1092E40005460C46FFF758FF18B128682388184430
:1092F40038BD0020FCE708B50A884B889A4201D0A3
:10930400002008BDFFF772FF0120FAE738B50546D3
:109314000C46FFF774FF18B128686388184438BDF9
:109324000020FCE708B50A884B889A4201D0002047
:1093340008BDFFF78FFF0120FAE708B54B0901F0DC
:109344001F01012202FA01F100EB830000F068F82A
:1093540008BD10B54B0901F01F040121A14000EB29
:10936400830000F052F8E04000F0010010BD08B5A1
:109374004A0901F01F01012303FA01F1C94300EB7B
:10938400820000F063F808BD4B0950F8230001F097
:109394001F01C84000F0010070472DE9F041064666
:1093A4000F46002516E0D8F80010C94391FAA1F140
:1093B400B1FA81F11F290CD801EB4514A74208D951
:1093C40021463046FFF7C5FF0028ECD12046BDE812
:1093D400F08101357B1E5B090133AB4209D906EBF1
:1093E400850856F82510C94391FAA1F1B1FA81F123
:1093F400E0E73C46EAE750E8002F0B4640E8003C33
:109404009CF0000FF7D11046704750E8002F42EA55
:10941400010340E8003C9CF0000FF6D11046704771
:1094240050E8003F43EA010240E8002C9CF0000FA2
:10943400F6D11046704750E8002F02EA010340E8D5
:10944400003C9CF0000FF6D11046704750E8003FF6
:1094540003EA010240E8002C9CF0000FF6D110460C
:10946400704750E8002F02EB010340E8003C9CF0F9
:10947400000FF6D11046704750E8003F03EB01029D
:1094840040E8002C9CF0000FF6D11046704750E8DD
:10949400003FA3EB010240E8002C9CF0000FF6D142
:1094A4001046704708B50121FFF7AFFF08BD08B5A6
:1094B4000121FFF7B5FF08BD08B50021FFF7BBFF89
:1094C40008BD000038B50D46044620B1E368208A83
:1094D40000FB053038BD0249E82004F0FFFAF5E747
:1094E400C447030038B50C46054630B1E868241A71
:1094F400288AB4FBF0F0C0B238BD0249F52004F06C
:10950400EDFAF3E7C447030000283CD010B5044645
:109514000368BBB16368D3B1A368F3B1E36813B361
:10952400238A33B3A2686368D21AD2B221680B606B
:10953400531EDBB21AB321680A68501C086013700A
:109544001A46F5E71149FF2004F0C8FAE2E70F498B
:109554004FF4807004F0C2FADEE70C4940F20110C7
:1095640004F0BCFADAE709494FF4817004F0B6FA62
:10957400D6E7064940F2031004F0B0FAD2E72368B4
:109584000020187110BD0E20704700BFC4470300AF
:1095940030B583B00446E8B100238DF807300DF1EF
:1095A4000700FEF7FFFC2268136861688B4217D935
:1095B400591E116013F8011C2046FFF783FF05466E
:1095C400A368226811685B1ADBB21179994208D248
:1095D400137106E006494FF4927004F07FFADBE75A
:1095E40000259DF80700FEF711FD284603B030BDA5
:1095F400C447030070B582B00E460546B0B1DEB173
:1096040000238DF807300DF10700FEF7CBFC2B6823
:109614001C68621C1A6031462846FFF763FF2070FD
:109624009DF80700FEF7F2FC02B070BD054940F258
:10963400471004F053FAE2E702494FF4A47004F02F
:109644004DFADDE7C447030010B5044640B1A268F3
:109654002AB163692168206998470023A36010BD7B
:109664000249312004F03AFAF1E700BF1C48030034
:109674000EB430B582B0059D044690B16369ABB1B8
:109684002368C3B16368DBB135B106AB019301AAAA
:109694002946204600F02AF902B0BDE8304003B064
:1096A40070470A49422004F019FAE7E707494320C2
:1096B40004F014FAE4E70549442004F00FFAE1E762
:1096C4000249452004F00AFADEE700BF1C48030003
:1096D40038B504460D460A2909D02268A368591CE6
:1096E400A160D554A26863689A4204D238BD0D21A2
:1096F400FFF7EEFFF1E72046FFF7A6FFF6E70000CD
:109704002DE9F84F82460F4615461E46DDF828908F
:109714000B9A0B464FF0010803E0B3FBF5F308F195
:109724000108AB42F9D2B04500D2B04612F0010BA9
:1097340013D1B9F1000F10D012F0020F0FD086B17F
:10974400202405E009F1FF3921465046FFF7C0FF08
:10975400B9F1000F01D0C145F4D8012409E0202457
:10976400F6E73024F4E7B7FBF4F39D4206D805FB93
:1097740004F4012EF7D9013EF9E71C46B7FBF4F3D4
:1097840004FB13770E4AD15C5046FFF7A1FFB4FBEC
:10979400F5F3AC42F1D2BBF1000F02D0B9F1000FE6
:1097A40007D1BDE8F88F09F1FF3920215046FFF7B2
:1097B4008FFFB9F1000FF4D0C145F4D8F1E700BF31
:1097C400684803002DE9F04782B081468846154673
:1097D4009A460A9E0B9F81EAE173A3EBE17301248D
:1097E4009D4203DC93FBF5F30134F9E7544500D2C1
:1097F400544636B1B8F1000F02DB17F0040F00D065
:10980400013E17F0020F02D0BAF1000F03D017F097
:10981400010F00D1CEB9B8F1000F1BDB17F0040F14
:109824001FD107F00303022B20D001970096534663
:109834002A4641464846FFF763FF02B0BDE8F08779
:10984400013E20214846FFF743FF002EE3D0A64205
:10985400F6D8E0E7C8F100082D214846FFF738FFA5
:10986400DFE72B214846FFF733FFDAE7BAF1000FB1
:10987400DBD12EB9D9E7013E30214846FFF728FF56
:10988400002ED2D0A642F6D8CFE7F8B506460D464C
:10989400144613F001070DD119B108460AF086FCED
:1098A4000746BC4219D9C4B1013C20213046FFF718
:1098B4000FFFF6E70027297851B10135013730460B
:1098C400FFF706FFF7E7013C20213046FFF700FFD2
:1098D400BC4201D9002CF6D1F8BD29780029FBD06F
:1098E40001353046FFF7F4FEF7E70000F0B583B02A
:1098F4000C461646054648B16B696BB12B688BB1B3
:109904006B68ABB1002C40F09B80EBE078494FF4DE
:10991400A27004F0E3F8EFE775494FF4A37004F084
:10992400DDF8EBE7724940F2471004F0D7F8E7E7B7
:109934006F494FF4A47004F0D1F8E3E70027012243
:1099440003E047F00107013482B121782D29F8D0D2
:10995400302903D02B2905D00022F5E747F0020770
:109964000134F1E747F004070134EDE72A290CD06C
:109974002178A1F13000C0B209280CD8013402EBDF
:10998400820250000A18303AF0E73368191D31603A
:109994001B681A44013423782E2B02D0002321782B
:1099A40010E0013400232178A1F13000C0B209286D
:1099B400F5D8013403EB830043000B44303BF2E75A
:1099C40014F8011F6C29FBD06829F9D025395329D3
:1099D40032D8DFE801F08031313131313131313188
:1099E4003131313131313131313131313131313163
:1099F4003131313131313131313131313131313153
:109A0400313131313131313131563131313131311D
:109A1400313131312A40313131314031313131311B
:109A2400316A313161314B31315633681A1D32603C
:109A340019782846FFF74CFE01342378002B4FD0C9
:109A440014F8011B00294BD025293FF477AF284691
:109A5400FFF73EFEF1E73168081D306009680197A1
:109A640000920A222846FFF7ADFEE5E73168081D9B
:109A740030600968019700920A222846FFF740FEE9
:109A8400DAE73168081D30600968019700921022F6
:109A94002846FFF735FECFE731680B1D33603B46A0
:109AA40009682846FFF7F1FEC6E733681A1D3260DD
:109AB4001F6830212846FFF70BFE78212846FFF760
:109AC40007FE0023019308230093102239462846F9
:109AD400FFF716FEB0E725212846FFF7F9FDABE7AF
:109AE4002B7B0BB903B0F0BD2846FFF7ADFDF9E7BA
:109AF40078480300C3688B4206D8114401390369CE
:109B0400994203D900207047002070470120704714
:109B140010F0030F0CBF01200020704743681B683E
:109B2400013B0B420CBF01200020704710B582B0EE
:109B340030B1A9B101600C681146A04702B010BD54
:109B44000F4B1048C01AC00800040E2400940E4B9A
:109B54000E4A0F4940F00100FDF76CF92046EDE78D
:109B6400074B0848C01AC00800040E240094064B92
:109B7400084A074940F00100FDF75CF92046DDE79B
:109B8400AC420300FC420300CC48030080490300BC
:109B940088490300B44903002DE9F04383B0002849
:109BA4002FD0894616461C460546002A39D0076838
:109BB400002F46D0002B54D043685A68B4FBF2F30C
:109BC40002FB1343002B5CD10846FFF7A1FF0028DA
:109BD40067D03046FFF79CFF002872D022464946E2
:109BE4002846FFF787FF00287BD0D7F80C800A9B14
:109BF40000932346324649462846C04703B0BDE891
:109C0400F083404B4048C01AC00800040E2400945E
:109C14003E4B3F4A3F4940F00100FDF70BF9204617
:109C2400ECE7384B3848C01AC00800040E240094EE
:109C3400364B394A374940F00100FDF7FBF820461E
:109C4400DCE7304B3048C01AC008000408240094F4
:109C54002E4B324A2F4940F00100FDF7EBF8204625
:109C6400CCE7284B2848C01AC008000409240094F3
:109C7400264B2B4A274940F00100FDF7DBF820462C
:109C8400BCE7204B2048C01AC008000409240094F3
:109C94001E4B244A1F4940F00100FDF7CBF8204633
:109CA400ACE7184B1848C01AC008000410240094EC
:109CB400164B1D4A174940F00100FDF7BBF820463A
:109CC4009CE7104B1048C01AC008000410240094EC
:109CD4000E4B164A0F4940F00100FDF7ABF8204641
:109CE4008CE7084B0848C01AC008000410240094EC
:109CF400064B0F4A074940F00100FDF79BF8204648
:109D04007CE700BFAC420300FC420300E0480300D0
:109D14008049030088490300144A0300084A0300E9
:109D2400C44903001C4A0300484A0300604A030074
:109D3400844A03002DE9F04182B0F0B10E46154685
:109D440098460446076847B3002A36D0FFF7E6FE74
:109D5400002842D063681A6805FB02F231462046A7
:109D6400FFF7C8FE002848D03F6943462A463146DB
:109D74002046B84702B0BDE8F081284B2848C01AF5
:109D8400C00800040E240094264B274A274940F0BB
:109D94000100FDF74FF82046ECE7204B2048C01A9D
:109DA400C0080004082400941E4B214A1F4940F0B7
:109DB4000100FDF73FF82046DCE7184B1848C01AAD
:109DC400C008000409240094164B1A4A174940F0AD
:109DD4000100FDF72FF82046CCE7104B1048C01ABD
:109DE400C0080004102400940E4B134A0F4940F09D
:109DF4000100FDF71FF82046BCE7084B0848C01ACD
:109E0400C008000410240094064B0C4A074940F093
:109E14000100FDF70FF82046ACE700BFAC42030099
:109E2400FC420300F448030080490300884903000E
:109E3400084A0300C44903000849030030490300E9
:109E440029DF704728DF704703689B683BB300B580
:109E540087B00023009302930393049301918368D2
:109E64000593037943B1012B10D003689B686846BE
:109E7400984707B05DF804FB01238DF800300369AF
:109E84000293C368039343690493EEE702238DF8B6
:109E94000030C3681B03029343690493E5E77047EA
:109EA40010B542698369D21AB2F5805F28BF4FF4B6
:109EB400805292080469C168012A38BF01221944FA
:109EC4001819FFF7BDFF10BD08B5C268006910443A
:109ED400FFF7B8FF08BD0000114B0022DA600379D8
:109EE4001BB1012B0FD01046704742698369D11A08
:109EF400B1F5805F94BF5B1803F5805383619A4288
:109F040009D0002070470369013303614269934219
:109F140003D000207047012070470120704700BF24
:109F2400E02B0020064AD3680133D360082B01D804
:109F34000020704713460022DA600120704700BFFA
:109F4400E02B00200846704700207047024B187A27
:109F5400003018BF01207047E02B0020034B012282
:109F64005A74187AB0FA80F040097047E02B002048
:109F740008B502490248FFF7D5F908BDF42B0020C3
:109F8400D02B002008B505490548FFF7BFF9054B5C
:109F94001860003018BF012008BD00BFF42B00205A
:109FA400D02B0020F82B002008B51A4B1B7AA3B144
:109FB400184B02221A72184B18680379ABB1012BA3
:109FC4001CD00321144B1868FFF73EFF114B0022ED
:109FD4001A725A60FFF7CCFF08BDFFF7D3FF0028C1
:109FE400E6D10C4B00225A60F6E7FFF759FF40B167
:109FF4001128E6D1074B01221A72EDE7FFF764FF3F
:10A00400F5E7044B1B7C002BE6D10021022000F075
:10A0140005F8E1E7E02B0020F82B0020831E012B3C
:10A024002DD8174B1B7A53B310B50446022B03D11A
:10A03400022807D0032818D0114B5B7CE3B9FFF743
:10A04400B3FF10BD0F4B1868FFF746FF0028F3D08D
:10A054000B4B00221A720B4B1868022C0AD00D21EC
:10A06400FFF7F2FEFFF784FFE6E7064B1868FFF7F9
:10A0740059FFEBE71146F3E709F09CFDE1E7704770
:10A08400E02B0020F82B0020012802D0032800D068
:10A09400704708B5054B00225A74012814BF0020EC
:10A0A40001201874FFF780FF08BD00BFE02B0020DB
:10A0B40008B50548FFF7F6F910B9044B5B7C03B10A
:10A0C40008BDFFF771FFFBE7E42B0020E02B002025
:10A0D4002DE9F04182B080460D4616461F4601A97F
:10A0E4000E48FFF7FCF8B0B104461C2200210AF028
:10A0F4002AF801232371C4F80080A7602D0BE560C2
:10A10400666101A90548FFF7F6F8FFF7D1FF0020C3
:10A1140002B0BDE8F0810420FAE700BFD02B002094
:10A124002DE9F04383B08146884617461E4601A9AF
:10A134000F48FFF7D4F8C0B104461C2200210AF0EE
:10A1440002F800252571C4F800900A9BA360C4F8A6
:10A154001080E760666101A90548FFF7CCF8FFF7B6
:10A16400A7FF284603B0BDE8F0830420FAE700BF48
:10A17400D02B002008B510461A4609F0BBFF00207A
:10A1840008BD000008B514220021044809F0DBFFD3
:10A194000348FFF79CF8002008BD00BFE02B002017
:10A1A400D02B002008B5094B43600948FFF77AF922
:10A1B40008B1002008BD09F011FD054B18741C23DB
:10A1C4008C2204490448FFF76CF8F2E7BC4A030008
:10A1D400E02B0020442B0020D02B00202DE9F04F51
:10A1E40083B0884601929B469DF830900446E8B1BE
:10A1F400E38894F805A00AFB03FAAAF1040ADA45F5
:10A2040019D9E7880BF10403B3FBF7F607FB163300
:10A21400019A156805EB0B02524501D9AAEB0B050F
:10A22400019A156066B12468013EFBE71749B62020
:10A2340003F054FCDCE71549C42003F04FFCE0E7CD
:10A24400A7EB030AAA4528BFAA46B3460DE0524627
:10A254000146184609F04EFF2468A5EB0A05D344CD
:10A26400BA46AF4228BFAA4633465DB108EB0B009D
:10A2740023440433B9F1000FE9D05246194609F0DA
:10A2840039FFE9E703B0BDE8F08F00BFE84A0300F7
:10A2940008B5FFF739F908BDF8B501464679701ECF
:10A2A4000A460023834202D212680133FAE7176890
:10A2B400002405E00D683846FFF79CF9013429466F
:10A2C400A642F7D8F8BD2DE9F8430746048AA4F15D
:10A2D400040841440331B1FBF8F8FFF759F9064685
:10A2E400F8B10025057101234371043CC4805FFA71
:10A2F40088F808F1FF3807608146454511D2384691
:10A30400FFF746F9044640B1737901337371C9F814
:10A314000000076001358146EFE73046FFF7BCFFD8
:10A3240026463046BDE8F88308B501210430FFF71E
:10A33400A3F808BD10B5044601210430FFF7A7F8BF
:10A34400C0B200B110BD2046FFF7A6FFFAE7000037
:10A3540010B584B0144603920022009203AAFFF7BA
:10A364003DFF039BA34201D104B010BD0249F62076
:10A3740003F0B4FBF8E700BFE84A030010B584B06B
:10A38400144603920122009203AAFFF727FF039BBE
:10A39400A34201D104B010BD02494FF4807003F010
:10A3A4009DFBF7E7E84A030041DF704710B500243E
:10A3B400054B1C70054B1C60BFF35F8F04490548B7
:10A3C40000F052F8204610BD042C0020082C002078
:10A3D400404B0300FC2B002010B582B000238DF805
:10A3E40007300DF10700FDF7DDFDF1EE104A24F012
:10A3F4009F03E1EE103ABFF35F8F124B4022C3F884
:10A4040084219DF80700FDF701FE14F0070F07D122
:10A4140009F0E4FB48B920BF40BF20BF02B010BD23
:10A4240009497D2003F05AFBF2E7FFF7BDFF00283E
:10A43400F4D00228F2D004494FF4B07003F04EFB7C
:10A44400ECE700BF00E100E04C4B0300826800230E
:10A45400936082681361826853618268D360826802
:10A46400536082681360704738B50C46054638B1AE
:10A474005CB12C6023686B60626893420AD038BD7B
:10A484000649502003F02AFBF2E70449512003F067
:10A4940025FBEEE700236B60F1E700BFB44B03003C
:10A4A40010B5044658B1236873B1636833B12268A8
:10A4B40091680B446360526893420AD010BD064908
:10A4C400632003F00BFBEEE70349642003F006FB73
:10A4D400EBE700236360F1E7B44B0300104A02F595
:10A4E40094718A4219D210B404E010D204F1080223
:10A4F4008A420ED28B1ADB1003EBD3735B1002EB90
:10A50400C30452F833308342EFD92146F0E7606840
:10A5140000E000205DF8044B70470020704700BF46
:10A52400384C030008B5FFF7D9FF034608B11846B5
:10A5340008BD014BFBE700BF244C0300012070471A
:10A5440001207047064B1B68082B01D00020704780
:10A55400044B1B680BB1002070470120704700BFFB
:10A564003001001034010010064B1B68082B01D089
:10A5740000207047044B1B680BB10020704701207A
:10A58400704700BF3001001034010010064B1B68F7
:10A59400082B01D000207047044B1B680BB100202E
:10A5A40070470120704700BF3001001034010010D3
:10A5B400064B1B68082B01D000207047044B1B6816
:10A5C4000BB1002070470120704700BF300100101C
:10A5D4003401001001207047014B024A1A60704791
:10A5E400502200200090D00308B5FFF7A7FF40B128
:10A5F4004FF080430022C3F80C21C3F81021C3F8A4
:10A604003825FFF79DFF002846D04FF08052D2F83E
:10A614000414604BC3F82015D2F80814C3F82415A9
:10A62400D2F80C14C3F82815D2F81014C3F82C155A
:10A63400D2F81414C3F83015D2F81814C3F834152A
:10A64400D2F81C14C3F84015D2F82014C3F84415EA
:10A65400D2F82414C3F84815D2F82814C3F84C15BA
:10A66400D2F82C14C3F85015D2F83014C3F854158A
:10A67400D2F83414C3F86015D2F83814C3F864154A
:10A68400D2F83C14C3F86815D2F84014C3F86C151A
:10A69400D2F84424C3F87025FFF754FF10B13E4BA1
:10A6A4003E4A1A60FFF760FF18B13D4BFB22C3F826
:10A6B4001825FFF76BFF48B13A490B6823F00F03E5
:10A6C400394A126802F00F0213430B60FFF770FF60
:10A6D40018B1364B4FF400721A60FFF77BFF60B17C
:10A6E4004FF08043D3F8003413F0010F05D04FF03E
:10A6F40080436FF00102C3F800242D4AD2F8883059
:10A7040043F47003C2F88830BFF34F8FBFF36F8FE9
:10A714004FF01023D3F80032002B08DB4FF0102346
:10A72400D3F80432002B02DBFFF756FF08BD214BA0
:10A734000122C3F804251F4BD3F80034002BFAD0B0
:10A744004FF010231222C3F800221A4BD3F800341E
:10A75400002BFAD04FF010231222C3F80422154B19
:10A76400D3F80034002BFAD0124B0022C3F804258E
:10A77400104BD3F80034002BFAD0BFF34F8F0C49A1
:10A78400CA6802F4E0620C4B1343CB60BFF34F8FF3
:10A7940000BFFDE700C000408C5600404881030024
:10A7A40000F00040E40E00405802001040960240C1
:10A7B40000ED00E000E001400400FA0570B500245B
:10A7C4000DE00E494FF4F37003F088F90EE04FF0FA
:10A7D400A04305F5E0750C2243F825200134032C31
:10A7E4000AD8074B1E5D35462F2EEAD81F2EEED908
:10A7F40006F01F05034BECE770BD00BF4C5103008E
:10A80400C45103000003005010B50446032809D8BE
:10A814000E4B1C5D2F2C0AD81F2C0ED904F01F04DC
:10A824000B4B0CE00B493A2003F058F9F0E70A49C6
:10A834004FF4F37003F052F9EEE74FF0A043D3F86E
:10A844000405E04000F0010010BD00BFC851030042
:10A85400000300507C5103004C51030010B5044622
:10A86400032809D80E4B1C5D2F2C0AD81F2C0ED997
:10A8740004F01F040B4A0CE00B49412003F02EF9AD
:10A88400F0E70A494FF4F37003F028F9EEE74FF0CC
:10A89400A042012303FA04F4C2F8084510BD00BF26
:10A8A400C8510300000300507C5103004C510300C5
:10A8B40010B50446032809D80E4B1C5D2F2C0AD86A
:10A8C4001F2C0ED904F01F040B4A0CE00B4947203F
:10A8D40003F004F9F0E70A494FF4F37003F0FEF8CB
:10A8E400EEE74FF0A042012303FA04F4C2F80C454A
:10A8F40010BD00BFC8510300000300507C51030089
:10A904004C51030010B5002403E02046FFF7D0FFAC
:10A914000134032CF9D910BD70B500240DE00F49A2
:10A924004FF4F37003F0DAF80EE04FF0A04305F5AE
:10A93400E075032243F825200134032C0AD8084B80
:10A944001E5D35462F2EEAD81F2EEED906F01F05C0
:10A95400044BECE7FFF7D6FF70BD00BF4C5103007A
:10A96400C85103000003005010B5002403E0204642
:10A97400FFF774FF0134032CF9D910BD10B5044658
:10A98400032809D8114B1C5D2F2C0AD81F2C0ED973
:10A9940004F01F040E490CE00E495F2003F09EF8FA
:10A9A400F0E70D494FF4F37003F098F8EEE74FF039
:10A9B400A041D1F804350122A24022EA0300C1F8E3
:10A9C40008051340C1F80C3510BD00BFC851030081
:10A9D400000300507C5103004C51030010B50446A1
:10A9E400032809D8104B1C5D2F2C0AD81F2C0ED914
:10A9F40004F01F040D4B0CE00D49AC2003F06EF87D
:10AA0400F0E70C494FF4F37003F068F8EEE74FF009
:10AA1400A043D3F8103523FA04F414F0010F0CBF4B
:10AA24000120002010BD00BFC451030000030050EA
:10AA34007C5103004C5103000023032B05D8054A25
:10AA4400D25C824203D00133F7E74FF0FF3318465C
:10AA5400704700BFC451030010B50446032802D850
:10AA6400034B185D10BD0349CB2003F037F8F7E71B
:10AA7400C45103007C51030010B5044610F0010FCB
:10AA840003D114F0020F03D110BDFFF745FFF8E71F
:10AA9400FFF794FEF8E703680BB11A6802601846E2
:10AAA4007047000008B509F099F828B900F092F948
:10AAB400044B00229A7008BD0349792003F00EF874
:10AAC400F4E700BF0C2C0020CC51030000B1704708
:10AAD40008B5064B01225A700548FFF7DCFF18B190
:10AAE400436800209847F7E708BD00BF0C2C0020FE
:10AAF400142C002010B5044610B1012C0CD010BD4C
:10AB04000B4B01225A700B48FFF7C5FF0028F4D005
:10AB1400436800209847F6E7054B01229A700648DF
:10AB2400FFF7B9FF0028EAD0436801209847F6E709
:10AB34000C2C0020142C00201C2C002010B50D4BD4
:10AB44001B7813B18524204610BD0A4B00229A605D
:10AB54005A601A61DA60084800F002F9044609F004
:10AB64003DF818B1034B01221A70ECE700F010F91C
:10AB7400F8E700BF0C2C0020F9AA020000B583B04E
:10AB8400144B1B78B3B1134BDB68CBB100238DF8A6
:10AB940007300DF10700FDF705FA0E4BDA68013AAC
:10ABA400DA60DB6893B19DF80700FDF72FFA03B074
:10ABB4005DF804FB08494FF4857002F08FFFE2E76B
:10ABC400054940F20B1002F089FFDFE7FFF76AFF47
:10ABD400E9E700BF0C2C0020CC51030000B583B082
:10ABE40001280BD043B223B103281FD003B05DF872
:10ABF40004FB154B0122C3F88020F7E700238DF8EE
:10AC040007300DF10700FDF7CDF9104B1B7853B158
:10AC14000E4BDA680132DA6001229A709DF807005F
:10AC2400FDF7F4F9E2E7FFF789FFF1E7074B1B783B
:10AC340023B100F0ADF8FFF7A1FFD7E7044940F2D4
:10AC4400452002F04BFFF4E700E100E00C2C00206B
:10AC5400CC51030000B585B003788DF8003043680B
:10AC6400019383688DF80830C3680393054B53F848
:10AC74002130054A52F821106846984705B05DF81E
:10AC840004FB00BF282C0020202C002000B585B038
:10AC940003788DF800304368019383688DF8083099
:10ACA400C3680393054B53F82130054A52F8211029
:10ACB4006846984705B05DF804FB00BF282C0020C7
:10ACC400202C00202DE9F04188B006460C46904621
:10ACD40007781D4B43F827200A691C4B43F82720AB
:10ACE400012F1DD0637FDFF86CC00CF807306D4670
:10ACF4000FCC0FC594E80F0085E80F000497337854
:10AD04001CF80330A3B1301DB8F1000F01D0DFF8F7
:10AD140048804246694601F0E9F908B0BDE8F0818F
:10AD24004B7F002BDED10A49762002F0D7FED9E70B
:10AD340006F10C00B8F1000F01D0DFF82080424684
:10AD4400694600F0B1FEE8E7282C0020202C002002
:10AD540028520300302C002059AC020091AC0200B0
:10AD640010B5044648B1084B1B795BB9064B1C600F
:10AD740001221A710020587110BD0449A02002F06C
:10AD8400ADFEF0E78520F7E7342C00207C52030069
:10AD940008B50D4B1B7953B10C4B1B6813F0010F15
:10ADA4000AD04FF080430122C3F8182508BD084992
:10ADB400B92002F093FEEFE7044BC02283F800238E
:10ADC40001221A60EDE700BF342C002000E100E00E
:10ADD4007C52030008B5094B1B7953B1084B01227F
:10ADE4001A604FF08043D3F8183413F4803FF8D13D
:10ADF40008BD0449F32002F071FEEFE7342C002073
:10AE04000C0000407C52030000B583B0154B1B6856
:10AE140093B1144B00221A601B680093009B4FF0FF
:10AE240080430122C3F808230F4B5B7923B90E4BEF
:10AE34005A711B68002098470C4B1B6873B10B4B6D
:10AE440000221A601B680193019B4FF08043022289
:10AE5400C3F80823044B1B680120984703B05DF82E
:10AE640004FB00BF00010040342C0020040100401A
:10AE740070B4154662B1002365B10824A34218D208
:10AE84000E4A52F82320B2F1FF3F05D00133F5E713
:10AE94000823F1E70C24F1E75AB2084C261886F887
:10AEA400302044F8231035B9083B234483F860006C
:10AEB40001E04FF0FF32104670BC70473C2C00207C
:10AEC400064B4FF0FF3243F82020072804D90838F6
:10AED4001844FF2380F86030704700BF3C2C0020EA
:10AEE40010B582B01A4B93F86A407CBB234606E047
:10AEF400174A1A44FF2182F830100133DBB22F2B9A
:10AF0400F6D904E02046FFF7DBFF0134E4B20B2C52
:10AF1400F8D90F4C0622002104F1640009F013F95A
:10AF24000C4BC02283F8062340221A600A4B0020EF
:10AF340018601B680193019B084B4FF00042C3F853
:10AF44000423012384F86A3002B010BD0820FBE713
:10AF54003C2C002000E100E07C61004000600040E7
:10AF6400034B93F86A00003018BF0120704700BFFC
:10AF74003C2C0020F8B504460D4616462F2807D869
:10AF8400434B234493F93030002B07DB0820F8BDF2
:10AF9400404940F2072002F0A1FDF1E7AA78C2F38C
:10AFA400400231462046FFF763FF0646B0F1FF3FFB
:10AFB4006BD0AB7813F0040F19D113F0010F34D117
:10AFC4006F782F2C4BD81F2C4FD904F01F03324A13
:10AFD400BF0003F5E07342F82370E30804F00701AF
:10AFE4002E48012202FA01F1C25C0A43C254AB7832
:10AFF40013F0020F3DD02B78294906F5A27651F8BB
:10B00400262022F44F3222F4407241F8262051F8CF
:10B014002620240204F47C541B0403F440331C4310
:10B02400144341F826400020B1E72F2C05D81F2CEB
:10B0340009D904F01F03184908E01A494FF4F370C2
:10B0440002F04CFDF3E723464FF0A04103F5E07313
:10B0540051F8232022F0020241F82320BDE71149D0
:10B064004FF4F37002F03AFDADE723464FF0A042EF
:10B07400AEE7083E2A78064B1E4496F8603043EA51
:10B08400821386F86030002081E704207FE700BF48
:10B094003C2C0020E052030000030050A02C0020B0
:10B0A400006000404C51030070B582B004460D4668
:10B0B4002F282FD8444B234493F93030002B2FDB17
:10B0C400414B234493F93030072B53DDA3F108029D
:10B0D4003D4B134493F96050C5F38115032D25D0DE
:10B0E400012D3CD003252F2C3BD81F2C3FD904F035
:10B0F4001F04364B04F5E07453F8242022F4403244
:10B1040043F8242053F8242042EA054543F8245008
:10B1140002B070BD2E4940F2372002F0DFFCC9E7CF
:10B124002B494FF40E7002F0D9FCC9E72F2C05D837
:10B134001F2C09D904F01F02244B08E025494FF4C1
:10B14400F37002F0CBFCF3E722464FF0A043D3F8B0
:10B154001035D34013F0010FC5D10225C3E70225F2
:10B16400C1E71C494FF4F37002F0B8FCBDE74FF09F
:10B17400A043BFE7DAB2072ACAD803F1400292B269
:10B18400920092B2144803F5A27650F8261041F0CA
:10B19400010140F8261002F1804202F5C04200216C
:10B1A400116012680192019A002DB1D0064A14442C
:10B1B40094F9301052F82120002AA9D0012202FA71
:10B1C40003F3C0F80433A3E73C2C00200003005031
:10B1D400E05203004C5103000060004010B50446E7
:10B1E4002F2807D82F2C0BD81F2C0FD904F01F049D
:10B1F4000A4B0DE00A494FF4227002F06FFCF1E7AC
:10B2040008494FF4F37002F069FCEDE74FF0A043F6
:10B21400D3F81005E04000F0010010BD0003005019
:10B22400E05203004C5103002DE9F0478CB0002597
:10B234000A950B9501204FF48073294603E04000E2
:10B2440004339BB20131072912D803F1804202F57D
:10B25400C0421468012CF2D1924CD4F80443204229
:10B26400EDD00024146012680092009A0543E6E7CA
:10B274008D4B1B68012B07D015F0FF0F38D1002D23
:10B2840039DB0CB0BDE8F087874A002313601268ED
:10B294000192019A45F00045844908AA03C982E84D
:10B2A40003000AAA09E00CA901EB830151F8101C60
:10B2B400D1F8101542F8041B0133012BF3D9DBE755
:10B2C40076000134072CDAD82E42F9D0754B04F5F8
:10B2D400A27253F82200C0F3052053F82210C1F3E0
:10B2E4000141734B53F82430002BE9D09847E7E72A
:10B2F40001260024E6E700230293039307E00CAA47
:10B3040002EB83024FF0FF3142F8201C0133012B82
:10B31400F5D900273C4624E0032D21D144E002AABC
:10B3240012F80930334302F809303FE061494FF421
:10B33400F37002F0D3FB3CE043464FF0A04203F528
:10B34400E07352F82330C3F301430CAA914419F873
:10B35400082C164001D0022B32D00EB9032B2FD06B
:10B364000134032C5ED8524B234493F96030DAB293
:10B3740022F0C008B3F1FF3FF2D04FEAD80902F03F
:10B38400070301269E400CAB4B4413F8203C1E429D
:10B39400E6D09509464B03EB080292F9302053F8A6
:10B3A40022A0BAF1000FB7D0032DB8D0B8F12F0FF7
:10B3B400BCD8B8F11F0FBFD908F01F033E4ABEE73F
:10B3C400032D06D0BAF1000FCAD029464046D04713
:10B3D400C6E7022B1AD00226B8F12F0F18D8B8F1FD
:10B3E4001F0F1BD908F01F03334A03F5E07352F80B
:10B3F400231021F4403142F8231052F8231041EA7B
:10B40400064642F823600137FFB2DBE72E46E3E746
:10B4140028494FF4F37002F061FBE0E743464FF034
:10B42400A042E2E71FB9002F3FF42BAF71E71F4A98
:10B4340008AB92E8030083E80300002306AA09E0AE
:10B444000CA901EB830151F8101CD1F8101542F836
:10B45400041B0133012BF3D90023012B0AD80CAAB6
:10B4640002EB830252F8181C52F8082C914207D1BF
:10B474000133F2E70123002B7FF403AF00230DE037
:10B484000023F8E70CAA02EB830252F8181C42F8D6
:10B49400081C52F8281C42F8201C0133012BF1D956
:10B4A400C1E700BF006000407C610040D852030047
:10B4B4003C2C00204C51030000030050034B9842E5
:10B4C40001D1034870470020704700BF00200040AE
:10B4D400A82C002008B5064B1B681BB1044B1B6845
:10B4E400984708BD0349512002F0F8FAF6E700BF77
:10B4F400A82C00203C53030070B582B00E460446CD
:10B50400B8B12046FFF7DAFF0446B8B100238DF83E
:10B5140007300DF10700FCF745FD257915B92660C4
:10B52400012323719DF80700FCF770FD4DB900203D
:10B5340005E00549772002F0D1FAE2E7002002B0E5
:10B5440070BD1120FBE700BF3C53030010B5044657
:10B5540038B12046FFF7B2FF10B100220260027139
:10B5640010BD02499B2002F0B9FAF2E73C530300F4
:10B574000368084AC3F8082303681B0B5AB203F094
:10B584001F035209012101FA03F32032024941F851
:10B59400223070478402020000E100E082B0002300
:10B5A400C0F81C31D0F81C310193019B8A680B6AE6
:10B5B400D25C0B6A01330B62C0F81C2502B07047E1
:10B5C40038B505460C46226A63699A420DD2D5F80D
:10B5D4001C312BB994F82830002BF8D0002038BD4A
:10B5E40021462846FFF7DAFFEDE70120F7E782B0AE
:10B5F4008B6983B10023C0F80831D0F80831019376
:10B60400019BCA684B6AD0F81805D0544B6A0133C1
:10B614004B6202B07047C0F80831D0F8083100938B
:10B62400009BD0F81835F4E700B585B001238DF8F8
:10B63400003002910192436801686846984705B05A
:10B644005DF804FB00B585B000238DF8003002914D
:10B65400826801924361436801686846984705B06F
:10B664005DF804FB30B587B004460D46D0F80433CA
:10B6740013F4007F26D0D0F824311BB30023C0F884
:10B684002431D0F824310093009B4FF40173C0F8A7
:10B69400083391F829300BB90123436002238DF854
:10B6A4000830D4F88034C4F880340593AB6904932B
:10B6B400EB6803930023AB61EB616B68296802A814
:10B6C400984707E0D4F8043313F0040F02D0D4F8F9
:10B6D400083143BBD4F81C318BB12A6A6B699A4296
:10B6E40003D295F82830002B44D00023C4F81C3131
:10B6F400D4F81C310193019B696900293FD1D4F826
:10B70400443173B10023C4F84431D4F84431029372
:10B71400029B95F829300BB101232360AB69002B00
:10B7240031D107B030BD29462046FFF760FFAA6932
:10B734006B6A9A42CED1EB6983B995F829300BB97B
:10B74400012363604FF40173C4F808330023AB6131
:10B75400696AEA682846FFF767FFBBE7EA68696A2F
:10B76400AB612B69EB600023EB616B622846FFF74A
:10B774005BFFAFE729462046FFF710FFBFE72846E7
:10B78400FFF760FFBBE70023AB61696AEA682846FC
:10B79400FFF74AFFC5E7000008B502490248FFF772
:10B7A40061FF08BDB02C002000200040F8B50368FC
:10B7B400D3F80C75D3F81465D3F80845D3F81055AD
:10B7C4004FF0FF32C3F81425C3F80C250368C3F8FF
:10B7D4000825C3F8102597420BD02F2F37D81F2FD9
:10B7E4003BD907F01F072C4B07F5E077022243F8FB
:10B7F4002720B6F1FF3F0BD02F2E31D81F2E35D97D
:10B8040006F01F06244B06F5E076022243F82620B4
:10B81400B5F1FF3F0BD02F2D2BD81F2D2FD905F0BD
:10B824001F051D4B05F5E075022243F82520B4F1F0
:10B83400FF3F0BD02F2C25D81F2C29D904F01F042F
:10B84400154B04F5E074022243F82420F8BD134993
:10B854004FF4F37002F042F9C1E74FF0A043C3E79D
:10B864000E494FF4F37002F039F9C7E74FF0A043E3
:10B87400C9E70A494FF4F37002F030F9CDE74FF00D
:10B88400A043CFE705494FF4F37002F027F9D3E75B
:10B894004FF0A043D5E700BF000300504C51030014
:10B8A40070B582B006460D4603680022C3F81C2119
:10B8B400D3F81C310193019B0368C3F84421D3F8E6
:10B8C40044310093009B0368184AC3F804230468B6
:10B8D40044F307348B1EDBB2012B03D94B1FDBB2BD
:10B8E400022B17D8002C1ADB6901C9B204F1604499
:10B8F40004F5614484F8001333681B0B5AB203F057
:10B904001F035209012101FA03F3094941F82230C6
:10B9140002B070BD07496B2002F0E0F8E2E704F0E2
:10B924000F046901C9B2044B1955E5E78000020010
:10B9340000E100E09453030014ED00E070B5064606
:10B944000C460D68B5F1FF3F24D16568B5F1FF3FA2
:10B954000BD02F2D4AD81F2D4ED905F01F05504B63
:10B9640005F5E075002243F825203368A269C3F881
:10B9740024253268637D217D0B43C2F86C3533681E
:10B9840022686168C3F81415C3F80C25237D012BC4
:10B9940035D070BD2F2D17D81F2D1BD905F01F05CD
:10B9A4003F4A012303FA05F5C2F8085525682F2DEF
:10B9B40013D81F2D17D905F01F05394B05F5E07570
:10B9C400032243F82520C0E736494FF4F37002F010
:10B9D40085F8E1E74FF0A042E3E732494FF4F37012
:10B9E40002F07CF8E5E74FF0A043E7E72D494FF478
:10B9F400F37002F073F8AEE74FF0A043B0E7A56828
:10BA0400B5F1FF3F0BD02F2D15D81F2D19D905F0F7
:10BA14001F05234B05F5E075002243F82520E56852
:10BA2400B5F1FF3F10D13368E168A268C3F8081587
:10BA3400C3F81025ADE71B494FF4F37002F04EF83C
:10BA4400E3E74FF0A043E5E72F2D17D81F2D1BD9AF
:10BA540005F01F05124A012303FA05F5C2F808553B
:10BA6400E5682F2D13D81F2D17D905F01F050C4B92
:10BA740005F5E075032243F82520D4E709494FF47E
:10BA8400F37002F02BF8E1E74FF0A042E3E7054939
:10BA94004FF4F37002F022F8E5E74FF0A043E7E734
:10BAA400000300504C5103002DE9F0410546904637
:10BAB4000F46002935D02C791E4A2C2303FB04237E
:10BAC40093F82A3093BB1C492868FFF715FD0646F6
