:020000022000DC
:1060000000000120756302005D6302005F6302000F
:106010006163020063630200656302000000000028
:1060200000000000000000000000000067630200A4
:1060300069630200000000006B6302006D630200F0
:10604000319902006F630200759D02006F630200C8
:106050006F6302006F630200F19B02006F63020036
:106060006F6302006F6302006F6302006F630200E0
:106070006F6302006F6302006F6302006F630200D0
:106080006F6302006D7102006F6302006F630200B4
:10609000097202006F6302002DF602006F630200B6
:1060A0006F6302006F6302006F6302006F630200A0
:1060B0006F6302006F630200000000000000000038
:1060C0006F6302006F6302006F6302006F63020080
:1060D0006F6302006F6302006F6302000000000044
:1060E00000000000000000000000000000000000B0
:1060F00000000000000000000000000000000000A0
:10610000000000000000000000000000000000008F
:10611000000000000000000000000000000000007F
:10612000000000000000000000000000000000006F
:10613000000000000000000000000000000000005F
:10614000000000000000000000000000000000004F
:10615000000000000000000000000000000000003F
:10616000000000000000000000000000000000002F
:10617000000000000000000000000000000000001F
:10618000000000000000000000000000000000000F
:1061900000000000000000000000000000000000FF
:1061A00000000000000000000000000000000000EF
:1061B00000000000000000000000000000000000DF
:1061C00000000000000000000000000000000000CF
:1061D00000000000000000000000000000000000BF
:1061E00000000000000000000000000000000000AF
:1061F000000000000000000000000000000000009F
:10620000354936480A1A02D0072291438D4634494F
:1062100034480A1A06D00722914381F309880222E2
:1062200082F3148830483149314A00F044F831484B
:106230003149324A00F03FF831483249324A00F0E1
:106240003AF832483249334A00F035F83248334997
:10625000334A00F030F833483349344A00F02BF821
:1062600033483449344A00F026F83448344900228F
:1062700000F02CF833483449002200F027F8334866
:106280003349091A082902DB002202604160314AC1
:1062900090471F481F49884205D00268043003B464
:1062A000904703BCF7E700208646EC46002000211B
:1062B000294A9047FEE7884207D0521A05D0037852
:1062C00001300B700131013AF9D17047884202D098
:1062D00002700130FAE770470000012000E0002062
:1062E0000000012000000120082103002C220020D2
:1062F00084220020D4630200D4630200DCFB02008D
:10630000082103002C2200202C22002054FD020032
:1063100054FD020054FD020054FD020054FD020031
:1063200054FD020054FD020054FD02000821030048
:106330006021030084220020842200208422002087
:1063400098330020983300209833002098330020A1
:10635000985300209D63020065AD0200FEE7FEE752
:10636000FEE7FEE7FEE7FEE7FEE7FEE7FEE7FEE705
:10637000704700BF1048804710484FF0070188431E
:1063800085460F4880470F48016841F4700101605D
:10639000BFF34F8FBFF36F8FFFF732BF0A480B4930
:1063A0000B4A884207D0521A05D0037801300B708F
:1063B0000131013AF9D170477163020000000120F8
:1063C0005193020088ED00E040FD020018220020F9
:0463D0002C2200205B
:1063D400F0B595B01C46164608460D4602F0CEFEB2
:1063E4001A9B0D93CDE9086400242346082205A9CD
:1063F40028460A948DF82C400C9402F0DCFE079B8E
:106404000293069B03939DF814308DF8114003F01A
:106414000302012A1DD1BDF81440059EC3F3C20333
:10642400C4F383148DF81030A20008230EA9284663
:1064340002F0C1FEC6F3952608AB0093224602ABD8
:106444000EA9304600F0F0FB284602F09BFE15B082
:10645400F0BD022AF8D1BDF81640C3F3C203A40963
:106464008DF810300827082C264628BF08263B46FE
:1064740032460EA9284602F09EFEA41B08AB02AACF
:1064840031460EA8374400F033FC002CEBD1DBE797
:10649400014B01221A707047C5220020704700008A
:1064A40070B50E4D06460FCD88B06C460FC495E806
:1064B4000F00002E84E80F004FF00603084A094835
:1064C400009308BF0022694603F0CAF908B100F03E
:1064D4009DFD054B1E7008B070BD00BF54FD020049
:1064E400956402002C2200208422002007B5044B6E
:1064F4000093044A4023FFF76BFF03B05DF804FBED
:106504000D6502008522002038B50D4B0D4D00208D
:1065140018700D4804782D5DD2B21C4665B1043064
:1065240004F04EF808B100F071FD084B1A7812B16E
:106534002378002BFBD038BD0C3003F047FEF1E785
:10654400C5220020C82B00202C22002084220020F9
:1065540008B50848084A0378D35C3BB1043003F01B
:10656400CBFF0020BDE80840FFF79ABF0C3003F0D2
:10657400C9FDF6E72C220020C82B00200120FFF7DC
:106584008FBF000008B5FFF7F9FF0421034800F0AE
:10659400B9FA034B01225A7108BD00BF30FD020055
:1065A40040220020037813F0040216D003F0030302
:1065B400012B03D0022B09D0012070470A68008800
:1065C4000232C0F3831002440A60F5E70B68428884
:1065D400023303EB92130B60EEE7104670470000A2
:1065E4002DE9F04F87B000230446851C0DF1070008
:1065F4000F4690468DF8073000F0F8FF45480668CE
:106604003E60D0E90132134401339B1B824600F201
:106614001C4600F5836900F21447AB421BD30022E9
:10662400B8F1000F70D0052363F3070264F38912F5
:10663400DAF80010DAF808309DF807000B4003334D
:106644000D444AF82320CAF8005000F0F3FF01205B
:1066540007B0BDE8F08F0121304602F010F848463B
:1066640002F026F8384602F023F8DAF80400DAF8E3
:1066740008B0029000EA0B0003300AEB800002A984
:10668400FFF790FF029B50BB0BEA03020AEB820266
:1066940003F1020CD2680392013303EA0B0B0AEBF9
:1066A4008B0B02F00302012ACDF808C0DBF80C10B2
:1066B40022D0022A16D08346384601F0FCFF10B1DE
:1066C400029BCAF804305946304601F0D8FFDAE993
:1066D40001231344DAF8002001339B1A9DE70BEAE7
:1066E4000300C9E7BDF80E309B0903334FEA114B91
:1066F4000CEB93030293DFE7BDF80C30C3F3831371
:106704004FEA114B6344F5E7062363F3070264F38E
:106714009F528DE7982300200B4B0C48FF2210B5A5
:106724009A600022C3F81824C3E90022C3F8142491
:1067340083F8202402F0DBFC044610B9044802F07C
:1067440083FD204610BD00BF9823002064FC020096
:1067540094FD020030B50A4C71B10A4A0A49121B71
:10676400D20800239A4201D1002030BD31F82350D1
:10677400854202D00133F5E7034654F83300F4E7C9
:1067840078FC020030FD02002C220020094B013964
:1067940003EBC000032909D8DFE801F00A0204066C
:1067A4000420704700797047407970470020704793
:1067B4000220704778FC0200034BD3E90030C31A6F
:1067C40058425841704700BF982300202DE9F043F8
:1067D40087B0FFF7F1FF0646002840F0FB807E4DAE
:1067E400C5F81804BFF34F8F6868AC680290204066
:1067F400033005EB800002A9FFF7D4FE029B18B119
:10680400D5F81824002A5FD004EA0302991C013346
:1068140005EB8202234005EB8303D268DB68049313
:1068240002F00303022B0392029162D1BDF80E30F1
:106834006A484FEA9318B8F1500FC14628BF4FF089
:10684400500969F38F1309F10801ADF80E3002F015
:1068540066FC0746002800F0A88002F08FFC03A91C
:1068640000230822384602F09CFC029924EA01061F
:106874000136B600B14535D95FFA89F97EB3F6B26F
:10688400A9EB0609214003315FFA89F4B146544E5D
:1068940005EB810108234A46384602F082FC36B1F2
:1068A40009F1080322463146384602F07AFC029B7D
:1068B40008F1030803EB98030293D5F81834002B6E
:1068C4004BD1D5F810445BE02A689A4204D86A6038
:1068D400304607B0BDE8F08304EA030088E7404986
:1068E4003446D7E72140033108234A4605EB8101AA
:1068F400DAE7012B59D1BDF80C303848C3F38311C2
:10690400062928BF062161F3891302318900ADF8F5
:106914000C3002F004FC0746002846D002F02EFC9E
:106924000023082203A9384602F03BFC0026BDF8E8
:106934000C20C2F38312B300964203F10803BCD2C5
:1069440002994A1C21400331029205EB8101042281
:10695400384602F026FC0136E9E7384602F012FC1C
:10696400FFF72AFF80F00100C6B2B1E7E3685B7964
:1069740023B1236839461B6820469847E3681C689E
:10698400002CF3D1384602F0FDFB0DF107008DF821
:10699400074000F02BFED5F818340BB9029B6B604E
:1069A4009DF8070000F046FEDAE7D5F8104454B924
:1069B4000C4B0D480D49C01AC008000440F00200F9
:1069C40000F06EF8CCE7236820469B689847E3689C
:1069D4001C68ECE700267BE79823002064FC020097
:1069E400A423002078FC0200A0FC0200A0FD020009
:1069F4002DE9F74F284C80460F46924601A9012203
:106A040018469B46D4F80890FFF7EAFD80B3019D31
:106A14000026A91C5E4506EB010233D100211F4864
:106A240001F0ECFD80F310006A1C02EA090204EB99
:106A34008202000405EA0903033340EA1840D060E7
:106A440014F8232068F3C50204F8232034F8232023
:106A540066F3891224F8232054F8232067F39F2235
:106A640044F8232002F0F80242F0010204F8232043
:106A740094F820341BB1FFF7A9FE0028FBD103B022
:106A8400BDE8F08F09EA020204EB82025AF82630CC
:106A9400D3600136BEE700BF98230020B42700204E
:106AA40000231A46FFF7A4BF07B50123019201AAE8
:106AB400FFF79EFF03B05DF804FB07B5CDE90023A3
:106AC40002236A46FFF794FF03B05DF804FB1FB589
:106AD400CDE90123069B039301AA0323FFF788FF53
:106AE40005B05DF804FB1FB5CDE90023069B0293B6
:106AF400079B03936A460423FFF77AFF05B05DF80A
:106B040004FB000030B50F49D1F8102400231446CB
:106B14003CB9C468237152B9C1F810042260184604
:106B240030BDE46825799D4206D02468F0E7D26838
:106B3400116821601060F2E701330A2BE7D14FF0AE
:106B4400FF33ECE798230020094A38B50123D2F833
:106B5400104482F820341D4604B938BDE3685D71E1
:106B6400236820465B689847E3681C68F4E700BF25
:106B740098230020037A052B10B50C460FD0437AD6
:106B840023B1084A0849204601F0F8FD0749204688
:106B940001F0F4FD2046BDE8104001F0E4BD002AF8
:106BA400F8D0F3E7EBFD0200C71403000DFE02006A
:106BB400C38873B504460D4633B1144A0092144990
:106BC400144A284601F0DAFD217A05291CD0637A9B
:106BD4004BB1A088FFF7DAFD0F4B104953F8202082
:106BE400284601F0CBFD227A0D4BA08853F8226091
:106BF4000021FFF7AFFD0B4903463246284602B099
:106C0400BDE8704001F0BABD02B070BDEBFD0200FA
:106C1400F8FD0200F0FD0200B8FD0200C7140300F5
:106C24001CFE020010FE02002DE9F04385B01F4651
:106C34000C9D002306460C46904695F80C902B7349
:106C440029463846FFF7B4FFB8F1060F09D8DFE844
:106C540008F00412181F283340003146284601F07A
:106C64008DFD002229463846FFF784FF85F80C90F5
:106C740005B0BDE8F08322683146284601F07EFD68
:106C8400EFE7D4E900233146284601F077FDE8E731
:106C9400A36800933146D4E90023284601F06EFD31
:106CA400DFE7E3680193A36800933146D4E9002346
:106CB400284601F063FDD4E723690293E368019356
:106CC400A36800933146D4E90023284601F056FD19
:106CD400C7E76369039323690293E3680193A36895
:106CE40000933146D4E90023284601F047FDB8E774
:106CF40008292DE9F84F80460E4617461C463AD817
:106D0400002593F80C901D7319461046FFF750FFA9
:106D1400DFF884A0DFF884B0AE422ED918F805203D
:106D24005946204601F02AFD0135082DF4D11849B1
:106D3400DFF86CB0204601F021FD4FF0000A564503
:106D440020D918F80A507E2D03D8284608F078FE7A
:106D540000B92E252A465946204601F00FFD0AF1B6
:106D6400010ABAF1080FEAD1012221463846FFF799
:106D740001FF84F80C90BDE8F88F5146204601F0DD
:106D8400FDFCD1E70349204601F0F8FCE7E700BF2A
:106D9400E6FD0200E4FD0200E2FD0200DCFD02006B
:106DA400E8FD02002DE9F04F394E87B04FF000099D
:106DB400384B1B785FFA89F5AB4202D807B0BDE8BF
:106DC400F08F354BD3F800A01AF835000124D6E92A
:106DD400001EA0F12002C0F1200304FA02F224FAFA
:106DE40003F3134304FA00FC009301EA0C03029337
:106DF400009B0EEA03030393DDE9022313430AEB2A
:106E0400C50B41D0009B21EA0C012EEA0303C6E91D
:106E1400001302F0E1FE1AF835502049A5F12002D2
:106E2400C5F1200304FA02F224FA03F31343D1E96F
:106E340000C2AC40134004EA0C0105930024C3B221
:106E4400CDE90034009A0491C5F12003A5F1200195
:106E540022FA03F302FA01F848EA03081346AB40A6
:106E64001F46DDE90434444508BFBB420CD1DBF8BE
:106E740004304BB19BF801104A1E51425141081A8B
:106E8400414241412846984709F1010990E700BF72
:106E940088280020542800209028002080280020E2
:106EA4002DE9F0418046204800F090FBD0BB01253D
:106EB400A8F12004C8F1200325FA03F305FA04F429
:106EC4001C431A4BD3E9001205FA08F501EA05063A
:106ED40002EA040756EA07001E461DD1404602F0A6
:106EE4007BFE134BD3E9001288B129432243C3E943
:106EF4000012D6E900231C430E4B0B4819681543B6
:106F0400C6E900540022BDE8F04100F019BB21EAB3
:106F1400050122EA0402EAE721EA050522EA04045B
:106F2400C3E90054BDE8F0815C28002088280020D3
:106F34008028002058280020042A2DE9F341054622
:106F44000C4616463AD902F085FDD8B11C4B1D49B2
:106F54001D601D4BDFF884801C701C4B00221E60DA
:106F64000023C1E900231A49C1E90023013CE4B22A
:106F740000260327FF2C0CD1164A1748002100F0E5
:106F8400CDFA03E002F02EFD0028DFD002B0BDE808
:106F9400F08123B205EBC30201A992788DF8052094
:106FA40015F833008DF8066042468DF8047002F03F
:106FB4005BFD013CE4B20028DCD0E7E70720E5E70D
:106FC40090280020802800205428002058280020E1
:106FD40088280020A96D02007CFE0200A56E020034
:106FE40070B5084D084E00242B789C4201D3002034
:106FF40070BD3368012113F8340002F0A9FD013497
:10700400F2E700BF54280020902800201FB500217B
:10701400039001AA44F20100CDE9011100F004F843
:1070240005B05DF804FB000010B572B6FFF78CFDE7
:10703400FFF7CCFB0028FBD1104B114C1149E41A8B
:10704400E408240444F00100FFF72AFD0E4B1B68FA
:10705400DB0700D500BE0D4944F00200FFF720FD18
:10706400BFF34F8F0A490B4BCA6802F4E062134323
:10707400CB60BFF34F8F00BFFDE700BF78FC020079
:10708400A0FC020080FE0200F0ED00E08CFE020095
:1070940000ED00E00400FA05094A537891780133C1
:1070A400DBB2994208BF0023117899421FBF0370D5
:1070B4005078182303FB002014BF043000207047CD
:1070C4009428002073B5054600240DF107000E46F0
:1070D4008DF8074000F08AFA0DF10600FFF7DCFF97
:1070E40090B10670094B9DF8062045605A709DF8D2
:1070F400070000F09FFA24B9054B4FF48012C3F83F
:107104000021204602B070BD0424F0E7942800203A
:1071140000E100E0024B4FF43C6043F001031847E8
:10712400A0FE020038B50C4B0C4C4FF40032C3F8EF
:10713400802001254FF48033C4F84833C4F8083361
:107144006560FFF7E7FF064BA56000241C60FFF7AE
:10715400E1FF044B1C7038BD00E100E00010014069
:10716400B0290020A1290020F8B51F4B1F491B6836
:107174000025C1F84051C1F84451C1F84851C1F843
:107184004C51C1F80051C1F804514BB3D1F8044536
:1071940017490968641A24F07F442F461A68A242EA
:1071A40009D8A41A15441A7CDE691AB11F74D3E9EC
:1071B40005209047AEB90F4A0F4B11781B788B42CC
:1071C40005D10133DBB2022B08BF00231370127800
:1071D4000A4B43F822500A4B4FF48012C3F80021A3
:1071E400F8BD3346DAE700BFB4290020001001409F
:1071F400B0290020AD290020AC290020A4290020BA
:1072040000E100E02DE9F04FA14AA2491378097882
:10721400A14D994285B03CD00133DBB2022B08BFAB
:10722400002313709D4912789D4B0F6853F8220078
:107234003B1823F07F4300220B602B68164614464C
:10724400944613B942B12B6006E0196881420ED905
:1072540002B12B60091A196001272B68DFF848A2D4
:1072640001934FF00008BEB9DFF844B266E0401A5B
:107274000C44D968C3F800C0D3F81CE031B13A1902
:1072840022F07F42C3E90121DE611E4601227346DA
:10729400D7E700263746E0E73446F6697F4A636855
:1072A4001268DFF810C2A068991A21F07F41614585
:1072B40000F2A68001442160012222742A6800237E
:1072C400C4E90133E361002A40F0A3802C60CAE7DB
:1072D4005A1C9BF80210D2B291428BF8002004BFD2
:1072E40000228BF80020182202FB03B31A799C6851
:1072F400022A1CD0032A12D0012A1FD1207CE8B90B
:10730400D3E90312A2605A69E2609A69654BA261EB
:107314001B78002B0CBF0B4603466360BEE70022BC
:107324002B681146002B67D142B12B6006E0296817
:107334000A468946002A5AD1002323749BF8003058
:107344009BF801209A42C3D12B68B8F1000F04D1F5
:10735400019A9A4201D1002F43D0002B73D0D3F865
:1073640000A0514D4D4BD5F804751C68DFF84881D9
:107374003E1B98F8003026F07F4603369BB94FF445
:107384008033C5F84433C5F80433484B4FF4003216
:107394004FF00109C3F880211A60C5F80090FFF787
:1073A400B9FE88F80090B2452CBF5444A41924F0C7
:1073B4007F44C5F84045D5F80435DB1B23F07F43F3
:1073C400E41B033324F07F44A3420AD9D5F80435DF
:1073D400C5F84035FFF79EFE344B4FF40032C3F836
:1073E4000021304B00221A7005B0BDE8F08F9442A2
:1073F4002CD09146D2699DE719740122DB6991E78B
:10740400D31A23F07F43834234BFC31A002323607B
:1074140052E721681368994213D8591A1160E2613E
:1074240054E7091AD8691A4638B1034618688842DD
:10743400F7D3401A1860184613462160E061DC61F6
:1074440011E71346F2E7FFF76DFECAE74C4511D189
:10745400CB692B6073B9DFF844E00120CDE9021257
:10746400CAF80800CEF800300E4B1870FFF752FE31
:10747400DDE902121368D269C9F81C2012B1106840
:10748400034413602B68994218BF4FF0010853E777
:10749400AC290020AD290020B4290020B029002007
:1074A400A4290020A02900200010014000E100E0F0
:1074B40094280020FEFF7F00A129002008B5FFF7D3
:1074C40031FE104B00200B2218809A700E4B18606E
:1074D4000E4B18700E4B18700E4B4FF48012C021D7
:1074E400C3F8802183F814131A6002F18042A2F5D4
:1074F4006F22C2F8080583F81113074BD2F804254C
:107504001A6008BD94280020B4290020AC2900206A
:10751400AD29002000E100E0B0290020074B9B7852
:107524004BB132B128B10368187C20B959745A613F
:107534007047072070470820704700BF9428002038
:107544002DE9F7431E4FBB7805460E469046A3B37C
:1075540098B304292FD943697BB3437C0024012BBE
:107564000DF107000CBF8946A1468DF8074000F0D5
:107574003DF80DF10600FFF78FFDD0B10123037034
:10758400104B4560D3F80435C0E90498C0E90236CD
:107594009DF806307B709DF8070000F04BF824B985
:1075A400094B4FF48012C3F80021204603B0BDE814
:1075B400F0830424EFE70724F7E70824F5E700BF86
:1075C400942800200010014000E100E0064A92786F
:1075D4003AB130B1426922B1002202740221FFF7AC
:1075E40071BD0820704700BF9428002070B5EFF3E8
:1075F400108672B60C4A946801239CB993600B4BB5
:107604000B4DD3F8801029401160C3F88050D3F893
:10761400841051604FF0FF32C3F88420047006B91F
:1076240062B670BD0370FAE7B829002000E100E0FB
:10763400FC06FFBD084B9A6810B55AB150B9EFF378
:10764400108172B6054A1C6814605C6854609860C6
:1076540001B962B610BD00BFB829002000E100E006
:1076640070B5064D0646002455F8043B0BB1304670
:1076740098470134042CF7D170BD00BFD0290020F5
:10768400033080B240F2FD33984230B51FD8124B1C
:107694001A783AB91C895D892C440444A4B2B4F51F
:1076A400806F0AD31A7DA2B99A8BDC8B22440244E0
:1076B40092B2B2F5806F0CD201220A8014461422D1
:1076C40002FB04335A8910445881002030BD09203C
:1076D400FCE70720FAE700BF042A00200B4A0C4B02
:1076E4005188142000FB0131CB6833B90420496868
:1076F40010700122074801F0C5BA0523064913702A
:1077040002238B80012200230968F3E7E829002083
:10771400042A002018220020CC2A002007B50023C8
:1077240005490093054A09680548082301F014FA3D
:1077340003B05DF804FB00BFCC2A0020B4FE0200B5
:107744001822002007B50023009301460823034AAA
:10775400034801F001FA03B05DF804FBACFE02003B
:107764001822002013B500230C460093014604237D
:10777400074A084801F0F0F938B9074B142202FB14
:1077840004340123237402B010BD0E20FBE700BFB4
:10779400A8FE020018220020042A002037B50A4857
:1077A4000A4B42689C881968538803250333057083
:1077B4009BB2002000909B0001EB8401044801F07F
:1077C400CBF903B030BD00BFE8290020CC2A00204B
:1077D4001822002010B50146044800F043FE1C2284
:1077E4000446002108F095F9204610BDB82A00206F
:1077F40068B10268084B9A4209D14068074B984225
:1078040007D0013398420CBF0120032070470320A6
:1078140070470020704700BFDEC0ADDEFE011EF1E0
:107824004388033300EB8303994209D382884FF6DC
:10783400FF739A4206D00088B0FA80F0400970477E
:1078440002207047012070472DE9F8430223DFF836
:1078540060800B800D46174600F5805600F1080441
:107864004FF00109B4420FD2236801330CD03146E2
:107874002046FFF7D5FF48B10FB187F800900228E2
:107884000BD14FF480632B80BDE8F883A368D8F84C
:107894000020934201D9C8F800302B886288033352
:1078A40013442B806388033304EB8304DAE700BFBB
:1078B400FC290020154A142303FB002070B50B6833
:1078C40044680D4604F58056ABB15C88033403EB81
:1078D4008404B4420DD2236801330AD031462046D1
:1078E400FFF79EFF01280BD010F0FF0F05D00228F0
:1078F400EFD1002003E00834EBE72C60012070BDD9
:107904006388033304EB8304E3E700BF042A002005
:10791400436873B504460D4663B3234AD1688B426A
:1079240028D31269934225D813F0030022D11F4AA9
:107934002189128991421DD121689A68914219D1F5
:107944001B4A51688B4203D901F580518B420DD3F8
:10795400926993420CD902F58052934208D20123D2
:107964002B80B0FA80F0400902B070BD0346F7E7FF
:107974000A20F6E700232B801E46019601A92888D9
:10798400FFF798FF30B92B8801339BB2012B2B8072
:10799400F3D9E9E7019B226899689142EED16360CB
:1079A400024B1B892381DFE718220020E8290020ED
:1079B400042A00202DE9F8431C461C4B1B7806467C
:1079C4000F4615466BB372B36CB3DFF868804FF0A3
:1079D4001409A388012B01D90A2020E009FB03F331
:1079E40018F803302BB92146A088FFF763FF20B9AC
:1079F4002060A3880133A380EBE723681EB1998834
:107A040032889142EFD11FB119883A889142EAD164
:107A14009A68C5E90023064B1B892B810020BDE829
:107A2400F8830220FBE70520F9E700BFE0290020E6
:107A3400E8290020042A002008B5074B191D58889E
:107A4400FFF738FF18B1BDE80840FFF7A7BEBDE84F
:107A54000840FFF743BE00BFE82900202DE9F04F9E
:107A6400A04FDFF8A49289B00646B8463B6823B914
:107A740049469D4800F030FD3860D8F80050297818
:107A84004B1E052B00F2FA80DFE813F006005E00BF
:107A94005E00EE00EE005C0126B1944B00225A60B9
:107AA4000124ECE02B79032B1DD8DFE803F0150249
:107AB4002A358F490B78022B084619D00B7D022BEF
:107AC4004FF0010316D114225343C2180020C854A6
:107AD4005068FFF737FE03E001232B71FFF71EFE0A
:107AE400002800F0BC80814B00225A600E24C6E0BE
:107AF4000023E8E77D4A13700023536041F61D54C8
:107B0400BDE07C497C48002302222B718A8001223B
:107B1400096801F0B7F8E3E7764C00262E71206877
:107B2400734DFFF70FFE754BD4F800C05A88142329
:107B34005343EA18EE5451682160A188C2F804C086
:107B440011810222A280CBE7B5F814A0AA7DDFF848
:107B5400A0B1AEB1022AEB8806D9142101FB0AB107
:107B6400DA1C088902440A81142202FB0ABAC3F50A
:107B74007F43BAF80A20FD331344AAF80A308FE78A
:107B8400142303FB0AB318895C6804EB8004062AF7
:107B940068D8DFE802F0274D35431D59040041F64B
:107BA4001D54AA7DEB88022A06D9142101FB0AB1CF
:107BB400DA1C088902440A81142202FB0ABAC3F5BA
:107BC4007F43BAF80A20FD331344AAF80A3056E07A
:107BD4004B484C4900234360AB690360FFF798FEB0
:107BE400002871D00223AB75002300930423EA1804
:107BF4002146414800F0B0FF002830D00E24D0E7E1
:107C04002B69002B14BF03230123AB7500230093BE
:107C140005F10C02042304F10801EAE70123AB7522
:107C24000022EB8800929B002A6904F10C01E0E732
:107C340003290CBF05230623AB75002300930423FB
:107C440005F10802E118D4E70623AB752D4B19881A
:107C54002B4B5868FFF786FD04460028A1D109B0D4
:107C6400BDE8F08F0F249CE7002E7FF419AF2B7929
:107C7400012B4BD0E3B1022B3FF440AF0F2414226D
:107C8400002103A807F045FF41F61D539C4208BF9D
:107C94000024D8F8003004941A78023A042A00F236
:107CA4000581DFE812F0E600F20015011D01240150
:107CB40002232B710DF10A01EB68039303A8CDE9AC
:107CC4000466FFF725FE08B90A24D8E70498BDF82E
:107CD4000A108388EB8003882B81FFF743FD044659
:107CE40027E000BF002A0020B82A0020E029002055
:107CF400042A0020CC2A002018220020E829002091
:107D0400C4290020D82A0020F8290020DFF8FCA18B
:107D140003AA53463146A81DFFF74CFE044658B942
:107D2400BAF804100498FFF71DFD04460A2C3FF42A
:107D3400E5AE002CA3D192E708223146504607F065
:107D4400E8FEF3E7002E7FF4ABAE6B4B1A7BAAB1CF
:107D54001E731A78013A062A90D801A151F822F02C
:107D64000B7E0200317E02004F7E0200557E02002F
:107D7400817C02005B7E02006D7E02001A78072A75
:107D8400E7D801A151F822F0AD7D0200577D020031
:107D9400577D0200D37D0200E77D0200077E0200CA
:107DA400077E0200CF7D02001A89544901321A81EC
:107DB40000225A801A730A78B2FA82F252099A722D
:107DC4000A7DB2FA82F25209DA72012207E04C49C2
:107DD40058688A884088033202448A8002221A70D2
:107DE400B7E7464C5A884649142505FB0242086801
:107DF400546850608888108102228A800C600622B0
:107E0400EDE70722EBE79A7A32B9DA7A8AB90022E7
:107E14001A705A805A6071E6384900229A72CA6808
:107E2400002AF2D1097C0029EFD05A80FFF704FE22
:107E340055E70022DA72314A116A0029E7D192F833
:107E44002420002AE3D00122EFE7FFF7A7FC46E74E
:107E5400FFF744FC43E7294A5B88142101FB032311
:107E64005868FFF76FFC3AE700225A60FFF756FCA8
:107E740035E701228DF80C201A89ADF818209A886C
:107E8400DB68ADF81A20059310E002228DF80C206F
:107E94001A89ADF818209A88ADF81A20DA689B7D03
:107EA40005929A1F534253418DF81C3003A8FFF7E3
:107EB400D7FB002649461348C8F8006000F037FB9A
:107EC4000121114800F0E6FB00287FF4CFADC6E69F
:107ED40003228DF80C20DA88ADF818201A89CFE730
:107EE4000422DB888DF80C20ADF81830DEE705237A
:107EF4008DF80C30DAE700BFE8290020042A0020BE
:107F0400CC2A0020B82A0020C82A0020DC2A00201D
:107F14004068FFF7A3BD000008B50121044800F044
:107F2400A3FB18B9BDE80840FFF798BD08BD00BF22
:107F3400C82A00202DE9F3419846354B1B780646A4
:107F44000D46002B5BD000295BD009884FF6FF73E8
:107F5400994258D06B88002B55D06B689B0754D13D
:107F64004AB92F890DF102013846FFF789FB30B178
:107F740002B0BDE8F08113885788ADF8023001A83B
:107F8400FFF728FC044658B9BDF80230214A1421F1
:107F940001FB032358890338C01B58810820E7E7F5
:107FA40000238375BDF8023083826B68036180F817
:107FB40000800121184800F062FB2B882381B8F16E
:107FC400030F6B88A38004BF0423A3754FF000053F
:107FD40008BF3368E06008BFA361E780658101A939
:107FE4000E4800F069FA36B1E36833600C4B7560F3
:107FF4001B89B5723381FFF78FFF0020B8E7022099
:10800400B6E70520B4E70420B2E70320B0E700BFD9
:10801400E0290020042A0020FC290020B82A00209E
:10802400E829002008B5084B1A68042A09D0196801
:10803400064A42F821000121184600F020FB0020E6
:1080440008BD0C20FCE700BFD42A0020D029002062
:108054002DE9F04F14228BB000210DEB020007F044
:1080640058FD764A137803F0FF01CDE901123BB1C4
:1080740005A8FFF7F5FA002738460BB0BDE8F08FE6
:10808400029B181D00F011FB0028F4D140F6F87390
:108094004FF080521B685C1C08BF694B694C08BFD9
:1080A4001B6811695269581C08BF02FB01F3236164
:1080B4000022A3F540536449E360204600F018FD14
:1080C400039407460028D7D11C238C225F496048BB
:1080D400DFF88891DFF8888100F08FF9BA463D46D1
:1080E4004FF0030B3C46039BDE6856443046314652
:1080F400FFF77EFB01284DD042B2002A36D0032878
:1081040022D106F580520868013040F08A8004319B
:108114009142F8D1D9F800203AB902220123C9F8D2
:108124000060A9F8042001930CE0142262430220A9
:1081340008EB020108F80200464A4E6054800134FC
:108144000881A4B245F001050AF5805ABAF5405FEA
:10815400C9D1BBF1010F98BF0025EDB2022D03D0A8
:10816400062D35D0002D3CD10B2785E71421614322
:1081740008EB010008F8012001F110020831466003
:10818400424441443046FFF75FFB45F002050134A9
:10819400A4B2D9E7019B63B11422624308EB020144
:1081A400022008F802000134D9F800204A6008814E
:1081B400A4B200222849C9F800603046FFF744FB06
:1081C400B9F80420022A0CBF042208221543BBE795
:1081D400029A0123137005A800235360FFF740FAA5
:1081E4004AE704A8FFF7F6FAC8B10123013D03707A
:1081F4000A2D09D8DFE805F006080608070807086D
:108204000F110F000023037104A9114800F054F961
:10821400FFF782FE30E70323F5E70223F3E708279D
:108224002AE70BF1FF321FFA82FB1422624308EBA8
:1082340002014E60032108F80210A8E7E02900209B
:108244001410001018220020A80003002C2A00207B
:10825400B82A0020E8290020D02A0020CC2A0020B7
:10826400042A002073B50D460446C8B1C1B10DF10E
:108274000601FFF74DFBA8B10B4BBDF8060066687D
:10828400142202FB003001210C3000F0F8F963687D
:108294002E600C336B600123A372002002B070BD0A
:1082A4000520FBE70A20F9E7042A002013B5044659
:1082B400A8B10DF10601FFF72BFB90B10B4ABDF8F5
:1082C4000630142101FB0323DA6862B1A27A52B1A9
:1082D400DA680020013ADA60A07202B010BD05200D
:1082E400FBE70A20F9E70620F7E700BF042A00208D
:1082F40002230022FFF71EBE18B103230022FFF75A
:1083040019BE052070470000104B1B7813B50446B6
:10831400ABB14FF6FF73984213D001A8FFF75AFA96
:1083240088B10523037001230371C48001A908489F
:1083340000F0C2F8FFF7F0FD002002B010BD0220EB
:10834400FBE70420F9E70820F7E700BFE029002055
:10835400B82A00200E4B1B7807B5A3B101A8FFF77C
:1083640039FA90B10623037001A90A4800F0A4F871
:10837400094B1A780AB101221A73FFF7CDFD0020C8
:1083840003B05DF804FB0220FAE70820F8E700BF19
:10839400E0290020B82A0020E829002007B5ADF81C
:1083A4000600ADF804100DF1060001A9FFF702FB69
:1083B40003B05DF804FB07B51346ADF806000A46A2
:1083C40000200DF10601FFF7F5FA03B05DF804FB98
:1083D40007B51346ADF806000A460DF10600002164
:1083E400FFF7E8FA03B05DF804FB20B119B10368A4
:1083F4000B60002070470520704710B561B1B2FBD7
:10840400F3F403FB1424A4B244B9C0E90014846057
:108414008281C381204610BD0E20FCE70920FAE7C3
:1084240082B050E8022FC188B2EB324F4FF0000304
:1084340017BF92B241EA014142EA014104E04268B5
:10844400B2EB324F08BF012340E80212002AE8D100
:108454008DF807309DF80730002B0CBF1120002049
:1084640002B0704737B550E8013F9DB2C489254436
:108474008489A54228BF2D1B0489A54202BFBFF3EE
:108484002F8F002207E0C5EA030540E80154002CC1
:10849400E9D14FF001028DF803200193019B9DF86F
:1084A40003200B6002F0FF0322B10B88006818441C
:1084B40003B030BD1846FBE70A884B889A4209D1BD
:1084C40050E8012FC2EA024240E80123002BF7D111
:1084D400012070470020704737B550E8023F1FFA6B
:1084E400A3F5C488A54202BFBFF32F8F00220DE07D
:1084F400C48925448489A54228BF2D1BC3EA0545A8
:1085040040E80254002CE8D14FF001028DF803201A
:108514000193019B9DF803200B6002F0FF0322B13D
:108524004B880068184403B030BD1846FBE70A883E
:108534004B889A4209D150E8022FC2EA224240E80D
:108544000223002BF7D1012070470020704701F06F
:108554001F024B090121914000EB830000F063B836
:108564004B0910B501F01F040121A14000EB830069
:1085740000F04EF8E04000F0010010BD01F01F03D0
:1085840001229A404B0900EB8300D14300F061B80B
:108594004B0901F01F0150F82300C84000F001000E
:1085A40070472DE9F0474E1E760980460F46013686
:1085B400002558F8254008EB8509E44394FAA4F40F
:1085C400B4FA84F44FEA451A202C06D10135AE42A0
:1085D400EFD83C462046BDE8F0875444A742F5D97D
:1085E40021464046FFF7BCFF0028F3D0D9F80040ED
:1085F400E44394FAA4F4B4FA84F4E5E750E8002FD1
:108604000B4640E8003C9CF0000FF7D11046704741
:1086140050E8002F42EA010340E8003C9CF0000FC0
:10862400F6D11046704750E8003F43EA010240E8A3
:10863400002C9CF0000FF6D11046704750E8002F34
:1086440002EA010340E8003C9CF0000FF6D110461A
:10865400704750E8003F03EA010240E8002C9CF018
:10866400000FF6D11046704750E8002F02EB0103CB
:1086740040E8003C9CF0000FF6D11046704750E8EB
:10868400003F03EB010240E8002C9CF0000FF6D100
:108694001046704750E8003FA3EB010240E8002C6D
:1086A4009CF0000FF6D1104670470121FFF7B0BFD0
:1086B4000121FFF7B8BF0021FFF7C0BF10B590B18B
:1086C400D0E9012301689B1ADBB20A60013BDBB2EB
:1086D400FF2B026802D10020107110BD11684C1CE0
:1086E40014600B70F2E70E20F7E737B50546002457
:1086F4000DF107008DF80740FEF778FF2A686B68D4
:10870400116899420ED9481E106011F8014CEB68AB
:10871400298A01FB0434AB6811791B1ADBB2994234
:1087240038BF13719DF80700FEF784FF204603B09D
:1087340030BD37B5054600230DF107000C468DF812
:108744000730FEF753FF2A681368591C1160E96863
:10875400641A298AB4FBF1F41C709DF80700FEF733
:1087640069FF03B030BD826810B504462AB143697D
:108774000168006998470023A36010BD0EB403B5D7
:10878400039921B104AB01AA019300F075F802B07A
:108794005DF804EB03B070470A2938B504460D466A
:1087A40002D10D21FFF7F8FFA3682268591CA160CC
:1087B400D554D4E901329A4204D32046BDE8384066
:1087C400FFF7D1BF38BD00002DE9F84F9946DDE928
:1087D4000A431746824688460A460126BA420FD201
:1087E4004E4538BF4E4613F0010B01D164B9002445
:1087F4000125B9F1010F1AD909F1FF397D43F8E7D1
:10880400B2FBF7F20136E9E79B070ED5B9F1000F89
:108814000CBF30252025A642EAD2013C2946504609
:10882400FFF7BAFF002CF6D1E1E72025F3E7B8FB08
:10883400F5F39F42E2D9DFF83C90B8FBF5F35046DC
:1088440019F8031005FB1388FFF7A6FFB5FBF7F330
:10885400BD4207D2BBF1000F02D00CB1A64203D334
:10886400BDE8F88F1D46E8E720215046013CFFF79C
:1088740093FFF2E7BCFE02002DE9F74F05461746C9
:108884008846002900F0308118F8011B49B92B7B78
:10889400002B00F02981284603B0BDE8F04FFFF714
:1088A40062BF252940F0C080002698F800302D2BA7
:1088B400424608F1010823D0302B24D02B2B25D09D
:1088C40000242A2B02F1010123D13B681A1D1B68E5
:1088D4003A601C440A4613782E2B26D101324FF0FD
:1088E4000009104610F8011BA1F1300CBCF1090F6E
:1088F4001DD80A2303FB0913A3F130090246F0E74C
:1089040046F00106D1E746F00206CEE746F004063B
:10891400CBE711F8013CA3F130000928DBD80A2287
:1089240002FB0434303C0A46CBE74FF0000912F84E
:10893400011B01F0FB0068289046F8D069290ED08D
:108944004AD8582964D006D825296DD098F8003023
:10895400002B99D19BE7632962D06429F6D13A6848
:10896400D2F800A0111D8AEAEA723960A2EBEA7219
:108974004FF0010B092A5BDCCB4538BFCB462CB149
:10898400BAF1000F01DB720700D5013CB30702D531
:10899400B9F1000F04D0F00702D4002C4ED100240A
:1089A400BAF1000F52DACAF1000A2D212846FFF766
:1089B400F3FE06F00302022A05D1B9F1000F02D139
:1089C400002C47D10024CDE900464B460A225146EB
:1089D4002846FFF7F9FEB9E773294CD014D870295B
:1089E400B4D13B681A1D3A60302128461C68FFF751
:1089F400D3FE78212846FFF7CFFE00220823CDE9D5
:108A0400003221461022E3E775292BD078299DD125
:108A140039680A1D3A60CDE900464B46102228E029
:108A24003B681A1D19783A602846FFF7B5FE8DE7B2
:108A34000A230BF1010BB2FBF3F29BE7A345AFD280
:108A440020212846013CFFF7A7FEA6E77107B0D511
:108A54002B21ABE7A345B6D230212846013CFFF7D2
:108A64009BFEADE73968CDE900460A1D3A604B46E6
:108A74000A220968ACE73B681A1D3A6016F0010641
:108A8400D3F800A020D1BAF1000F03D0504607F06C
:108A940073F80646B44200D9C4B90AF1FF3A1EE09D
:108AA40028460136FFF778FE1AF806100029F7D198
:108AB400A642BFF44BAF002C3FF448AF2021284618
:108AC400013CFFF769FEF3E70026EDE72021284685
:108AD400013CFFF761FEDDE72846FFF75DFE1AF86B
:108AE400011F0029F8D131E703B0BDE8F08F000081
:108AF40007B50B4688B9124B1248134AC01A0E2305
:108B0400C0080093114B0004114940F00100FDF727
:108B1400DEFF0E2003B05DF804FB4BB9084B094897
:108B24000C4AC01AC0080E2300930004074BEBE75D
:108B340003601B68114603B05DF804EB184700BFDF
:108B440078FC0200C0FC020079FF0200CCFE0200A7
:108B54007EFF0200F5FF02002DE9F34188B93D4B89
:108B64003D483E4AC01AC0080E243D4B0094000400
:108B74003C4940F00100FDF7AAFF204602B0BDE8E1
:108B8400F0814AB9334B3448374AC01AC0080E241E
:108B940000040094324BEBE7D0F800C0BCF1000FA6
:108BA40009D12C4B2C48314AC01AC00808240004AF
:108BB40000942B4BDCE74BB9264B27482C4AC01AB0
:108BC400C008092400040094254BD1E74768D7F86E
:108BD4000480B3FBF8F708FB17374FB11D4B1E4851
:108BE400244AC01AC0080924000400941C4BBFE79F
:108BF4008F0709D0174B18481F4AC01AC008102401
:108C040000040094164BB3E712F0030F09D0114B84
:108C140011481A4AC01AC008102400040094104BCA
:108C2400A6E7C768B9420BD34C1E05691C44AC4285
:108C340006D8DCF80C40A44602B0BDE8F041604719
:108C4400044B05480E4AC01AC008102400040094BE
:108C5400034B8DE778FC0200C0FC020079FF0200A0
:108C6400DEFE02007EFF0200FBFF0200EFFF0200B7
:108C7400AEFF0200010003002B00030043000300C9
:108C840066000300F7B580B92A4B2B482B4AC01A5B
:108C9400C0080E242A4B009400042A4940F0010025
:108CA400FDF715FF204603B0F0BDD0F800C0BCF1BD
:108CB400000F09D11F4B2048234AC01AC0080824BA
:108CC400000400941E4BE8E74AB91A4B1A481F4A9D
:108CD400C01AC008092400040094194BDDE7476852
:108CE400D7F800E00EF1FF370F4209D0114B1248BC
:108CF400174AC01AC008102400040094104BCCE793
:108D0400C768B9420CD34C1E05690EFB0244AC4241
:108D140006D8DCF81040A44603B0BDE8F040604734
:108D2400044B05480B4AC01AC008102400040094E0
:108D3400034BB2E778FC0200C0FC020079FF02009A
:108D4400F1FE02007EFF0200EFFF0200AEFF020010
:108D540004FF02002AFF020029DF704728DF704762
:108D640070B503689D6886B004460E466DB1142242
:108D74000021684606F0CDFEA36805932379019689
:108D84002BB1012B0DD06846A84706B070BD012356
:108D94008DF8003023690293E368039363690493B5
:108DA400F1E702238DF80030E3681B030293F5E733
:108DB4000846704700207047024B187A003018BFED
:108DC40001207047802B0020034B187A0122B0FA4F
:108DD40080F05A7440097047802B002008B5104673
:108DE4001A4606F06DFE002008BD000008B51422E6
:108DF4000021044806F08DFE0348FFF711FB002014
:108E040008BD00BF802B0020702B002010B5094C3A
:108E1400094B43602046FFF748FC40B906F0EAFBE3
:108E24001C2320748C2205490548FFF7E6FA00202C
:108E340010BD00BF802B00209C000300E42A00200A
:108E4400702B002070B5244C244E237A25463BB960
:108E540023492448FFF740FB306008B9606070BDC7
:108E6400346802232B72237973B1012B24D020465A
:108E74000321FFF775FF00232B726B601849194813
:108E8400BDE87040FFF753BBD4E90523D21AB2F50D
:108E9400805F28BF4FF48052D4E903109208012A5E
:108EA40038BF012219441844FFF756FF50B1112866
:108EB400DDD101232B72D2E7D4E903031844FFF771
:108EC4004DFFF3E72B7C002BC9D10146BDE8704070
:108ED400022000F009B800BF802B0020982B00204E
:108EE400942B0020702B002038B5831E012B45D80D
:108EF400234C237A002B41D0022B09D1032830D0F4
:108F0400204B1B680022E2601A793AB1012A22D070
:108F1400637C7BBBBDE83840FFF794BFD3E90512FF
:108F24008D1AB5F5805F94BF521902F580529A618B
:108F34009142EDD102284FF0000308BF1946237275
:108F4400104B18BF0D211868FFF70AFF0E490F4890
:108F5400FFF7EDFADCE71A6901321A615B699A429C
:108F6400E7E7E3680133082B01D8E360D0E7002387
:108F7400E360DFE7BDE8384006F02CBB38BD00BF36
:108F8400802B0020982B0020942B0020702B002095
:108F940000F0FD03012B08D1044B00225A74421E39
:108FA400504250411874FFF74DBF7047802B00208A
:108FB40010B5064C201DFFF778FB28B9637C1BB95C
:108FC400BDE81040FFF73EBF10BD00BF802B00205E
:108FD4002DE9F34180460D460F4801A916461F4668
:108FE400FFF740FA0446A8B11C22002106F091FDC7
:108FF4002D0B0123237101A9C4F80080A760E5604B
:1090040066610548FFF758FAFFF7D2FF002002B067
:10901400BDE8F0810420FAE7702B00202DE9F74326
:1090240081468846104801A917461E46FFF71AFADA
:109034000446B0B11C22002106F06BFD00250A9BFA
:10904400A36001A92571C4F80090C4E9037866619E
:109054000548FFF731FAFFF7ABFF284603B0BDE838
:10906400F0830420FAE700BF702B00202DE9F047BD
:10907400B0F806904479D2F800A09DF8208009FB4E
:1090840004F4043C06460AEB0300A0420F4688BFE2
:10909400A4EB030A191DC2F800A0B1FBF9F509FB02
:1090A40015114DB9A9EB0104544528BF5446BAF132
:1090B400000F04D1BDE8F0873668013DF1E70431C3
:1090C4007B1970182246B8F1000F0ED001461846DD
:1090D400AAEB040A06F0F4FCD145254436684C4654
:1090E4004FF0000128BF5446E1E71946F0E7FFF7C7
:1090F400E5BAF8B546790146721E05460023934247
:109104002D6803D30024A64202D8F8BD0133F6E744
:109114000F682846FFF70DFB01343946F3E72DE9C4
:10912400F843068ACD1C0746FFF7DFFA043E3544B0
:109134000446B5FBF6F5F0B14FF48073EDB28380CD
:10914400C680013D076081464FF00008A84512D251
:109154003846FFF7CAFA064648B1637901336371AA
:1091640008F10108C9F8000007608146EEE72046CF
:10917400FFF7BFFF34462046BDE8F88301210430E1
:10918400FFF77DBA10B5012104460430FFF782FAD7
:1091940010F0FF0F04D12046BDE81040FFF7A9BF2F
:1091A40010BD1FB503920022009203AAFFF75EFFD1
:1091B40005B05DF804FB1FB503920122009203AAD7
:1091C400FFF754FF05B05DF804FB41DF7047000072
:1091D400064B10B500241C70054B1C60BFF35F8F59
:1091E4000449054800F039F8204610BDA42B00209E
:1091F400A82B0020C80003009C2B002007B50023E7
:109204000DF107008DF80730FEF7F0F9F1EE103A92
:1092140023F09F03E1EE103ABFF35F8F094B402226
:10922400C3F884219DF80700FEF704FA06F0E2F97A
:1092340020B1FFF7CAFF03B05DF804FB20BF40BFB5
:1092440020BFF8E700E100E0836800225A609A60DA
:10925400C3E90422DA601A6070470B684A68436005
:10926400934208BF0023016008BF4360704743680E
:1092740043B10268916852680B449342436004BF4F
:10928400002343607047000010B50D49A1F59472A6
:10929400914201D800200FE08B1ADB1003EBD3734B
:1092A4005B1002EBC30452F83330834205D802D278
:1092B40004F10802ECE7606810BD2146E8E700BF4E
:1092C4001802030008B5FFF7DFFF024B002808BFB0
:1092D400184608BDDD0003000C4B1B78062B10D18B
:1092E4000B4B1B681A070CD10A4B186800F0F003EB
:1092F400302B08D000F0E000A0F140035842584160
:109304007047002070470120704700BFE00F00F055
:10931400E40F00F0E80F00F0094B1B78062B0CD18A
:10932400084B1B681A0708D1074B186800F0F000B7
:10933400A0F130035842584170470020704700BFE5
:10934400E00F00F0E40F00F0E80F00F008B5FFF7BD
:10935400C3FF28B17D4B7E4A1B68C3F3042313600B
:10936400FFF7DAFF10B17B4B7B4A1A60FFF7B4FFBB
:1093740028B17A4B7A4A1B68C3F342331360FFF770
:10938400CBFF20B1774AD36823F08073D360FFF713
:10939400A3FF40B14FF080430022C3F80C21C3F86F
:1093A4001021C3F83825FFF7B7FF10B16E4B032225
:1093B4001A60FFF7B1FF40B16C4B05221A6001221D
:1093C4009A6700229A603F225A60694B1B78062BE9
:1093D40050D1684B1B6819074CD1674B1B6803F0CD
:1093E400F003502B46D14FF08052644BD2F8041452
:1093F400C3F82015D2F80814C3F82415D2F80C14B5
:10940400C3F82815D2F81014C3F82C15D2F8141484
:10941400C3F83015D2F81814C3F83415D2F81C1454
:10942400C3F84015D2F82014C3F84415D2F8241414
:10943400C3F84815D2F82814C3F84C15D2F82C14E4
:10944400C3F85015D2F83014C3F85415D2F83414B4
:10945400C3F86015D2F83814C3F86415D2F83C1474
:10946400C3F86815D2F84014C3F86C15D2F8442434
:10947400C3F87025FFF730FF28B1414B414A1B6800
:1094840003F04F031360FFF727FF48B14FF0804309
:10949400D3F80024D20744BF6FF00102C3F80024BC
:1094A400394B1B68062B08D1384B1B68062B01BFB0
:1094B400374A136843F480631360364AD2F888301D
:1094C40043F47003C2F88830BFF34F8FBFF36F8F3C
:1094D4004FF01023D3F80022002A03DBD3F8043220
:1094E400002B2FDA2C4B0122C3F80425D3F80024D7
:1094F400002AFBD04FF010221521C2F80012D3F835
:109504000024002AFBD04FF010231522C3F80422B4
:10951400214B1A46D3F800140029FBD00021C3F8CC
:109524000415D2F80034002BFBD0BFF34F8F194938
:109534001A4BCA6802F4E0621343CB60BFF34F8F47
:1095440000BFFDE7164B174A1A6008BD240300103C
:109554004035014074C007400DF0ADBA440200101C
:109564003C050040F0ED00E0A0050040105600402E
:10957400E00F00F0E40F00F0E80F00F000C000403E
:1095840058020010E40E00403001001034010010B5
:109594003C17004000ED00E000E001400400FA0543
:1095A400482200200090D003054A4FF0A043105CED
:1095B400D3F8043523FA00F000F00100704700BF2F
:1095C400D6050300044B1A5C012393404FF0A042DC
:1095D400C2F80835704700BFD6050300044B1A5C77
:1095E400012393404FF0A042C2F80C35704700BFEE
:1095F400D605030008B50020FFF7F0FF0120FFF7B0
:10960400EDFF0220FFF7EAFF0320BDE80840FFF763
:10961400E5BF08B50020FFF7D5FF0120FFF7D2FF13
:109624000220FFF7CFFF0320BDE80840FFF7CABFC1
:10963400074A4FF0A041105CD1F804350122824062
:1096440022EA03001340C1F80805C1F80C3570473D
:10965400D6050300054A4FF0A043105CD3F810353B
:1096640023FA00F0C04300F001007047D205030064
:109674000B2809D00C2809D0182809D019280CBFA8
:1096840003204FF0FF3070470020704701207047DF
:1096940002207047014B185C704700BFD2050300DD
:1096A400C20708B501460CD54FF0A0430322C3F806
:1096B4003427C3F83827C3F83C27C3F84027FFF7FB
:1096C40099FF8B070AD54FF0A0430C22C3F82C272F
:1096D400C3F83027C3F86027C3F8642708BD000027
:1096E40038B5074C051E04F1080318BF1C4623684F
:1096F4002BB11A6822605B6828469847F7E738BDA3
:10970400B42B002020B9054B01225A70FFF7E8BFA3
:10971400012802D1014A9070F8E77047AC2B002071
:1097240020B9034B01225A70FFF7DABF704700BF1C
:10973400AC2B002038B50B4C237883B90A486360FE
:10974400A3602361E36000F0C7F8054605F052FF0B
:1097540008B900F0CDF801232370284638BD8525CB
:10976400FBE700BFAC2B00200997020037B50B4C78
:1097740000230DF107008DF80730FDF737FFE3688C
:10978400013BE360E56815B900F0C4F8A5709DF8E5
:109794000700FDF74FFF03B030BD00BFAC2B002026
:1097A400012813B509D018B103281CD002B010BD8C
:1097B4000F4B0122C3F88020F8E70E4C00230DF173
:1097C40007008DF80730FDF711FF23780BB9FFF779
:1097D400B1FFE3689DF807000133E3600123A37040
:1097E400FDF728FFE2E700F083F8FFF7BFFFDDE7AE
:1097F40000E100E0AC2B00201FB503788DF80030A9
:109804004368019383688DF80830C3680393054A5D
:10981400054B684653F8213052F82110984705B09B
:109824005DF804FBC02B0020C42B00201FB5037877
:109834008DF800304368019383688DF80830C3685D
:109844000393054A054B684653F8213052F821101A
:10985400984705B05DF804FBC02B0020C42B002002
:10986400F0B5184B077891F81DE043F82720164B04
:1098740016460A6943F82720144B03F807E00C4600
:1098840084460FCC89B06D460FC594E80F0085E877
:109894000F000497BEF1000F0AD0002E0C4A69464F
:1098A40008BF32460CF1040000F064FD09B0F0BDBD
:1098B400002E084A694608BF32460CF10C0000F03D
:1098C40067FBF3E7C42B0020C02B0020C82B00202B
:1098D400FD97020031980200044A137923B901214B
:1098E400106091801846704785207047CC2B00206B
:1098F400074B1A68D2075FBFC02283F800230122F6
:109904001A604FF080430122C3F81825704700BF46
:1099140000E100E0044B01221A604FF08042D2F8CB
:109924001834DB03FBD470470C000040154B07B51B
:109934001A687AB100221A601B680093009B4FF0EA
:1099440080430122C3F808230F4B587910B95A7188
:109954001B6898470D4B1A6882B100221A601B6875
:109964000193019B4FF080430222C3F80823064B66
:109974001B68012003B05DF804EB184703B05DF8E1
:1099840004FB00BF00010040CC2B00200401004078
:1099940000F1804000F5C040002382B003600368FA
:1099A4000193019B02B07047800000F1A040D0F801
:1099B400003723F44033C0F80037D0F8003743EAC7
:1099C4000141C0F800177047054B4FF0FF320728DC
:1099D40043F8202084BF1B1883F84820704700BF39
:1099E400D42B002010B5174C94F8583043BB04F125
:1099F40030032021FF22013911F0FF0103F8012B6C
:109A0400F9D1C8B2FFF7E0FF01310C29F9D10422E2
:109A140000210D4806F07DF80C4BC02283F8062384
:109A240040221A604FF4BE70FFF7B2FF084B4FF0AC
:109A34000042C3F80423012384F85830002010BDE9
:109A44000820FCE7D42B0020282C002000E100E0B3
:109A540000600040034B93F85800003018BF012009
:109A6400704700BFD42B0020F0B5374B1C1894F975
:109A74003040002C1C4664DA8D78C5F34005002D77
:109A84000BBF082300230C260826B34201D104206F
:109A9400F0BD54F8237001373FD1261844F8232031
:109AA40086F8303015B9E21882F848008A785507EC
:109AB40013D4D60733D5820002F1A042D2F800575E
:109AC40025F00205C2F80057204EC50800F007072C
:109AD4000122BA40775D3A4372558A780D7812F0C4
:109AE400020225D09B0003F1804303F5C043020228
:109AF400D3F8101521F4473121F44071C3F810153F
:109B04002D04D3F8101502F4F85205F440352A4315
:109B14000A43C3F810250020BAE70133B5E74D78AE
:109B240000F5E0724FF0A046AD0046F82250CBE7B6
:109B3400083B234493F8501041EA851583F85050AC
:109B4400E9E70820A4E700BFD42B0020282C00203C
:109B540038B51F4C251895F93020072A17DD224403
:109B640092F84810890903290CD14FF0A043D3F887
:109B74001035C34013F0010F08BF0221BDE838407F
:109B8400FFF712BF012914BF03210221F6E7D3B264
:109B9400072B1CD8930003F1804303F5C043D3F88B
:109BA400100540F00100C3F8100502F140008000E8
:109BB40080B2FFF7EDFE51B195F9303054F82330FF
:109BC4002BB1012303FA02F2024BC3F8042338BD7C
:109BD400D42B0020006000404FF0A043D3F8103590
:109BE40023FA00F000F00100704700002DE9F04F67
:109BF40085B000245A4D01944FF48072012102F182
:109C0400804303F5C04390B21B68012B06D1D5F8FD
:109C140004330B4202D0FFF7BBFE0C430432B2F50F
:109C2400907F4FEA4101EAD14E4B1B68012B0AD1C8
:109C34004FF4BE70FFF7ACFE4FF0A04344F0004475
:109C4400D3F81035019314F0FF0F1AD0464F0025B6
:109C54000126344210D0AB0003F1804303F5C04326
:109C6400D3F81005D3F8101557F8253023B1C1F3F4
:109C74000141C0F3042098470135082D4FEA4606F8
:109C8400E7D1002C64DA00224FF0FF33CDE9022340
:109C9400354D01274FF0000A344E54464FF0A0488A
:109CA40016F9012B531C46D0D2B222F0C0094FEA58
:109CB400D90104A8084402F0070310F804CC07FAF9
:109CC40003F31CEA030F36D005EB090C92099CF947
:109CD40030C055F82CB0BBF1000F0AD1032A2AD1A9
:109CE4000DF1080E1EF801C04CEA030C0EF801C079
:109CF40001E0032AF4D009F5E07110F80C0C58F8CF
:109D040021101842C1F3014105D0022913D1032ABD
:109D14000BD1114604E003290DD1032A05D10221F8
:109D24004846FFF741FE0134E4B2BBF1000F02D014
:109D340011464846D8470AF1010ABAF1040FAFD1D7
:109D440034B14FF0A043019AD3F81035934202D1B5
:109D540005B0BDE8F08F0193029B03939AE700BF1F
:109D6400006000407C610040D42B0020242C0020A3
:109D7400014B1B68184700BF302C00200E4B984243
:109D840037B50D4602D0002003B030BD00230DF1DD
:109D940007008DF80730FDF729FC084B1C7914B92E
:109DA40001221D601A719DF80700FDF743FC002C89
:109DB400E9D01120E8E700BF00200040302C00204B
:109DC400034B984201BF034B00221A601A7170477B
:109DD40000200040302C00200023435082B0435820
:109DE4000193019B02B070470A4610B54FF48E717F
:109DF400FFF7F2FF136A9168C95C136A01331362B7
:109E0400C0F81C1510BD8B690A4610B54FF4847157
:109E140023B9FFF7E1FFD0F8183510BDFFF7DCFFD9
:109E2400536AD168D0F81805C854536A0133536291
:109E3400F3E700001FB501238DF80030044BCDE992
:109E44000110D3E900126846904705B05DF804FBA1
:109E5400382C002030B54C4AD2F8043313F4007F78
:109E640085B015464FD0D2F82431002B4BD04FF497
:109E740092711046FFF7B0FF4FF40173C2F8083334
:109E8400424B93F8291009B9012151603E4902223D
:109E94008DF80020D1F88024C1F8802403929A69B7
:109EA4000292DA6801920022C3E906226846D3E9E5
:109EB400001290473448D0F81C315BB133490A6A28
:109EC4004B699A420A464BD291F82830002B47D16D
:109ED400FFF78AFF2C4AD2F8443193B14FF4A271B0
:109EE4001046FFF779FF294B93F8291009B1012196
:109EF40011609A692AB100229A61586AD968FFF7F9
:109F040099FF05B030BDD5F804335B07D2D5D5F839
:109F14000831002BCED01D4C1B482146FFF773FFA0
:109F2400636AA2699A422346C4D1E269E1684AB1EC
:109F34002369E3600023606AA261E3616362FFF75F
:109F440079FFB7E794F829200AB901226A600E4A1A
:109F54004FF40170C2F8080300229A61586AEEE7D0
:109F64004FF48E710848FFF737FF51690029B1D0CB
:109F74000023029191688DF8003001915361684685
:109F8400D2E900139847A5E700200040382C0020B0
:109F94002DE9F843564F047991462C2202FB0472B2
:109FA400064692F82A200D46002A40F09A8051492C
:109FB4000068FFF7E3FE8046002840F0958029689A
:109FC4003368481C0BD04FF0A04001228A40C0F8EF
:109FD400082501F5E0724FF0030C40F822C06868D0
:109FE400421C1FBF00F5E0724FF0A04C4FF0000E72
:109FF4004CF822E0AA6995F814C0C3F824256A7DB8
:10A00400BCF1010F4CEA0202C3F86C25C3F8140535
:10A01400C3F80C151DD1AA68511C1FBF02F5E071CD
:10A024004FF0A0404FF0000C40F821C0E968481CF4
:10A034000BD04FF0A04C01208840CCF8080501F566
:10A04400E0704FF0030E4CF820E0C3F80815C3F895
:10A0540010252C236343FA18C2F804902A69FA5095
:10A06400B9F1000F2AD04FF48E7130682D7FFFF7BD
:10A07400B3FE30684FF4A271FFF7AEFE32681E4B98
:10A08400C2F80433120B51B20029A8BF01F1604099
:10A094004FEA4513BABF194802F00F0500F56140B5
:10A0A400DBB2B4BF435580F8003302F01F02012332
:10A0B40003FA02F24909124B43F8212033680422BF
:10A0C400C3F800252C2303FB04730022C3E90622F2
:10A0D40083F829205A61012283F82A204046BDE8EA
:10A0E400F8834FF00808F9E74FF01108F6E700BFCE
:10A0F400382C0020599E02008000020014ED00E07C
:10A1040000E100E0F8B5047900682D4D0023C0F8A3
:10A1140000352C2303FB04535B6873B1294BC0F84F
:10A124000833020B53B201215B0902F01F0201FA4A
:10A1340002F22033244941F82320D0F80C65D0F8EA
:10A144001415D0F80835D0F810254FF0FF37BE426B
:10A15400C0F8147518BF06F5E076C0F80C75C0F8A1
:10A164000875C0F810751EBF4FF0A0474FF0020CE1
:10A1740047F826C04E1C1FBF4FF0A04601F5E07102
:10A18400022746F82170511C1FBF4FF0A04102F571
:10A19400E072022641F822605A1C1FBF03F5E073E7
:10A1A4004FF0A042022142F82310FFF709FE2C23AE
:10A1B40003FB0454002384F82A306360F8BD00BF15
:10A1C400382C00208402020000E100E02DE9F04771
:10A1D400214F06794FF02C0909FB06748046656906
:10A1E400002D37D16261A16025624FF48E71006841
:10A1F40084F82850FFF7F0FDD8F8000001238360AD
:10A204002146FFF7F1FD6368A14693B9D8F800A091
:10A21400226A63699A4212D3D8F80030D3F81C2119
:10A22400002AFBD00122DA602C2303FB06760023EC
:10A2340073612846BDE8F08794F8283043B9DAF80A
:10A244001C31002BF8D049465046FFF7CDFDDFE71F
:10A254000F25E9E71125ECE7382C002000234350B3
:10A2640082B043580193019B02B070471FB501238C
:10A274008DF80030044BCDE90110D3E90012684693
:10A28400904705B05DF804FB642C00207FB5374A85
:10A29400D2F82461002E48D010464FF49271FFF793
:10A2A400DDFF02238DF80030D2F88034C2F8803408
:10A2B4000393D2F83C3502932D4BDA6801920022C5
:10A2C400C3E906226846D3E900129047274AD2F828
:10A2D40044317BB14FF4A2711046FFF7BFFF244B0A
:10A2E400996939B10021C3E90611D968D2F83C054E
:10A2F400FFF7BCFF1D4AD2F82031A3B14FF490718F
:10A304001046FFF7ABFF1A4B596961B1D2F84C15EF
:10A314000291002299688DF8002001915A616846E3
:10A32400D3E90012904704B070BDD2F81031002B6D
:10A33400CCD04FF488711046FFF790FF0C4BD2F845
:10A344003C0599698842C1D1DC69D96864B1D2F805
:10A35400005225F02005C2F800521A699C61DA60A7
:10A36400DE61FFF783FFB1E79C61FAE7002000405C
:10A37400642C00202DE9F8435A4F06799146242293
:10A3840002FB0672044692F820200D46002A40F093
:10A39400A28055490068FFF7F1FC8046002840F090
:10A3A4009D8029682368481C0BD04FF0A0400122EF
:10A3B4008A40C0F8082501F5E0724FF0030C40F81C
:10A3C40022C06868421C1FBF00F5E0724FF0A04C29
:10A3D4004FF0000E4CF822E0AA6995F814C0C3F8B7
:10A3E40024256A7DBCF1010F4CEA0202C3F86C25F6
:10A3F400C3F80C15C3F814051DD1AA68511C1FBF5E
:10A4040002F5E0714FF0A0404FF0000C40F821C07D
:10A41400E968481C0BD04FF0A04C01208840CCF8D0
:10A42400080501F5E0704FF0030E4CF820E0C3F886
:10A434000815C3F8102524237343FA18C2F80490AE
:10A444002A69FA50B9F1000F34D04FF488712068AA
:10A454002D7FFFF703FF4FF490712068FFF7FEFE96
:10A464004FF492712068FFF7F9FE20684FF4A2714F
:10A47400FFF7F4FE22681D4BC2F80433120B51B2ED
:10A484000029A8BF01F160404FEA4513BABF18483C
:10A4940002F00F0500F56140DBB2B4BF435580F80C
:10A4A400003302F01F02012303FA02F24909114B9F
:10A4B40043F8212023680822C3F80025242303FB42
:10A4C40006730022C3E906225A61012283F8202080
:10A4D4004046BDE8F8834FF00808F9E74FF011084B
:10A4E400F6E700BF642C002091A2020010030200D2
:10A4F40014ED00E000E100E0F8B5047900682D4DAA
:10A504000023C0F80035242303FB04535B6873B1B4
:10A51400294BC0F80833020B53B201215B0902F046
:10A524001F0201FA02F22033244941F82320D0F813
:10A534000C65D0F81415D0F80835D0F810254FF074
:10A54400FF37BE42C0F80C7518BF06F5E076C0F8B8
:10A554001475C0F80875C0F810751EBF4FF0A047F9
:10A564004FF0020C47F826C04E1C1FBF4FF0A04608
:10A5740001F5E071022746F82170511C1FBF4FF00E
:10A58400A04102F5E072022641F822605A1C1FBF66
:10A5940003F5E0734FF0A042022142F82310FFF7C5
:10A5A4000FFC242303FB0454002384F8203063604D
:10A5B400F8BD00BF642C00201003020000E100E09D
:10A5C40001F06043B3F1005F2DE9F041074632D159
:10A5D4001B4B0679242505FB063598466C6964BB3C
:10A5E4006A61A96000684FF49071FFF737FE4FF479
:10A5F400AC713868FFF732FE3B686A69A968C3F832
:10A604004415C3F8482501229A606A6862B9D3F8F0
:10A614002021D3F8584152B9002CF8D00F24242318
:10A6240003FB0686002373612046BDE8F081002CFD
:10A6340018BF0F24F3E71024F6E71124F4E700BF52
:10A64400642C00200220FEF7F3BF00002DE9F04740
:10A6540081460D46FFF70CF80328044604D8012D63
:10A6640004D025B3022D2FD0BDE8F087194D470043
:10A674003A18A918AE5C4A7852B1DFF868801648D7
:10A6840042464FF40041FCF75BFF08B988F800909C
:10A694003B192B449A78114B1A55002EE4D0104BD9
:10A6A4001B68002BE0D03046BDE8F04718470A4845
:10A6B400FCF78CFF074B04EB440213449E78074BD2
:10A6C4001B5DB342D0D1E8E7024B00EB40041C44CD
:10A6D4006678E2E7EC2C0020AC2C0020052D00204D
:10A6E400002D0020882C002002210078FFF7AEBF47
:10A6F40008B5094B1B7853B10020FEF76FFF01200A
:10A70400FEF76CFF0320BDE80840FEF767BFBDE815
:10A714000840FEF76FBF00BF892C0020F8B57B4CC2
:10A72400237805461BB100232370FFF7E1FF172DA3
:10A7340000F28880DFE805F00C1717435465768033
:10A74400888D888D959A9A9A9A9AC4C9D1D9E4E445
:10A75400FFF7CEFF6E48FCF739FF6E4B002204462C
:10A764001A702046F8BD0020FEF71EFFF8B1002045
:10A77400FEF734FF022D0CBF4FF4E1614FF47A6110
:10A78400644B1D704FF400404FF4FA740025E0FB55
:10A7940001454FF47A7200232046294605F090F8CB
:10A7A400002201465A48BDE8F840FCF7C9BEFEF74E
:10A7B40009FF022D0CBFC8214FF4C871E0E7002047
:10A7C400FEF7F2FE40B10020FEF708FF4FF4487197
:10A7D400504B03221A70D5E7FEF7F4FEC821F7E7C1
:10A7E4000020FEF7E1FE38B10020FEF7F7FE4FF43B
:10A7F4007A61484B0422EDE7FEF7E4FE4FF4C8719A
:10A80400F7E70020FEF7D0FE48B10020FEF7E6FE91
:10A81400404B05221A7041F69A110022C2E7FEF756
:10A82400D1FEF5E70020FEF703FF3A4B06221A702B
:10A83400002240F6CD41B5E70020FEF7C3FE354BBC
:10A8440007221A7000248CE701202070FEF7F0FE26
:10A85400EEE701202070FEF7EBFE00224FF480416A
:10A86400A0E7FEF7D6FE2B4B0C22EAE72A482B4E34
:10A87400FCF7ACFED5F1110504461CD0D8B9012D66
:10A8840013D0C8235D434FF400474FF4FA700021FE
:10A894004FF47A720023C7FB050105F011F8224634
:10A8A40001461D48FCF74CFE04460220FEF78AFED2
:10A8B4000123337055E70220FEF790FE0023F8E7EA
:10A8C400FFF716FF134B1222BBE7FFF711FF00201F
:10A8D400FEF778FE0F4B1322B3E7FFF709FF0120C1
:10A8E400FEF770FE0B4B1422ABE7FFF701FF0020CD
:10A8F400FEF768FE0120FEF765FE064B1522A0E771
:10A90400FEF787FE034B1D709CE700BFFC2C002064
:10A91400CC2C0020042D00208C2C0020892C00201D
:10A92400044B1B68DB0703D5034B1878FFF7F6BE0F
:10A93400704700BFF82C0020042D0020032801D804
:10A94400FEF788BE00207047044B1B6813F0010318
:10A9540001D0FFF7E3BE1846704700BFF82C002073
:10A9640038B51C4B18601C4B10F0020405461960E6
:10A974001AD01A4B1A480E221A700F22DA701022BB
:10A984009A7111225A72042140F26662FCF7D4FAD9
:10A99400044648B9FCF724FB044628B90146114A89
:10A9A4001148FCF7BBFD0446EB0711D50120FEF767
:10A9B40077FE6CB921460D4A0D48FCF7AFFD0446FD
:10A9C40030B90C4A0C480121BDE83840FCF7A6BD5B
:10A9D400204638BDF82C0020002D0020EC2C00204F
:10A9E400FC050300EDA602002006030025A90200D1
:10A9F4002406030049A602001C060300032813D8FA
:10AA0400012A0BD1012908D100F10E02D2B200EBC8
:10AA140040000C4B1A540020704700220129F6D044
:10AA24004BB24BB1022901D007207047054B00EB14
:10AA3400400018444270EEE7024900EB400008442D
:10AA44008270E8E7EC2C0020032808B512D8FEF742
:10AA540021FE800000F1A040D0F8003723F44033F9
:10AA6400C0F80037D0F8003743F44033C0F800375B
:10AA7400002008BD0620FCE708B5012202210020C1
:10AA8400FFF7BCFF08B1072810D1072202210120DB
:10AA9400FFF7B4FF08B1072808D100210A220846AD
:10AAA400FFF7ACFF10B1072808BF002008BD000065
:10AAB4000388102B10B502D0112B1ED010BD1A4CD8
:10AAC4002168B1B901220846FFF798FF08B10728A9
:10AAD40024D1072202210120FFF790FF08B10728A3
:10AAE4001CD1042202210020FFF788FF08B10728A7
:10AAF40014D1236801332360E0E70B4A1368013B58
:10AB04001360002BDAD1FFF7B7FF0028D6D0074B2C
:10AB14001B68002BD2D0BDE810401847034B1B68BC
:10AB2400002BE6D09847E4E7102D00200C2D0020E0
:10AB340008B50020FFF788FF08B1062806D10120D8
:10AB4400FFF782FF10B1062808BF002008BD0000EF
:10AB54000D4B10B518600C4629B10120FFF7EEFE2D
:10AB640040B102232370094B1B6853B9BDE8104060
:10AB7400FFF782BFFFF7E2FE08B10B23F2E7207074
:10AB8400F1E7002010BD00BF0C2D0020102D002087
:10AB940076DF70477ADF70477CDF70478FDF70475E
:10ABA40033DF7047FCF732BA08B50020FFF7CCFE5C
:10ABB40008B1FCF72BFAFFF7BBFF08B1FCF726FA44
:10ABC400FFF7EEFF18B1BDE80840FCF71FBA08BD57
:10ABD4000388212B13B5044635D005D8102B17D084
:10ABE400112B0AD002B010BD3B2B01D0562BF9D14A
:10ABF4001321A088FFF7CCFF20E0174B1748184912
:10AC0400C01AC008000440F00300FBF749FFE9E75D
:10AC1400114B12481349C01AC008000440F0030045
:10AC2400FBF73EFF0720FFF78FFE08B1FCF7EEF9B4
:10AC34000D4BA1880D48198002F0F4F90028D1D0F9
:10AC4400FCF7E4F9CEE7002301A98088ADF80430CD
:10AC5400FFF7A4FFF2E700BF78FC0200A0FC0200AB
:10AC6400280603003606030054220020942F0020F7
:10AC740008B503784BB9054B3B211888FFF788FFCB
:10AC840018B1BDE80840FCF7C1B908BD5422002042
:10AC9400072808B513D00A280DD0042819D10D4B64
:10ACA40013211888FFF774FF30F0080311D0BDE8B2
:10ACB4000840FCF7ABB9BDE80840FFF775BF054B8A
:10ACC4001A884FF6FF739A4203D1034800F0BBFD84
:10ACD400EAE708BD54220020142D002008B598B1DD
:10ACE400032815D10B4B0C480C49C01AC0080004AA
:10ACF40040F00300FBF7D4FE0220FFF725FE38B135
:10AD0400BDE80840FCF782B9BDE80840FFF74CBF36
:10AD140008BD00BF78FC0200A0FC02007806030016
:10AD240008B50321044800F04BFC18B1BDE8084005
:10AD3400FCF76CB908BD00BF142D002010B5044603
:10AD440003F070FC204603F093FA23780C2B03D114
:10AD5400BDE81040FFF7E4BF10BDFCF757B9000091
:10AD640000B54FF40041ADB00020FBF7D5FC08B1AD
:10AD7400FCF74CF9FBF706FCFCF7A0FB08B1FCF769
:10AD840045F976490320FFF7EBFD08B1FCF73EF9DE
:10AD940001A90020FFF7DCFE08B1FCF737F99DF8A4
:10ADA4000450FEF715FA08B1FCF730F904F0A4FBDF
:10ADB40008B1FCF72BF9002301A90120019304F049
:10ADC40063FC08B1FCF722F901A804F00FFD08B1F7
:10ADD400FCF71CF9112362488DF8003004F0CCFE16
:10ADE4005F4982B26846FFF7D7FE08B1FCF70EF957
:10ADF4000822002101A804F08CFE5A484FF0C873C1
:10AE0400CDE9010301A8FFF7C5FE08B1FCF7FEF880
:10AE14000021554801F0FEFF08B1FCF7F7F8AC2219
:10AE2400002101A804F075FE02238DF80430ADF86A
:10AE340014304E4B069301234FF496718DF88030F5
:10AE440044F25063CDE9231340F20162484B494870
:10AE5400ADF8062001A92A9300F033FB08B1FCF7F2
:10AE6400D5F80121434800F029FB434B43480093A4
:10AE7400694602F0C5F808B1FCF7C8F801238DF85B
:10AE8400083003F101330024623301A93C480493E0
:10AE94000194039404F062FA1C22214601A804F0F0
:10AEA40038FE4FF470234FF42032CDE902230323FC
:10AEB4008DF81030334B069301A8334B0194ADF851
:10AEC40012408DF81440079300F0DAFD08B1FCF746
:10AED4009DF802F075FE08B1FCF798F805220021F0
:10AEE40001A804F016FE019B03F07C42274B134398
:10AEF40001939DF8083023F0030343F0030301A8F2
:10AF04008DF8083002F0F6FE08B1FCF77FF820480F
:10AF140002F0D8FE08B1FCF779F81E4B1E4C1F490D
:10AF2400E41AE408240444F003042046FBF7B8FDC3
:10AF3400022D0FD11A492046FBF7B2FD02F032FF71
:10AF440008B1FCF763F8FBF741FC0028FBD1FEF7DE
:10AF540055F9F8E7FFF7E4FEF5E700BF95AC02000A
:10AF6400410603005000A000802F00204C22002046
:10AF7400E1AC0200142D0020A9AB0200942F0020A4
:10AF84006C2F002075AC02005FAD02003107100386
:10AF940041AD020078FC0200A0FC0200510603004F
:10AFA4006B0603006DDF704779DF70477DDF704704
:10AFB40064DF70472DE9F04F85B000250E9CBDF885
:10AFC4003CB027880191804691469A462E46B8F8AF
:10AFD4000020B2420CDC3DB12288013AD21B92B26D
:10AFE400FF2A3BD80AF80720002005B0BDE8F08FFF
:10AFF400D8F8042052F82600039000220DF10B012A
:10B0040003A8FFF7D5FF0028EFD19DF80B204A4590
:10B0140022D12288002D14BF0020022002EB090156
:10B02400014459451ADC45B9013292B2019B228090
:10B034000AF8023022880132228022880DF10B01A5
:10B04400524403A8FFF7B4FF0028CED121889DF80D
:10B054000B200A44228001250136B8E70C20C4E7FE
:10B064002DE9F341089CBDF824501746CDE900456D
:10B07400022206469846FFF79DFF50B94346102228
:10B0840039463046CDE9084502B0BDE8F041FFF746
:10B0940091BF02B0BDE8F0812DE9F04F002316887E
:10B0A400138090F82D3085B007460D46144653B3EF
:10B0B400082E01D80C2027E102A8FFF773FF00280F
:10B0C40040F0228123880822EA54238801339BB26A
:10B0D4001B222380EA542088013080B2208006227B
:10B0E4000DF10901284404F0EBFC23889DF80820A5
:10B0F40006339BB212F0FE0218BF01222380EA54E9
:10B10400238801332380BB78FBB123880433B34203
:10B11400D0D802A8FFF748FF002840F0F580238824
:10B124000322EA54238801339BB219222380EA5470
:10B134002388BDF8082001339BB2E9182380EA5420
:10B14400120A4A70238802332380FA789AB123883A
:10B15400D91CB142AED80221E954238801339BB2F1
:10B1640001212380E95423880B449BB22380EA54B1
:10B1740023880B4423807A68AAB12388D91CB1425E
:10B1840098D8022192F90020E954238801339BB214
:10B194000A212380E954238801339BB22380EA5493
:10B1A4002388013323803B89002B40F0A1803B8A14
:10B1B4005BB1CDE900462B460722032107F11000BD
:10B1C400FFF74EFF002840F09F803B8B5BB1CDE939
:10B1D40000462B461522142107F11800FFF740FF03
:10B1E400002840F091803A6A002A40F09080D7F815
:10B1F4002480B8F1000F30D0B8F804302188981CAE
:10B204008A1C0244B2423FF655AFFE283FF652AFC5
:10B2140003336B54238801339BB2FF222380EA5407
:10B22400238801339BB22380B8F80020EA54E9183C
:10B23400120A4A702088023080B22080B8F80420B4
:10B244005AB1D8F8081000296BD0284404F038FC0F
:10B254002388B8F804201344238097F82C30002B5B
:10B2640040F09A80387800284ED03B88012B58D083
:10B27400228802F1020CB4453FF61CAF012805D127
:10B284007B78023313449E42FFF414AF023EB61A95
:10B29400B6B202A905EB0C00ADF80860FFF786FE14
:10B2A40090BB3978BDF80820022900F0BA807B7879
:10B2B400934202D3B24240F2B280012940F0B380FB
:10B2C4009BB29E42C0F0AF80ADF808300821BDF8B3
:10B2D4000830FE2B3FF6EEAE22880133AB542288B1
:10B2E400013292B22280A9542288134423800BE0B5
:10B2F400CDE900462B460622022107F10800FFF79C
:10B30400AFFE00283FF453AF05B0BDE8F08FB4F8AA
:10B3140000C00CF10603B3423FF6CCAE11880529F8
:10B3240001D80720F0E76FF4486E01EB0E039BB2DF
:10B334004FF27D3E7345F4D95388052BF1D96FF450
:10B344004860181880B27045EBD94FF6FF708142FF
:10B3540003D0834201D09942E3D8052305F80C3089
:10B36400238801339BB212212380E95423880133BB
:10B374009BB223801188E954E818090A4170238894
:10B3840002339BB223805288EA54E918120A4A70A5
:10B394002388023323802AE7BB6A002BC1D04FF0F5
:10B3A40000094FF00C0A4FF0160B97F82C305FFA97
:10B3B40089F293427FF656AFB96A0AFB02F201EBB7
:10B3C4000208B8F80430981CFE283FF673AE2088B3
:10B3D40003332B54238801339BB2238005F803B035
:10B3E400238801339BB223808A5AEA54E918120A4B
:10B3F4004A702088023080B22080B8F804205AB104
:10B40400D8F8081000298CD0284404F059FB23886C
:10B41400B8F804201344238009F10109C5E7092180
:10B4240055E7B242FBD9ADF808604FE770B5C0B13B
:10B434004AB116880024B44203D305196D789D429D
:10B4440008D0A14201D800200BE0055D01352C4451
:10B45400A4B2F0E7A142F6D9A31C1380005D013821
:10B4640080B270BD13B50023ADF8063013460DF15C
:10B4740006020446FFF7DAFF10B1BDF806002044C7
:10B4840002B010BD72DF704773DF704774DF70471E
:10B4940038B5012204460D46B0F83812D0F834020B
:10B4A400FFF7E0FF00B1057004F13C0204F50D71F3
:10B4B40004F15400BDE83840FFF7E4BF80F83010D1
:10B4C4007047F8B504460F46002975D0002873D09C
:10B4D40091F87A301BB191F89830002B6ED1D7F8DF
:10B4E400A030042B6AD0D7F89C30042B66D007F127
:10B4F40078060FCE4FF0000C251D84F802C00FC54E
:10B504000FCE0FC596E8070085E8070084F830C021
:10B51400D7F8A4306363D7F8A830A3634FF6FF7558
:10B5240004F50D73C4F84432A4F848520722614666
:10B5340004F24A2004F0EDFA23780BB984F854504D
:10B5440094F82430002B14BFEE231F2304F155017B
:10B55400C4F83412A4F8383204F50E723846FFF7F2
:10B564009BFD40BB94F82430002B14BFEE231F2313
:10B5740004F24311C4F83C12A4F8403204F51072EA
:10B5840007F13C00FFF788FDA8B9A369A4F8483087
:10B594004FF480730125A4F8503063692064014698
:10B5A40084F83C50636404F13C0204F15400FFF756
:10B5B40069FF00B92570F8BD0E20FCE70720FAE703
:10B5C400F8B5077804460D46002F00F0048100F218
:10B5D4004A26A17007220021304604F09AFAE38833
:10B5E40013B1A378012B04D0E3794BB1A378022BD8
:10B5F40006D1636BA3B1012284F851220820984735
:10B60400334604F5147113F8012F12B98B42FAD1A1
:10B6140017466B1E032B52D8DFE803F0050B0F12FD
:10B6240084F85132ECE7A3791BB194F8243003B9C0
:10B634005FB9E3790BB1002F43D1237A002B42D1B8
:10B64400637A002B0CBF00250425636BA570002BC7
:10B654003BD0033D012D38D86279002A35D094F8C7
:10B66400522292BB84F85422012284F853220720E8
:10B67400984704F13C0518220021284604F049FAB1
:10B68400E36A94F82420581E0121022828BF0B469F
:10B6940084F83C1084F8513032B1884296BFA36AD2
:10B6A40084F8521084F85230A178002384F8503082
:10B6B40004291BD8DFE801F0770D22355900002555
:10B6C400C3E70225C1E70325BFE7002384F853320B
:10B6D400CFE7C4F84432C4E910630223012284F89A
:10B6E4003C30802384F83120A4F84830A378002B20
:10B6F4005CD1636B002B6AD1002067E00223002A2F
:10B7040084F8313014BF0723032384F83C302369C1
:10B71400A4F848300023C4F84432E3682664636420
:10B72400E4E763696364A369A4F8483012B10623AB
:10B7340084F83C306379B3B194F852329BB994F8ED
:10B74400543283B1022384F8503004212046FFF799
:10B754009FFE0028CAD1052384F8313004F50D7307
:10B76400C4F84432C2E70323F6E7E3696364236A57
:10B77400A4F8483012B1062384F83C30637983B1CD
:10B7840094F852326BB994F8543253B1022384F8CA
:10B79400503004212046FFF77BFE0028A6D1062363
:10B7A400DAE70423D8E784F831309FE72A46D4F84F
:10B7B400441204F15400FFF765FE38B994F83010D0
:10B7C40094F85400FFF760FE002892D0F8BD94F876
:10B7D4003100984790E70820F8E70388112B10B54B
:10B7E4000C460AD0262B1FD0102B05D1C37B012B6E
:10B7F40002D18388A1F8483210BD0022838881F8E1
:10B804005222B1F848229A42F6D10B79002BF3D197
:10B8140001212046FFF7D4FE0028EDD0A36B002BB6
:10B82400EAD0BDE810401847037A013B012BE3D866
:10B83400897805230131B1FBF3F303EB8303C91AC0
:10B84400C9B2E6E7704738B5044690F85400FFF7EC
:10B854001DFE012384F85232002384F8543284F804
:10B86400503006212046FFF713FE054638B9A1786B
:10B874002046FFF7A5FE10B1A36B03B198472846F5
:10B8840038BD75DF704776DF70477ADF70477BDF3E
:10B8940070470000034B1A8882420CBF18460020F0
:10B8A400704700BFBC2F0020024B9B6903B11847AF
:10B8B400704700BFA02F002073B586B23046FFF753
:10B8C400E9FF044670B1164D027A2B7B9A420BD2E3
:10B8D40000F10A013046FFF7D4FFE8B1112801D086
:10B8E400FFF7E2FF02B070BD002303722B7C43B16B
:10B8F4003B213046FFF7C7FF30F0080301D0FFF7C4
:10B90400D3FF6B69002BEDD000228DF80420ADF835
:10B91400066001A89847E5E7237A01332372E1E73B
:10B92400A02F002013B50B46497A0F4C024669B983
:10B93400D4E901101C7A002C18BF01465868FBF7A3
:10B94400FFFD08B1FFF7B0FF02B010BD002119726E
:10B954006369002BF8D00121ADF806008DF80410BE
:10B9640001A89847F0E700BFA02F00204B88028869
:10B974009A4213D842889A4210D380888A8840F227
:10B98400F313984294BF031AC31A934206D800F2E1
:10B99400F310904234BF002001207047002070470C
:10B9A4000388112B70B5014648D002D8102B1ED045
:10B9B40070BD122B52D0502BFAD12F4BC288DB8989
:10B9C4009A42F5D1038A022BF2D186883046FFF7DA
:10B9D40061FF05460028EBD001F1120000F0DBF90D
:10B9E40030BB6868FBF7F2FD0028E1D009E0C37BB7
:10B9F400012BDDD14FF6FF70FFF74CFF054620B950
:10BA04000420BDE87040FFF74FBF1C4A8E880680B3
:10BA1400002303721368C5F80A300A305368436080
:10BA24001031FFF7A3FF144B6872DB89002BBFD1E1
:10BA340029463046BDE87040FFF774BF8088FFF7A1
:10BA440029FF04460028B3D04068FBF7BFFD08B1C6
:10BA5400FFF72AFF4FF6FF732380A9E78688304655
:10BA6400FFF718FF05460028A2D008310A30FFF777
:10BA74007DFF6872DCE700BFA02F0020D02F0020DC
:10BA8400F8B5064648B305460FCD154F3C460FC4DE
:10BA940095E8070084E807003068124C3C60B0B1B8
:10BAA400FFF7F3FEC0B9326813682360536863601C
:10BAB4000D480E4A4FF6FF7303800D4B40F8043FC8
:10BAC4000021FBF72BFD002818BF032004E02046CB
