:020000022000DC
:1060000000000420756302005D6302005F6302000C
:106010006163020063630200656302000000000028
:1060200000000000000000000000000067630200A4
:1060300069630200000000006B6302006D630200F0
:10604000758902006F6302002D8E0200BD8E020072
:106050006F6302006F630200818C0200959B020057
:106060006F6302006F6302006F6302006F630200E0
:106070006F6302006F6302006F6302006F630200D0
:106080006F630200156802006F6302006F63020015
:10609000B16802006F6302001DF702006F63020027
:1060A0006F6302006F6302006F6302006F630200A0
:1060B0006F6302006F630200000000000000000038
:1060C0006F6302006F6302006F6302006F63020080
:1060D0006F6302006F6302006F6302006F63020070
:1060E0006F6302005D9B02006F630200000000000E
:1060F000000000006F630200000000006F630200F8
:10610000000000000000000000000000000000008F
:10611000000000000000000000000000000000007F
:10612000000000000000000000000000000000006F
:10613000000000000000000000000000000000005F
:10614000000000000000000000000000000000004F
:10615000000000000000000000000000000000003F
:10616000000000000000000000000000000000002F
:10617000000000000000000000000000000000001F
:10618000000000000000000000000000000000000F
:1061900000000000000000000000000000000000FF
:1061A00000000000000000000000000000000000EF
:1061B00000000000000000000000000000000000DF
:1061C00000000000000000000000000000000000CF
:1061D00000000000000000000000000000000000BF
:1061E00000000000000000000000000000000000AF
:1061F000000000000000000000000000000000009F
:10620000354936480A1A02D0072291438D4634494F
:1062100034480A1A06D00722914381F309880222E2
:1062200082F3148830483149314A00F044F831484B
:106230003149324A00F03FF831483249324A00F0E1
:106240003AF832483249334A00F035F83248334997
:10625000334A00F030F833483349344A00F02BF821
:1062600033483449344A00F026F83448344900228F
:1062700000F02CF833483449002200F027F8334866
:106280003349091A082902DB002202604160314AC1
:1062900090471F481F49884205D00268043003B464
:1062A000904703BCF7E700208646EC46002000211B
:1062B000294A9047FEE7884207D0521A05D0037852
:1062C00001300B700131013AF9D17047884202D098
:1062D00002700130FAE770470000042000E003205C
:1062E0000000042000000420100403009C2E002065
:1062F000783F0020D4630200D4630200C8FC02008F
:10630000100403009C2E00209C2E002074FD02002F
:1063100074FD020074FD020074FD020074FD0200B1
:1063200074FD020074FD020074FD020010040300FD
:10633000EC140300783F0020783F0020783F0020D5
:10634000505F0020505F0020505F0020505F002011
:10635000507F00209D630200C5A70200FEE7FEE714
:10636000FEE7FEE7FEE7FEE7FEE7FEE7FEE7FEE705
:10637000704700BF1048804710484FF0070188431E
:1063800085460F4880470F48016841F4700101605D
:10639000BFF34F8FBFF36F8FFFF732BF0A480B4930
:1063A0000B4A884207D0521A05D0037801300B708F
:1063B0000131013AF9D170477163020000000420F5
:1063C000FD83020088ED00E060FD0200882E0020C1
:0463D0009C2E0020DF
:1063D4002DE9F04F394E87B04FF00009384B1B7848
:1063E4005FFA89F5AB4202D807B0BDE8F08F354BB0
:1063F400D3F800A01AF835000124D6E9001EA0F154
:106404002002C0F1200304FA02F224FA03F3134336
:1064140004FA00FC009301EA0C030293009B0EEAC9
:1064240003030393DDE9022313430AEBC50B41D0B5
:10643400009B21EA0C012EEA0303C6E9001302F0D3
:106444000FFC1AF835502049A5F12002C5F12003AC
:1064540004FA02F224FA03F31343D1E900C2AC4074
:10646400134004EA0C0105930024C3B2CDE90034BF
:10647400009A0491C5F12003A5F1200122FA03F347
:1064840002FA01F848EA03081346AB401F46DDE967
:106494000434444508BFBB420CD1DBF804304BB193
:1064A4009BF801104A1E51425141081A4142414190
:1064B4002846984709F1010990E700BFA83F00204A
:1064C400783F0020B03F0020A03F00202DE9F0419C
:1064D4008046204800F0CEFBD0BB0125A8F1200463
:1064E400C8F1200325FA03F305FA04F41C431A4BFC
:1064F400D3E9001205FA08F501EA050602EA0407E1
:1065040056EA07001E461DD1404602F0A9FB134B74
:10651400D3E9001288B129432243C3E90012D6E922
:1065240000231C430E4B0B4819681543C6E900545D
:106534000022BDE8F04100F057BB21EA050122EA40
:106544000402EAE721EA050522EA0404C3E9005447
:10655400BDE8F081803F0020A83F0020A03F00203C
:106564007C3F0020042A2DE9F34105460C461646DB
:106574003AD902F0A5FAD8B11C4B1D491D601D4B38
:10658400DFF884801C701C4B00221E600023C1E9CC
:1065940000231A49C1E90023013CE4B20026032781
:1065A400FF2C0CD1164A1748002100F00BFB03E026
:1065B40002F04EFA0028DFD002B0BDE8F08123B229
:1065C40005EBC30201A992788DF8052015F8330074
:1065D4008DF8066042468DF8047002F07BFA013CA7
:1065E400E4B20028DCD0E7E70720E5E7B03F00206D
:1065F400A03F0020783F00207C3F0020A83F0020DF
:10660400D563020074FD0200D164020070B5084D28
:10661400084E00242B789C4201D3002070BD3368BF
:10662400012113F8340002F0D1FA0134F2E700BF7B
:10663400783F0020B03F00201FB50021039001AA3D
:1066440044F20100CDE9011100F03EF805B05DF817
:1066540004FB000082B001238DF807309DF8073059
:10666400114B1860596044F2010188429A6012D0BB
:1066740044F20201884206D1DA60DA6812889A612B
:10668400DA685268DA6172B69DF80730002BFBD1E4
:1066940062B602B070471A611A6992685A611A693F
:1066A40012689A611A69ECE7B43F002000B583B020
:1066B40002900091019244F2010071466A4600F092
:1066C40003F803B000BD000072B6034B1B68DB0780
:1066D40000D500BEFFF7BEBFF0ED00E049B152B1F6
:1066E400531E1A4007D1826001608380C260104645
:1066F40070470E2070470920704710B58468C2683F
:106704008388121B934208D3C26813400268D15491
:10671400C3680133C360002010BD0420FCE7826815
:10672400C3689A420AD08268838813400268D35CA3
:106734000B70836801338360002070470520704725
:10674400094A537891780133DBB2994208BF002398
:10675400117899421FBF03705078182303FB00205F
:1067640014BF043000207047D43F002073B50546A1
:1067740000240DF107000E468DF8074000F09AFB47
:106784000DF10600FFF7DCFF90B10670094B9DF890
:10679400062045605A709DF8070000F0AFFB24B94D
:1067A400054B4FF48012C3F80021204602B070BD9F
:1067B4000424F0E7D43F002000E100E0024B4FF452
:1067C4003C6043F00103184780FD020038B50C4BD0
:1067D4000C4C4FF40032C3F8802001254FF4803371
:1067E400C4F84833C4F808336560FFF7E7FF064B85
:1067F400A56000241C60FFF7E1FF044B1C7038BD4A
:1068040000E100E000100140F0400020E1400020E1
:10681400F8B51F4B1F491B680025C1F84051C1F84A
:106824004451C1F84851C1F84C51C1F80051C1F864
:1068340004514BB3D1F8044517490968641A24F08C
:106844007F442F461A68A24209D8A41A15441A7C18
:10685400DE691AB11F74D3E905209047AEB90F4A17
:106864000F4B11781B788B4205D10133DBB2022B1D
:1068740008BF0023137012780A4B43F822500A4BC6
:106884004FF48012C3F80021F8BD3346DAE700BFA5
:10689400F440002000100140F0400020ED400020B2
:1068A400EC400020E440002000E100E02DE9F04F3E
:1068B400A14AA24913780978A14D994285B03CD0E8
:1068C4000133DBB2022B08BF002313709D491278F9
:1068D4009D4B0F6853F822003B1823F07F4300229E
:1068E4000B602B6816461446944613B942B12B60CC
:1068F40006E0196881420ED902B12B60091A1960A9
:1069040001272B68DFF848A201934FF00008BEB9B5
:10691400DFF844B266E0401A0C44D968C3F800C0FA
:10692400D3F81CE031B13A1922F07F42C3E90121C6
:10693400DE611E4601227346D7E700263746E0E7AC
:106944003446F6697F4A63681268DFF810C2A068AB
:10695400991A21F07F41614500F2A680014421602B
:10696400012222742A680023C4E90133E361002A66
:1069740040F0A3802C60CAE75A1C9BF80210D2B2E4
:1069840091428BF8002004BF00228BF800201822CB
:1069940002FB03B31A799C68022A1CD0032A12D082
:1069A400012A1FD1207CE8B9D3E90312A2605A69F5
:1069B400E2609A69654BA2611B78002B0CBF0B4601
:1069C40003466360BEE700222B681146002B67D1A3
:1069D40042B12B6006E029680A468946002A5AD14A
:1069E400002323749BF800309BF801209A42C3D102
:1069F4002B68B8F1000F04D1019A9A4201D1002FFB
:106A040043D0002B73D0D3F800A0514D4D4BD5F893
:106A140004751C68DFF848813E1B98F8003026F0A6
:106A24007F4603369BB94FF48033C5F84433C5F829
:106A34000433484B4FF400324FF00109C3F880216E
:106A44001A60C5F80090FFF7B9FE88F80090B245C7
:106A54002CBF5444A41924F07F44C5F84045D5F80C
:106A64000435DB1B23F07F43E41B033324F07F4412
:106A7400A3420AD9D5F80435C5F84035FFF79EFE80
:106A8400344B4FF40032C3F80021304B00221A700B
:106A940005B0BDE8F08F94422CD09146D2699DE7B1
:106AA40019740122DB6991E7D31A23F07F438342EF
:106AB40034BFC31A0023236052E721681368994244
:106AC40013D8591A1160E26154E7091AD8691A46B1
:106AD40038B1034618688842F7D3401A186018463C
:106AE40013462160E061DC6111E71346F2E7FFF72A
:106AF4006DFECAE74C4511D1CB692B6073B9DFF841
:106B040044E00120CDE90212CAF80800CEF80030B2
:106B14000E4B1870FFF752FEDDE902121368D269BA
:106B2400C9F81C2012B11068034413602B68994201
:106B340018BF4FF0010853E7EC400020ED4000205F
:106B4400F4400020F0400020E4400020E040002019
:106B54000010014000E100E0D43F0020FEFF7F0070
:106B6400E140002008B5FFF731FE104B00200B2256
:106B740018809A700E4B18600E4B18700E4B1870DC
:106B84000E4B4FF48012C021C3F8802183F81413F4
:106B94001A6002F18042A2F56F22C2F8080583F858
:106BA4001113074BD2F804251A6008BDD43F002006
:106BB400F4400020EC400020ED40002000E100E023
:106BC400F0400020074B9B784BB132B128B10368E9
:106BD400187C20B959745A617047072070470820FF
:106BE400704700BFD43F00202DE9F7431E4FBB7808
:106BF40005460E469046A3B398B304292FD943699A
:106C04007BB3437C0024012B0DF107000CBF8946A4
:106C1400A1468DF8074000F04DF90DF10600FFF78D
:106C24008FFDD0B101230370104B4560D3F80435B8
:106C3400C0E90498C0E902369DF806307B709DF8DF
:106C4400070000F05BF924B9094B4FF48012C3F834
:106C54000021204603B0BDE8F0830424EFE70724B5
:106C6400F7E70824F5E700BFD43F002000100140F7
:106C740000E100E0064A92783AB130B1426922B1AB
:106C8400002202740221FFF771BD0820704700BF83
:106C9400D43F00200648074A03780749D35C012201
:106CA40013B1043002F076BD0C3002F045BB00BFD6
:106CB4009C2E00203C430020204100200648074A27
:106CC40003780749D35C012213B1043002F014BDE8
:106CD4000C3002F0DDBA00BF9C2E00203C430020A3
:106CE4002141002037B50578012D05D0002D30D085
:106CF400022D23D003B030BD43681C4C19782046C4
:106D0400FFF7FBFC78B18DF800500190184B6846F2
:106D14001B689847A168E368A2885B1A9A4209D362
:106D2400FFF7B8FFE6E7A268E3689A42F2D08DF86D
:106D34000000EBE70F4B01221A70DBE7C3688DF804
:106D440000500193FFF7A6FF094B68461B6898475C
:106D5400D0E709490948FFF7E2FC10B9FFF7AEFF95
:106D6400C8E703238DF80030EEE700BFFC400020A5
:106D7400F84000200C410020214100201041002057
:106D8400F0B51F46234B89B006461A600C4600290D
:106D94003DD08A8820480968FFF7A0FC002834D138
:106DA400A289A1681D48FFF799FC00282DD11C4D2C
:106DB4000FCD6C460FC495E80F0084E80F0073698B
:106DC4000693337C174A18488DF81C70003318BF9B
:106DD40001238DF81430737C002B14BF0E23002381
:106DE4008DF81530F3680293B36803933368019305
:106DF40069467368009301F055FD30B90B4B187068
:106E04003368013301D0FFF745FF09B0F0BD072017
:106E1400FBE700BFF8400020FC40002010410020A8
:106E240088FD0200E96C02009C2E00200C41002029
:106E340070B5094C014609482678FFF770FC0546F1
:106E440046B100232370FFF725FF18B1044ACE2171
:106E5400FFF72CFC284670BD0C410020FC400020AC
:106E6400A8FD020010B501460E48FFF746FC044693
:106E7400A8B90D480D4A0378D35C63B1043002F01D
:106E84007DFC60B90A490748FFF749FC38B9BDE8F9
:106E94001040FFF713BF0C3002F042FAF1E720462E
:106EA40010BD00BF104100209C2E00203C43002058
:106EB4002141002070B5EFF3108672B60C4A946835
:106EC40001239CB993600B4B0B4DD3F880102940E0
:106ED4001160C3F88050D3F8841051604FF0FF3232
:106EE400C3F88420047006B962B670BD0370FAE773
:106EF4002441002000E100E0FC06FFBD084B9A6835
:106F040010B55AB150B9EFF3108172B6054A1C6836
:106F140014605C685460986001B962B610BD00BF2B
:106F24002441002000E100E070B5064D064600242F
:106F340055F8043B0BB1304698470134042CF7D183
:106F440070BD00BF3C410020033080B240F2FD33ED
:106F5400984230B51FD8124B1A783AB91C895D890A
:106F64002C440444A4B2B4F5806F0AD31A7DA2B9A8
:106F74009A8BDC8B2244024492B2B2F5806F0CD21D
:106F840001220A801446142202FB04335A89104455
:106F94005881002030BD0920FCE70720FAE700BF34
:106FA400704100200B4A0C4B5188142000FB013126
:106FB400CB6833B90420496810700122074801F0F6
:106FC40007B805230649137002238B80012200238E
:106FD4000968F3E75441002070410020882E002006
:106FE4003842002007B5002305490093054A096883
:106FF4000548082300F0BEFF03B05DF804FB00BFA2
:10700400384200200CFE0200882E002007B5002321
:10701400009301460823034A034800F0ABFF03B082
:107024005DF804FB04FE0200882E002013B5002343
:107034000C46009301460423074A084800F09AFFCF
:1070440038B9074B142202FB04340123237402B021
:1070540010BD0E20FBE700BF00FE0200882E0020BA
:107064007041002037B50A480A4B42689C88196869
:1070740053880325033305709BB2002000909B00C6
:1070840001EB8401044800F075FF03B030BD00BF7C
:107094005441002038420020882E002010B50146BB
:1070A400044800F043FE1C220446002108F0A7FD1A
:1070B400204610BD2442002068B10268084B9A4261
:1070C40009D14068074B984207D0013398420CBF5E
:1070D400012003207047032070470020704700BF41
:1070E400DEC0ADDEFE011EF14388033300EB8303F3
:1070F400994209D382884FF6FF739A4206D00088DA
:10710400B0FA80F0400970470220704701207047B0
:107114002DE9F8430223DFF860800B800D46174603
:1071240000F5805600F108044FF00109B4420FD273
:10713400236801330CD031462046FFF7D5FF48B110
:107144000FB187F8009002280BD14FF480632B8095
:10715400BDE8F883A368D8F80020934201D9C8F8A1
:1071640000302B886288033313442B8063880333F5
:1071740004EB8304DAE700BF68410020154A1423B6
:1071840003FB002070B50B6844680D4604F5805677
:10719400ABB15C88033403EB8404B4420DD223689E
:1071A40001330AD031462046FFF79EFF01280BD059
:1071B40010F0FF0F05D00228EFD1002003E00834BF
:1071C400EBE72C60012070BD6388033304EB830478
:1071D400E3E700BF70410020436873B504460D46E1
:1071E40063B3234AD1688B4228D31269934225D8CA
:1071F40013F0030022D11F4A2189128991421DD123
:1072040021689A68914219D11B4A51688B4203D96B
:1072140001F580518B420DD3926993420CD902F54A
:107224008052934208D201232B80B0FA80F04009A7
:1072340002B070BD0346F7E70A20F6E700232B806F
:107244001E46019601A92888FFF798FF30B92B88BC
:1072540001339BB2012B2B80F3D9E9E7019B226810
:1072640099689142EED16360024B1B892381DFE769
:10727400882E002054410020704100202DE9F8435D
:107284001C461C4B1B7806460F4615466BB372B35F
:107294006CB3DFF868804FF01409A388012B01D97F
:1072A4000A2020E009FB03F318F803302BB9214628
:1072B400A088FFF763FF20B92060A3880133A3806F
:1072C400EBE723681EB1998832889142EFD11FB150
:1072D40019883A889142EAD19A68C5E90023064B95
:1072E4001B892B810020BDE8F8830220FBE70520E1
:1072F400F9E700BF4C4100205441002070410020B8
:1073040008B5074B191D5888FFF738FF18B1BDE8B9
:107314000840FFF7A7BEBDE80840FFF743BE00BF23
:10732400544100202DE9F04FA04FDFF8A49289B01A
:107334000646B8463B6823B949469D4800F030FDEF
:107344003860D8F8005029784B1E052B00F2FA80DB
:10735400DFE813F006005E005E00EE00EE005C0164
:1073640026B1944B00225A600124ECE02B79032BC4
:107374001DD8DFE803F015022A358F490B78022B5C
:10738400084619D00B7D022B4FF0010316D11422AD
:107394005343C2180020C8545068FFF737FE03E077
:1073A40001232B71FFF71EFE002800F0BC80814BE7
:1073B40000225A600E24C6E00023E8E77D4A1370D9
:1073C4000023536041F61D54BDE07C497C480023F2
:1073D40002222B718A800122096800F0F9FDE3E79B
:1073E400764C00262E712068734DFFF70FFE754B07
:1073F400D4F800C05A8814235343EA18EE54516851
:107404002160A188C2F804C011810222A280CBE7C6
:10741400B5F814A0AA7DDFF8A0B1AEB1022AEB88BA
:1074240006D9142101FB0AB1DA1C088902440A8135
:10743400142202FB0ABAC3F57F43BAF80A20FD33CB
:107444001344AAF80A308FE7142303FB0AB31889FC
:107454005C6804EB8004062A68D8DFE802F0274D54
:1074640035431D59040041F61D54AA7DEB88022AB8
:1074740006D9142101FB0AB1DA1C088902440A81E5
:10748400142202FB0ABAC3F57F43BAF80A20FD337B
:107494001344AAF80A3056E04B484C490023436091
:1074A400AB690360FFF798FE002871D00223AB7527
:1074B400002300930423EA182146414800F05AFDB2
:1074C400002830D00E24D0E72B69002B14BF0323EF
:1074D4000123AB750023009305F10C02042304F18E
:1074E4000801EAE70123AB750022EB8800929B00B8
:1074F4002A6904F10C01E0E703290CBF05230623E4
:10750400AB7500230093042305F10802E118D4E7C6
:107514000623AB752D4B19882B4B5868FFF786FD56
:1075240004460028A1D109B0BDE8F08F0F249CE7E0
:10753400002E7FF419AF2B79012B4BD0E3B1022B32
:107544003FF440AF0F241422002103A808F057FB96
:1075540041F61D539C4208BF0024D8F8003004941F
:107564001A78023A042A00F20581DFE812F0E600F4
:10757400F20015011D01240102232B710DF10A01F2
:10758400EB68039303A8CDE90466FFF725FE08B969
:107594000A24D8E70498BDF80A108388EB8003888E
:1075A4002B81FFF743FD044627E000BF6C41002018
:1075B400244200204C410020704100203842002029
:1075C400882E0020544100203041002044420020F5
:1075D40064410020DFF8FCA103AA53463146A81DEC
:1075E400FFF74CFE044658B9BAF804100498FFF7A4
:1075F4001DFD04460A2C3FF4E5AE002CA3D192E70E
:1076040008223146504608F0FAFAF3E7002E7FF4D8
:10761400ABAE6B4B1A7BAAB11E731A78013A062AD9
:1076240090D801A151F822F0D3760200F976020035
:10763400177702001D7702004975020023770200C4
:10764400357702001A78072AE7D801A151F822F009
:10765400757602001F7602001F7602009B760200F8
:10766400AF760200CF760200CF7602009776020052
:107674001A89544901321A8100225A801A730A78ED
:10768400B2FA82F252099A720A7DB2FA82F252096D
:10769400DA72012207E04C4958688A88408803322C
:1076A40002448A8002221A70B7E7464C5A88464937
:1076B400142505FB024208685468506088881081CC
:1076C40002228A800C600622EDE70722EBE79A7A11
:1076D40032B9DA7A8AB900221A705A805A6071E68D
:1076E400384900229A72CA68002AF2D1097C00291A
:1076F400EFD05A80FFF704FE55E70022DA72314AD0
:10770400116A0029E7D192F82420002AE3D001224B
:10771400EFE7FFF7A7FC46E7FFF744FC43E7294AF6
:107724005B88142101FB03235868FFF76FFC3AE7D9
:1077340000225A60FFF756FC35E701228DF80C2031
:107744001A89ADF818209A88DB68ADF81A200593D9
:1077540010E002228DF80C201A89ADF818209A88BE
:10776400ADF81A20DA689B7D05929A1F5342534163
:107774008DF81C3003A8FFF7D7FB002649461348B1
:10778400C8F8006000F037FB0121114800F0DBFB72
:1077940000287FF4CFADC6E603228DF80C20DA88EA
:1077A400ADF818201A89CFE70422DB888DF80C2065
:1077B400ADF81830DEE705238DF80C30DAE700BFAA
:1077C400544100207041002038420020244200200F
:1077D40034420020484200204068FFF7A3BD000067
:1077E40008B50121044800F098FB18B9BDE8084029
:1077F400FFF798BD08BD00BF344200202DE9F341D6
:107804009846354B1B7806460D46002B5BD0002965
:107814005BD009884FF6FF73994258D06B88002BD0
:1078240055D06B689B0754D14AB92F890DF10201D9
:107834003846FFF789FB30B102B0BDE8F081138808
:107844005788ADF8023001A8FFF728FC044658B960
:10785400BDF80230214A142101FB0323588903385F
:10786400C01B58810820E7E700238375BDF8023068
:1078740083826B68036180F800800121184800F05E
:1078840057FB2B882381B8F1030F6B88A38004BFB7
:107894000423A3754FF0000508BF3368E06008BFF8
:1078A400A361E780658101A90E4800F069FA36B149
:1078B400E36833600C4B75601B89B5723381FFF745
:1078C4008FFF0020B8E70220B6E70520B4E70420C4
:1078D400B2E70320B0E700BF4C4100207041002014
:1078E40068410020244200205441002008B5084B80
:1078F4001A68042A09D01968064A42F821000121AD
:10790400184600F015FB002008BD0C20FCE700BF62
:10791400404200203C4100202DE9F04F14228BB05E
:1079240000210DEB020008F06AF9764A137803F09F
:10793400FF01CDE901123BB105A8FFF7F5FA0027D5
:1079440038460BB0BDE8F08F029B181D00F006FB13
:107954000028F4D140F6F8734FF080521B685C1C89
:1079640008BF694B694C08BF1B6811695269581CF0
:1079740008BF02FB01F323610022A3F540536449CD
:10798400E360204600F0EDFA039407460028D7D1BF
:107994001C238C225F496048DFF88891DFF88881D6
:1079A40000F08FF9BA463D464FF0030B3C46039B6B
:1079B400DE68564430463146FFF77EFB01284DD041
:1079C40042B2002A36D0032822D106F58052086834
:1079D400013040F08A8004319142F8D1D9F8002076
:1079E4003AB902220123C9F80060A9F804200193DE
:1079F4000CE014226243022008EB020108F80200A2
:107A0400464A4E60548001340881A4B245F0010511
:107A14000AF5805ABAF5405FC9D1BBF1010F98BF8E
:107A24000025EDB2022D03D0062D35D0002D3CD11A
:107A34000B2785E71421614308EB010008F80120B6
:107A440001F1100208314660424441443046FFF7D8
:107A54005FFB45F002050134A4B2D9E7019B63B191
:107A64001422624308EB0201022008F802000134E8
:107A7400D9F800204A600881A4B200222849C9F834
:107A840000603046FFF744FBB9F80420022A0CBF1B
:107A9400042208221543BBE7029A0123137005A8A8
:107AA40000235360FFF740FA4AE704A8FFF7F6FA09
:107AB400C8B10123013D03700A2D09D8DFE805F0A0
:107AC40006080608070807080F110F0000230371B2
:107AD40004A9114800F054F9FFF782FE30E70323AC
:107AE400F5E70223F3E708272AE70BF1FF321FFA31
:107AF40082FB1422624308EB02014E60032108F862
:107B04000210A8E74C41002014100010882E002019
:107B140020FE02009841002024420020544100200D
:107B24003C420020384200207041002073B50D46CD
:107B34000446C8B1C1B10DF10601FFF74DFBA8B170
:107B44000B4BBDF806006668142202FB00300121CD
:107B54000C3000F0EDF963682E600C336B60012388
:107B6400A372002002B070BD0520FBE70A20F9E7EC
:107B74007041002013B50446A8B10DF10601FFF7CA
:107B84002BFB90B10B4ABDF80630142101FB0323F3
:107B9400DA6862B1A27A52B1DA680020013ADA6096
:107BA400A07202B010BD0520FBE70A20F9E7062009
:107BB400F7E700BF7041002002230022FFF71EBE3A
:107BC40018B103230022FFF719BE052070470000F7
:107BD400104B1B7813B50446ABB14FF6FF739842B4
:107BE40013D001A8FFF75AFA88B1052303700123C3
:107BF4000371C48001A9084800F0C2F8FFF7F0FD42
:107C0400002002B010BD0220FBE70420F9E70820A1
:107C1400F7E700BF4C410020244200200E4B1B78A4
:107C240007B5A3B101A8FFF739FA90B10623037091
:107C340001A90A4800F0A4F8094B1A780AB10122F4
:107C44001A73FFF7CDFD002003B05DF804FB02209A
:107C5400FAE70820F8E700BF4C4100202442002046
:107C64005441002007B5ADF80600ADF804100DF13D
:107C7400060001A9FFF702FB03B05DF804FB07B59A
:107C84001346ADF806000A4600200DF10601FFF781
:107C9400F5FA03B05DF804FB07B51346ADF806002A
:107CA4000A460DF106000021FFF7E8FA03B05DF87B
:107CB40004FB20B119B103680B6000207047052054
:107CC400704710B561B1B2FBF3F403FB1424A4B202
:107CD40044B9C0E9001484608281C381204610BD88
:107CE4000E20FCE70920FAE782B050E8022FC18891
:107CF400B2EB324F4FF0000317BF92B241EA014199
:107D040042EA014104E04268B2EB324F08BF01236A
:107D140040E80212002AE8D18DF807309DF80730B8
:107D2400002B0CBF1120002002B0704737B550E87B
:107D3400013F9DB2C48925448489A54228BF2D1BD7
:107D44000489A54202BFBFF32F8F002207E0C5EAD2
:107D5400030540E80154002CE9D14FF001028DF8ED
:107D640003200193019B9DF803200B6002F0FF03A5
:107D740022B10B880068184403B030BD1846FBE7F5
:107D84000A884B889A4209D150E8012FC2EA02427C
:107D940040E80123002BF7D10120704700207047F1
:107DA40037B550E8023F1FFAA3F5C488A54202BFC5
:107DB400BFF32F8F00220DE0C48925448489A54296
:107DC40028BF2D1BC3EA054540E80254002CE8D126
:107DD4004FF001028DF803200193019B9DF80320CD
:107DE4000B6002F0FF0322B14B880068184403B013
:107DF40030BD1846FBE70A884B889A4209D150E8FF
:107E0400022FC2EA224240E80223002BF7D10120CC
:107E140070470020704701F01F024B090121914077
:107E240000EB830000F063B84B0910B501F01F04A8
:107E34000121A14000EB830000F04EF8E04000F087
:107E4400010010BD01F01F0301229A404B0900EB11
:107E54008300D14300F056B84B0901F01F0150F8DC
:107E64002300C84000F0010070472DE9F0474E1E82
:107E7400760980460F460136002558F8254008EB60
:107E84008509E44394FAA4F4B4FA84F44FEA451A55
:107E9400202C06D10135AE42EFD83C462046BDE841
:107EA400F0875444A742F5D921464046FFF7BCFF6A
:107EB4000028F3D0D9F80040E44394FAA4F4B4FAC7
:107EC40084F4E5E750E8002F0B4640E8003C9CF0C2
:107ED400000FF7D11046704750E8002F42EA010323
:107EE40040E8003C9CF0000FF6D11046704750E883
:107EF400003F43EA010240E8002C9CF0000FF6D159
:107F04001046704750E8003F03EA010240E8002CA5
:107F14009CF0000FF6D11046704750E8002F02EB9A
:107F2400010340E8003C9CF0000FF6D11046704776
:107F340050E8003F03EB010240E8002C9CF0000FE6
:107F4400F6D11046704750E8003FA3EB010240E829
:107F5400002C9CF0000FF6D1104670470121FFF76A
:107F6400BBBF0B4620B11BB1036011461B68184709
:107F74000E2070472DE9F04108B302B3D0F800E0B9
:107F8400BEF1000F1ED0FBB14768D7F80480B3FBE5
:107F9400F8F708FB1737BFB942EA010C1CF0030FCE
:107FA40014D1C768B94211D34C1E05691C44AC42B4
:107FB4000CD8DEF80C40A446BDE8F04160470E2022
:107FC400BDE8F0810820FBE70920F9E71020F7E776
:107FD400F0B5D8B1D0F800C0BCF1000F18D0CAB1C8
:107FE4004768D7F800E00EF1FF370F4214D1C76895
:107FF400B94211D34C1E05690EFB0244AC420BD8A6
:10800400DCF81040A446BDE8F04060470E20F0BD07
:108014000820FCE70920FAE71020F8E729DF704779
:1080240028DF704770B503689D6886B004460E4625
:108034006DB114220021684607F0E1FDA3680593A1
:10804400237901962BB1012B0DD06846A84706B0C1
:1080540070BD01238DF8003023690293E368039314
:1080640063690493F1E702238DF80030E3681B038E
:108074000293F5E70846704700207047024B187AD0
:10808400003018BF01207047EC420020034B187ADF
:108094000122B0FA80F05A7440097047EC42002083
:1080A40008B510461A4607F081FD002008BD0000FF
:1080B40008B514220021044807F0A1FD0348FFF786
:1080C40013FE002008BD00BFEC420020DC4200206B
:1080D40010B5094C094B43602046FFF73FFF40B9F8
:1080E40007F000FB1C2320748C2205490548FFF788
:1080F400E8FD002010BD00BFEC42002014FE020089
:1081040050420020DC42002070B5244C244E237AD7
:1081140025463BB923492448FFF742FE306008B99D
:10812400606070BD346802232B72237973B1012B14
:1081340024D020460321FFF775FF00232B726B60C8
:1081440018491948BDE87040FFF755BED4E9052326
:10815400D21AB2F5805F28BF4FF48052D4E90310DD
:108164009208012A38BF012219441844FFF756FF28
:1081740050B11128DDD101232B72D2E7D4E90303D6
:108184001844FFF74DFFF3E72B7C002BC9D10146C0
:10819400BDE87040022000F009B800BFEC420020A6
:1081A4000443002000430020DC42002038B5831E35
:1081B400012B45D8234C237A002B41D0022B09D123
:1081C400032830D0204B1B680022E2601A793AB1B0
:1081D400012A22D0637C7BBBBDE83840FFF794BF03
:1081E400D3E905128D1AB5F5805F94BF521902F5D3
:1081F40080529A619142EDD102284FF0000308BFEA
:1082040019462372104B18BF0D211868FFF70AFF97
:108214000E490F48FFF7EFFDDCE71A6901321A61D6
:108224005B699A42E7E7E3680133082B01D8E3600E
:10823400D0E70023E360DFE7BDE8384007F042BA47
:1082440038BD00BFEC42002004430020004300205E
:10825400DC42002000F0FD03012B08D1044B002276
:108264005A74421E504250411874FFF74DBF704774
:10827400EC42002010B5064C201DFFF76FFE28B914
:10828400637C1BB9BDE81040FFF73EBF10BD00BFC3
:10829400EC4200202DE9F34180460D460F4801A928
:1082A40016461F46FFF742FD0446A8B11C220021D2
:1082B40007F0A5FC2D0B0123237101A9C4F800804C
:1082C400A760E56066610548FFF75AFDFFF7D2FF36
:1082D400002002B0BDE8F0810420FAE7DC4200206F
:1082E4002DE9F74381468846104801A917461E46E2
:1082F400FFF71CFD0446B0B11C22002107F07FFCEF
:1083040000250A9BA36001A92571C4F80090C4E963
:10831400037866610548FFF733FDFFF7ABFF284696
:1083240003B0BDE8F0830420FAE700BFDC4200207C
:1083340041DF7047064B10B500241C70054B1C60D0
:10834400BFF35F8F0449054800F030F8204610BDA4
:10835400104300201443002040FE02000843002084
:1083640007B500230DF107008DF80730FEF7A2FDD5
:10837400F1EE103A23F09F03E1EE103ABFF35F8F62
:10838400094B4022C3F884219DF80700FEF7B6FD8F
:1083940007F0A8F920B1FFF7CBFF03B05DF804FBA9
:1083A40020BF40BF20BFF8E700E100E00B684A6847
:1083B4004360934208BF0023016008BF43607047D5
:1083C400436843B10268916852680B449342436026
:1083D40004BF002343607047054B1B68082B01BF93
:1083E400044B1868B0FA80F0400918BF00207047A9
:1083F400300100103401001008B54FF08043002212
:10840400C3F80C21C3F81021C3F838254FF080526B
:1084140003F54043D2F80414C3F82015D2F8081425
:10842400C3F82415D2F80C14C3F82815D2F8101484
:10843400C3F82C15D2F81414C3F83015D2F8181454
:10844400C3F83415D2F81C14C3F84015D2F820141C
:10845400C3F84415D2F82414C3F84815D2F82814E4
:10846400C3F84C15D2F82C14C3F85015D2F83014B4
:10847400C3F85415D2F83414C3F86015D2F838147C
:10848400C3F86415D2F83C14C3F86815D2F8401444
:10849400C3F86C15D2F84424C3F87025FFF79CFF89
:1084A40010B1384B384A1A60FFF796FF18B1374BB2
:1084B400FB22C3F81825FFF78FFF48B13449354B29
:1084C4000A681B6822F00F0203F00F0313430B60CA
:1084D400FFF782FF18B1304B4FF400721A604FF06F
:1084E4008043D3F80024D20744BF6FF00102C3F8DD
:1084F40000242A4AD2F8883043F47003C2F8883042
:10850400BFF34F8FBFF36F8F4FF01023D3F80022C8
:10851400002A03DBD3F80432002B2FDA204B01228C
:10852400C3F80425D3F80024002AFBD04FF010220E
:108534001221C2F80012D3F80024002AFBD04FF015
:1085440010231222C3F80422154B1A46D3F8001440
:108554000029FBD00021C3F80415D2F80034002B05
:10856400FBD0BFF34F8F0D490E4BCA6802F4E06293
:108574001343CB60BFF34F8F00BFFDE70A4B0B4A99
:108584001A6008BD8C5600404881030000F000408A
:10859400E40E0040580200104096024000ED00E056
:1085A40000E001400400FA05B02E00200090D00342
:1085B400074B185C1F288ABF064B4FF0A04300F0FE
:1085C4001F00D3F8043523FA00F000F001007047CF
:1085D40050FE020000030050074B1B5C1F2B86BF9C
:1085E40003F01F0305494FF0A041012202FA03F3EF
:1085F400C1F80835704700BF50FE02000003005068
:10860400074B1B5C1F2B86BF03F01F0305494FF06C
:10861400A041012202FA03F3C1F80C35704700BFF0
:1086240050FE02000003005008B50020FFF7E8FFE9
:108634000120FFF7E5FF0220FFF7E2FF0320BDE87A
:108644000840FFF7DDBF08B50020FFF7C5FF012094
:10865400FFF7C2FF0220FFF7BFFF0320BDE8084079
:10866400FFF7BABF0A4B185C1F288ABF094B4FF0AB
:10867400A04300F01F00D3F804250121814021EA22
:1086840002000A40C3F80805C3F80C25704700BF70
:1086940050FE020000030050074B1B5C1F2B8ABFD7
:1086A400064A4FF0A04203F01F03D2F81005D84049
:1086B400C04300F0010070474CFE0200000300506C
:1086C4000B2809D00C2809D0182809D019280CBF68
:1086D40003204FF0FF30704700207047012070479F
:1086E40002207047C20710B504460CD54FF0A043D2
:1086F4000322C3F83427C3F83827C3F83C27C3F848
:108704004027FFF791FFA3070AD54FF0A0430C229F
:10871400C3F82C27C3F83027C3F86027C3F86427AD
:1087240010BD000038B5074C051E04F1080318BF3E
:108734001C4623682BB11A6822605B682846984758
:10874400F7E738BD2043002020B9054B01225A70B9
:10875400FFF7E8BF012802D1014A9070F8E770479B
:108764001843002020B9034B01225A70FFF7DABFE7
:10877400704700BF1843002038B50B4C237883B9E9
:108784000A486360A3602361E36000F0C7F805460C
:1087940006F0A8FF08B900F0CDF80123237028469D
:1087A40038BD8525FBE700BF184300204D87020034
:1087B40037B50B4C00230DF107008DF80730FEF799
:1087C40079FBE368013BE360E56815B900F0C4F8A0
:1087D400A5709DF80700FEF791FB03B030BD00BF04
:1087E40018430020012813B509D018B103281CD060
:1087F40002B010BD0F4B0122C3F88020F8E70E4CE5
:1088040000230DF107008DF80730FEF753FB2378A2
:108814000BB9FFF7B1FFE3689DF807000133E3608C
:108824000123A370FEF76AFBE2E700F083F8FFF789
:10883400BFFFDDE700E100E0184300201FB5037827
:108844008DF800304368019383688DF80830C3685D
:108854000393054A054B684653F8213052F821101A
:10886400984705B05DF804FB2C43002034430020F6
:108874001FB503788DF800304368019383688DF841
:108884000830C3680393054A054B684653F8213002
:1088940052F82110984705B05DF804FB2C430020E2
:1088A40034430020F0B5184B0778DFF86CE043F848
:1088B4002720164B16460A6943F827204B7F0EF8EB
:1088C40007300C4684460FCC89B06D460FC594E83A
:1088D4000F0085E80F001EF80730049753B1002EEF
:1088E4000B4A694608BF32460CF1040000F028FE2A
:1088F40009B0F0BD002E074A694608BF32460CF1A4
:108904000C0000F0F1FBF3E7344300202C4300207B
:1089140041880200758802003C430020044A137910
:1089240023B9012110609180184670478520704753
:1089340040430020074B1A68D2075FBFC02283F868
:10894400002301221A604FF080430122C3F8182546
:10895400704700BF00E100E0044B01221A604FF0B1
:108964008042D2F81834DB03FBD470470C0000407B
:10897400154B07B51A687AB100221A601B68009378
:10898400009B4FF080430122C3F808230F4B587912
:1089940010B95A711B6898470D4B1A6882B10022AE
:1089A4001A601B680193019B4FF080430222C3F8B5
:1089B4000823064B1B68012003B05DF804EB18473D
:1089C40003B05DF804FB00BF0001004040430020F9
:1089D4000401004000F1804000F5C040002382B053
:1089E400036003680193019B02B0704703681F2B67
:1089F40083BF03F01F03036001484FF0A04070479A
:108A04000003005007B5019001A8FFF7EFFF019B99
:108A140000EB8300D0F8002722F44032C0F800278E
:108A2400D0F8003743EA0143C0F8003703B05DF8DB
:108A340004FB0000054B4FF0FF32072843F82020C9
:108A440084BF1B1883F85820704700BF4843002098
:108A540010B5174C94F86A3043BB04F1300330214D
:108A6400FF22013911F0FF0103F8012BF9D1C8B23B
:108A7400FFF7E0FF01310C29F9D1062200210D484E
:108A840007F0BDF80C4BC02283F8062340221A607D
:108A94004FF4BE70FFF79EFF084B4FF00042C3F83F
:108AA4000423012384F86A30002010BD0820FCE769
:108AB40048430020AC43002000E100E00060004097
:108AC400034B93F86A00003018BF0120704700BFC1
:108AD40048430020F7B53B4E3318054693F9303030
:108AE400002B6CDA8B78C3F34003002B0BBF0824F4
:108AF40000240C200820844202D1042003B0F0BDDD
:108B040056F82470013743D1701946F8242080F8B0
:108B1400304013B9331983F858508B785A0717D457
:108B2400D80737D501A80195FFF760FF019B00EB3B
:108B34008300D0F8003723F00203C0F8003722483E
:108B4400EA0805F007070123BB40875C3B438354D5
:108B540088780A7810F0020028D0A40004F1804438
:108B640004F5C0442D02D4F8103523F44F3323F414
:108B74004073C4F810351204D4F8103505F47C554C
:108B840002F4403215431D43C4F810550020B5E7E4
:108B94000134B0E701A84A780195FFF727FF019B4C
:108BA40003F5E073920040F82320C8E7083C3444FE
:108BB40094F8605045EA821284F860209EE7082009
:108BC4009CE700BF48430020AC43002073B5224C0F
:108BD4002518064695F93020072A19DD224492F813
:108BE40058309B09032B0FD1019001A8FFF7FEFE1B
:108BF400019AD0F81035D340DB0707D40221304660
:108C0400FFF700FF02B070BD012BF7D00321F6E798
:108C1400D3B2072BF6D8930003F1804303F5C04386
:108C2400D3F8100540F00100C3F8100502F140002C
:108C3400800080B2FFF7CEFE0029E3D095F93030F2
:108C440054F82330002BDDD0012303FA02F2034B46
:108C5400C3F80423D6E700BF484300200060004067
:108C640007B5019001A8FFF7C1FE019BD0F81005DC
:108C7400D84000F0010003B05DF804FB2DE9F04F8B
:108C8400002489B0CDE90244624D4FF48072012181
:108C940002F1804303F5C04390B21B68012B06D157
:108CA400D5F804330B4202D0FFF794FE0C43043290
:108CB400B2F5907F4FEA4101EAD1574B1B68012B73
:108CC4000ED14FF4BE70FFF785FE4FF0A04344F081
:108CD4000044D3F810350293504BD3F81035039366
:108CE40014F0FF0F1AD04E4F01260025264210D053
:108CF400AB0003F1804303F5C043D3F81005D3F868
:108D0400101557F8253023B1C1F30141C0F30520F4
:108D140098470135082D4FEA4606E7D1002C75DA4D
:108D24000DF1100800230493C8F804304FF0FF330A
:108D3400CDE90633DFF8E8A0DFF8E89000252F46F8
:108D440019F9014B631C48D0E4B2012324F0C00696
:108D540004F0070203FA02F2F00808AB191811F83C
:108D6400083C134239D00AEB0603A40993F93030C6
:108D74005AF823B0BBF1000F08D1032C2DD118F8F9
:108D840000C04CEA020C08F800C001E0032CF6D045
:108D940001A80196FFF72AFE019B11F8181C03F5A0
:108DA400E07C114250F82C00C0F3014005D00228A9
:108DB40013D1032C0BD1214604E003280DD1032C3D
:108DC40005D102213046FFF71DFE0135EDB2BBF19E
:108DD400000F02D021463046D8470137042FAFD1C7
:108DE400A5B14FF0A0430299D3F8102503F54073C1
:108DF4009142D3F8103502D10399994206D00292D8
:108E04000393049A059B0692079395E709B0BDE87E
:108E1400F08F00BF006000407C6100400003005000
:108E240048430020A8430020014B1B68184700BF9B
:108E3400B44300200E4B984237B50D4602D00020B3
:108E440003B030BD00230DF107008DF80730FEF7A5
:108E540031F8084B1C7914B901221D601A719DF870
:108E64000700FEF74BF8002CE9D01120E8E700BF1B
:108E740000200040B44300201F2886BF00F01F00DC
:108E8400044A4FF0A042012303FA00F0C2F8080597
:108E9400704700BF000300501F2886BF00F01F006A
:108EA400044A4FF0A042012303FA00F0C2F80C0573
:108EB400704700BF00030050114BD3F8183107B5B9
:108EC400D3B1104B104900221A60C87F1B6801936C
:108ED400FF28019B03D08B7F5BB1FFF7DDFF0023ED
:108EE4004B770B72D1E90031084803B05DF804EB0D
:108EF4001847FFF7C1FFF2E703B05DF804FB00BFBA
:108F04000030004018310040BC430020C44300201E
:108F14000023435082B043580193019B02B0704731
:108F24000A4610B54FF48E71FFF7F2FF136A916889
:108F3400C95C136A01331362C0F81C1510BD0246E4
:108F440008B54FF492710068FFF7E2FF4FF48471A3
:108F54001068FFF7DDFF136801221A6008BD8B69F2
:108F64000A4610B54FF4847123B9FFF7D1FFD0F846
:108F7400183510BDFFF7CCFF536AD168D0F8180537
:108F8400C854536A01335362F3E700001FB5012349
:108F94008DF80030044BCDE90110D3E90012684686
:108FA400904705B05DF804FBE043002030B54C4A1F
:108FB400D2F8043313F4007F85B015464FD0D2F8AD
:108FC4002431002B4BD04FF492711046FFF7A0FFD1
:108FD4004FF40173C2F80833424B93F8291009B9CE
:108FE400012151603E4902228DF80020D1F88024ED
:108FF400C1F8802403929A690292DA6801920022ED
:10900400C3E906226846D3E9001290473448D0F8F1
:109014001C315BB133490A6A4B699A420A464BD206
:1090240091F82830002B47D1FFF77AFF2C4AD2F869
:10903400443193B14FF4A2711046FFF769FF294BF5
:1090440093F8291009B1012111609A692AB100220B
:109054009A61586AD968FFF799FF05B030BDD5F811
:1090640004335B07D2D5D5F80831002BCED01D4C84
:109074001B482146FFF773FF636AA2699A4223469D
:10908400C4D1E269E1684AB12369E3600023606AFC
:10909400A261E3616362FFF779FFB7E794F82920DF
:1090A4000AB901226A600E4A4FF40170C2F808033B
:1090B40000229A61586AEEE74FF48E710848FFF770
:1090C40027FF51690029B1D00023029191688DF8DE
:1090D4000030019153616846D2E900139847A5E72F
:1090E40000200040E04300202DE9F843624F04795A
:1090F40091462C2202FB0472064692F82A200D4661
:10910400002A40F0B3805D490068FFF793FE804673
:10911400002840F0AE8029684A1C10D01F2987BF60
:1091240001F01F03564A0B464FF0A042012098401D
:1091340003F5E073C2F80805032042F823006868C9
:10914400431C0DD01F288BBF00F01F0303464C4A5D
:109154004FF0A04203F5E0734FF0000C42F823C037
:109164003368AA6995F814C0C3F824256A7DBCF154
:10917400010F4CEA0202C3F86C25C3F81405C3F8C6
:109184000C152BD1A968481C0DD01F298BBF01F0E9
:109194001F020A463A484FF0A04002F5E0724FF031
:1091A400000C40F822C0E868421C13D01F2887BF77
:1091B40000F01F0C324A84464FF0A0424FF0010EDB
:1091C4000EFA0CFE0CF5E07CC2F808E54FF0030E35
:1091D40042F82CE0C3F80805C3F810152C236343A8
:1091E400FA18C2F804902A69FA50B9F1000F2AD08B
:1091F4004FF48E7130682D7FFFF78AFE30684FF48C
:10920400A271FFF785FE32681E4BC2F80433120BBD
:1092140051B20029A8BF01F160404FEA4513BABF1B
:10922400194802F00F0500F56140DBB2B4BF4355A5
:1092340080F8003302F01F02012303FA02F2490905
:10924400124B43F8212033680422C3F800252C2351
:1092540003FB04730022C3E9062283F829205A6120
:10926400012283F82A204046BDE8F8834FF008081D
:10927400F9E74FF01108F6E7E0430020B18F020050
:10928400000300508000020014ED00E000E100E063
:109294002DE9F047214F06794FF02C0909FB06749C
:1092A40080466569002D37D16261A16025624FF463
:1092B4008E71006884F82850FFF72AFED8F8000061
:1092C400012383602146FFF72BFE6368A14693B90F
:1092D400D8F800A0226A63699A4212D3D8F8003001
:1092E400D3F81C21002AFBD00122DA602C2303FBD3
:1092F4000676002373612846BDE8F08794F8283089
:1093040043B9DAF81C31002BF8D049465046FFF730
:1093140007FEDFE70F25E9E71125ECE7E04300202E
:109324000379044A2C2101FB03235869003018BF38
:1093340001207047E04300202DE9F843394E0579B8
:109344002C2303FB056307465C6824B103684FF4D0
:109354000170C3F808032C2303FB0563986950B11B
:10936400D86900283ED024B13B684FF40172C3F899
:109374000423112433E09A61D9605862D8612C2304
:1093840003FB056393F829301BB910B93846FFF77E
:10939400D6FD4FF02C0909FB05683868D8F804306D
:1093A400002B34D14FF4A271FFF7B2FDC1463868E7
:1093B400D0F82431D0F80821D0F84441B2B90CB91E
:1093C400002BF4D02C2202FB05650022AA6123BBEA
:1093D4002CBB95F829103B680122B1B11A602046D4
:1093E400BDE8F8831961DA610120C8E7002BE9D1EF
:1093F400002CE7D14946FFF7B2FDD8F82430D8F85D
:1094040018209A42D3D82346DCE75A60E7E74FF4A2
:109414000173C0F804330024E1E70324DFE70F24D9
:10942400DDE700BFE04300200023435082B04358EF
:109434000193019B02B070471FB501238DF80030E2
:10944400044BCDE90110D3E900126846904705B0FA
:109454005DF804FB0C4400207FB5374AD2F8246140
:10946400002E48D010464FF49271FFF7DDFF02231F
:109474008DF80030D2F88034C2F880340393D2F8E7
:109484003C3502932D4BDA6801920022C3E906228F
:109494006846D3E900129047274AD2F844317BB199
:1094A4004FF4A2711046FFF7BFFF244B996939B1FD
:1094B4000021C3E90611D968D2F83C05FFF7BCFFC7
:1094C4001D4AD2F82031A3B14FF490711046FFF732
:1094D400ABFF1A4B596961B1D2F84C1502910022C5
:1094E40099688DF8002001915A616846D3E9001209
:1094F400904704B070BDD2F81031002BCCD04FF49B
:1095040088711046FFF790FF0C4BD2F83C0599691F
:109514008842C1D1DC69D96864B1D2F8005225F01F
:109524002005C2F800521A699C61DA60DE61FFF717
:1095340083FFB1E79C61FAE7002000400C4400205F
:109544002DE9F843664F06799146242202FB067200
:10955400044692F820200D46002A40F0BB80614961
:109564000068FFF767FC8046002840F0B680286852
:10957400421C10D01F2887BF00F01F035A4A03461D
:109584004FF0A0420121994003F5E073C2F8081599
:10959400032142F8231069684B1C0DD01F298BBF8F
:1095A40001F01F030B46504A4FF0A04203F5E0734D
:1095B4004FF0000C42F823C02368AA6995F814C040
:1095C400C3F824256A7DBCF1010F4CEA0202C3F8FA
:1095D4006C25C3F80C05C3F814152BD1A968481CD5
:1095E4000DD01F298BBF01F01F020A463E484FF0E1
:1095F400A04002F5E0724FF0000C40F822C0E86889
:10960400421C13D01F2887BF00F01F0C364A844623
:109614004FF0A0424FF0010E0EFA0CFE0CF5E07C68
:10962400C2F808E54FF0030E42F82CE0C3F8080531
:10963400C3F8101524237343FA18C2F804902A6956
:10964400FA50B9F1000F34D04FF4887120682D7F9F
:10965400FFF7EAFE4FF490712068FFF7E5FE4FF440
:1096640092712068FFF7E0FE20684FF4A271FFF7C3
:10967400DBFE22681D4BC2F80433120B51B20029E1
:10968400A8BF01F160404FEA4513BABF184802F081
:109694000F0500F56140DBB2B4BF435580F80033D9
:1096A40002F01F02012303FA02F24909114B43F8A5
:1096B400212023680822C3F80025242303FB067312
:1096C4000022C3E906225A61012283F82020404681
:1096D400BDE8F8834FF00808F9E74FF01108F6E702
:1096E4000C4400205D9402000003005010030200AB
:1096F40014ED00E000E100E001F06043B3F1005F2D
:109704002DE9F041074632D11B4B0679242505FB90
:10971400063598466C6964BB6A61A96000684FF4B9
:109724009071FFF781FE4FF4AC713868FFF77CFE4F
:109734003B686A69A968C3F84415C3F8482501223F
:109744009A606A6862B9D3F82021D3F8584152B9B3
:10975400002CF8D00F24242303FB06860023736116
:109764002046BDE8F081002C18BF0F24F3E7102435
:10977400F6E71124F4E700BF0C4400200379044AFF
:10978400242101FB03235869003018BF01207047CE
:109794000C440020F8B501F06043B3F1005F0446C7
:1097A4000F465ED10379304D242101FB03514868F3
:1097B40020B121684FF40476C1F80863242101FB29
:1097C40003539E6956B1D969002939D020B1236861
:1097D4004FF40472C3F80423112030E09A61DF606F
:1097E400DE614FF488712068FFF71EFE4FF4A2710A
:1097F4002068FFF719FE2368C3F83475C3F83825C9
:1098040016BB01221A602179242202FB01525268FC
:109814000ABBD3F81041D3F84421D3F824011443EC
:1098240002D10028F5D02246242303FB015500234E
:10983400984218BF03209A42AB6118BF0F20F8BDAD
:109844001F61DA610126CCE7D3F8002242F020023E
:10985400C3F80022D7E74FF40472C3F804230020AE
:10986400EDE71020EBE700BF0C4400200E4A5379CB
:1098740010B503F0FF01A3B90C4B1960116821B1B5
:10988400012454710A4AC2F8044300F1804000F5EF
:1098940024300122026011B91A68002AFCD0002089
:1098A40000E0112010BD00BF3044002000910240B0
:1098B40000900240F8B5414D2E79002E77D190F8F2
:1098C40004E0BEF1FF0F74D090F805C0BCF1FF0FA7
:1098D4006FD08779FF2F6CD0C379FF2B69D0384CB8
:1098E400C4F824E5C4F828C5C4F83075C4F8343580
:1098F400037A90F80BC0877AFF2B08BF4FF0FF3331
:10990400C4F83835437AFF2B08BF4FF0FF33C4F84F
:109914003C350368C4F84035037B9B0143EACC0320
:109924003B43477B90F810C0002F14BF80270027CB
:109934003B43C4F84435D4F80036877B23F07F4397
:1099440023F0FF033B43C77B43EA4C6390F811C009
:10995400002F14BF4FF08077002743EA0C733B437A
:10996400C4F8003601236E712960AA60C4F8083374
:1099740041B1837C134A5B01DBB282F829334FF493
:10998400007353600E49104C104E012200202A71BE
:109994001643C1F80025642520600A60236853B982
:1099A4004FF42070B047013DF8D10D20F8BD0820D8
:1099B400FCE70720FAE70020F8E700BF3044002066
:1099C4000090024000E100E00091024060FE0200CD
:1099D400444B5B792DE9F0411446054603F0FF0240
:1099E400002B73D1404E4378326011B39A1E072A7C
:1099F4001FD8DFE802F04B49471145434104CA79B7
:109A04001206887942EA0042487942EA002208793B
:109A140002433648C0F83C26CA781206887842EADF
:109A24000042487842EA002209780A432F49C1F8E3
:109A340038262E4A0121C2F80813A9781B0243EAEA
:109A4400013329780B43E97843EA4133297943EA1E
:109A54008133697943EAC133C2F83436244B64272D
:109A640043F0010833689BBB4FF42070C047013FAB
:109A7400F8D10D20BDE8F0810022C2E70022C3E73F
:109A84000022C4E70022C9E70022CAE70022CBE78C
:109A94006978D3F83C26D3F838360239072913D825
:109AA400DFE801F0110F0D0B0A080604110EE17135
:109AB400110CA171110A617122711A0EE2701A0C53
:109AC400A2701A0A627023700020D3E71120D1E734
:109AD40000233360054B0122C3F80423002CD7D1A3
:109AE4002046C7E730440020009102400090024025
:109AF40060FE020000F06043B3F1005F09D1064B41
:109B0400C3F81025C3F81405C3F818150820FFF787
:109B1400ADBE1020704700BF0090024000F06043CB
:109B2400B3F1005F09D1064BC3F80425C3F8080557
:109B3400C3F80C150420FFF799BE1020704700BF2E
:109B440000900240034BC3F81C15C3F820050C20F9
:109B5400FFF78CBE00900240054A136833B1054BF1
:109B640000205871996810601A681047704700BF48
:109B7400009102403044002000F1804000F5E040B4
:109B8400002382B0036003680193019B02B0704715
:109B9400F0B5534B534C1B6885B0002B3DD04FF4AC
:109BA400827094F82E20FFF7E7FF2AB394F82F3041
:109BB40013BB4D4B1B68002B33D04FF48070FFF761
:109BC400DBFF94F82D20638B91B28B424ED95B1A44
:109BD40021899BB26383CB1A616801EB4301434B38
:109BE400C3F82C16C3F830264FF48270FFF7C4FF75
:109BF4003F4B01221A6014E0636802932389ADF895
:109C04000C30E36800218DF8041023BB237423680F
:109C140001A89847002384F82F3094F82E30002BA5
:109C2400C7D1344B1B685BB14FF48870FFF7A4FFB6
:109C34000023237402238DF8043001A82368984775
:109C44002D4B1B6813B34FF48A70FFF795FF002365
:109C5400237405B0F0BD208B608363602081E160D4
:109C6400002AD4D1214B01221A60D0E7BCD1E36889
:109C7400012184F82F103BB1002161831B49C1F8F5
:109C84002C36C1F83026AFE76383ADE766694FF041
:109C940000470125002EDCD0B6FA86F227FA02F33B
:109CA4004632920026EA030602F1804303F5E043BC
:109CB4001B68002BEED01046FFF75EFFA2F58C72F6
:109CC400D30882F00402C2F380028DF808308DF8C4
:109CD40004508DF80920236801A89847DAE700BFEB
:109CE400047100403C4400200071004000700040BA
:109CF40004700040107100401471004038B51E4BD0
:109D0400044693F82C00A8BB1C4A19602178C2F8B9
:109D1400F0156178C2F8F415E5781874012183F818
:109D24002C1083F82D00586183F82F0083F82E50EF
:109D34006FF00043C2F808334FF48270FFF71CFF42
:109D44004FF48070FFF718FF4FF48A70FFF714FF89
:109D5400A3780B485B01DBB280F8073380230360F0
:109D64000223C2F804330DB1C2F80413C2F800157B
:109D7400002038BD0820FCE73C440020007000406F
:109D840000E100E0224B1A7C30B5002A3ED100F1FC
:109D94000C0403EB4402127922B993F82D2001320A
:109DA40083F82D2003EB4403CA790C7A1A715C7191
:109DB4008D784B782D021B0105F4E06503F0300328
:109DC4002B430D7805F003052B43CD782D0305F4C3
:109DD40080552B430D792D0405F4E0252B434D7953
:109DE40089792D0505F48015090601F080712B434E
:109DF4000B43010101F1804101F5E0410020C1F86C
:109E04001835C1F81445C1F8102530BD1120FCE700
:109E14003C440020344A70B5147C04F0FF03002C49
:109E24005FD1324C012503261574C4F80863C4F8C5
:109E34002C16C4F8305692F82D10A9420CD91C46A1
:109E4400190101F1804101F5E0410133082BC1F80A
:109E54001445C1F81045F3D100F10C03000102EBE5
:109E6400430300F1804000F5E04019795B79C0F8C4
:109E74001435C0F810151D4901230B604B6042F2E4
:109E8400107301F58271086808B9013BFBD14FF4E6
:109E94008070FFF771FE4FF48270FFF76DFE92F849
:109EA4002D30012B11D9104800210B0103F18043FF
:109EB40003F5E0430131047F457FC3F814550829B5
:109EC400C3F8104500F10200EFD192F82E10074BB1
:109ED40029B103210020C3F80413107470BD0221BA
:109EE400F8E71120FAE700BF3C440020007000406E
:109EF400264A274B70B505461220C2F808031C7C7D
:109F0400022C03D1C2F80403112070BD187C01286F
:109F14001DD1D86818B10223C2F80433F4E7DD6018
:109F2400198393F82E3063B91A4A1368002BFCD0B6
:109F34004FF48070FFF720FE144BC3F82C56C3F87F
:109F44003016124B0222C3F804230020DDE702205E
:109F540093F82E40C2F80403012600201E745D60AD
:109F64001981D8603CB1598393F82D30C2F82C562E
:109F7400C2F83036C9E7C2F82C564FF48070C2F8E4
:109F84003016FFF7F9FD20461660BEE7007000406A
:109F94003C440020007100400220FEF763BB000037
:109FA4002DE9F04781460D46FEF78AFB0328044657
:109FB40004D8012D04D025B3022D2FD0BDE8F0879D
:109FC400194D47003A18A918AE5C4A7852B1DFF827
:109FD4006880164842464FF40041FCF705FE08B974
:109FE40088F800903B192B449A78114B1A55002E8F
:109FF400E4D0104B1B68002BE0D03046BDE8F0479E
:10A0040018470A48FCF736FE074B04EB4402134496
:10A014009E78074B1B5DB342D0D1E8E7024B00EBBF
:10A0240040041C446678E2E7D044002090440020B9
:10A03400E9440020E44400206C440020022100781C
:10A04400FFF7AEBF08B5094B1B7853B10020FEF7EC
:10A05400D7FA0120FEF7D4FA0320BDE80840FEF742
:10A06400CFBABDE80840FEF7DFBA00BF6D44002058
:10A07400F8B57B4C237805461BB100232370FFF70A
:10A08400E1FF172D00F28880DFE805F00C17174375
:10A0940054657680888D888D959A9A9A9A9AC4C9BF
:10A0A400D1D9E4E4FFF7CEFF6E48FCF7E3FD6E4B35
:10A0B400002204461A702046F8BD0020FEF778FA04
:10A0C400F8B10020FEF79CFA022D0CBF4FF4E161B9
:10A0D4004FF47A61644B1D704FF400404FF4FA74EE
:10A0E4000025E0FB01454FF47A72002320462946FF
:10A0F40005F0E4FB002201465A48BDE8F840FCF7AD
:10A1040073BDFEF769FA022D0CBFC8214FF4C87164
:10A11400E0E70020FEF74CFA40B10020FEF770FAA9
:10A124004FF44871504B03221A70D5E7FEF754FAE6
:10A13400C821F7E70020FEF73BFA38B10020FEF70C
:10A144005FFA4FF47A61484B0422EDE7FEF744FAD4
:10A154004FF4C871F7E70020FEF72AFA48B100204F
:10A16400FEF74EFA404B05221A7041F69A1100226E
:10A17400C2E7FEF731FAF5E70020FEF773FA3A4B2F
:10A1840006221A70002240F6CD41B5E70020FEF702
:10A1940023FA354B07221A7000248CE70120207023
:10A1A400FEF760FAEEE701202070FEF75BFA00226A
:10A1B4004FF48041A0E7FEF746FA2B4B0C22EAE766
:10A1C4002A482B4EFCF756FDD5F1110504461CD048
:10A1D400D8B9012D13D0C8235D434FF400474FF481
:10A1E400FA7000214FF47A720023C7FB050105F0D1
:10A1F40065FB224601461D48FCF7F6FC0446022096
:10A20400FEF7EAF90123337055E70220FEF7F8F967
:10A214000023F8E7FFF716FF134B1222BBE7FFF703
:10A2240011FF0020FEF7D8F90F4B1322B3E7FFF715
:10A2340009FF0120FEF7D0F90B4B1422ABE7FFF71F
:10A2440001FF0020FEF7C8F90120FEF7C5F9064B0F
:10A254001522A0E7FEF7F7F9034B1D709CE700BF3A
:10A26400E0440020B0440020E84400207044002072
:10A274006D440020044B1B68DB0703D5034B18789F
:10A28400FFF7F6BE704700BFDC440020E84400201E
:10A29400032801D8FEF700BA00207047044B1B685E
:10A2A40013F0010301D0FFF7E3BE1846704700BF67
:10A2B400DC44002038B51C4B18601C4B10F0020421
:10A2C400054619601AD01A4B1A480E221A700F222A
:10A2D400DA7010229A7111225A72042140F26662D5
:10A2E400FCF740F9044648B9FCF790F9044628B94C
:10A2F4000146114A1148FCF765FC0446EB0711D5E9
:10A304000120FEF7EFF96CB921460D4A0D48FCF720
:10A3140059FC044630B90C4A0C480121BDE83840C8
:10A32400FCF750BC204638BDDC440020E444002047
:10A33400D044002068FE020041A002008CFE02000E
:10A3440079A2020090FE02009D9F020088FE020096
:10A35400032813D8012A0BD1012908D100F10E02D8
:10A36400D2B200EB40000C4B1A540020704700227C
:10A374000129F6D04BB24BB1022901D00720704716
:10A38400054B00EB400018444270EEE7024900EB35
:10A39400400008448270E8E7D044002008B5012258
:10A3A40002210020FFF7D4FF08B1072810D10722AB
:10A3B40002210120FFF7CCFF08B1072808D10021B2
:10A3C4000A220846FFF7C4FF10B1072808BF00207F
:10A3D40008BD00000388102B10B502D0112B1ED02D
:10A3E40010BD1A4C2168B1B901220846FFF7B0FF2D
:10A3F40008B1072824D1072202210120FFF7A8FF72
:10A4040008B107281CD1042202210020FFF7A0FF75
:10A4140008B1072814D1236801332360E0E70B4A0D
:10A424001368013B1360002BDAD1FFF7B7FF002854
:10A43400D6D0074B1B68002BD2D0BDE8104018477C
:10A44400034B1B68002BE6D09847E4E7F444002054
:10A45400F04400200D4B10B518600C4629B10120C2
:10A46400FFF716FF40B102232370094B1B6853B951
:10A47400BDE81040FFF792BFFFF70AFF08B10B23B6
:10A48400F2E72070F1E7002010BD00BFF044002087
:10A49400F444002076DF70477ADF70477CDF704732
:10A4A4008FDF7047B1DF7047014B00221A7070478D
:10A4B400FA440020FCF7C0B8154A08B51368013304
:10A4C4001360144A136801330A2B136004D9124B26
:10A4D4000121197000231360104B1B780BB100F09D
:10A4E4007FFF0F4A13680133022B136004D90D4B0D
:10A4F40001211970002313600B4A13680133022BE6
:10A50400136004D9094B012119700023136008BD9D
:10A514001858002024580020205800201F580020DC
:10A52400DC470020F8440020E0470020F9440020E4
:10A534000388212B37B504460D4675D01FD8112B3F
:10A5440040D01B2B4AD0102B1ED10720FFF7A6FEAC
:10A5540008B1FCF771F83D4BA1883D48198002F021
:10A56400EDFF08B1FCF768F82146284600F056FCD8
:10A57400384B01221A70384B00221A7004E0502B19
:10A584000DD003D83B2B57D003B030BD522B0DD088
:10A59400562BF9D113218088FFF77CFF0DE00029A9
:10A5A400F2D00146284600F041FCEDE7274800239D
:10A5B4001A4619460088FFF775FF0028E4D0FCF717
:10A5C4003BF8E1E70146284600F02BFC214B002034
:10A5D4001870214B1870FFF761FEEEE70020FFF7BB
:10A5E4005DFE1E4B1B78002BCED005F01BFA41F20A
:10A5F400893190FBF1F303FB110101F59C51083102
:10A604004FF400404FF4FA740025C0FB01454FF4A9
:10A614007A7200232046294605F050F900220146AB
:10A624000F48FCF7E1FAC8E7002301A98088ADF8D8
:10A634000430FFF735FFC0E713218088FFF72AFFB6
:10A6440008B1FBF7F9FF0020C5E700BFBA2E0020D0
:10A65400CC470020FB440020FA440020D8470020C7
:10A66400FC44002008B503784BB9054B3B211888FE
:10A67400FFF710FF18B1BDE80840FBF7DDBF08BDC8
:10A68400BA2E002008B51A4B002204381A700B2881
:10A694000AD8DFE800F017090923090A090909099A
:10A6A4000906144B01221A7008BDBFF34F8F1249DB
:10A6B400124BCA6802F4E0621343CB60BFF34F8FBE
:10A6C40000BFFDE70E4B13211888FFF7E3FE30F0BF
:10A6D4000803E9D0BDE80840FBF7AEBF084B1A8871
:10A6E4004FF6FF739A42DFD1064801F0A9FCEEE76A
:10A6F400175800201458002000ED00E00400FA056B
:10A70400BA2E00201C450020032808B507D10220DA
:10A71400FFF7C4FD18B1BDE80840FBF78DBF08BDC5
:10A7240000B5ADB0AC22002101A805F068FA0223FF
:10A73400144A8DF804304FF4967140F20153069296
:10A744004FF4FA72CDE92312ADF806300422012346
:10A75400ADF814308DF880308DF89C300DEB02018B
:10A76400094B0A482A93CDE9282201F0ACFA08B132
:10A77400FBF762FF0121054801F0A2FA2DB05DF854
:10A7840004FB00BFB62E00200DA702001C450020CC
:10A79400FBF752BF10B5044603F070FE204603F0E9
:10A7A4007FFE23780C2B06D10321034801F002FB22
:10A7B400024B01221A7010BD1C450020FA440020EF
:10A7C4002DE9F04F9F4D0FCD8FB002AC0FC42B6815
:10A7D4009D4D236000232B70FCF7C4F908B1FBF7EF
:10A7E4002BFF9A4A9A480121FCF7ECF908B1FBF7D0
:10A7F40023FF984A98480021FCF7E4F908B1FBF7D5
:10A804001BFF00F049FE00F017FE94490320FFF7F8
:10A8140051FD08B1FBF710FF07A90020FFF71AFE4E
:10A8240008B1FBF709FF9DF81C90FDF783FD08B103
:10A83400FBF702FF04F0D8FE08B1FBF7FDFE00238E
:10A8440007A90120079304F0A3FF08B1FBF7F4FE66
:10A8540007A805F005F808B1FBF7EEFE00F03CFD93
:10A8640008B1FBF7E9FE11237D488DF8043005F0AB
:10A87400F9F97B4982B201A8FFF710FE08B1FBF792
:10A88400DBFE0822002107A805F0B9F9754A4FF04C
:10A89400C87307A8CDE90723FFF7FEFD08B1FBF74E
:10A8A400CBFE0021704802F07AFD08B1FBF7C4FE2C
:10A8B4006E4B6F48019301A902F02EFE08B1FBF71D
:10A8C400BBFE01238DF8203003F1013300246233F1
:10A8D40007A968480A930794099404F041FC2146A7
:10A8E4000422684605F08BF96946634800F0A8F92C
:10A8F40008B1FBF7A1FE00F0DBFEFFF711FF1C22FD
:10A904000DEB0200002105F07AF900234FF4203208
:10A91400CDE90732ADF82A304FF470228DF82C308F
:10A92400564B09920C930322554B8DF8282007A807
:10A934000D9301F0A1FC08B1FBF77EFE03F00CFBC4
:10A9440008B1FBF779FE0522002107A805F057F9A5
:10A95400079B03F07C424B4B134307939DF8203035
:10A9640023F0030343F0030307A88DF8203003F01A
:10A9740039FB08B1FBF760FE434803F01BFB08B149
:10A98400FBF75AFE0022414902A8FEF793FF00F0AC
:10A99400D5FA3F4B3F4800224FF400411A70FCF7B0
:10A9A40023F908B1FBF748FE3B4E3C4C00F0D2FEC5
:10A9B400337823B3012000F0F9FA00F0A5FB01235A
:10A9C400237500233370364F364EDFF8DC80237D49
:10A9D40033B101214AF2010000F040FC0023237549
:10A9E40097F800A0BAF1000F10D0022000F09AFDF1
:10A9F4000123337000233B7000F0EEFA5BE0224643
:10AA040001214AF2010000F007FCDCE798F800B0ED
:10AA1400BBF1000F07D0504600F084FD01233370D2
:10AA240088F800A0E8E7DFF884A09AF80030002B4B
:10AA34003ED0012000F076FD012333708AF800B087
:10AA4400DAE700BF94FE0200FA440020BDA402002D
:10AA5400ACFE0200ADA40200A8FE020089A602001A
:10AA6400B0FE020009003C0098470020B9A402008F
:10AA7400CC470020744700208847002069A60200C4
:10AA840095A702003107100399A7020035AF020011
:10AA940017580020AC470020B42E0020E03E0020D0
:10AAA4002058002016580020F8440020F9440020C3
:10AAB4003378002BA0D194F85030E26CDFF884A0F6
:10AAC4001B034B339A4229D301238AF800302B7895
:10AAD4005BB9FFF725FEB9F1020F26D103F0DAFACC
:10AAE40008B1FBF7A9FD01232B70124B1B78CBB1E6
:10AAF400DFF854B09BF80030A3B194F8500000F094
:10AB040021FB0D4B0D481A8841F21C0100F0FAFD9F
:10AB140000238AF800308BF8003003E09AF8003004
:10AB2400002BD4D1FDF71CFC51E70321044801F0AC
:10AB340041F9D8E7FB440020BA2E0020C42E00209F
:10AB44001C450020D847002028580020A8DF704763
:10AB5400AADF704762DF7047F0B59FB00EAE0546BE
:10AB640017460021402230461C4605F048F81C22B6
:10AB740000210DEB020005F042F89DF81C2008941A
:10AB840022F01A0242F00A0220468DF81C2005F039
:10AB940069F8002480B2ADF82600ADF82400032241
:10ABA40021466846CDE90A44CDE90C4405F027F86E
:10ABB40041F21113ADF800309DF80230ADF8047085
:10ABC40023F01F0343F002038DF8023014222B7B81
:10ABD4008DF80630214602A805F011F801AB029366
:10ABE400BDF80430CDF80CD041F213429342ADF8D5
:10ABF400124013D110222499304604F0D7FF1023B9
:10AC0400ADF81030ADF814302B4602AA33F8020B1D
:10AC1400069607A9FFF79CFF1FB0F0BD41F216424C
:10AC2400934206D120222499304604F0BFFF20230A
:10AC3400E6E702222499304604F0B8FF0223DFE756
:10AC4400F0B50E4689B00446002800F0C4800029FF
:10AC540000F0C1804FF6FF734381604B04AA03F1F7
:10AC6400100C174618685968154603C50833634520
:10AC74002A46F7D1384604F10C01FFF76BFF07466B
:10AC8400002840F0A580237B8DF80E3022464FF437
:10AC9400A05303A90120ADF80C30FFF757FF074676
:10ACA400002840F095804E4D95F8373095F82720D0
:10ACB4009B0043EA4203EA7D009513438DF80B3071
:10ACC40041F21342474B31462046FFF745FF05F159
:10ACD4002A03009341F20142434B31462046FFF7D9
:10ACE4003BFF05F13A03009341F202423F4B3146E8
:10ACF4002046FFF731FF05F11C03009341F20342A4
:10AD04003B4B31462046FFF727FF05F11E03009316
:10AD140041F20442374B31462046FFF71DFF05F14F
:10AD24003003009341F20542334B31462046FFF78E
:10AD340013FF05F13203009341F206422F4B3146D3
:10AD44002046FFF709FF05F14003009341F2074253
:10AD54002B4B31462046FFF7FFFE05F142030093DB
:10AD640041F20842274B31462046FFF7F5FE05F134
:10AD74004603009341F20942234B31462046FFF734
:10AD8400EBFE0DF10B03009341F210421F4B3146D1
:10AD94002046FFF7E1FE05F13403009341F214422B
:10ADA4001B4B31462046FFF7D7FE05F144030093C1
:10ADB40041F21542174B314620461035FFF7CCFEC1
:10ADC4000095154B41F2164231462046FFF7C4FE6A
:10ADD400384609B0F0BD0E27FAE700BFB8FE0200FE
:10ADE400E03E0020C8FE0200D1FE0200EFFE020099
:10ADF4000DFF020021FF020036FF020053FF020094
:10AE040071FF02008EFF0200ACFF0200B8FF0200D7
:10AE1400CDFF0200DFFF0200F1FF02008B884381B7
:10AE240070474FF6FF734381704700003D4B01228A
:10AE340070B51A750A89A2F5A052013A06460C4665
:10AE4400152A22D8DFE802F03336393C3F4245491F
:10AE54004D2121212121215121550B585B5F1022C5
:10AE6400002104F112052F4804F0C9FE228A2D485E
:10AE7400294604F09BFE102200212B4804F0BFFE5B
:10AE8400228A2948294604F091FEE28873889A426E
:10AE94000CD14FF0A042D2F80435D94301F48031EB
:10AEA40003F48033C2F80815C2F80C3570BDA27CD7
:10AEB4005A85EAE7A27C5A87E7E7A27C9A83E4E70B
:10AEC400A27CDA83E1E7A27C1A86DEE7A27C5A86BA
:10AED400DBE7A27CA3F84020D7E7A27CA3F84220BA
:10AEE400D3E7A27CA3F84620CFE7A07C00F00AFABF
:10AEF400CBE7A27C9A64C8E7A27C9A86C5E7A27CC9
:10AF0400A3F84420C1E704220021084804F077FE96
:10AF1400228A064804F1120104F048FE00F0F4F815
:10AF2400B3E700BFE03E0020E4470020F03E0020ED
:10AF3400014B01221A707047175800201FB5402397
:10AF44008DF80730174B0022186802909B88ADF8E3
:10AF54000C30114602A8FEF73BFD18B1124A7121CC
:10AF6400FBF7A4FB00229923114602A88DF80830B0
:10AF7400FEF72EFD18B10C4A7621FBF797FB40F241
:10AF8400012300220DF1070102A8ADF80830FEF7F5
:10AF94001FFD18B1044A7C21FBF788FB05B05DF85E
:10AFA40004FB00BF050003005000030008B5074B75
:10AFB40053F820100020FEF7C5FD054A137803B9A5
:10AFC400FEE700231370034A137008BD0C0003004E
:10AFD400175800201458002038B5184C1848E26C53
:10AFE4000421FEF787FD054618B1164AA921FBF78F
:10AFF4005DFB154B1A7802B9FEE700221A70C5B939
:10B0040094F850101148E36C012222758A18043315
:10B0140050F82200E36483420BD30F290CBF84F859
:10B02400505084F8502094F8500008BFE564FFF7AE
:10B03400BDFF074B00221A7038BD00BFE03E002060
:10B04400BC2E002050000300175800200C00030001
:10B054001658002038B5134C134D162200212046F3
:10B0640004F0CDFD284604F0FDFD294602462046A5
:10B0740004F09CFD142323740C4B1B685869642151
:10B0840090FBF1F201FB120262741A690132A2749C
:10B09400DA68E2749A6822755B686375044B00226F
:10B0A4001A7038BDFA470020E03E002010580020F6
:10B0B4001558002010B54FF48052044600210D4865
:10B0C40004F09DFD0C4B0B4853F824204FF48051A1
:10B0D400FEF724FD20B1094A40F24111FBF7E6FADC
:10B0E400074A137803B9FEE700231370054A137067
:10B0F40010BD00BF104800200C00030050000300E6
:10B1040017580020155800200A490B4A0B6910688B
:10B1140010B503443C24094863430360036893FB6C
:10B12400F4F30B610023136004F036FD044B186044
:10B1340010BD00BFE03E002018580020C02E0020A3
:10B144001058002038B5214B214C1B680B210322D9
:10B15400B3FBF2F2B3FBF1F303EB42039B00A380D6
:10B164000546FFF7D1FFFFF775FF1A4BA21D03F148
:10B17400140153F8040B42F8040B8B42F9D11B88D9
:10B1840013802846FFF796FF134914484FF4805262
:10B1940004F00CFDA3881633A380114B93F85020C0
:10B1A4000F2A1FBF0132D2B20E4983F850200ABFC2
:10B1B400002251F8222083F85020DA6401221A7503
:10B1C40093F85000BDE83840FFF7F0BE185800204F
:10B1D400C42E0020FA47002010480020E02E002052
:10B1E400E03E00200C00030041DF7047074A0123C2
:10B1F4001370027812B1032A05D0704742680AB965
:10B20400034A13707047034AFBE700BF1C58002031
:10B214001E5800201D58002030B589B00023CDE908
:10B2240005330793CDE90133CDE90333154601AB6B
:10B2340005AAFCF717FD044660B903A905A8FCF7A5
:10B2440075FC582204460499284604F0AFFC05A86E
:10B25400FCF790FC204609B030BD00002DE9F04118
:10B26400002386B01A4C1B4D0593CDE90333CDE979
:10B27400013306460F46A04601AB03AA39463046C1
:10B28400FCF7F0FC0023237020B10A280FD0082813
:10B29400F2D105E0294603A8FCF792FC08280BD15B
:10B2A40098F80030002BE7D1FFF79EFFF8E7294616
:10B2B40003A8FCF781FCF1E70028DDD1FCF7AEFC24
:10B2C400044603A8FCF756FC204606B0BDE8F0810E
:10B2D4001C580020B000030038B50848FCF706FBF2
:10B2E400FCF71AFB044608B1FBF7A6F9044D2B78CA
:10B2F4000BB1204638BDFFF777FFF8E7F1B1020044
:10B304001E58002007284FF0000101D90846704755
:10B314000A4BC2B2D97583F8271012F0010118BF85
:10B32400012183F83710910744BF012183F82710C6
:10B3340092081CBF0122DA75704700BFE03E00206E
:10B344001F2886BF00F01F00044A4FF0A0420123CB
:10B3540003FA00F0C2F80C05704700BF0003005068
:10B3640008B5037853B903214068FEF7C1FD28B13D
:10B37400034A2E21BDE80840FBF798B908BD00BF79
:10B38400E600030038B5054D044645F001054FF4C9
:10B394007A40A847013CFAD138BD00BFE000030061
:10B3A4001F2886BF00F01F00044B4FF0A04300F598
:10B3B400E070032243F82020704700BF00030050D0
:10B3C4001F2886BF00F01F00044A4FF0A04201234B
:10B3D40003FA00F0C2F80805704700BF00030050EC
:10B3E40008490B7863B1084BB3F85220074B1B682C
:10B3F4009A1A0B23B3FBF2F3092B9CBF00230B70A7
:10B40400704700BF1F580020E03E00202458002051
:10B41400074808B5B0F854300133A0F85430FFF7AA
:10B42400DFFF044B1B68A0F852300123037508BDED
:10B43400E03E00202458002007B52F20FFF7B0FF7E
:10B444000C20FFF7ADFF0B20FFF7AAFFFDF700FB71
:10B4540018B10F4A6721FBF729F90023ADF804302E
:10B4640001238DF804300B4A022301A922208DF810
:10B474000630FDF72FFB18B1054A7221FBF716F9C8
:10B4840001212220FDF7A2FB03B05DF804FB00BFFD
:10B49400E600030015B4020010B51E4B8AB018680C
:10B4A40059681C4601AA03C254F8090F197A11708D
:10B4B400616804AA03C253F8120F217A1170596803
:10B4C4001B7A07AA03C2144914481370FEF716FC2A
:10B4D40018B1134A8221FBF7E9F801A90020FEF70D
:10B4E40051FC18B10E4A8521FBF7E0F804A90120AC
:10B4F400FEF748FC18B10A4A8821FBF7D7F807A9D8
:10B504000620FEF73FFC18B1054A8B21FBF7CEF865
:10B514000AB010BDBC00030065B30200D7000300ED
:10B52400E600030013B5044606281ED8DFE800F041
:10B5340004283E1D1D1D47002F20FFF741FF012059
:10B54400FFF720FF0C20FFF73BFF204B988E08B13C
:10B55400FFF718FF0DF106010020FEF75BFC0C203D
:10B56400FFF7EEFE2F20FFF7EBFE194ABDF90600A8
:10B57400184B12681A8044EA00145C8002B010BDB3
:10B584002F20FFF71DFF0120FFF7FCFE0B20FFF724
:10B5940017FF0E4BB3F8440008B1FFF7F3FE0DF1AB
:10B5A40006010120FEF736FC0B20D9E7074BB3F860
:10B5B4005420ADF806200022A3F85420D5E70DF15D
:10B5C40006010620FEF726FCCFE700BFE03E002080
:10B5D40018580020BC2E0020014A7721FBF766B8DA
:10B5E4006001030070B5047805461CB32B78022B68
:10B5F40022D0032B24D0012B01D1134A137070BD28
:10B604002B69185DFBF72EFC28B11128F8D03246BF
:10B614004B21FBF74BF80134AA8AA242F0D82B69DC
:10B62400134413F8013C0D2BE0D10A20FBF71AFC5C
:10B634001128F9E7054EEFE7054B01221A70DEE702
:10B64400034B0022FAE700BF305B002060010300D7
:10B654002858002038B50378012B20D013B1022BD1
:10B6640016D038BD0F4C104D20782844FBF7E0FB72
:10B6740023780133DBB21D44237015F8012C0A2A08
:10B6840003D00D2A01D0F32BEBD900232370E8E774
:10B69400064ADB214068BDE83840FBF707B8034A97
:10B6A400DF21F7E71D59002029580020600103001D
:10B6B40007B50F4B0F48019301A901F02DFF18B1F5
:10B6C4000D4A8621FAF7F2FF00210422684604F0AD
:10B6D40096FA0A4B0A480093694603F079FE18B1BA
:10B6E400054A8E21FAF7E2FF03B05DF804FB00BFC0
:10B6F400DDB502002459002060010300E9B5020011
:10B70400383F002030B5BFB00146144601A8F422EA
:10B71400ADF8022004F04AFA0C4D23460DF1020262
:10B7240001A9284603F0CAFE08280CD01328F4D037
:10B73400052808D043F20142904204D018B1044ACB
:10B74400AD21FAF7B3FF3FB030BD00BF383F002052
:10B754006001030030B50F4D0FCD8BB004AC0FC4A6
:10B7640095E803000C4B0D4A00934FF4807384E872
:10B774000300CDE902230193094A0723694604A87B
:10B78400FBF7FEFA20B1074A4FF48271FAF78EFFF5
:10B794000BB030BD4801030030590020305A00205E
:10B7A40059B60200600103006DDF704779DF70470E
:10B7B4007DDF704764DF70472DE9F04F85B00025C9
:10B7C4000E9CBDF83CB027880191804691469A466C
:10B7D4002E46B8F80020B2420CDC3DB12288013A72
:10B7E400D21B92B2FF2A3BD80AF80720002005B0EA
:10B7F400BDE8F08FD8F8042052F826000390002208
:10B804000DF10B0103A8FFF7D5FF0028EFD19DF838
:10B814000B204A4522D12288002D14BF002002208B
:10B8240002EB0901014459451ADC45B9013292B2CF
:10B83400019B22800AF80230228801322280228869
:10B844000DF10B01524403A8FFF7B4FF0028CED139
:10B8540021889DF80B200A44228001250136B8E78F
:10B864000C20C4E72DE9F341089CBDF82450174689
:10B87400CDE90045022206469846FFF79DFF50B9E0
:10B884004346102239463046CDE9084502B0BDE8AA
:10B89400F041FFF791BF02B0BDE8F0812DE9F04F10
:10B8A40000231688138090F82D3085B007460D4686
:10B8B400144653B3082E01D80C2027E102A8FFF741
:10B8C40073FF002840F0228123880822EA54238849
:10B8D40001339BB21B222380EA542088013080B2BA
:10B8E400208006220DF10901284404F05FF9238821
:10B8F4009DF8082006339BB212F0FE0218BF012205
:10B904002380EA54238801332380BB78FBB1238846
:10B914000433B342D0D802A8FFF748FF002840F010
:10B92400F58023880322EA54238801339BB2192229
:10B934002380EA542388BDF8082001339BB2E91818
:10B944002380EA54120A4A70238802332380FA7847
:10B954009AB12388D91CB142AED80221E954238874
:10B9640001339BB201212380E95423880B449BB209
:10B974002380EA5423880B4423807A68AAB123885D
:10B98400D91CB14298D8022192F90020E9542388A5
:10B9940001339BB20A212380E954238801339BB2EB
:10B9A4002380EA542388013323803B89002B40F011
:10B9B400A1803B8A5BB1CDE900462B4607220321D7
:10B9C40007F11000FFF74EFF002840F09F803B8BEB
:10B9D4005BB1CDE900462B461522142107F118006E
:10B9E400FFF740FF002840F091803A6A002A40F0B7
:10B9F4009080D7F82480B8F1000F30D0B8F8043024
:10BA04002188981C8A1C0244B2423FF655AFFE2896
:10BA14003FF652AF03336B54238801339BB2FF22AA
:10BA24002380EA54238801339BB22380B8F8002092
:10BA3400EA54E918120A4A702088023080B2208041
:10BA4400B8F804205AB1D8F8081000296BD028445B
:10BA540004F0ACF82388B8F804201344238097F842
:10BA64002C30002B40F09A80387800284ED03B8848
:10BA7400012B58D0228802F1020CB4453FF61CAFCA
:10BA8400012805D17B78023313449E42FFF414AF9E
:10BA9400023EB61AB6B202A905EB0C00ADF8086076
:10BAA400FFF786FE90BB3978BDF80820022900F024
:10BAB400BA807B78934202D3B24240F2B280012929
:10BAC40040F0B3809BB29E42C0F0AF80ADF8083026
